8=FIX.4.4|9=212|35=8|49=SISTEMA|52=20250630-16:02:37.657|56=DROPCOPY|1=ACC005|6=20.46|11=d0e0edb163dc|14=8579|31=20.46|32=8579|37=7d17d9fb45f9|38=8579|39=2|54=2|55=VALE3|60=20250630-16:02:37.657|150=F|453=1|448=TRADER462|452=36|10=189|1010=175526.34|1011=TRADER462|
8=FIX.4.4|9=210|35=8|49=SISTEMA|52=20250630-16:02:37.692|56=DROPCOPY|1=ACC010|6=23.3|11=5a073f141b21|14=3274|31=23.3|32=3274|37=1e30029cfaf8|38=3274|39=2|54=2|55=BBAS3|60=20250630-16:02:37.692|150=F|453=1|448=TRADER791|452=36|10=067|1010=76284.2|1011=TRADER791|
8=FIX.4.4|9=212|35=8|49=SISTEMA|52=20250630-16:02:37.692|56=DROPCOPY|1=ACC005|6=23.56|11=d0f07f4eb68b|14=8292|31=23.56|32=8292|37=83142bc9e14e|38=8292|39=2|54=1|55=RADL3|60=20250630-16:02:37.692|150=F|453=1|448=TRADER272|452=36|10=064|1010=195359.52|1011=TRADER272|
8=FIX.4.4|9=212|35=8|49=SISTEMA|52=20250630-16:02:37.692|56=DROPCOPY|1=ACC006|6=21.99|11=2f0e5772d6e7|14=7139|31=21.99|32=7139|37=b13f7ed7a1b4|38=7139|39=2|54=1|55=ABEV3|60=20250630-16:02:37.692|150=F|453=1|448=TRADER191|452=36|10=069|1010=156986.61|1011=TRADER191|
8=FIX.4.4|9=212|35=8|49=SISTEMA|52=20250630-16:02:37.693|56=DROPCOPY|1=ACC002|6=22.94|11=c7db9d69de81|14=1173|31=22.94|32=1173|37=eda681c4d459|38=1173|39=2|54=2|55=ITUB4|60=20250630-16:02:37.693|150=F|453=1|448=TRADER470|452=36|10=124|1010=26908.62|1011=TRADER470|
8=FIX.4.4|9=206|35=8|49=SISTEMA|52=20250630-16:02:37.693|56=DROPCOPY|1=ACC008|6=16|11=52893c7c16b2|14=5307|31=16|32=5307|37=78dec4b4adad|38=5307|39=2|54=2|55=BBAS3|60=20250630-16:02:37.693|150=F|453=1|448=TRADER463|452=36|10=049|1010=84912|1011=TRADER463|
8=FIX.4.4|9=210|35=8|49=SISTEMA|52=20250630-16:02:37.694|56=DROPCOPY|1=ACC009|6=15.6|11=0333ff490103|14=9006|31=15.6|32=9006|37=7e6c3174ff09|38=9006|39=2|54=2|55=PETR4|60=20250630-16:02:37.694|150=F|453=1|448=TRADER206|452=36|10=033|1010=140493.6|1011=TRADER206|
8=FIX.4.4|9=212|35=8|49=SISTEMA|52=20250630-16:02:37.694|56=DROPCOPY|1=ACC003|6=28.23|11=977018209945|14=5866|31=28.23|32=5866|37=be81712a0a87|38=5866|39=2|54=1|55=VALE3|60=20250630-16:02:37.694|150=F|453=1|448=TRADER197|452=36|10=062|1010=165597.18|1011=TRADER197|
8=FIX.4.4|9=211|35=8|49=SISTEMA|52=20250630-16:02:37.695|56=DROPCOPY|1=ACC008|6=28.92|11=e94a91426874|14=7545|31=28.92|32=7545|37=ad5b7d74c2ec|38=7545|39=2|54=1|55=VALE3|60=20250630-16:02:37.695|150=F|453=1|448=TRADER34|452=36|10=253|1010=218201.40|1011=TRADER34|
8=FIX.4.4|9=212|35=8|49=SISTEMA|52=20250630-16:02:37.695|56=DROPCOPY|1=ACC008|6=13.68|11=9bad5de3db96|14=6400|31=13.68|32=6400|37=1df6c8060658|38=6400|39=2|54=2|55=ABEV3|60=20250630-16:02:37.695|150=F|453=1|448=TRADER783|452=36|10=057|1010=87552.00|1011=TRADER783|
8=FIX.4.4|9=212|35=8|49=SISTEMA|52=20250630-16:02:37.695|56=DROPCOPY|1=ACC007|6=18.56|11=4d2ff107ac49|14=9296|31=18.56|32=9296|37=53ea5b4d44aa|38=9296|39=2|54=2|55=SUZB3|60=20250630-16:02:37.695|150=F|453=1|448=TRADER273|452=36|10=167|1010=172533.76|1011=TRADER273|
8=FIX.4.4|9=210|35=8|49=SISTEMA|52=20250630-16:02:37.696|56=DROPCOPY|1=ACC002|6=10.4|11=b0cb12a61091|14=5111|31=10.4|32=5111|37=986c42f8de18|38=5111|39=2|54=1|55=PETR4|60=20250630-16:02:37.696|150=F|453=1|448=TRADER412|452=36|10=086|1010=53154.4|1011=TRADER412|
8=FIX.4.4|9=212|35=8|49=SISTEMA|52=20250630-16:02:37.696|56=DROPCOPY|1=ACC003|6=11.93|11=7c99358a9135|14=3682|31=11.93|32=3682|37=cc90cc375f2e|38=3682|39=2|54=2|55=ABEV3|60=20250630-16:02:37.696|150=F|453=1|448=TRADER401|452=36|10=225|1010=43926.26|1011=TRADER401|
8=FIX.4.4|9=212|35=8|49=SISTEMA|52=20250630-16:02:37.697|56=DROPCOPY|1=ACC007|6=17.41|11=47db77e26f86|14=7476|31=17.41|32=7476|37=7c56be6b9ae0|38=7476|39=2|54=1|55=ABEV3|60=20250630-16:02:37.697|150=F|453=1|448=TRADER816|452=36|10=096|1010=130157.16|1011=TRADER816|
8=FIX.4.4|9=212|35=8|49=SISTEMA|52=20250630-16:02:37.697|56=DROPCOPY|1=ACC006|6=22.23|11=29a5ec7bce09|14=7725|31=22.23|32=7725|37=83fa6993c6f3|38=7725|39=2|54=1|55=RENT3|60=20250630-16:02:37.697|150=F|453=1|448=TRADER142|452=36|10=096|1010=171726.75|1011=TRADER142|
8=FIX.4.4|9=212|35=8|49=SISTEMA|52=20250630-16:02:37.698|56=DROPCOPY|1=ACC004|6=16.26|11=1669bb032f9c|14=7393|31=16.26|32=7393|37=e20e361dc6c5|38=7393|39=2|54=2|55=ABEV3|60=20250630-16:02:37.698|150=F|453=1|448=TRADER569|452=36|10=028|1010=120210.18|1011=TRADER569|
8=FIX.4.4|9=212|35=8|49=SISTEMA|52=20250630-16:02:37.698|56=DROPCOPY|1=ACC004|6=15.76|11=924c8e93de3f|14=1696|31=15.76|32=1696|37=0599d9945620|38=1696|39=2|54=2|55=SUZB3|60=20250630-16:02:37.698|150=F|453=1|448=TRADER217|452=36|10=207|1010=26728.96|1011=TRADER217|
8=FIX.4.4|9=212|35=8|49=SISTEMA|52=20250630-16:02:37.698|56=DROPCOPY|1=ACC008|6=29.52|11=bb4477e57159|14=2424|31=29.52|32=2424|37=88e063bd7ffd|38=2424|39=2|54=1|55=SUZB3|60=20250630-16:02:37.698|150=F|453=1|448=TRADER521|452=36|10=058|1010=71556.48|1011=TRADER521|
8=FIX.4.4|9=211|35=8|49=SISTEMA|52=20250630-16:02:37.698|56=DROPCOPY|1=ACC009|6=25.15|11=a1c8d2fc2c69|14=2831|31=25.15|32=2831|37=2ee9083a053e|38=2831|39=2|54=2|55=WEGE3|60=20250630-16:02:37.698|150=F|453=1|448=TRADER68|452=36|10=010|1010=71199.65|1011=TRADER68|
8=FIX.4.4|9=212|35=8|49=SISTEMA|52=20250630-16:02:37.699|56=DROPCOPY|1=ACC009|6=14.58|11=8e0148fb7b6f|14=3172|31=14.58|32=3172|37=fd7a36ac8bcd|38=3172|39=2|54=2|55=RENT3|60=20250630-16:02:37.699|150=F|453=1|448=TRADER910|452=36|10=234|1010=46247.76|1011=TRADER910|
8=FIX.4.4|9=210|35=8|49=SISTEMA|52=20250630-16:02:37.699|56=DROPCOPY|1=ACC005|6=29.4|11=7d59e2a78f01|14=3459|31=29.4|32=3459|37=13febdf103e3|38=3459|39=2|54=2|55=BBDC4|60=20250630-16:02:37.699|150=F|453=1|448=TRADER888|452=36|10=222|1010=101694.6|1011=TRADER888|
8=FIX.4.4|9=212|35=8|49=SISTEMA|52=20250630-16:02:37.700|56=DROPCOPY|1=ACC010|6=15.84|11=278432ddf5bd|14=2533|31=15.84|32=2533|37=bcc4c4fb912b|38=2533|39=2|54=1|55=PETR4|60=20250630-16:02:37.700|150=F|453=1|448=TRADER711|452=36|10=134|1010=40122.72|1011=TRADER711|
8=FIX.4.4|9=212|35=8|49=SISTEMA|52=20250630-16:02:37.700|56=DROPCOPY|1=ACC010|6=13.95|11=68fff743bc82|14=8566|31=13.95|32=8566|37=28594f577b4c|38=8566|39=2|54=2|55=BBDC4|60=20250630-16:02:37.700|150=F|453=1|448=TRADER505|452=36|10=219|1010=119495.70|1011=TRADER505|
8=FIX.4.4|9=212|35=8|49=SISTEMA|52=20250630-16:02:37.700|56=DROPCOPY|1=ACC009|6=16.78|11=e4d8fc799855|14=7802|31=16.78|32=7802|37=b34a84c11dc8|38=7802|39=2|54=2|55=VALE3|60=20250630-16:02:37.700|150=F|453=1|448=TRADER510|452=36|10=019|1010=130917.56|1011=TRADER510|
8=FIX.4.4|9=212|35=8|49=SISTEMA|52=20250630-16:02:37.701|56=DROPCOPY|1=ACC003|6=29.05|11=48e478d847f2|14=8688|31=29.05|32=8688|37=82afd304d869|38=8688|39=2|54=1|55=BBDC4|60=20250630-16:02:37.701|150=F|453=1|448=TRADER298|452=36|10=193|1010=252386.40|1011=TRADER298|
8=FIX.4.4|9=212|35=8|49=SISTEMA|52=20250630-16:02:37.702|56=DROPCOPY|1=ACC002|6=26.01|11=86cf4c5b28be|14=2178|31=26.01|32=2178|37=b29f2995111b|38=2178|39=2|54=2|55=SUZB3|60=20250630-16:02:37.702|150=F|453=1|448=TRADER140|452=36|10=008|1010=56649.78|1011=TRADER140|
8=FIX.4.4|9=212|35=8|49=SISTEMA|52=20250630-16:02:37.703|56=DROPCOPY|1=ACC002|6=10.44|11=4ed22e0d930c|14=1715|31=10.44|32=1715|37=f4a47de4162b|38=1715|39=2|54=2|55=ABEV3|60=20250630-16:02:37.703|150=F|453=1|448=TRADER952|452=36|10=003|1010=17904.60|1011=TRADER952|
8=FIX.4.4|9=212|35=8|49=SISTEMA|52=20250630-16:02:37.703|56=DROPCOPY|1=ACC010|6=21.47|11=e65f73d57cc6|14=3407|31=21.47|32=3407|37=f19f4d2fc3a1|38=3407|39=2|54=2|55=PETR4|60=20250630-16:02:37.703|150=F|453=1|448=TRADER154|452=36|10=103|1010=73148.29|1011=TRADER154|
8=FIX.4.4|9=211|35=8|49=SISTEMA|52=20250630-16:02:37.703|56=DROPCOPY|1=ACC002|6=17.28|11=080067a467f0|14=5151|31=17.28|32=5151|37=ed9faa513708|38=5151|39=2|54=2|55=RADL3|60=20250630-16:02:37.703|150=F|453=1|448=TRADER10|452=36|10=076|1010=89009.28|1011=TRADER10|
8=FIX.4.4|9=212|35=8|49=SISTEMA|52=20250630-16:02:37.704|56=DROPCOPY|1=ACC009|6=19.48|11=d5fa22173286|14=8697|31=19.48|32=8697|37=379e2789f00e|38=8697|39=2|54=1|55=RADL3|60=20250630-16:02:37.704|150=F|453=1|448=TRADER122|452=36|10=164|1010=169417.56|1011=TRADER122|
8=FIX.4.4|9=212|35=8|49=SISTEMA|52=20250630-16:02:37.704|56=DROPCOPY|1=ACC005|6=20.85|11=6f8ae26a60c0|14=7878|31=20.85|32=7878|37=058cb1155318|38=7878|39=2|54=2|55=SUZB3|60=20250630-16:02:37.704|150=F|453=1|448=TRADER925|452=36|10=217|1010=164256.30|1011=TRADER925|
8=FIX.4.4|9=212|35=8|49=SISTEMA|52=20250630-16:02:37.705|56=DROPCOPY|1=ACC002|6=10.88|11=60b8c4bd132b|14=3788|31=10.88|32=3788|37=48580413e68e|38=3788|39=2|54=2|55=VALE3|60=20250630-16:02:37.705|150=F|453=1|448=TRADER723|452=36|10=184|1010=41213.44|1011=TRADER723|
8=FIX.4.4|9=212|35=8|49=SISTEMA|52=20250630-16:02:37.705|56=DROPCOPY|1=ACC010|6=16.31|11=9e86c6dfd9b9|14=8696|31=16.31|32=8696|37=2b42a1fc29da|38=8696|39=2|54=1|55=SUZB3|60=20250630-16:02:37.705|150=F|453=1|448=TRADER501|452=36|10=199|1010=141831.76|1011=TRADER501|
8=FIX.4.4|9=212|35=8|49=SISTEMA|52=20250630-16:02:37.705|56=DROPCOPY|1=ACC002|6=22.47|11=f9ea62f938ad|14=1225|31=22.47|32=1225|37=c80d352d0c29|38=1225|39=2|54=1|55=VALE3|60=20250630-16:02:37.705|150=F|453=1|448=TRADER554|452=36|10=030|1010=27525.75|1011=TRADER554|
8=FIX.4.4|9=212|35=8|49=SISTEMA|52=20250630-16:02:37.706|56=DROPCOPY|1=ACC002|6=25.49|11=a9f1dc47e6d4|14=4962|31=25.49|32=4962|37=87b819d03d16|38=4962|39=2|54=2|55=PETR4|60=20250630-16:02:37.706|150=F|453=1|448=TRADER871|452=36|10=054|1010=126481.38|1011=TRADER871|
8=FIX.4.4|9=212|35=8|49=SISTEMA|52=20250630-16:02:37.706|56=DROPCOPY|1=ACC010|6=17.51|11=ed71af8c7c07|14=6798|31=17.51|32=6798|37=cfce180bcb5b|38=6798|39=2|54=2|55=RADL3|60=20250630-16:02:37.706|150=F|453=1|448=TRADER682|452=36|10=012|1010=119032.98|1011=TRADER682|
8=FIX.4.4|9=212|35=8|49=SISTEMA|52=20250630-16:02:37.706|56=DROPCOPY|1=ACC005|6=26.67|11=d33b52a2f44e|14=5864|31=26.67|32=5864|37=3471d5fffe0b|38=5864|39=2|54=1|55=ABEV3|60=20250630-16:02:37.706|150=F|453=1|448=TRADER938|452=36|10=117|1010=156392.88|1011=TRADER938|
8=FIX.4.4|9=212|35=8|49=SISTEMA|52=20250630-16:02:37.707|56=DROPCOPY|1=ACC007|6=10.04|11=5d61b08bff54|14=6436|31=10.04|32=6436|37=7c18de81db54|38=6436|39=2|54=2|55=ABEV3|60=20250630-16:02:37.707|150=F|453=1|448=TRADER870|452=36|10=036|1010=64617.44|1011=TRADER870|
8=FIX.4.4|9=212|35=8|49=SISTEMA|52=20250630-16:02:37.707|56=DROPCOPY|1=ACC005|6=25.24|11=70fbaef59431|14=3446|31=25.24|32=3446|37=cac085e1b2b0|38=3446|39=2|54=2|55=RENT3|60=20250630-16:02:37.707|150=F|453=1|448=TRADER708|452=36|10=099|1010=86977.04|1011=TRADER708|
8=FIX.4.4|9=210|35=8|49=SISTEMA|52=20250630-16:02:37.707|56=DROPCOPY|1=ACC007|6=15.1|11=37e5767186cb|14=8390|31=15.1|32=8390|37=1ba96207ee77|38=8390|39=2|54=1|55=WEGE3|60=20250630-16:02:37.707|150=F|453=1|448=TRADER772|452=36|10=078|1010=126689.0|1011=TRADER772|
8=FIX.4.4|9=212|35=8|49=SISTEMA|52=20250630-16:02:37.708|56=DROPCOPY|1=ACC001|6=11.65|11=0d6e53f20e03|14=2795|31=11.65|32=2795|37=c387c9204204|38=2795|39=2|54=2|55=ITUB4|60=20250630-16:02:37.708|150=F|453=1|448=TRADER394|452=36|10=131|1010=32561.75|1011=TRADER394|
8=FIX.4.4|9=212|35=8|49=SISTEMA|52=20250630-16:02:37.708|56=DROPCOPY|1=ACC007|6=29.49|11=24f03b1bf3de|14=3905|31=29.49|32=3905|37=80ab9da57005|38=3905|39=2|54=2|55=RADL3|60=20250630-16:02:37.708|150=F|453=1|448=TRADER808|452=36|10=055|1010=115158.45|1011=TRADER808|
8=FIX.4.4|9=212|35=8|49=SISTEMA|52=20250630-16:02:37.708|56=DROPCOPY|1=ACC007|6=29.59|11=16a24dbdf7df|14=3000|31=29.59|32=3000|37=42dfc67a7bcc|38=3000|39=2|54=2|55=RADL3|60=20250630-16:02:37.708|150=F|453=1|448=TRADER836|452=36|10=223|1010=88770.00|1011=TRADER836|
8=FIX.4.4|9=212|35=8|49=SISTEMA|52=20250630-16:02:37.709|56=DROPCOPY|1=ACC007|6=26.31|11=13b33fdc8bd5|14=1350|31=26.31|32=1350|37=eeaa1aac2b15|38=1350|39=2|54=1|55=RADL3|60=20250630-16:02:37.709|150=F|453=1|448=TRADER835|452=36|10=192|1010=35518.50|1011=TRADER835|
8=FIX.4.4|9=212|35=8|49=SISTEMA|52=20250630-16:02:37.709|56=DROPCOPY|1=ACC009|6=12.55|11=62a2be677050|14=3964|31=12.55|32=3964|37=9d3cecdfe803|38=3964|39=2|54=2|55=BBAS3|60=20250630-16:02:37.709|150=F|453=1|448=TRADER297|452=36|10=059|1010=49748.20|1011=TRADER297|
8=FIX.4.4|9=212|35=8|49=SISTEMA|52=20250630-16:02:37.709|56=DROPCOPY|1=ACC007|6=27.26|11=4e679c0a0a9a|14=2244|31=27.26|32=2244|37=2f6cde17effe|38=2244|39=2|54=1|55=ITUB4|60=20250630-16:02:37.709|150=F|453=1|448=TRADER994|452=36|10=217|1010=61171.44|1011=TRADER994|
8=FIX.4.4|9=212|35=8|49=SISTEMA|52=20250630-16:02:37.711|56=DROPCOPY|1=ACC003|6=14.09|11=5ced51dffc2e|14=6718|31=14.09|32=6718|37=763b5671af1b|38=6718|39=2|54=2|55=SUZB3|60=20250630-16:02:37.711|150=F|453=1|448=TRADER679|452=36|10=185|1010=94656.62|1011=TRADER679|
8=FIX.4.4|9=212|35=8|49=SISTEMA|52=20250630-16:02:37.711|56=DROPCOPY|1=ACC006|6=12.07|11=265e55640780|14=2927|31=12.07|32=2927|37=4fa1802b879c|38=2927|39=2|54=1|55=BBDC4|60=20250630-16:02:37.711|150=F|453=1|448=TRADER218|452=36|10=034|1010=35328.89|1011=TRADER218|
8=FIX.4.4|9=212|35=8|49=SISTEMA|52=20250630-16:02:37.711|56=DROPCOPY|1=ACC009|6=21.95|11=4d12b4f17ed3|14=6792|31=21.95|32=6792|37=6ed941c042c2|38=6792|39=2|54=1|55=BBDC4|60=20250630-16:02:37.711|150=F|453=1|448=TRADER852|452=36|10=241|1010=149084.40|1011=TRADER852|
8=FIX.4.4|9=210|35=8|49=SISTEMA|52=20250630-16:02:37.712|56=DROPCOPY|1=ACC007|6=25.4|11=ff890f9d7fba|14=4962|31=25.4|32=4962|37=3f042b998be1|38=4962|39=2|54=2|55=ABEV3|60=20250630-16:02:37.712|150=F|453=1|448=TRADER619|452=36|10=011|1010=126034.8|1011=TRADER619|
8=FIX.4.4|9=212|35=8|49=SISTEMA|52=20250630-16:02:37.712|56=DROPCOPY|1=ACC002|6=11.42|11=1e08da6e453d|14=3076|31=11.42|32=3076|37=965c3a266f1d|38=3076|39=2|54=2|55=SUZB3|60=20250630-16:02:37.712|150=F|453=1|448=TRADER224|452=36|10=000|1010=35127.92|1011=TRADER224|
8=FIX.4.4|9=210|35=8|49=SISTEMA|52=20250630-16:02:37.712|56=DROPCOPY|1=ACC002|6=14.5|11=d79fa8df684b|14=3194|31=14.5|32=3194|37=e01d43f320c9|38=3194|39=2|54=2|55=WEGE3|60=20250630-16:02:37.712|150=F|453=1|448=TRADER625|452=36|10=197|1010=46313.0|1011=TRADER625|
8=FIX.4.4|9=212|35=8|49=SISTEMA|52=20250630-16:02:37.713|56=DROPCOPY|1=ACC007|6=13.83|11=96095a890ca6|14=1519|31=13.83|32=1519|37=c5239780d101|38=1519|39=2|54=2|55=ITUB4|60=20250630-16:02:37.713|150=F|453=1|448=TRADER562|452=36|10=077|1010=21007.77|1011=TRADER562|
8=FIX.4.4|9=212|35=8|49=SISTEMA|52=20250630-16:02:37.713|56=DROPCOPY|1=ACC007|6=14.94|11=0d7670599df6|14=1254|31=14.94|32=1254|37=7fdfb803230e|38=1254|39=2|54=1|55=WEGE3|60=20250630-16:02:37.713|150=F|453=1|448=TRADER193|452=36|10=210|1010=18734.76|1011=TRADER193|
8=FIX.4.4|9=212|35=8|49=SISTEMA|52=20250630-16:02:37.713|56=DROPCOPY|1=ACC003|6=23.22|11=e5b28678693d|14=7205|31=23.22|32=7205|37=c6765a5ea310|38=7205|39=2|54=1|55=RADL3|60=20250630-16:02:37.713|150=F|453=1|448=TRADER629|452=36|10=144|1010=167300.10|1011=TRADER629|
8=FIX.4.4|9=212|35=8|49=SISTEMA|52=20250630-16:02:37.714|56=DROPCOPY|1=ACC002|6=11.07|11=80cb472fe751|14=7558|31=11.07|32=7558|37=b0a6d7136503|38=7558|39=2|54=2|55=ITUB4|60=20250630-16:02:37.714|150=F|453=1|448=TRADER707|452=36|10=174|1010=83667.06|1011=TRADER707|
8=FIX.4.4|9=212|35=8|49=SISTEMA|52=20250630-16:02:37.714|56=DROPCOPY|1=ACC010|6=25.53|11=161061c33acb|14=7769|31=25.53|32=7769|37=450d35d4f5af|38=7769|39=2|54=1|55=RADL3|60=20250630-16:02:37.714|150=F|453=1|448=TRADER299|452=36|10=013|1010=198342.57|1011=TRADER299|
8=FIX.4.4|9=211|35=8|49=SISTEMA|52=20250630-16:02:37.714|56=DROPCOPY|1=ACC010|6=15.42|11=faf6e2ffea1a|14=7235|31=15.42|32=7235|37=b14cb5862c20|38=7235|39=2|54=2|55=BBAS3|60=20250630-16:02:37.714|150=F|453=1|448=TRADER25|452=36|10=098|1010=111563.70|1011=TRADER25|
8=FIX.4.4|9=212|35=8|49=SISTEMA|52=20250630-16:02:37.715|56=DROPCOPY|1=ACC002|6=24.23|11=85ff167006fa|14=5995|31=24.23|32=5995|37=1cf77b9a4f30|38=5995|39=2|54=1|55=PETR4|60=20250630-16:02:37.715|150=F|453=1|448=TRADER341|452=36|10=042|1010=145258.85|1011=TRADER341|
8=FIX.4.4|9=212|35=8|49=SISTEMA|52=20250630-16:02:37.715|56=DROPCOPY|1=ACC010|6=23.01|11=b74a58c557a0|14=2629|31=23.01|32=2629|37=db72831ba7c2|38=2629|39=2|54=2|55=SUZB3|60=20250630-16:02:37.715|150=F|453=1|448=TRADER937|452=36|10=013|1010=60493.29|1011=TRADER937|
8=FIX.4.4|9=212|35=8|49=SISTEMA|52=20250630-16:02:37.715|56=DROPCOPY|1=ACC008|6=20.01|11=e8a06f012b90|14=7298|31=20.01|32=7298|37=5b39751097a9|38=7298|39=2|54=2|55=BBAS3|60=20250630-16:02:37.715|150=F|453=1|448=TRADER552|452=36|10=104|1010=146032.98|1011=TRADER552|
8=FIX.4.4|9=212|35=8|49=SISTEMA|52=20250630-16:02:37.716|56=DROPCOPY|1=ACC006|6=23.65|11=f63f363553c4|14=4011|31=23.65|32=4011|37=1c6a5e955d39|38=4011|39=2|54=1|55=ITUB4|60=20250630-16:02:37.716|150=F|453=1|448=TRADER645|452=36|10=160|1010=94860.15|1011=TRADER645|
8=FIX.4.4|9=212|35=8|49=SISTEMA|52=20250630-16:02:37.716|56=DROPCOPY|1=ACC006|6=12.54|11=dcd02c276f03|14=7051|31=12.54|32=7051|37=76c07dd5dce3|38=7051|39=2|54=2|55=ABEV3|60=20250630-16:02:37.716|150=F|453=1|448=TRADER804|452=36|10=066|1010=88419.54|1011=TRADER804|
8=FIX.4.4|9=212|35=8|49=SISTEMA|52=20250630-16:02:37.717|56=DROPCOPY|1=ACC008|6=18.78|11=df002aa7f4f0|14=6759|31=18.78|32=6759|37=5de887f90216|38=6759|39=2|54=1|55=BBDC4|60=20250630-16:02:37.717|150=F|453=1|448=TRADER921|452=36|10=028|1010=126934.02|1011=TRADER921|
8=FIX.4.4|9=212|35=8|49=SISTEMA|52=20250630-16:02:37.717|56=DROPCOPY|1=ACC009|6=19.72|11=f997f6056cd3|14=4375|31=19.72|32=4375|37=7750aaed5e2b|38=4375|39=2|54=1|55=ITUB4|60=20250630-16:02:37.717|150=F|453=1|448=TRADER666|452=36|10=100|1010=86275.00|1011=TRADER666|
8=FIX.4.4|9=212|35=8|49=SISTEMA|52=20250630-16:02:37.718|56=DROPCOPY|1=ACC009|6=14.45|11=570287f84652|14=9885|31=14.45|32=9885|37=aa1b333d947b|38=9885|39=2|54=2|55=RADL3|60=20250630-16:02:37.718|150=F|453=1|448=TRADER400|452=36|10=150|1010=142838.25|1011=TRADER400|
8=FIX.4.4|9=212|35=8|49=SISTEMA|52=20250630-16:02:37.718|56=DROPCOPY|1=ACC009|6=17.32|11=d0831e8f3a2c|14=4373|31=17.32|32=4373|37=5a61970d3f3f|38=4373|39=2|54=2|55=SUZB3|60=20250630-16:02:37.718|150=F|453=1|448=TRADER578|452=36|10=041|1010=75740.36|1011=TRADER578|
8=FIX.4.4|9=210|35=8|49=SISTEMA|52=20250630-16:02:37.718|56=DROPCOPY|1=ACC009|6=15.8|11=cbe2479d05c0|14=2403|31=15.8|32=2403|37=cdfe35864fed|38=2403|39=2|54=1|55=ITUB4|60=20250630-16:02:37.718|150=F|453=1|448=TRADER651|452=36|10=049|1010=37967.4|1011=TRADER651|
8=FIX.4.4|9=212|35=8|49=SISTEMA|52=20250630-16:02:37.719|56=DROPCOPY|1=ACC008|6=17.28|11=291aa62b212d|14=4319|31=17.28|32=4319|37=7f3a61e8cf08|38=4319|39=2|54=1|55=VALE3|60=20250630-16:02:37.719|150=F|453=1|448=TRADER471|452=36|10=007|1010=74632.32|1011=TRADER471|
8=FIX.4.4|9=212|35=8|49=SISTEMA|52=20250630-16:02:37.719|56=DROPCOPY|1=ACC010|6=11.58|11=4f8ec6b3be54|14=7431|31=11.58|32=7431|37=3d623be63c43|38=7431|39=2|54=2|55=PETR4|60=20250630-16:02:37.719|150=F|453=1|448=TRADER542|452=36|10=066|1010=86050.98|1011=TRADER542|
8=FIX.4.4|9=212|35=8|49=SISTEMA|52=20250630-16:02:37.720|56=DROPCOPY|1=ACC001|6=15.24|11=5e2e8efc478e|14=3733|31=15.24|32=3733|37=5d33a54595b2|38=3733|39=2|54=1|55=PETR4|60=20250630-16:02:37.720|150=F|453=1|448=TRADER674|452=36|10=018|1010=56890.92|1011=TRADER674|
8=FIX.4.4|9=212|35=8|49=SISTEMA|52=20250630-16:02:37.720|56=DROPCOPY|1=ACC010|6=10.87|11=a64d4da074b8|14=1401|31=10.87|32=1401|37=7938cedca4bf|38=1401|39=2|54=1|55=RADL3|60=20250630-16:02:37.720|150=F|453=1|448=TRADER743|452=36|10=101|1010=15228.87|1011=TRADER743|
8=FIX.4.4|9=212|35=8|49=SISTEMA|52=20250630-16:02:37.720|56=DROPCOPY|1=ACC001|6=29.52|11=5a34272fc5e4|14=6866|31=29.52|32=6866|37=97e67c7a40c8|38=6866|39=2|54=2|55=PETR4|60=20250630-16:02:37.720|150=F|453=1|448=TRADER192|452=36|10=004|1010=202684.32|1011=TRADER192|
8=FIX.4.4|9=212|35=8|49=SISTEMA|52=20250630-16:02:37.721|56=DROPCOPY|1=ACC005|6=25.35|11=94392a06373a|14=1255|31=25.35|32=1255|37=2dee1b48130f|38=1255|39=2|54=2|55=BBDC4|60=20250630-16:02:37.721|150=F|453=1|448=TRADER101|452=36|10=097|1010=31814.25|1011=TRADER101|
8=FIX.4.4|9=212|35=8|49=SISTEMA|52=20250630-16:02:37.721|56=DROPCOPY|1=ACC009|6=18.25|11=72648d074921|14=5582|31=18.25|32=5582|37=481a015e64ca|38=5582|39=2|54=1|55=PETR4|60=20250630-16:02:37.721|150=F|453=1|448=TRADER629|452=36|10=094|1010=101871.50|1011=TRADER629|
8=FIX.4.4|9=211|35=8|49=SISTEMA|52=20250630-16:02:37.721|56=DROPCOPY|1=ACC004|6=21.07|11=b42343e9ad49|14=7393|31=21.07|32=7393|37=8bf6bd381c3d|38=7393|39=2|54=1|55=ABEV3|60=20250630-16:02:37.721|150=F|453=1|448=TRADER18|452=36|10=243|1010=155770.51|1011=TRADER18|
8=FIX.4.4|9=212|35=8|49=SISTEMA|52=20250630-16:02:37.722|56=DROPCOPY|1=ACC002|6=14.45|11=75c6ea74c465|14=1500|31=14.45|32=1500|37=807432a5a08d|38=1500|39=2|54=2|55=WEGE3|60=20250630-16:02:37.722|150=F|453=1|448=TRADER283|452=36|10=122|1010=21675.00|1011=TRADER283|
8=FIX.4.4|9=211|35=8|49=SISTEMA|52=20250630-16:02:37.723|56=DROPCOPY|1=ACC005|6=13.55|11=8ee8b28cf189|14=6828|31=13.55|32=6828|37=d1ac4ed4bd34|38=6828|39=2|54=1|55=VALE3|60=20250630-16:02:37.723|150=F|453=1|448=TRADER79|452=36|10=123|1010=92519.40|1011=TRADER79|
8=FIX.4.4|9=212|35=8|49=SISTEMA|52=20250630-16:02:37.723|56=DROPCOPY|1=ACC002|6=12.82|11=e76992c6dbb7|14=5741|31=12.82|32=5741|37=663f711ba32e|38=5741|39=2|54=2|55=VALE3|60=20250630-16:02:37.723|150=F|453=1|448=TRADER164|452=36|10=255|1010=73599.62|1011=TRADER164|
8=FIX.4.4|9=212|35=8|49=SISTEMA|52=20250630-16:02:37.724|56=DROPCOPY|1=ACC008|6=28.74|11=8c78509a4bf7|14=4282|31=28.74|32=4282|37=9ee21cc61de3|38=4282|39=2|54=1|55=BBAS3|60=20250630-16:02:37.724|150=F|453=1|448=TRADER546|452=36|10=057|1010=123064.68|1011=TRADER546|
8=FIX.4.4|9=212|35=8|49=SISTEMA|52=20250630-16:02:37.724|56=DROPCOPY|1=ACC002|6=15.61|11=74c7b8fd3eb1|14=5778|31=15.61|32=5778|37=c7a7cb95d531|38=5778|39=2|54=2|55=RENT3|60=20250630-16:02:37.724|150=F|453=1|448=TRADER190|452=36|10=140|1010=90194.58|1011=TRADER190|
8=FIX.4.4|9=212|35=8|49=SISTEMA|52=20250630-16:02:37.725|56=DROPCOPY|1=ACC004|6=25.48|11=fee3fc228068|14=4892|31=25.48|32=4892|37=9d4faab943bb|38=4892|39=2|54=1|55=BBAS3|60=20250630-16:02:37.725|150=F|453=1|448=TRADER939|452=36|10=168|1010=124648.16|1011=TRADER939|
8=FIX.4.4|9=212|35=8|49=SISTEMA|52=20250630-16:02:37.725|56=DROPCOPY|1=ACC006|6=11.84|11=df32d89688b0|14=2952|31=11.84|32=2952|37=ed6f506eead3|38=2952|39=2|54=1|55=ABEV3|60=20250630-16:02:37.725|150=F|453=1|448=TRADER793|452=36|10=110|1010=34951.68|1011=TRADER793|
8=FIX.4.4|9=212|35=8|49=SISTEMA|52=20250630-16:02:37.726|56=DROPCOPY|1=ACC007|6=26.34|11=582e55735513|14=3879|31=26.34|32=3879|37=295bd29654a7|38=3879|39=2|54=1|55=BBDC4|60=20250630-16:02:37.726|150=F|453=1|448=TRADER400|452=36|10=029|1010=102172.86|1011=TRADER400|
8=FIX.4.4|9=212|35=8|49=SISTEMA|52=20250630-16:02:37.726|56=DROPCOPY|1=ACC001|6=15.41|11=e29202dd5b4a|14=9757|31=15.41|32=9757|37=b16a2c177767|38=9757|39=2|54=2|55=ABEV3|60=20250630-16:02:37.726|150=F|453=1|448=TRADER861|452=36|10=220|1010=150355.37|1011=TRADER861|
8=FIX.4.4|9=211|35=8|49=SISTEMA|52=20250630-16:02:37.726|56=DROPCOPY|1=ACC004|6=21.48|11=7ceb42ff1670|14=4414|31=21.48|32=4414|37=501f7c3b804d|38=4414|39=2|54=1|55=ABEV3|60=20250630-16:02:37.726|150=F|453=1|448=TRADER31|452=36|10=175|1010=94812.72|1011=TRADER31|
8=FIX.4.4|9=209|35=8|49=SISTEMA|52=20250630-16:02:37.727|56=DROPCOPY|1=ACC001|6=26.5|11=29d2f97654ed|14=5759|31=26.5|32=5759|37=8c1895e2b65f|38=5759|39=2|54=1|55=BBDC4|60=20250630-16:02:37.727|150=F|453=1|448=TRADER35|452=36|10=089|1010=152613.5|1011=TRADER35|
8=FIX.4.4|9=212|35=8|49=SISTEMA|52=20250630-16:02:37.727|56=DROPCOPY|1=ACC005|6=10.04|11=bdf1b6f2cb4e|14=5539|31=10.04|32=5539|37=f7926a237f5f|38=5539|39=2|54=1|55=PETR4|60=20250630-16:02:37.727|150=F|453=1|448=TRADER777|452=36|10=180|1010=55611.56|1011=TRADER777|
8=FIX.4.4|9=212|35=8|49=SISTEMA|52=20250630-16:02:37.727|56=DROPCOPY|1=ACC004|6=15.53|11=787887d656bf|14=2807|31=15.53|32=2807|37=2e46a6e21b41|38=2807|39=2|54=2|55=ABEV3|60=20250630-16:02:37.727|150=F|453=1|448=TRADER211|452=36|10=162|1010=43592.71|1011=TRADER211|
8=FIX.4.4|9=212|35=8|49=SISTEMA|52=20250630-16:02:37.727|56=DROPCOPY|1=ACC003|6=12.26|11=b644192b6b10|14=3829|31=12.26|32=3829|37=eaa3f7d642e9|38=3829|39=2|54=1|55=BBAS3|60=20250630-16:02:37.727|150=F|453=1|448=TRADER752|452=36|10=248|1010=46943.54|1011=TRADER752|
8=FIX.4.4|9=212|35=8|49=SISTEMA|52=20250630-16:02:37.728|56=DROPCOPY|1=ACC009|6=25.09|11=1da40f51e059|14=4353|31=25.09|32=4353|37=c15f01852fe4|38=4353|39=2|54=2|55=RADL3|60=20250630-16:02:37.728|150=F|453=1|448=TRADER408|452=36|10=202|1010=109216.77|1011=TRADER408|
8=FIX.4.4|9=212|35=8|49=SISTEMA|52=20250630-16:02:37.728|56=DROPCOPY|1=ACC005|6=25.99|11=d84647bd21bb|14=1839|31=25.99|32=1839|37=725e26232d2e|38=1839|39=2|54=2|55=RADL3|60=20250630-16:02:37.728|150=F|453=1|448=TRADER171|452=36|10=235|1010=47795.61|1011=TRADER171|
8=FIX.4.4|9=212|35=8|49=SISTEMA|52=20250630-16:02:37.728|56=DROPCOPY|1=ACC008|6=11.82|11=328acf1a4b6c|14=7826|31=11.82|32=7826|37=2cfeb104e544|38=7826|39=2|54=1|55=BBAS3|60=20250630-16:02:37.728|150=F|453=1|448=TRADER620|452=36|10=083|1010=92503.32|1011=TRADER620|
8=FIX.4.4|9=210|35=8|49=SISTEMA|52=20250630-16:02:37.728|56=DROPCOPY|1=ACC003|6=25.1|11=2cf8a2593ebe|14=3108|31=25.1|32=3108|37=fffccff7e4ac|38=3108|39=2|54=2|55=ABEV3|60=20250630-16:02:37.728|150=F|453=1|448=TRADER613|452=36|10=214|1010=78010.8|1011=TRADER613|
8=FIX.4.4|9=212|35=8|49=SISTEMA|52=20250630-16:02:37.729|56=DROPCOPY|1=ACC003|6=10.99|11=5160fd094756|14=8695|31=10.99|32=8695|37=406f369f54e2|38=8695|39=2|54=2|55=BBAS3|60=20250630-16:02:37.729|150=F|453=1|448=TRADER268|452=36|10=114|1010=95558.05|1011=TRADER268|
8=FIX.4.4|9=212|35=8|49=SISTEMA|52=20250630-16:02:37.729|56=DROPCOPY|1=ACC003|6=16.97|11=b37458b00bc4|14=5812|31=16.97|32=5812|37=c00446410d85|38=5812|39=2|54=2|55=BBDC4|60=20250630-16:02:37.729|150=F|453=1|448=TRADER764|452=36|10=093|1010=98629.64|1011=TRADER764|
8=FIX.4.4|9=212|35=8|49=SISTEMA|52=20250630-16:02:37.729|56=DROPCOPY|1=ACC007|6=21.65|11=b95502780916|14=1372|31=21.65|32=1372|37=a6bf8d961efd|38=1372|39=2|54=1|55=WEGE3|60=20250630-16:02:37.729|150=F|453=1|448=TRADER790|452=36|10=225|1010=29703.80|1011=TRADER790|
8=FIX.4.4|9=212|35=8|49=SISTEMA|52=20250630-16:02:37.730|56=DROPCOPY|1=ACC005|6=27.45|11=9deea998ccb8|14=7261|31=27.45|32=7261|37=818e8e76d13b|38=7261|39=2|54=1|55=ABEV3|60=20250630-16:02:37.730|150=F|453=1|448=TRADER999|452=36|10=125|1010=199314.45|1011=TRADER999|
8=FIX.4.4|9=212|35=8|49=SISTEMA|52=20250630-16:02:37.730|56=DROPCOPY|1=ACC003|6=15.44|11=5c23ba2e598d|14=7515|31=15.44|32=7515|37=7619df33c11c|38=7515|39=2|54=2|55=RADL3|60=20250630-16:02:37.730|150=F|453=1|448=TRADER432|452=36|10=241|1010=116031.60|1011=TRADER432|
8=FIX.4.4|9=210|35=8|49=SISTEMA|52=20250630-16:02:37.730|56=DROPCOPY|1=ACC008|6=19.9|11=f2236c4c0926|14=6416|31=19.9|32=6416|37=a922ee3a5e81|38=6416|39=2|54=1|55=WEGE3|60=20250630-16:02:37.730|150=F|453=1|448=TRADER325|452=36|10=109|1010=127678.4|1011=TRADER325|
8=FIX.4.4|9=212|35=8|49=SISTEMA|52=20250630-16:02:37.731|56=DROPCOPY|1=ACC007|6=24.12|11=df21c5e31295|14=9574|31=24.12|32=9574|37=87363ae6d870|38=9574|39=2|54=1|55=WEGE3|60=20250630-16:02:37.731|150=F|453=1|448=TRADER116|452=36|10=173|1010=230924.88|1011=TRADER116|
8=FIX.4.4|9=212|35=8|49=SISTEMA|52=20250630-16:02:37.731|56=DROPCOPY|1=ACC007|6=16.81|11=1d303bf4474e|14=9122|31=16.81|32=9122|37=2f310c736c48|38=9122|39=2|54=2|55=BBDC4|60=20250630-16:02:37.731|150=F|453=1|448=TRADER478|452=36|10=123|1010=153340.82|1011=TRADER478|
8=FIX.4.4|9=212|35=8|49=SISTEMA|52=20250630-16:02:37.731|56=DROPCOPY|1=ACC004|6=16.33|11=216950d6fd1e|14=9431|31=16.33|32=9431|37=369674ce3915|38=9431|39=2|54=2|55=BBDC4|60=20250630-16:02:37.731|150=F|453=1|448=TRADER815|452=36|10=091|1010=154008.23|1011=TRADER815|
8=FIX.4.4|9=212|35=8|49=SISTEMA|52=20250630-16:02:37.732|56=DROPCOPY|1=ACC005|6=24.05|11=cc777f7e05b3|14=8606|31=24.05|32=8606|37=0bd0f593b744|38=8606|39=2|54=2|55=BBDC4|60=20250630-16:02:37.732|150=F|453=1|448=TRADER716|452=36|10=234|1010=206974.30|1011=TRADER716|
8=FIX.4.4|9=212|35=8|49=SISTEMA|52=20250630-16:02:37.732|56=DROPCOPY|1=ACC006|6=20.55|11=e075f4a37f22|14=6500|31=20.55|32=6500|37=5a17af13689b|38=6500|39=2|54=1|55=WEGE3|60=20250630-16:02:37.732|150=F|453=1|448=TRADER504|452=36|10=181|1010=133575.00|1011=TRADER504|
8=FIX.4.4|9=212|35=8|49=SISTEMA|52=20250630-16:02:37.732|56=DROPCOPY|1=ACC004|6=18.04|11=2243e2aab823|14=4625|31=18.04|32=4625|37=cbe060151aa6|38=4625|39=2|54=2|55=SUZB3|60=20250630-16:02:37.732|150=F|453=1|448=TRADER507|452=36|10=247|1010=83435.00|1011=TRADER507|
8=FIX.4.4|9=212|35=8|49=SISTEMA|52=20250630-16:02:37.734|56=DROPCOPY|1=ACC004|6=10.08|11=cd581969dbeb|14=9849|31=10.08|32=9849|37=43d3622d174e|38=9849|39=2|54=2|55=WEGE3|60=20250630-16:02:37.734|150=F|453=1|448=TRADER623|452=36|10=034|1010=99277.92|1011=TRADER623|
8=FIX.4.4|9=212|35=8|49=SISTEMA|52=20250630-16:02:37.738|56=DROPCOPY|1=ACC006|6=20.51|11=3f80affba980|14=6832|31=20.51|32=6832|37=497f05e21ad3|38=6832|39=2|54=1|55=BBDC4|60=20250630-16:02:37.738|150=F|453=1|448=TRADER639|452=36|10=029|1010=140124.32|1011=TRADER639|
8=FIX.4.4|9=212|35=8|49=SISTEMA|52=20250630-16:02:37.738|56=DROPCOPY|1=ACC008|6=24.08|11=3bd64112ac8d|14=5189|31=24.08|32=5189|37=fbe9ac254f6d|38=5189|39=2|54=2|55=ABEV3|60=20250630-16:02:37.738|150=F|453=1|448=TRADER395|452=36|10=164|1010=124951.12|1011=TRADER395|
8=FIX.4.4|9=212|35=8|49=SISTEMA|52=20250630-16:02:37.739|56=DROPCOPY|1=ACC005|6=24.33|11=a94d6d17dc02|14=6855|31=24.33|32=6855|37=86ed8d766024|38=6855|39=2|54=1|55=PETR4|60=20250630-16:02:37.739|150=F|453=1|448=TRADER442|452=36|10=005|1010=166782.15|1011=TRADER442|
8=FIX.4.4|9=212|35=8|49=SISTEMA|52=20250630-16:02:37.739|56=DROPCOPY|1=ACC006|6=11.97|11=ea02b3b9d3c1|14=5806|31=11.97|32=5806|37=9174bb889294|38=5806|39=2|54=1|55=BBAS3|60=20250630-16:02:37.739|150=F|453=1|448=TRADER798|452=36|10=232|1010=69497.82|1011=TRADER798|
8=FIX.4.4|9=211|35=8|49=SISTEMA|52=20250630-16:02:37.740|56=DROPCOPY|1=ACC001|6=14.27|11=1d93f91cbb60|14=6318|31=14.27|32=6318|37=4c1c2a1edd9e|38=6318|39=2|54=1|55=ITUB4|60=20250630-16:02:37.740|150=F|453=1|448=TRADER91|452=36|10=090|1010=90157.86|1011=TRADER91|
8=FIX.4.4|9=210|35=8|49=SISTEMA|52=20250630-16:02:37.740|56=DROPCOPY|1=ACC010|6=27.1|11=47cf65cdbf5e|14=5785|31=27.1|32=5785|37=aefadd2c670e|38=5785|39=2|54=2|55=VALE3|60=20250630-16:02:37.740|150=F|453=1|448=TRADER404|452=36|10=196|1010=156773.5|1011=TRADER404|
8=FIX.4.4|9=212|35=8|49=SISTEMA|52=20250630-16:02:37.740|56=DROPCOPY|1=ACC008|6=12.13|11=73676a59cdc7|14=4980|31=12.13|32=4980|37=0b7a6010d10d|38=4980|39=2|54=2|55=PETR4|60=20250630-16:02:37.740|150=F|453=1|448=TRADER307|452=36|10=212|1010=60407.40|1011=TRADER307|
8=FIX.4.4|9=212|35=8|49=SISTEMA|52=20250630-16:02:37.741|56=DROPCOPY|1=ACC008|6=28.62|11=61cbdd4b033c|14=2540|31=28.62|32=2540|37=ad3fb2426b81|38=2540|39=2|54=2|55=ABEV3|60=20250630-16:02:37.741|150=F|453=1|448=TRADER136|452=36|10=053|1010=72694.80|1011=TRADER136|
8=FIX.4.4|9=211|35=8|49=SISTEMA|52=20250630-16:02:37.741|56=DROPCOPY|1=ACC004|6=20.02|11=f1c15061184e|14=8565|31=20.02|32=8565|37=a4ca60eaf280|38=8565|39=2|54=1|55=ABEV3|60=20250630-16:02:37.741|150=F|453=1|448=TRADER59|452=36|10=176|1010=171471.30|1011=TRADER59|
8=FIX.4.4|9=212|35=8|49=SISTEMA|52=20250630-16:02:37.742|56=DROPCOPY|1=ACC004|6=14.05|11=70a84fa5d81b|14=7360|31=14.05|32=7360|37=1a8e90e6640a|38=7360|39=2|54=1|55=SUZB3|60=20250630-16:02:37.742|150=F|453=1|448=TRADER409|452=36|10=011|1010=103408.00|1011=TRADER409|
8=FIX.4.4|9=210|35=8|49=SISTEMA|52=20250630-16:02:37.742|56=DROPCOPY|1=ACC002|6=27.8|11=ec7310bbe37b|14=7991|31=27.8|32=7991|37=8795ae51e178|38=7991|39=2|54=2|55=BBAS3|60=20250630-16:02:37.742|150=F|453=1|448=TRADER406|452=36|10=174|1010=222149.8|1011=TRADER406|
8=FIX.4.4|9=212|35=8|49=SISTEMA|52=20250630-16:02:37.743|56=DROPCOPY|1=ACC004|6=24.32|11=45ae25d2d52e|14=8313|31=24.32|32=8313|37=f7ea00de6696|38=8313|39=2|54=1|55=BBDC4|60=20250630-16:02:37.743|150=F|453=1|448=TRADER114|452=36|10=003|1010=202172.16|1011=TRADER114|
8=FIX.4.4|9=212|35=8|49=SISTEMA|52=20250630-16:02:37.743|56=DROPCOPY|1=ACC002|6=16.26|11=b0dc2b40a6ea|14=7838|31=16.26|32=7838|37=d18107f3fca9|38=7838|39=2|54=2|55=RADL3|60=20250630-16:02:37.743|150=F|453=1|448=TRADER513|452=36|10=145|1010=127445.88|1011=TRADER513|
8=FIX.4.4|9=212|35=8|49=SISTEMA|52=20250630-16:02:37.743|56=DROPCOPY|1=ACC004|6=29.06|11=009cc8ccf553|14=5193|31=29.06|32=5193|37=de4865a9d3cf|38=5193|39=2|54=2|55=VALE3|60=20250630-16:02:37.743|150=F|453=1|448=TRADER328|452=36|10=115|1010=150908.58|1011=TRADER328|
8=FIX.4.4|9=212|35=8|49=SISTEMA|52=20250630-16:02:37.743|56=DROPCOPY|1=ACC005|6=29.41|11=12594de4980f|14=5482|31=29.41|32=5482|37=c09e731e289c|38=5482|39=2|54=2|55=VALE3|60=20250630-16:02:37.743|150=F|453=1|448=TRADER586|452=36|10=193|1010=161225.62|1011=TRADER586|
8=FIX.4.4|9=212|35=8|49=SISTEMA|52=20250630-16:02:37.744|56=DROPCOPY|1=ACC003|6=18.68|11=c73af4db3900|14=5511|31=18.68|32=5511|37=05d67045aed3|38=5511|39=2|54=1|55=SUZB3|60=20250630-16:02:37.744|150=F|453=1|448=TRADER310|452=36|10=012|1010=102945.48|1011=TRADER310|
8=FIX.4.4|9=211|35=8|49=SISTEMA|52=20250630-16:02:37.749|56=DROPCOPY|1=ACC002|6=20.36|11=e7617f5f1985|14=4365|31=20.36|32=4365|37=80561688590a|38=4365|39=2|54=1|55=BBAS3|60=20250630-16:02:37.749|150=F|453=1|448=TRADER88|452=36|10=243|1010=88871.40|1011=TRADER88|
8=FIX.4.4|9=212|35=8|49=SISTEMA|52=20250630-16:02:37.750|56=DROPCOPY|1=ACC010|6=23.63|11=a1e4acc65ba6|14=7819|31=23.63|32=7819|37=753947000023|38=7819|39=2|54=2|55=ABEV3|60=20250630-16:02:37.750|150=F|453=1|448=TRADER920|452=36|10=147|1010=184762.97|1011=TRADER920|
8=FIX.4.4|9=212|35=8|49=SISTEMA|52=20250630-16:02:37.750|56=DROPCOPY|1=ACC003|6=25.53|11=7520bd37e76e|14=7620|31=25.53|32=7620|37=1b620468865b|38=7620|39=2|54=1|55=WEGE3|60=20250630-16:02:37.750|150=F|453=1|448=TRADER181|452=36|10=106|1010=194538.60|1011=TRADER181|
8=FIX.4.4|9=212|35=8|49=SISTEMA|52=20250630-16:02:37.750|56=DROPCOPY|1=ACC001|6=25.59|11=65e6589d2292|14=2138|31=25.59|32=2138|37=bd6ba799fcb8|38=2138|39=2|54=2|55=VALE3|60=20250630-16:02:37.750|150=F|453=1|448=TRADER166|452=36|10=024|1010=54711.42|1011=TRADER166|
8=FIX.4.4|9=212|35=8|49=SISTEMA|52=20250630-16:02:37.750|56=DROPCOPY|1=ACC008|6=20.53|11=a432e3b34377|14=2351|31=20.53|32=2351|37=eaa6af0c2806|38=2351|39=2|54=2|55=WEGE3|60=20250630-16:02:37.750|150=F|453=1|448=TRADER437|452=36|10=218|1010=48266.03|1011=TRADER437|
8=FIX.4.4|9=212|35=8|49=SISTEMA|52=20250630-16:02:37.750|56=DROPCOPY|1=ACC008|6=25.96|11=8cd6a2b1153e|14=2423|31=25.96|32=2423|37=300db8feb503|38=2423|39=2|54=2|55=SUZB3|60=20250630-16:02:37.750|150=F|453=1|448=TRADER125|452=36|10=052|1010=62901.08|1011=TRADER125|
8=FIX.4.4|9=210|35=8|49=SISTEMA|52=20250630-16:02:37.750|56=DROPCOPY|1=ACC007|6=28.3|11=dd1aca3c0706|14=4007|31=28.3|32=4007|37=12da613e56b2|38=4007|39=2|54=2|55=RADL3|60=20250630-16:02:37.750|150=F|453=1|448=TRADER867|452=36|10=163|1010=113398.1|1011=TRADER867|
8=FIX.4.4|9=211|35=8|49=SISTEMA|52=20250630-16:02:37.753|56=DROPCOPY|1=ACC001|6=19.78|11=45cefb366a26|14=6281|31=19.78|32=6281|37=6d7702554055|38=6281|39=2|54=1|55=BBDC4|60=20250630-16:02:37.753|150=F|453=1|448=TRADER97|452=36|10=061|1010=124238.18|1011=TRADER97|
8=FIX.4.4|9=210|35=8|49=SISTEMA|52=20250630-16:02:37.754|56=DROPCOPY|1=ACC003|6=15.2|11=3bc7db625d0b|14=8440|31=15.2|32=8440|37=112f81bacaa7|38=8440|39=2|54=2|55=ABEV3|60=20250630-16:02:37.754|150=F|453=1|448=TRADER108|452=36|10=254|1010=128288.0|1011=TRADER108|
8=FIX.4.4|9=212|35=8|49=SISTEMA|52=20250630-16:02:37.754|56=DROPCOPY|1=ACC003|6=12.01|11=083390c9809f|14=6920|31=12.01|32=6920|37=d09aec45d071|38=6920|39=2|54=1|55=SUZB3|60=20250630-16:02:37.754|150=F|453=1|448=TRADER931|452=36|10=175|1010=83109.20|1011=TRADER931|
8=FIX.4.4|9=212|35=8|49=SISTEMA|52=20250630-16:02:37.755|56=DROPCOPY|1=ACC003|6=16.72|11=30c345787c5c|14=7987|31=16.72|32=7987|37=56d64c5c892b|38=7987|39=2|54=1|55=RENT3|60=20250630-16:02:37.755|150=F|453=1|448=TRADER241|452=36|10=233|1010=133542.64|1011=TRADER241|
8=FIX.4.4|9=212|35=8|49=SISTEMA|52=20250630-16:02:37.755|56=DROPCOPY|1=ACC009|6=17.49|11=554ed8a3d009|14=1448|31=17.49|32=1448|37=dd03f4f62c3e|38=1448|39=2|54=1|55=RADL3|60=20250630-16:02:37.755|150=F|453=1|448=TRADER705|452=36|10=064|1010=25325.52|1011=TRADER705|
8=FIX.4.4|9=212|35=8|49=SISTEMA|52=20250630-16:02:37.755|56=DROPCOPY|1=ACC004|6=17.36|11=7437a3addf02|14=2002|31=17.36|32=2002|37=43a3d13ddbdd|38=2002|39=2|54=2|55=ABEV3|60=20250630-16:02:37.755|150=F|453=1|448=TRADER170|452=36|10=085|1010=34754.72|1011=TRADER170|
8=FIX.4.4|9=212|35=8|49=SISTEMA|52=20250630-16:02:37.755|56=DROPCOPY|1=ACC001|6=23.81|11=44e7c3f753c0|14=6139|31=23.81|32=6139|37=9d9cd6a92d7d|38=6139|39=2|54=2|55=RENT3|60=20250630-16:02:37.755|150=F|453=1|448=TRADER269|452=36|10=094|1010=146169.59|1011=TRADER269|
8=FIX.4.4|9=212|35=8|49=SISTEMA|52=20250630-16:02:37.756|56=DROPCOPY|1=ACC007|6=27.87|11=da2cd7a85a4b|14=7693|31=27.87|32=7693|37=3ee1f7270626|38=7693|39=2|54=2|55=RADL3|60=20250630-16:02:37.756|150=F|453=1|448=TRADER910|452=36|10=091|1010=214403.91|1011=TRADER910|
8=FIX.4.4|9=212|35=8|49=SISTEMA|52=20250630-16:02:37.756|56=DROPCOPY|1=ACC002|6=10.49|11=4c3912d6bfd0|14=2070|31=10.49|32=2070|37=0a1dffb580ea|38=2070|39=2|54=2|55=ITUB4|60=20250630-16:02:37.756|150=F|453=1|448=TRADER980|452=36|10=130|1010=21714.30|1011=TRADER980|
8=FIX.4.4|9=212|35=8|49=SISTEMA|52=20250630-16:02:37.756|56=DROPCOPY|1=ACC004|6=13.46|11=e1b2bf952a55|14=4392|31=13.46|32=4392|37=6a7bd2e33583|38=4392|39=2|54=1|55=WEGE3|60=20250630-16:02:37.756|150=F|453=1|448=TRADER901|452=36|10=005|1010=59116.32|1011=TRADER901|
8=FIX.4.4|9=211|35=8|49=SISTEMA|52=20250630-16:02:37.756|56=DROPCOPY|1=ACC008|6=14.57|11=ed2cb7c95b3c|14=8285|31=14.57|32=8285|37=a004084c7cf9|38=8285|39=2|54=1|55=PETR4|60=20250630-16:02:37.756|150=F|453=1|448=TRADER89|452=36|10=103|1010=120712.45|1011=TRADER89|
8=FIX.4.4|9=210|35=8|49=SISTEMA|52=20250630-16:02:37.757|56=DROPCOPY|1=ACC007|6=14.9|11=b7ba23af7244|14=4123|31=14.9|32=4123|37=673b91ab329c|38=4123|39=2|54=2|55=VALE3|60=20250630-16:02:37.757|150=F|453=1|448=TRADER721|452=36|10=140|1010=61432.7|1011=TRADER721|
8=FIX.4.4|9=212|35=8|49=SISTEMA|52=20250630-16:02:37.757|56=DROPCOPY|1=ACC007|6=27.95|11=2b1e8523430c|14=4043|31=27.95|32=4043|37=5c4e01976850|38=4043|39=2|54=2|55=SUZB3|60=20250630-16:02:37.757|150=F|453=1|448=TRADER215|452=36|10=095|1010=113001.85|1011=TRADER215|
8=FIX.4.4|9=212|35=8|49=SISTEMA|52=20250630-16:02:37.757|56=DROPCOPY|1=ACC008|6=28.67|11=ba29e2ec599e|14=7259|31=28.67|32=7259|37=864974d8a6ce|38=7259|39=2|54=2|55=BBAS3|60=20250630-16:02:37.757|150=F|453=1|448=TRADER891|452=36|10=113|1010=208115.53|1011=TRADER891|
8=FIX.4.4|9=212|35=8|49=SISTEMA|52=20250630-16:02:37.757|56=DROPCOPY|1=ACC007|6=28.19|11=136c3edb1d8f|14=6800|31=28.19|32=6800|37=7237918e948b|38=6800|39=2|54=1|55=SUZB3|60=20250630-16:02:37.757|150=F|453=1|448=TRADER206|452=36|10=005|1010=191692.00|1011=TRADER206|
8=FIX.4.4|9=210|35=8|49=SISTEMA|52=20250630-16:02:37.758|56=DROPCOPY|1=ACC009|6=11.9|11=b03f28f54828|14=8393|31=11.9|32=8393|37=e5bd0e62c4f8|38=8393|39=2|54=1|55=RENT3|60=20250630-16:02:37.758|150=F|453=1|448=TRADER528|452=36|10=213|1010=99876.7|1011=TRADER528|
8=FIX.4.4|9=212|35=8|49=SISTEMA|52=20250630-16:02:37.758|56=DROPCOPY|1=ACC003|6=19.19|11=048aaa9733ce|14=7804|31=19.19|32=7804|37=0d842dbe581e|38=7804|39=2|54=1|55=RENT3|60=20250630-16:02:37.758|150=F|453=1|448=TRADER857|452=36|10=097|1010=149758.76|1011=TRADER857|
8=FIX.4.4|9=212|35=8|49=SISTEMA|52=20250630-16:02:37.758|56=DROPCOPY|1=ACC005|6=21.46|11=7e560bae84f4|14=8548|31=21.46|32=8548|37=b821a8233799|38=8548|39=2|54=1|55=RADL3|60=20250630-16:02:37.758|150=F|453=1|448=TRADER712|452=36|10=198|1010=183440.08|1011=TRADER712|
8=FIX.4.4|9=212|35=8|49=SISTEMA|52=20250630-16:02:37.758|56=DROPCOPY|1=ACC001|6=27.09|11=0a0cb4a0e9b9|14=8008|31=27.09|32=8008|37=a010bd36a130|38=8008|39=2|54=2|55=PETR4|60=20250630-16:02:37.758|150=F|453=1|448=TRADER846|452=36|10=049|1010=216936.72|1011=TRADER846|
8=FIX.4.4|9=210|35=8|49=SISTEMA|52=20250630-16:02:37.759|56=DROPCOPY|1=ACC003|6=14.77|11=1465b8717684|14=1889|31=14.77|32=1889|37=c4f4f544d77e|38=1889|39=2|54=2|55=RENT3|60=20250630-16:02:37.759|150=F|453=1|448=TRADER4|452=36|10=094|1010=27900.53|1011=TRADER4|
8=FIX.4.4|9=212|35=8|49=SISTEMA|52=20250630-16:02:37.759|56=DROPCOPY|1=ACC006|6=14.75|11=a13a27ffc112|14=7557|31=14.75|32=7557|37=e729d71fa05e|38=7557|39=2|54=2|55=BBDC4|60=20250630-16:02:37.759|150=F|453=1|448=TRADER770|452=36|10=054|1010=111465.75|1011=TRADER770|
8=FIX.4.4|9=212|35=8|49=SISTEMA|52=20250630-16:02:37.759|56=DROPCOPY|1=ACC004|6=12.67|11=a1d5fd950125|14=2345|31=12.67|32=2345|37=61b3bea9c97e|38=2345|39=2|54=2|55=PETR4|60=20250630-16:02:37.759|150=F|453=1|448=TRADER633|452=36|10=076|1010=29711.15|1011=TRADER633|
8=FIX.4.4|9=211|35=8|49=SISTEMA|52=20250630-16:02:37.760|56=DROPCOPY|1=ACC004|6=23.24|11=174add534d5d|14=7255|31=23.24|32=7255|37=179dab863ba1|38=7255|39=2|54=2|55=ABEV3|60=20250630-16:02:37.760|150=F|453=1|448=TRADER47|452=36|10=236|1010=168606.20|1011=TRADER47|
8=FIX.4.4|9=212|35=8|49=SISTEMA|52=20250630-16:02:37.760|56=DROPCOPY|1=ACC004|6=14.67|11=bf1079b2e8cf|14=1616|31=14.67|32=1616|37=1932a63cb955|38=1616|39=2|54=1|55=PETR4|60=20250630-16:02:37.760|150=F|453=1|448=TRADER424|452=36|10=017|1010=23706.72|1011=TRADER424|
8=FIX.4.4|9=212|35=8|49=SISTEMA|52=20250630-16:02:37.760|56=DROPCOPY|1=ACC009|6=21.18|11=1f786e5ad381|14=7151|31=21.18|32=7151|37=8ffa3e5b2da2|38=7151|39=2|54=1|55=ITUB4|60=20250630-16:02:37.760|150=F|453=1|448=TRADER292|452=36|10=102|1010=151458.18|1011=TRADER292|
8=FIX.4.4|9=212|35=8|49=SISTEMA|52=20250630-16:02:37.760|56=DROPCOPY|1=ACC008|6=21.46|11=b5311a8bee27|14=7597|31=21.46|32=7597|37=c8c207beff76|38=7597|39=2|54=1|55=BBDC4|60=20250630-16:02:37.760|150=F|453=1|448=TRADER900|452=36|10=097|1010=163031.62|1011=TRADER900|
8=FIX.4.4|9=212|35=8|49=SISTEMA|52=20250630-16:02:37.761|56=DROPCOPY|1=ACC008|6=15.45|11=290e68c6abf3|14=9539|31=15.45|32=9539|37=981e4e4a7000|38=9539|39=2|54=1|55=ITUB4|60=20250630-16:02:37.761|150=F|453=1|448=TRADER480|452=36|10=251|1010=147377.55|1011=TRADER480|
8=FIX.4.4|9=212|35=8|49=SISTEMA|52=20250630-16:02:37.761|56=DROPCOPY|1=ACC008|6=17.49|11=ca1e8415644a|14=4454|31=17.49|32=4454|37=81ba805c0130|38=4454|39=2|54=2|55=PETR4|60=20250630-16:02:37.761|150=F|453=1|448=TRADER199|452=36|10=183|1010=77900.46|1011=TRADER199|
8=FIX.4.4|9=212|35=8|49=SISTEMA|52=20250630-16:02:37.761|56=DROPCOPY|1=ACC006|6=10.42|11=88f42f467e81|14=6681|31=10.42|32=6681|37=fd228e678265|38=6681|39=2|54=2|55=RENT3|60=20250630-16:02:37.761|150=F|453=1|448=TRADER808|452=36|10=162|1010=69616.02|1011=TRADER808|
8=FIX.4.4|9=212|35=8|49=SISTEMA|52=20250630-16:02:37.761|56=DROPCOPY|1=ACC008|6=24.83|11=7713f8dc1c28|14=1162|31=24.83|32=1162|37=ae371cd14b42|38=1162|39=2|54=1|55=RENT3|60=20250630-16:02:37.761|150=F|453=1|448=TRADER833|452=36|10=000|1010=28852.46|1011=TRADER833|
8=FIX.4.4|9=212|35=8|49=SISTEMA|52=20250630-16:02:37.762|56=DROPCOPY|1=ACC003|6=15.26|11=bc3f0849e18a|14=4014|31=15.26|32=4014|37=4bce6ecd026c|38=4014|39=2|54=1|55=WEGE3|60=20250630-16:02:37.762|150=F|453=1|448=TRADER646|452=36|10=120|1010=61253.64|1011=TRADER646|
8=FIX.4.4|9=212|35=8|49=SISTEMA|52=20250630-16:02:37.762|56=DROPCOPY|1=ACC007|6=13.03|11=e8b9ab2bb43f|14=9042|31=13.03|32=9042|37=7b8fb72f467e|38=9042|39=2|54=1|55=RADL3|60=20250630-16:02:37.762|150=F|453=1|448=TRADER263|452=36|10=133|1010=117817.26|1011=TRADER263|
8=FIX.4.4|9=212|35=8|49=SISTEMA|52=20250630-16:02:37.762|56=DROPCOPY|1=ACC006|6=19.88|11=c4955ed7798f|14=4763|31=19.88|32=4763|37=63c336df2f3c|38=4763|39=2|54=1|55=PETR4|60=20250630-16:02:37.762|150=F|453=1|448=TRADER242|452=36|10=075|1010=94688.44|1011=TRADER242|
8=FIX.4.4|9=212|35=8|49=SISTEMA|52=20250630-16:02:37.762|56=DROPCOPY|1=ACC003|6=10.95|11=c213455c95c9|14=1701|31=10.95|32=1701|37=aa972647cded|38=1701|39=2|54=1|55=RENT3|60=20250630-16:02:37.762|150=F|453=1|448=TRADER381|452=36|10=003|1010=18625.95|1011=TRADER381|
8=FIX.4.4|9=212|35=8|49=SISTEMA|52=20250630-16:02:37.763|56=DROPCOPY|1=ACC005|6=22.07|11=06f80dc4a2ae|14=1045|31=22.07|32=1045|37=9f465c179679|38=1045|39=2|54=1|55=VALE3|60=20250630-16:02:37.763|150=F|453=1|448=TRADER432|452=36|10=197|1010=23063.15|1011=TRADER432|
8=FIX.4.4|9=212|35=8|49=SISTEMA|52=20250630-16:02:37.763|56=DROPCOPY|1=ACC004|6=18.78|11=1c95bfadcd92|14=1723|31=18.78|32=1723|37=3a4c0bd000e2|38=1723|39=2|54=1|55=BBAS3|60=20250630-16:02:37.763|150=F|453=1|448=TRADER345|452=36|10=115|1010=32357.94|1011=TRADER345|
8=FIX.4.4|9=212|35=8|49=SISTEMA|52=20250630-16:02:37.763|56=DROPCOPY|1=ACC009|6=23.59|11=26049a7aef56|14=6530|31=23.59|32=6530|37=e7e76fb2ca0b|38=6530|39=2|54=2|55=PETR4|60=20250630-16:02:37.763|150=F|453=1|448=TRADER762|452=36|10=130|1010=154042.70|1011=TRADER762|
8=FIX.4.4|9=212|35=8|49=SISTEMA|52=20250630-16:02:37.763|56=DROPCOPY|1=ACC008|6=24.49|11=ce20f54b1152|14=5421|31=24.49|32=5421|37=db345657313f|38=5421|39=2|54=2|55=RADL3|60=20250630-16:02:37.763|150=F|453=1|448=TRADER443|452=36|10=145|1010=132760.29|1011=TRADER443|
8=FIX.4.4|9=212|35=8|49=SISTEMA|52=20250630-16:02:37.763|56=DROPCOPY|1=ACC009|6=28.33|11=4319767d22e7|14=8650|31=28.33|32=8650|37=a78f2bde744a|38=8650|39=2|54=2|55=RENT3|60=20250630-16:02:37.763|150=F|453=1|448=TRADER454|452=36|10=000|1010=245054.50|1011=TRADER454|
8=FIX.4.4|9=210|35=8|49=SISTEMA|52=20250630-16:02:37.764|56=DROPCOPY|1=ACC003|6=14.9|11=d01356d926e6|14=8851|31=14.9|32=8851|37=dd1e699ac6d9|38=8851|39=2|54=1|55=BBDC4|60=20250630-16:02:37.764|150=F|453=1|448=TRADER290|452=36|10=163|1010=131879.9|1011=TRADER290|
8=FIX.4.4|9=212|35=8|49=SISTEMA|52=20250630-16:02:37.764|56=DROPCOPY|1=ACC006|6=26.71|11=8f97c819a9af|14=9587|31=26.71|32=9587|37=b09b00e265bc|38=9587|39=2|54=2|55=BBDC4|60=20250630-16:02:37.764|150=F|453=1|448=TRADER593|452=36|10=080|1010=256068.77|1011=TRADER593|
8=FIX.4.4|9=212|35=8|49=SISTEMA|52=20250630-16:02:37.764|56=DROPCOPY|1=ACC003|6=19.99|11=4f2010bd0e24|14=6143|31=19.99|32=6143|37=5d99e6d0f79e|38=6143|39=2|54=1|55=PETR4|60=20250630-16:02:37.764|150=F|453=1|448=TRADER759|452=36|10=054|1010=122798.57|1011=TRADER759|
8=FIX.4.4|9=212|35=8|49=SISTEMA|52=20250630-16:02:37.765|56=DROPCOPY|1=ACC009|6=24.43|11=6dead1938e7b|14=3819|31=24.43|32=3819|37=f05a2a939612|38=3819|39=2|54=2|55=RENT3|60=20250630-16:02:37.765|150=F|453=1|448=TRADER109|452=36|10=041|1010=93298.17|1011=TRADER109|
8=FIX.4.4|9=212|35=8|49=SISTEMA|52=20250630-16:02:37.765|56=DROPCOPY|1=ACC010|6=11.79|11=5cd24375c1ec|14=7839|31=11.79|32=7839|37=7e7f106a3328|38=7839|39=2|54=1|55=ITUB4|60=20250630-16:02:37.765|150=F|453=1|448=TRADER936|452=36|10=010|1010=92421.81|1011=TRADER936|
8=FIX.4.4|9=212|35=8|49=SISTEMA|52=20250630-16:02:37.765|56=DROPCOPY|1=ACC007|6=27.06|11=9cd6dc24cd9c|14=4102|31=27.06|32=4102|37=1d9f8ecb2be4|38=4102|39=2|54=1|55=VALE3|60=20250630-16:02:37.765|150=F|453=1|448=TRADER497|452=36|10=238|1010=111000.12|1011=TRADER497|
8=FIX.4.4|9=210|35=8|49=SISTEMA|52=20250630-16:02:37.765|56=DROPCOPY|1=ACC009|6=14.9|11=ffedfdeab9d9|14=8590|31=14.9|32=8590|37=42c499c8f91c|38=8590|39=2|54=2|55=WEGE3|60=20250630-16:02:37.765|150=F|453=1|448=TRADER510|452=36|10=189|1010=127991.0|1011=TRADER510|
8=FIX.4.4|9=212|35=8|49=SISTEMA|52=20250630-16:02:37.765|56=DROPCOPY|1=ACC007|6=29.27|11=9f84f5b74644|14=2783|31=29.27|32=2783|37=a2032e401cc6|38=2783|39=2|54=2|55=WEGE3|60=20250630-16:02:37.765|150=F|453=1|448=TRADER216|452=36|10=187|1010=81458.41|1011=TRADER216|
8=FIX.4.4|9=209|35=8|49=SISTEMA|52=20250630-16:02:37.766|56=DROPCOPY|1=ACC001|6=29.6|11=09e794806ca9|14=1205|31=29.6|32=1205|37=d5515dc02c43|38=1205|39=2|54=1|55=WEGE3|60=20250630-16:02:37.766|150=F|453=1|448=TRADER70|452=36|10=005|1010=35668.0|1011=TRADER70|
8=FIX.4.4|9=209|35=8|49=SISTEMA|52=20250630-16:02:37.766|56=DROPCOPY|1=ACC005|6=26.3|11=b43eb72a5a5a|14=8714|31=26.3|32=8714|37=4bfaa5623fe5|38=8714|39=2|54=2|55=WEGE3|60=20250630-16:02:37.766|150=F|453=1|448=TRADER32|452=36|10=000|1010=229178.2|1011=TRADER32|
8=FIX.4.4|9=212|35=8|49=SISTEMA|52=20250630-16:02:37.766|56=DROPCOPY|1=ACC003|6=23.64|11=42dea9e0d827|14=7385|31=23.64|32=7385|37=159d50b1819e|38=7385|39=2|54=2|55=VALE3|60=20250630-16:02:37.766|150=F|453=1|448=TRADER305|452=36|10=237|1010=174581.40|1011=TRADER305|
8=FIX.4.4|9=212|35=8|49=SISTEMA|52=20250630-16:02:37.767|56=DROPCOPY|1=ACC003|6=29.16|11=d4ff9f8542f5|14=4711|31=29.16|32=4711|37=627e5eb56992|38=4711|39=2|54=2|55=VALE3|60=20250630-16:02:37.767|150=F|453=1|448=TRADER696|452=36|10=255|1010=137372.76|1011=TRADER696|
8=FIX.4.4|9=212|35=8|49=SISTEMA|52=20250630-16:02:37.767|56=DROPCOPY|1=ACC004|6=24.86|11=7193489082cd|14=4286|31=24.86|32=4286|37=a814efb26fc2|38=4286|39=2|54=1|55=ABEV3|60=20250630-16:02:37.767|150=F|453=1|448=TRADER539|452=36|10=242|1010=106549.96|1011=TRADER539|
8=FIX.4.4|9=212|35=8|49=SISTEMA|52=20250630-16:02:37.767|56=DROPCOPY|1=ACC009|6=29.66|11=d9f21dc8ad14|14=3657|31=29.66|32=3657|37=990695498866|38=3657|39=2|54=1|55=BBAS3|60=20250630-16:02:37.767|150=F|453=1|448=TRADER805|452=36|10=172|1010=108466.62|1011=TRADER805|
8=FIX.4.4|9=212|35=8|49=SISTEMA|52=20250630-16:02:37.768|56=DROPCOPY|1=ACC004|6=11.87|11=dbcbd57588dc|14=6881|31=11.87|32=6881|37=1762c85f8e6e|38=6881|39=2|54=2|55=RENT3|60=20250630-16:02:37.768|150=F|453=1|448=TRADER303|452=36|10=165|1010=81677.47|1011=TRADER303|
8=FIX.4.4|9=212|35=8|49=SISTEMA|52=20250630-16:02:37.768|56=DROPCOPY|1=ACC006|6=10.17|11=0b461c12ce15|14=6294|31=10.17|32=6294|37=6e7923fa4e27|38=6294|39=2|54=2|55=RENT3|60=20250630-16:02:37.768|150=F|453=1|448=TRADER585|452=36|10=242|1010=64009.98|1011=TRADER585|
8=FIX.4.4|9=212|35=8|49=SISTEMA|52=20250630-16:02:37.768|56=DROPCOPY|1=ACC002|6=23.67|11=78029dbbefcb|14=2255|31=23.67|32=2255|37=1d8233d43a74|38=2255|39=2|54=1|55=BBAS3|60=20250630-16:02:37.768|150=F|453=1|448=TRADER989|452=36|10=053|1010=53375.85|1011=TRADER989|
8=FIX.4.4|9=206|35=8|49=SISTEMA|52=20250630-16:02:37.768|56=DROPCOPY|1=ACC001|6=21|11=0f9865e98183|14=3321|31=21|32=3321|37=35d835b2b01f|38=3321|39=2|54=2|55=RENT3|60=20250630-16:02:37.768|150=F|453=1|448=TRADER991|452=36|10=088|1010=69741|1011=TRADER991|
8=FIX.4.4|9=212|35=8|49=SISTEMA|52=20250630-16:02:37.768|56=DROPCOPY|1=ACC008|6=17.54|11=0301dfbc75de|14=4447|31=17.54|32=4447|37=abf97f5423aa|38=4447|39=2|54=1|55=RENT3|60=20250630-16:02:37.768|150=F|453=1|448=TRADER740|452=36|10=179|1010=78000.38|1011=TRADER740|
8=FIX.4.4|9=212|35=8|49=SISTEMA|52=20250630-16:02:37.768|56=DROPCOPY|1=ACC008|6=12.21|11=2a6aa41fd531|14=6147|31=12.21|32=6147|37=0d3b8cebf331|38=6147|39=2|54=2|55=RADL3|60=20250630-16:02:37.768|150=F|453=1|448=TRADER189|452=36|10=080|1010=75054.87|1011=TRADER189|
8=FIX.4.4|9=212|35=8|49=SISTEMA|52=20250630-16:02:37.769|56=DROPCOPY|1=ACC001|6=19.89|11=71acf95c038f|14=6085|31=19.89|32=6085|37=b8b05d03b4e3|38=6085|39=2|54=1|55=PETR4|60=20250630-16:02:37.769|150=F|453=1|448=TRADER178|452=36|10=109|1010=121030.65|1011=TRADER178|
8=FIX.4.4|9=212|35=8|49=SISTEMA|52=20250630-16:02:37.769|56=DROPCOPY|1=ACC003|6=23.49|11=5057643fb80d|14=7795|31=23.49|32=7795|37=d4f813982866|38=7795|39=2|54=2|55=SUZB3|60=20250630-16:02:37.769|150=F|453=1|448=TRADER473|452=36|10=168|1010=183104.55|1011=TRADER473|
8=FIX.4.4|9=212|35=8|49=SISTEMA|52=20250630-16:02:37.769|56=DROPCOPY|1=ACC004|6=28.33|11=2ac21499cd28|14=1878|31=28.33|32=1878|37=229307c9d1cf|38=1878|39=2|54=1|55=BBAS3|60=20250630-16:02:37.769|150=F|453=1|448=TRADER801|452=36|10=229|1010=53203.74|1011=TRADER801|
8=FIX.4.4|9=212|35=8|49=SISTEMA|52=20250630-16:02:37.769|56=DROPCOPY|1=ACC009|6=14.82|11=85008502942d|14=3466|31=14.82|32=3466|37=888b847834a1|38=3466|39=2|54=1|55=WEGE3|60=20250630-16:02:37.769|150=F|453=1|448=TRADER326|452=36|10=007|1010=51366.12|1011=TRADER326|
8=FIX.4.4|9=211|35=8|49=SISTEMA|52=20250630-16:02:37.771|56=DROPCOPY|1=ACC006|6=17.11|11=d73f9496e7dc|14=5153|31=17.11|32=5153|37=b1620806a048|38=5153|39=2|54=1|55=WEGE3|60=20250630-16:02:37.771|150=F|453=1|448=TRADER48|452=36|10=105|1010=88167.83|1011=TRADER48|
8=FIX.4.4|9=210|35=8|49=SISTEMA|52=20250630-16:02:37.771|56=DROPCOPY|1=ACC006|6=11.42|11=57d6ba6e95ae|14=5761|31=11.42|32=5761|37=10afb11918dd|38=5761|39=2|54=1|55=BBDC4|60=20250630-16:02:37.771|150=F|453=1|448=TRADER4|452=36|10=212|1010=65790.62|1011=TRADER4|
8=FIX.4.4|9=212|35=8|49=SISTEMA|52=20250630-16:02:37.771|56=DROPCOPY|1=ACC001|6=13.89|11=300caee3136f|14=2683|31=13.89|32=2683|37=7a6cfb56ea3e|38=2683|39=2|54=1|55=RADL3|60=20250630-16:02:37.771|150=F|453=1|448=TRADER640|452=36|10=144|1010=37266.87|1011=TRADER640|
8=FIX.4.4|9=212|35=8|49=SISTEMA|52=20250630-16:02:37.771|56=DROPCOPY|1=ACC005|6=17.95|11=ccb9f5fd1a4c|14=5457|31=17.95|32=5457|37=b1fb5ebd173a|38=5457|39=2|54=2|55=PETR4|60=20250630-16:02:37.771|150=F|453=1|448=TRADER322|452=36|10=067|1010=97953.15|1011=TRADER322|
8=FIX.4.4|9=212|35=8|49=SISTEMA|52=20250630-16:02:37.772|56=DROPCOPY|1=ACC003|6=20.85|11=be50b71fd742|14=9536|31=20.85|32=9536|37=f6fbd05e6e9c|38=9536|39=2|54=1|55=RENT3|60=20250630-16:02:37.772|150=F|453=1|448=TRADER411|452=36|10=182|1010=198825.60|1011=TRADER411|
8=FIX.4.4|9=212|35=8|49=SISTEMA|52=20250630-16:02:37.772|56=DROPCOPY|1=ACC004|6=27.73|11=7871903a7083|14=6205|31=27.73|32=6205|37=12b229c8c5ef|38=6205|39=2|54=1|55=SUZB3|60=20250630-16:02:37.772|150=F|453=1|448=TRADER508|452=36|10=147|1010=172064.65|1011=TRADER508|
8=FIX.4.4|9=212|35=8|49=SISTEMA|52=20250630-16:02:37.772|56=DROPCOPY|1=ACC006|6=29.49|11=1c5b62565c1b|14=5056|31=29.49|32=5056|37=470618a70d52|38=5056|39=2|54=1|55=ABEV3|60=20250630-16:02:37.772|150=F|453=1|448=TRADER636|452=36|10=116|1010=149101.44|1011=TRADER636|
8=FIX.4.4|9=212|35=8|49=SISTEMA|52=20250630-16:02:37.772|56=DROPCOPY|1=ACC008|6=14.59|11=ed897aaa7506|14=4358|31=14.59|32=4358|37=d5659cb5709c|38=4358|39=2|54=1|55=RADL3|60=20250630-16:02:37.772|150=F|453=1|448=TRADER593|452=36|10=041|1010=63583.22|1011=TRADER593|
8=FIX.4.4|9=212|35=8|49=SISTEMA|52=20250630-16:02:37.773|56=DROPCOPY|1=ACC006|6=16.67|11=bf091fee36bb|14=9547|31=16.67|32=9547|37=e73afe1c2761|38=9547|39=2|54=2|55=RENT3|60=20250630-16:02:37.773|150=F|453=1|448=TRADER191|452=36|10=201|1010=159148.49|1011=TRADER191|
8=FIX.4.4|9=212|35=8|49=SISTEMA|52=20250630-16:02:37.773|56=DROPCOPY|1=ACC005|6=19.72|11=fd18aca4b678|14=5114|31=19.72|32=5114|37=bcd1bfd43c18|38=5114|39=2|54=2|55=WEGE3|60=20250630-16:02:37.773|150=F|453=1|448=TRADER955|452=36|10=193|1010=100848.08|1011=TRADER955|
8=FIX.4.4|9=212|35=8|49=SISTEMA|52=20250630-16:02:37.773|56=DROPCOPY|1=ACC008|6=10.17|11=6d0607fe87ec|14=1785|31=10.17|32=1785|37=1209aff6a0b0|38=1785|39=2|54=2|55=PETR4|60=20250630-16:02:37.773|150=F|453=1|448=TRADER392|452=36|10=076|1010=18153.45|1011=TRADER392|
8=FIX.4.4|9=212|35=8|49=SISTEMA|52=20250630-16:02:37.773|56=DROPCOPY|1=ACC004|6=22.63|11=1ed39bdbb014|14=5464|31=22.63|32=5464|37=c3076463af01|38=5464|39=2|54=2|55=BBDC4|60=20250630-16:02:37.773|150=F|453=1|448=TRADER409|452=36|10=219|1010=123650.32|1011=TRADER409|
8=FIX.4.4|9=212|35=8|49=SISTEMA|52=20250630-16:02:37.774|56=DROPCOPY|1=ACC003|6=29.06|11=7c6077ef5eb1|14=3674|31=29.06|32=3674|37=57a482759eb3|38=3674|39=2|54=2|55=PETR4|60=20250630-16:02:37.774|150=F|453=1|448=TRADER668|452=36|10=017|1010=106766.44|1011=TRADER668|
8=FIX.4.4|9=212|35=8|49=SISTEMA|52=20250630-16:02:37.774|56=DROPCOPY|1=ACC003|6=12.98|11=5b8753b0f65b|14=9960|31=12.98|32=9960|37=c97e050fc753|38=9960|39=2|54=2|55=PETR4|60=20250630-16:02:37.774|150=F|453=1|448=TRADER123|452=36|10=013|1010=129280.80|1011=TRADER123|
8=FIX.4.4|9=210|35=8|49=SISTEMA|52=20250630-16:02:37.774|56=DROPCOPY|1=ACC001|6=27.3|11=e5eb8b462da9|14=7183|31=27.3|32=7183|37=d1a860f11be0|38=7183|39=2|54=2|55=BBDC4|60=20250630-16:02:37.774|150=F|453=1|448=TRADER523|452=36|10=222|1010=196095.9|1011=TRADER523|
8=FIX.4.4|9=212|35=8|49=SISTEMA|52=20250630-16:02:37.774|56=DROPCOPY|1=ACC009|6=12.14|11=3a85eaef899c|14=2238|31=12.14|32=2238|37=f3cd7abbd9bd|38=2238|39=2|54=2|55=ITUB4|60=20250630-16:02:37.774|150=F|453=1|448=TRADER334|452=36|10=051|1010=27169.32|1011=TRADER334|
8=FIX.4.4|9=212|35=8|49=SISTEMA|52=20250630-16:02:37.774|56=DROPCOPY|1=ACC006|6=16.47|11=0c2b49dab9db|14=2175|31=16.47|32=2175|37=f616b0b69817|38=2175|39=2|54=1|55=ITUB4|60=20250630-16:02:37.774|150=F|453=1|448=TRADER751|452=36|10=072|1010=35822.25|1011=TRADER751|
8=FIX.4.4|9=212|35=8|49=SISTEMA|52=20250630-16:02:37.775|56=DROPCOPY|1=ACC001|6=29.69|11=10d6bbbe4e26|14=4207|31=29.69|32=4207|37=b799558e126f|38=4207|39=2|54=1|55=PETR4|60=20250630-16:02:37.775|150=F|453=1|448=TRADER252|452=36|10=042|1010=124905.83|1011=TRADER252|
8=FIX.4.4|9=212|35=8|49=SISTEMA|52=20250630-16:02:37.775|56=DROPCOPY|1=ACC010|6=29.06|11=26094d88b1b9|14=7489|31=29.06|32=7489|37=e6eb6e27f9d1|38=7489|39=2|54=1|55=WEGE3|60=20250630-16:02:37.775|150=F|453=1|448=TRADER590|452=36|10=063|1010=217630.34|1011=TRADER590|
8=FIX.4.4|9=210|35=8|49=SISTEMA|52=20250630-16:02:37.776|56=DROPCOPY|1=ACC003|6=26.7|11=74897c1f2bc5|14=3179|31=26.7|32=3179|37=a5e21af3b8c8|38=3179|39=2|54=1|55=ITUB4|60=20250630-16:02:37.776|150=F|453=1|448=TRADER871|452=36|10=249|1010=84879.3|1011=TRADER871|
8=FIX.4.4|9=212|35=8|49=SISTEMA|52=20250630-16:02:37.776|56=DROPCOPY|1=ACC010|6=24.62|11=8aee7693daf3|14=6135|31=24.62|32=6135|37=66edbc2add44|38=6135|39=2|54=1|55=BBDC4|60=20250630-16:02:37.776|150=F|453=1|448=TRADER860|452=36|10=174|1010=151043.70|1011=TRADER860|
8=FIX.4.4|9=212|35=8|49=SISTEMA|52=20250630-16:02:37.776|56=DROPCOPY|1=ACC008|6=25.49|11=5312e99e8d81|14=9292|31=25.49|32=9292|37=63ef8337f608|38=9292|39=2|54=2|55=SUZB3|60=20250630-16:02:37.776|150=F|453=1|448=TRADER498|452=36|10=216|1010=236853.08|1011=TRADER498|
8=FIX.4.4|9=212|35=8|49=SISTEMA|52=20250630-16:02:37.776|56=DROPCOPY|1=ACC006|6=19.19|11=6d4c0d60807c|14=6906|31=19.19|32=6906|37=66ecea84146b|38=6906|39=2|54=2|55=ITUB4|60=20250630-16:02:37.776|150=F|453=1|448=TRADER669|452=36|10=059|1010=132526.14|1011=TRADER669|
8=FIX.4.4|9=212|35=8|49=SISTEMA|52=20250630-16:02:37.776|56=DROPCOPY|1=ACC010|6=14.68|11=1cc12a7b5a41|14=3504|31=14.68|32=3504|37=95fab7962958|38=3504|39=2|54=1|55=ITUB4|60=20250630-16:02:37.776|150=F|453=1|448=TRADER288|452=36|10=233|1010=51438.72|1011=TRADER288|
8=FIX.4.4|9=212|35=8|49=SISTEMA|52=20250630-16:02:37.777|56=DROPCOPY|1=ACC009|6=19.23|11=873c87613a4e|14=2614|31=19.23|32=2614|37=dea8246b2605|38=2614|39=2|54=2|55=ITUB4|60=20250630-16:02:37.777|150=F|453=1|448=TRADER453|452=36|10=186|1010=50267.22|1011=TRADER453|
8=FIX.4.4|9=206|35=8|49=SISTEMA|52=20250630-16:02:37.777|56=DROPCOPY|1=ACC006|6=14|11=8d60635ddae6|14=7571|31=14|32=7571|37=71300d98bb29|38=7571|39=2|54=1|55=RADL3|60=20250630-16:02:37.777|150=F|453=1|448=TRADER647|452=36|10=191|1010=105994|1011=TRADER647|
8=FIX.4.4|9=212|35=8|49=SISTEMA|52=20250630-16:02:37.777|56=DROPCOPY|1=ACC003|6=12.46|11=f172185c2ee8|14=3143|31=12.46|32=3143|37=afc7e4a5cc0f|38=3143|39=2|54=1|55=RENT3|60=20250630-16:02:37.777|150=F|453=1|448=TRADER317|452=36|10=152|1010=39161.78|1011=TRADER317|
8=FIX.4.4|9=212|35=8|49=SISTEMA|52=20250630-16:02:37.777|56=DROPCOPY|1=ACC003|6=23.17|11=59a13ce0a98c|14=6058|31=23.17|32=6058|37=d0100f20ec10|38=6058|39=2|54=1|55=RADL3|60=20250630-16:02:37.777|150=F|453=1|448=TRADER352|452=36|10=238|1010=140363.86|1011=TRADER352|
8=FIX.4.4|9=212|35=8|49=SISTEMA|52=20250630-16:02:37.777|56=DROPCOPY|1=ACC007|6=22.71|11=76e04cb20bf0|14=9946|31=22.71|32=9946|37=08f22267fdd6|38=9946|39=2|54=2|55=WEGE3|60=20250630-16:02:37.777|150=F|453=1|448=TRADER527|452=36|10=041|1010=225873.66|1011=TRADER527|
8=FIX.4.4|9=212|35=8|49=SISTEMA|52=20250630-16:02:37.778|56=DROPCOPY|1=ACC008|6=29.04|11=a2202457a186|14=3806|31=29.04|32=3806|37=2cd98a86fc92|38=3806|39=2|54=2|55=WEGE3|60=20250630-16:02:37.778|150=F|453=1|448=TRADER402|452=36|10=179|1010=110526.24|1011=TRADER402|
8=FIX.4.4|9=212|35=8|49=SISTEMA|52=20250630-16:02:37.778|56=DROPCOPY|1=ACC006|6=20.19|11=1530ab583566|14=9297|31=20.19|32=9297|37=985bdeb92343|38=9297|39=2|54=2|55=BBAS3|60=20250630-16:02:37.778|150=F|453=1|448=TRADER597|452=36|10=153|1010=187706.43|1011=TRADER597|
8=FIX.4.4|9=212|35=8|49=SISTEMA|52=20250630-16:02:37.778|56=DROPCOPY|1=ACC004|6=12.73|11=59bf6739cf23|14=4711|31=12.73|32=4711|37=3e8c8417e1e4|38=4711|39=2|54=1|55=RADL3|60=20250630-16:02:37.778|150=F|453=1|448=TRADER681|452=36|10=225|1010=59971.03|1011=TRADER681|
8=FIX.4.4|9=212|35=8|49=SISTEMA|52=20250630-16:02:37.778|56=DROPCOPY|1=ACC008|6=18.97|11=edc5811618f1|14=1526|31=18.97|32=1526|37=576c60b94325|38=1526|39=2|54=1|55=RENT3|60=20250630-16:02:37.778|150=F|453=1|448=TRADER935|452=36|10=170|1010=28948.22|1011=TRADER935|
8=FIX.4.4|9=212|35=8|49=SISTEMA|52=20250630-16:02:37.779|56=DROPCOPY|1=ACC001|6=13.09|11=6995cfd534de|14=9168|31=13.09|32=9168|37=e267f3d6f850|38=9168|39=2|54=2|55=SUZB3|60=20250630-16:02:37.779|150=F|453=1|448=TRADER770|452=36|10=088|1010=120009.12|1011=TRADER770|
8=FIX.4.4|9=212|35=8|49=SISTEMA|52=20250630-16:02:37.779|56=DROPCOPY|1=ACC010|6=19.88|11=e42deca1e791|14=7964|31=19.88|32=7964|37=203cdac1cb46|38=7964|39=2|54=2|55=SUZB3|60=20250630-16:02:37.779|150=F|453=1|448=TRADER918|452=36|10=226|1010=158324.32|1011=TRADER918|
8=FIX.4.4|9=211|35=8|49=SISTEMA|52=20250630-16:02:37.779|56=DROPCOPY|1=ACC005|6=16.93|11=f9c5ce39ed90|14=4673|31=16.93|32=4673|37=86b5817f5003|38=4673|39=2|54=1|55=WEGE3|60=20250630-16:02:37.779|150=F|453=1|448=TRADER92|452=36|10=210|1010=79113.89|1011=TRADER92|
8=FIX.4.4|9=212|35=8|49=SISTEMA|52=20250630-16:02:37.780|56=DROPCOPY|1=ACC004|6=27.69|11=b7ff5f4cd637|14=8672|31=27.69|32=8672|37=2728d5ff4716|38=8672|39=2|54=1|55=VALE3|60=20250630-16:02:37.780|150=F|453=1|448=TRADER731|452=36|10=058|1010=240127.68|1011=TRADER731|
8=FIX.4.4|9=212|35=8|49=SISTEMA|52=20250630-16:02:37.780|56=DROPCOPY|1=ACC009|6=11.94|11=172f5466b3e7|14=2727|31=11.94|32=2727|37=b4f41efdfe5d|38=2727|39=2|54=2|55=ITUB4|60=20250630-16:02:37.780|150=F|453=1|448=TRADER950|452=36|10=132|1010=32560.38|1011=TRADER950|
8=FIX.4.4|9=212|35=8|49=SISTEMA|52=20250630-16:02:37.780|56=DROPCOPY|1=ACC009|6=12.88|11=c43e0d4f0de6|14=4806|31=12.88|32=4806|37=92291346e02c|38=4806|39=2|54=2|55=ABEV3|60=20250630-16:02:37.780|150=F|453=1|448=TRADER779|452=36|10=222|1010=61901.28|1011=TRADER779|
8=FIX.4.4|9=212|35=8|49=SISTEMA|52=20250630-16:02:37.781|56=DROPCOPY|1=ACC004|6=12.63|11=6674a6f5a8cb|14=7217|31=12.63|32=7217|37=1ed86e0856d5|38=7217|39=2|54=1|55=PETR4|60=20250630-16:02:37.781|150=F|453=1|448=TRADER638|452=36|10=039|1010=91150.71|1011=TRADER638|
8=FIX.4.4|9=212|35=8|49=SISTEMA|52=20250630-16:02:37.781|56=DROPCOPY|1=ACC002|6=12.55|11=7526bd1bda9a|14=6516|31=12.55|32=6516|37=2f51d4807650|38=6516|39=2|54=1|55=RENT3|60=20250630-16:02:37.781|150=F|453=1|448=TRADER602|452=36|10=218|1010=81775.80|1011=TRADER602|
8=FIX.4.4|9=212|35=8|49=SISTEMA|52=20250630-16:02:37.781|56=DROPCOPY|1=ACC001|6=12.93|11=e99bcdba19af|14=8081|31=12.93|32=8081|37=c727ce7d8f06|38=8081|39=2|54=1|55=ITUB4|60=20250630-16:02:37.781|150=F|453=1|448=TRADER880|452=36|10=224|1010=104487.33|1011=TRADER880|
8=FIX.4.4|9=211|35=8|49=SISTEMA|52=20250630-16:02:37.781|56=DROPCOPY|1=ACC007|6=29.34|11=87de8ec50a48|14=8835|31=29.34|32=8835|37=ed5ec12f4bd4|38=8835|39=2|54=1|55=SUZB3|60=20250630-16:02:37.781|150=F|453=1|448=TRADER35|452=36|10=160|1010=259218.90|1011=TRADER35|
8=FIX.4.4|9=211|35=8|49=SISTEMA|52=20250630-16:02:37.781|56=DROPCOPY|1=ACC010|6=26.78|11=f6b80c097109|14=7261|31=26.78|32=7261|37=d5050dc3e002|38=7261|39=2|54=1|55=BBAS3|60=20250630-16:02:37.781|150=F|453=1|448=TRADER84|452=36|10=095|1010=194449.58|1011=TRADER84|
8=FIX.4.4|9=212|35=8|49=SISTEMA|52=20250630-16:02:37.782|56=DROPCOPY|1=ACC009|6=24.49|11=5df402a6335f|14=6309|31=24.49|32=6309|37=2d9ea7d0e517|38=6309|39=2|54=2|55=PETR4|60=20250630-16:02:37.782|150=F|453=1|448=TRADER293|452=36|10=044|1010=154507.41|1011=TRADER293|
8=FIX.4.4|9=210|35=8|49=SISTEMA|52=20250630-16:02:37.782|56=DROPCOPY|1=ACC004|6=13.5|11=32ef3322a2a2|14=7420|31=13.5|32=7420|37=cb98ff18ecbf|38=7420|39=2|54=1|55=RENT3|60=20250630-16:02:37.782|150=F|453=1|448=TRADER386|452=36|10=045|1010=100170.0|1011=TRADER386|
8=FIX.4.4|9=212|35=8|49=SISTEMA|52=20250630-16:02:37.782|56=DROPCOPY|1=ACC002|6=18.19|11=25fe6b2f9417|14=7499|31=18.19|32=7499|37=27152a9dd408|38=7499|39=2|54=1|55=RENT3|60=20250630-16:02:37.782|150=F|453=1|448=TRADER909|452=36|10=237|1010=136406.81|1011=TRADER909|
8=FIX.4.4|9=210|35=8|49=SISTEMA|52=20250630-16:02:37.782|56=DROPCOPY|1=ACC005|6=15.1|11=a29a8fc09781|14=4476|31=15.1|32=4476|37=2ea23abf8496|38=4476|39=2|54=1|55=PETR4|60=20250630-16:02:37.782|150=F|453=1|448=TRADER543|452=36|10=189|1010=67587.6|1011=TRADER543|
8=FIX.4.4|9=211|35=8|49=SISTEMA|52=20250630-16:02:37.783|56=DROPCOPY|1=ACC006|6=25.38|11=9e7bcc4f754d|14=5509|31=25.38|32=5509|37=5856190235f4|38=5509|39=2|54=2|55=BBDC4|60=20250630-16:02:37.783|150=F|453=1|448=TRADER23|452=36|10=116|1010=139818.42|1011=TRADER23|
8=FIX.4.4|9=212|35=8|49=SISTEMA|52=20250630-16:02:37.783|56=DROPCOPY|1=ACC003|6=24.64|11=95960b7be9c9|14=5794|31=24.64|32=5794|37=7428cc00810d|38=5794|39=2|54=1|55=BBDC4|60=20250630-16:02:37.783|150=F|453=1|448=TRADER236|452=36|10=174|1010=142764.16|1011=TRADER236|
8=FIX.4.4|9=212|35=8|49=SISTEMA|52=20250630-16:02:37.783|56=DROPCOPY|1=ACC008|6=19.34|11=775f35d6c319|14=5835|31=19.34|32=5835|37=34e749e56c10|38=5835|39=2|54=1|55=VALE3|60=20250630-16:02:37.783|150=F|453=1|448=TRADER252|452=36|10=152|1010=112848.90|1011=TRADER252|
8=FIX.4.4|9=212|35=8|49=SISTEMA|52=20250630-16:02:37.784|56=DROPCOPY|1=ACC008|6=23.73|11=0c4db4f431fa|14=4084|31=23.73|32=4084|37=1addb78e065f|38=4084|39=2|54=1|55=WEGE3|60=20250630-16:02:37.784|150=F|453=1|448=TRADER697|452=36|10=156|1010=96913.32|1011=TRADER697|
8=FIX.4.4|9=209|35=8|49=SISTEMA|52=20250630-16:02:37.784|56=DROPCOPY|1=ACC009|6=14.8|11=ee2a9bc36957|14=1478|31=14.8|32=1478|37=84080cc45121|38=1478|39=2|54=2|55=ITUB4|60=20250630-16:02:37.784|150=F|453=1|448=TRADER39|452=36|10=056|1010=21874.4|1011=TRADER39|
8=FIX.4.4|9=212|35=8|49=SISTEMA|52=20250630-16:02:37.784|56=DROPCOPY|1=ACC003|6=20.28|11=54a0a887e4a0|14=3928|31=20.28|32=3928|37=d94b03497c01|38=3928|39=2|54=1|55=ABEV3|60=20250630-16:02:37.784|150=F|453=1|448=TRADER189|452=36|10=168|1010=79659.84|1011=TRADER189|
8=FIX.4.4|9=212|35=8|49=SISTEMA|52=20250630-16:02:37.785|56=DROPCOPY|1=ACC004|6=24.42|11=ba0aef92eb94|14=5761|31=24.42|32=5761|37=008316f591f6|38=5761|39=2|54=2|55=WEGE3|60=20250630-16:02:37.785|150=F|453=1|448=TRADER306|452=36|10=011|1010=140683.62|1011=TRADER306|
8=FIX.4.4|9=212|35=8|49=SISTEMA|52=20250630-16:02:37.785|56=DROPCOPY|1=ACC003|6=12.49|11=03b20a268d7f|14=6376|31=12.49|32=6376|37=09a64a9331e8|38=6376|39=2|54=2|55=RADL3|60=20250630-16:02:37.785|150=F|453=1|448=TRADER656|452=36|10=184|1010=79636.24|1011=TRADER656|
8=FIX.4.4|9=212|35=8|49=SISTEMA|52=20250630-16:02:37.785|56=DROPCOPY|1=ACC001|6=22.68|11=9441d4f3b904|14=7323|31=22.68|32=7323|37=165876a2c12f|38=7323|39=2|54=1|55=PETR4|60=20250630-16:02:37.785|150=F|453=1|448=TRADER511|452=36|10=138|1010=166085.64|1011=TRADER511|
8=FIX.4.4|9=210|35=8|49=SISTEMA|52=20250630-16:02:37.785|56=DROPCOPY|1=ACC004|6=12.6|11=54de9e86d90c|14=5253|31=12.6|32=5253|37=868a907e23c5|38=5253|39=2|54=2|55=RENT3|60=20250630-16:02:37.785|150=F|453=1|448=TRADER297|452=36|10=151|1010=66187.8|1011=TRADER297|
8=FIX.4.4|9=212|35=8|49=SISTEMA|52=20250630-16:02:37.786|56=DROPCOPY|1=ACC009|6=19.97|11=7e0b0040f4d3|14=3822|31=19.97|32=3822|37=4f9e9f3566f9|38=3822|39=2|54=2|55=BBAS3|60=20250630-16:02:37.786|150=F|453=1|448=TRADER423|452=36|10=238|1010=76325.34|1011=TRADER423|
8=FIX.4.4|9=212|35=8|49=SISTEMA|52=20250630-16:02:37.786|56=DROPCOPY|1=ACC010|6=29.17|11=c06b30a4a14e|14=1069|31=29.17|32=1069|37=46c3e3c1fc7a|38=1069|39=2|54=2|55=RADL3|60=20250630-16:02:37.786|150=F|453=1|448=TRADER124|452=36|10=082|1010=31182.73|1011=TRADER124|
8=FIX.4.4|9=212|35=8|49=SISTEMA|52=20250630-16:02:37.786|56=DROPCOPY|1=ACC002|6=16.63|11=99ecfa077390|14=6269|31=16.63|32=6269|37=52c5c40eb7d9|38=6269|39=2|54=2|55=ABEV3|60=20250630-16:02:37.786|150=F|453=1|448=TRADER622|452=36|10=033|1010=104253.47|1011=TRADER622|
8=FIX.4.4|9=212|35=8|49=SISTEMA|52=20250630-16:02:37.787|56=DROPCOPY|1=ACC002|6=20.27|11=d5d30ccd877e|14=5432|31=20.27|32=5432|37=78e9936922e0|38=5432|39=2|54=2|55=VALE3|60=20250630-16:02:37.787|150=F|453=1|448=TRADER439|452=36|10=232|1010=110106.64|1011=TRADER439|
8=FIX.4.4|9=212|35=8|49=SISTEMA|52=20250630-16:02:37.787|56=DROPCOPY|1=ACC008|6=12.88|11=061f9047de31|14=8924|31=12.88|32=8924|37=2fc4c73b36cb|38=8924|39=2|54=2|55=RADL3|60=20250630-16:02:37.787|150=F|453=1|448=TRADER671|452=36|10=038|1010=114941.12|1011=TRADER671|
8=FIX.4.4|9=212|35=8|49=SISTEMA|52=20250630-16:02:37.787|56=DROPCOPY|1=ACC010|6=20.08|11=7e6450187366|14=1280|31=20.08|32=1280|37=b434f8521001|38=1280|39=2|54=1|55=PETR4|60=20250630-16:02:37.787|150=F|453=1|448=TRADER172|452=36|10=225|1010=25702.40|1011=TRADER172|
8=FIX.4.4|9=212|35=8|49=SISTEMA|52=20250630-16:02:37.788|56=DROPCOPY|1=ACC002|6=18.37|11=0f46289c7c3a|14=8076|31=18.37|32=8076|37=042d029a93a8|38=8076|39=2|54=2|55=PETR4|60=20250630-16:02:37.788|150=F|453=1|448=TRADER693|452=36|10=222|1010=148356.12|1011=TRADER693|
8=FIX.4.4|9=211|35=8|49=SISTEMA|52=20250630-16:02:37.788|56=DROPCOPY|1=ACC008|6=21.47|11=c273c585988f|14=2409|31=21.47|32=2409|37=1a46db082481|38=2409|39=2|54=1|55=BBAS3|60=20250630-16:02:37.788|150=F|453=1|448=TRADER36|452=36|10=070|1010=51721.23|1011=TRADER36|
8=FIX.4.4|9=212|35=8|49=SISTEMA|52=20250630-16:02:37.788|56=DROPCOPY|1=ACC004|6=14.85|11=7c0dce97cafd|14=8077|31=14.85|32=8077|37=026aade3d56c|38=8077|39=2|54=1|55=SUZB3|60=20250630-16:02:37.788|150=F|453=1|448=TRADER816|452=36|10=050|1010=119943.45|1011=TRADER816|
8=FIX.4.4|9=212|35=8|49=SISTEMA|52=20250630-16:02:37.788|56=DROPCOPY|1=ACC010|6=20.29|11=68068ea01656|14=1261|31=20.29|32=1261|37=800a8d015723|38=1261|39=2|54=1|55=VALE3|60=20250630-16:02:37.788|150=F|453=1|448=TRADER969|452=36|10=013|1010=25585.69|1011=TRADER969|
8=FIX.4.4|9=212|35=8|49=SISTEMA|52=20250630-16:02:37.789|56=DROPCOPY|1=ACC003|6=21.52|11=57441d0f251f|14=8624|31=21.52|32=8624|37=1f3f421a6672|38=8624|39=2|54=2|55=BBAS3|60=20250630-16:02:37.789|150=F|453=1|448=TRADER718|452=36|10=113|1010=185588.48|1011=TRADER718|
8=FIX.4.4|9=212|35=8|49=SISTEMA|52=20250630-16:02:37.789|56=DROPCOPY|1=ACC007|6=12.48|11=c00659fd028d|14=5292|31=12.48|32=5292|37=fa48aa9e44f3|38=5292|39=2|54=2|55=ABEV3|60=20250630-16:02:37.789|150=F|453=1|448=TRADER673|452=36|10=072|1010=66044.16|1011=TRADER673|
8=FIX.4.4|9=210|35=8|49=SISTEMA|52=20250630-16:02:37.789|56=DROPCOPY|1=ACC006|6=16.9|11=b6307a0ada43|14=4319|31=16.9|32=4319|37=dafa78eb5423|38=4319|39=2|54=2|55=WEGE3|60=20250630-16:02:37.789|150=F|453=1|448=TRADER660|452=36|10=007|1010=72991.1|1011=TRADER660|
8=FIX.4.4|9=210|35=8|49=SISTEMA|52=20250630-16:02:37.789|56=DROPCOPY|1=ACC007|6=13.5|11=e5b1e6580f7e|14=1991|31=13.5|32=1991|37=19146c4d9821|38=1991|39=2|54=2|55=ITUB4|60=20250630-16:02:37.789|150=F|453=1|448=TRADER536|452=36|10=109|1010=26878.5|1011=TRADER536|
8=FIX.4.4|9=210|35=8|49=SISTEMA|52=20250630-16:02:37.790|56=DROPCOPY|1=ACC009|6=28.1|11=ff48450ad09d|14=2168|31=28.1|32=2168|37=bc2523ccb407|38=2168|39=2|54=1|55=PETR4|60=20250630-16:02:37.790|150=F|453=1|448=TRADER678|452=36|10=227|1010=60920.8|1011=TRADER678|
8=FIX.4.4|9=212|35=8|49=SISTEMA|52=20250630-16:02:37.790|56=DROPCOPY|1=ACC003|6=14.94|11=44e031118bcb|14=7346|31=14.94|32=7346|37=b2ab3b8cf5ee|38=7346|39=2|54=2|55=VALE3|60=20250630-16:02:37.790|150=F|453=1|448=TRADER661|452=36|10=146|1010=109749.24|1011=TRADER661|
8=FIX.4.4|9=210|35=8|49=SISTEMA|52=20250630-16:02:37.790|56=DROPCOPY|1=ACC004|6=18.5|11=e3a4e0f414bf|14=6314|31=18.5|32=6314|37=180e490e967e|38=6314|39=2|54=2|55=VALE3|60=20250630-16:02:37.790|150=F|453=1|448=TRADER605|452=36|10=155|1010=116809.0|1011=TRADER605|
8=FIX.4.4|9=212|35=8|49=SISTEMA|52=20250630-16:02:37.791|56=DROPCOPY|1=ACC010|6=29.95|11=f0de06ec4bc7|14=7382|31=29.95|32=7382|37=f39e8748c4c5|38=7382|39=2|54=1|55=PETR4|60=20250630-16:02:37.791|150=F|453=1|448=TRADER926|452=36|10=167|1010=221090.90|1011=TRADER926|
8=FIX.4.4|9=212|35=8|49=SISTEMA|52=20250630-16:02:37.791|56=DROPCOPY|1=ACC002|6=12.16|11=c5ef9b85a21f|14=1044|31=12.16|32=1044|37=30c4b127b561|38=1044|39=2|54=1|55=RADL3|60=20250630-16:02:37.791|150=F|453=1|448=TRADER858|452=36|10=223|1010=12695.04|1011=TRADER858|
8=FIX.4.4|9=212|35=8|49=SISTEMA|52=20250630-16:02:37.791|56=DROPCOPY|1=ACC007|6=15.08|11=92c74d98c81b|14=4088|31=15.08|32=4088|37=20d0f1c96055|38=4088|39=2|54=2|55=VALE3|60=20250630-16:02:37.791|150=F|453=1|448=TRADER795|452=36|10=191|1010=61647.04|1011=TRADER795|
8=FIX.4.4|9=211|35=8|49=SISTEMA|52=20250630-16:02:37.791|56=DROPCOPY|1=ACC005|6=27.19|11=bb9271d069bd|14=7309|31=27.19|32=7309|37=f6e02d9e909b|38=7309|39=2|54=1|55=BBAS3|60=20250630-16:02:37.791|150=F|453=1|448=TRADER60|452=36|10=007|1010=198731.71|1011=TRADER60|
8=FIX.4.4|9=211|35=8|49=SISTEMA|52=20250630-16:02:37.791|56=DROPCOPY|1=ACC001|6=27.68|11=06c2da4deadd|14=1446|31=27.68|32=1446|37=2080ddcbb2ce|38=1446|39=2|54=2|55=VALE3|60=20250630-16:02:37.791|150=F|453=1|448=TRADER36|452=36|10=227|1010=40025.28|1011=TRADER36|
8=FIX.4.4|9=212|35=8|49=SISTEMA|52=20250630-16:02:37.792|56=DROPCOPY|1=ACC009|6=12.45|11=0d6c0bb2bc37|14=4523|31=12.45|32=4523|37=3283fb0997cd|38=4523|39=2|54=2|55=ABEV3|60=20250630-16:02:37.792|150=F|453=1|448=TRADER977|452=36|10=042|1010=56311.35|1011=TRADER977|
8=FIX.4.4|9=212|35=8|49=SISTEMA|52=20250630-16:02:37.792|56=DROPCOPY|1=ACC003|6=27.22|11=ab28eeb1b349|14=7825|31=27.22|32=7825|37=432cbe95d319|38=7825|39=2|54=1|55=RENT3|60=20250630-16:02:37.792|150=F|453=1|448=TRADER823|452=36|10=082|1010=212996.50|1011=TRADER823|
8=FIX.4.4|9=212|35=8|49=SISTEMA|52=20250630-16:02:37.792|56=DROPCOPY|1=ACC002|6=29.31|11=0042bced4e65|14=3298|31=29.31|32=3298|37=a7b8985d4345|38=3298|39=2|54=1|55=SUZB3|60=20250630-16:02:37.792|150=F|453=1|448=TRADER383|452=36|10=007|1010=96664.38|1011=TRADER383|
8=FIX.4.4|9=212|35=8|49=SISTEMA|52=20250630-16:02:37.792|56=DROPCOPY|1=ACC002|6=26.96|11=9f9b7c730bac|14=4678|31=26.96|32=4678|37=f3da6e3db8b0|38=4678|39=2|54=2|55=VALE3|60=20250630-16:02:37.792|150=F|453=1|448=TRADER977|452=36|10=250|1010=126118.88|1011=TRADER977|
8=FIX.4.4|9=212|35=8|49=SISTEMA|52=20250630-16:02:37.792|56=DROPCOPY|1=ACC006|6=10.11|11=7d3a208350d7|14=6478|31=10.11|32=6478|37=c5ea7958bd96|38=6478|39=2|54=2|55=ITUB4|60=20250630-16:02:37.792|150=F|453=1|448=TRADER944|452=36|10=249|1010=65492.58|1011=TRADER944|
8=FIX.4.4|9=212|35=8|49=SISTEMA|52=20250630-16:02:37.793|56=DROPCOPY|1=ACC007|6=25.75|11=db6fed88d57f|14=4721|31=25.75|32=4721|37=3d24f6c2b688|38=4721|39=2|54=1|55=VALE3|60=20250630-16:02:37.793|150=F|453=1|448=TRADER697|452=36|10=141|1010=121565.75|1011=TRADER697|
8=FIX.4.4|9=212|35=8|49=SISTEMA|52=20250630-16:02:37.793|56=DROPCOPY|1=ACC003|6=21.84|11=4405f725504a|14=8663|31=21.84|32=8663|37=9d4d2a158a73|38=8663|39=2|54=1|55=SUZB3|60=20250630-16:02:37.793|150=F|453=1|448=TRADER292|452=36|10=164|1010=189199.92|1011=TRADER292|
8=FIX.4.4|9=212|35=8|49=SISTEMA|52=20250630-16:02:37.793|56=DROPCOPY|1=ACC004|6=14.88|11=83bcc8af3fbf|14=8712|31=14.88|32=8712|37=678a5d3906dd|38=8712|39=2|54=2|55=BBDC4|60=20250630-16:02:37.793|150=F|453=1|448=TRADER739|452=36|10=161|1010=129634.56|1011=TRADER739|
8=FIX.4.4|9=211|35=8|49=SISTEMA|52=20250630-16:02:37.793|56=DROPCOPY|1=ACC005|6=16.67|11=880d0ae195b5|14=3224|31=16.67|32=3224|37=50904f1db06d|38=3224|39=2|54=1|55=PETR4|60=20250630-16:02:37.793|150=F|453=1|448=TRADER36|452=36|10=172|1010=53744.08|1011=TRADER36|
8=FIX.4.4|9=212|35=8|49=SISTEMA|52=20250630-16:02:37.794|56=DROPCOPY|1=ACC004|6=24.33|11=2ee39ff444cc|14=6227|31=24.33|32=6227|37=a1a9bc2e2dc0|38=6227|39=2|54=1|55=PETR4|60=20250630-16:02:37.794|150=F|453=1|448=TRADER139|452=36|10=210|1010=151502.91|1011=TRADER139|
8=FIX.4.4|9=212|35=8|49=SISTEMA|52=20250630-16:02:37.794|56=DROPCOPY|1=ACC002|6=12.41|11=2916f65d0bf5|14=7980|31=12.41|32=7980|37=5ec22c41b458|38=7980|39=2|54=1|55=BBDC4|60=20250630-16:02:37.794|150=F|453=1|448=TRADER844|452=36|10=201|1010=99031.80|1011=TRADER844|
8=FIX.4.4|9=212|35=8|49=SISTEMA|52=20250630-16:02:37.794|56=DROPCOPY|1=ACC003|6=17.53|11=68634839f910|14=3663|31=17.53|32=3663|37=85e723d33194|38=3663|39=2|54=2|55=ITUB4|60=20250630-16:02:37.794|150=F|453=1|448=TRADER210|452=36|10=010|1010=64212.39|1011=TRADER210|
8=FIX.4.4|9=212|35=8|49=SISTEMA|52=20250630-16:02:37.795|56=DROPCOPY|1=ACC004|6=26.56|11=4d9265f2f084|14=9285|31=26.56|32=9285|37=a8db86c201f0|38=9285|39=2|54=2|55=SUZB3|60=20250630-16:02:37.795|150=F|453=1|448=TRADER631|452=36|10=023|1010=246609.60|1011=TRADER631|
8=FIX.4.4|9=212|35=8|49=SISTEMA|52=20250630-16:02:37.795|56=DROPCOPY|1=ACC005|6=16.73|11=83eb0df421fe|14=4248|31=16.73|32=4248|37=493c764bf394|38=4248|39=2|54=2|55=SUZB3|60=20250630-16:02:37.795|150=F|453=1|448=TRADER338|452=36|10=063|1010=71069.04|1011=TRADER338|
8=FIX.4.4|9=210|35=8|49=SISTEMA|52=20250630-16:02:37.795|56=DROPCOPY|1=ACC010|6=18.65|11=1294a9fa4f5a|14=3077|31=18.65|32=3077|37=787672f8ea7c|38=3077|39=2|54=1|55=BBDC4|60=20250630-16:02:37.795|150=F|453=1|448=TRADER1|452=36|10=160|1010=57386.05|1011=TRADER1|
8=FIX.4.4|9=212|35=8|49=SISTEMA|52=20250630-16:02:37.795|56=DROPCOPY|1=ACC001|6=23.11|11=b0cc6883e4bd|14=7990|31=23.11|32=7990|37=75e63408242a|38=7990|39=2|54=1|55=PETR4|60=20250630-16:02:37.795|150=F|453=1|448=TRADER383|452=36|10=248|1010=184648.90|1011=TRADER383|
8=FIX.4.4|9=212|35=8|49=SISTEMA|52=20250630-16:02:37.796|56=DROPCOPY|1=ACC010|6=15.56|11=5ba58d576755|14=2316|31=15.56|32=2316|37=5ba244afa9ba|38=2316|39=2|54=1|55=VALE3|60=20250630-16:02:37.796|150=F|453=1|448=TRADER901|452=36|10=050|1010=36036.96|1011=TRADER901|
8=FIX.4.4|9=212|35=8|49=SISTEMA|52=20250630-16:02:37.796|56=DROPCOPY|1=ACC008|6=25.87|11=2da1694ab382|14=5545|31=25.87|32=5545|37=3ff51edd72af|38=5545|39=2|54=2|55=BBAS3|60=20250630-16:02:37.796|150=F|453=1|448=TRADER615|452=36|10=118|1010=143449.15|1011=TRADER615|
8=FIX.4.4|9=212|35=8|49=SISTEMA|52=20250630-16:02:37.796|56=DROPCOPY|1=ACC004|6=11.11|11=04d560dafc4a|14=6170|31=11.11|32=6170|37=2a4199fb2405|38=6170|39=2|54=1|55=VALE3|60=20250630-16:02:37.796|150=F|453=1|448=TRADER122|452=36|10=221|1010=68548.70|1011=TRADER122|
8=FIX.4.4|9=212|35=8|49=SISTEMA|52=20250630-16:02:37.796|56=DROPCOPY|1=ACC003|6=26.66|11=65a819559f05|14=4401|31=26.66|32=4401|37=165a57ed9846|38=4401|39=2|54=2|55=BBDC4|60=20250630-16:02:37.796|150=F|453=1|448=TRADER510|452=36|10=057|1010=117330.66|1011=TRADER510|
8=FIX.4.4|9=212|35=8|49=SISTEMA|52=20250630-16:02:37.796|56=DROPCOPY|1=ACC010|6=22.89|11=7ae2327162a1|14=6293|31=22.89|32=6293|37=1362545fa986|38=6293|39=2|54=1|55=SUZB3|60=20250630-16:02:37.796|150=F|453=1|448=TRADER195|452=36|10=127|1010=144046.77|1011=TRADER195|
8=FIX.4.4|9=210|35=8|49=SISTEMA|52=20250630-16:02:37.797|56=DROPCOPY|1=ACC008|6=16.3|11=0c45b8fb5eed|14=3216|31=16.3|32=3216|37=60abd4d3cf51|38=3216|39=2|54=2|55=BBDC4|60=20250630-16:02:37.797|150=F|453=1|448=TRADER356|452=36|10=058|1010=52420.8|1011=TRADER356|
8=FIX.4.4|9=212|35=8|49=SISTEMA|52=20250630-16:02:37.798|56=DROPCOPY|1=ACC004|6=21.24|11=37bb791cf1db|14=9831|31=21.24|32=9831|37=c2c33e452faf|38=9831|39=2|54=2|55=BBAS3|60=20250630-16:02:37.798|150=F|453=1|448=TRADER990|452=36|10=149|1010=208810.44|1011=TRADER990|
8=FIX.4.4|9=212|35=8|49=SISTEMA|52=20250630-16:02:37.798|56=DROPCOPY|1=ACC004|6=12.31|11=464527d45896|14=9222|31=12.31|32=9222|37=9ae88b0904c5|38=9222|39=2|54=1|55=RENT3|60=20250630-16:02:37.798|150=F|453=1|448=TRADER768|452=36|10=110|1010=113522.82|1011=TRADER768|
8=FIX.4.4|9=212|35=8|49=SISTEMA|52=20250630-16:02:37.798|56=DROPCOPY|1=ACC008|6=14.37|11=4cdf3adc9597|14=8363|31=14.37|32=8363|37=e526eff4a918|38=8363|39=2|54=1|55=PETR4|60=20250630-16:02:37.798|150=F|453=1|448=TRADER771|452=36|10=172|1010=120176.31|1011=TRADER771|
8=FIX.4.4|9=212|35=8|49=SISTEMA|52=20250630-16:02:37.798|56=DROPCOPY|1=ACC003|6=14.62|11=99893417953f|14=8386|31=14.62|32=8386|37=0e01c69a20a0|38=8386|39=2|54=1|55=SUZB3|60=20250630-16:02:37.798|150=F|453=1|448=TRADER894|452=36|10=145|1010=122603.32|1011=TRADER894|
8=FIX.4.4|9=212|35=8|49=SISTEMA|52=20250630-16:02:37.798|56=DROPCOPY|1=ACC008|6=17.35|11=e059836d3d5c|14=5309|31=17.35|32=5309|37=7e42f43a3b20|38=5309|39=2|54=1|55=VALE3|60=20250630-16:02:37.798|150=F|453=1|448=TRADER199|452=36|10=239|1010=92111.15|1011=TRADER199|
8=FIX.4.4|9=212|35=8|49=SISTEMA|52=20250630-16:02:37.799|56=DROPCOPY|1=ACC007|6=13.34|11=c1abc03c0f41|14=8005|31=13.34|32=8005|37=f883df6eabab|38=8005|39=2|54=2|55=ITUB4|60=20250630-16:02:37.799|150=F|453=1|448=TRADER149|452=36|10=244|1010=106786.70|1011=TRADER149|
8=FIX.4.4|9=210|35=8|49=SISTEMA|52=20250630-16:02:37.799|56=DROPCOPY|1=ACC003|6=18.4|11=6233114fe0e5|14=4473|31=18.4|32=4473|37=a95dd297e37d|38=4473|39=2|54=1|55=WEGE3|60=20250630-16:02:37.799|150=F|453=1|448=TRADER191|452=36|10=134|1010=82303.2|1011=TRADER191|
8=FIX.4.4|9=211|35=8|49=SISTEMA|52=20250630-16:02:37.799|56=DROPCOPY|1=ACC003|6=28.02|11=884bdeb2fe99|14=1213|31=28.02|32=1213|37=f3a363136067|38=1213|39=2|54=1|55=ITUB4|60=20250630-16:02:37.799|150=F|453=1|448=TRADER59|452=36|10=172|1010=33988.26|1011=TRADER59|
8=FIX.4.4|9=212|35=8|49=SISTEMA|52=20250630-16:02:37.799|56=DROPCOPY|1=ACC002|6=24.69|11=8efd81b127ec|14=9339|31=24.69|32=9339|37=071f99ac8725|38=9339|39=2|54=1|55=BBDC4|60=20250630-16:02:37.799|150=F|453=1|448=TRADER140|452=36|10=032|1010=230579.91|1011=TRADER140|
8=FIX.4.4|9=212|35=8|49=SISTEMA|52=20250630-16:02:37.799|56=DROPCOPY|1=ACC004|6=17.15|11=7e972c588aa7|14=7671|31=17.15|32=7671|37=444f6dcae6fd|38=7671|39=2|54=2|55=ITUB4|60=20250630-16:02:37.799|150=F|453=1|448=TRADER235|452=36|10=160|1010=131557.65|1011=TRADER235|
8=FIX.4.4|9=212|35=8|49=SISTEMA|52=20250630-16:02:37.799|56=DROPCOPY|1=ACC009|6=16.79|11=47ecd4154024|14=2256|31=16.79|32=2256|37=ddf2c6175f6b|38=2256|39=2|54=1|55=BBAS3|60=20250630-16:02:37.799|150=F|453=1|448=TRADER849|452=36|10=029|1010=37878.24|1011=TRADER849|
8=FIX.4.4|9=212|35=8|49=SISTEMA|52=20250630-16:02:37.799|56=DROPCOPY|1=ACC003|6=16.96|11=520024e9a302|14=7801|31=16.96|32=7801|37=f37a8e55e75d|38=7801|39=2|54=1|55=PETR4|60=20250630-16:02:37.799|150=F|453=1|448=TRADER902|452=36|10=209|1010=132304.96|1011=TRADER902|
8=FIX.4.4|9=212|35=8|49=SISTEMA|52=20250630-16:02:37.799|56=DROPCOPY|1=ACC010|6=11.24|11=6de68cdd0e50|14=8523|31=11.24|32=8523|37=310a8573621a|38=8523|39=2|54=2|55=SUZB3|60=20250630-16:02:37.799|150=F|453=1|448=TRADER335|452=36|10=236|1010=95798.52|1011=TRADER335|
8=FIX.4.4|9=212|35=8|49=SISTEMA|52=20250630-16:02:37.800|56=DROPCOPY|1=ACC008|6=24.08|11=8409a4740d2a|14=8313|31=24.08|32=8313|37=128019321d65|38=8313|39=2|54=2|55=ABEV3|60=20250630-16:02:37.800|150=F|453=1|448=TRADER322|452=36|10=232|1010=200177.04|1011=TRADER322|
8=FIX.4.4|9=211|35=8|49=SISTEMA|52=20250630-16:02:37.800|56=DROPCOPY|1=ACC010|6=21.79|11=e0e50c0adbe2|14=1753|31=21.79|32=1753|37=79c8404ab2fc|38=1753|39=2|54=2|55=RENT3|60=20250630-16:02:37.800|150=F|453=1|448=TRADER73|452=36|10=086|1010=38197.87|1011=TRADER73|
8=FIX.4.4|9=212|35=8|49=SISTEMA|52=20250630-16:02:37.800|56=DROPCOPY|1=ACC002|6=26.39|11=a674dc7bb619|14=3180|31=26.39|32=3180|37=fae9ae7c1805|38=3180|39=2|54=2|55=WEGE3|60=20250630-16:02:37.800|150=F|453=1|448=TRADER284|452=36|10=087|1010=83920.20|1011=TRADER284|
8=FIX.4.4|9=210|35=8|49=SISTEMA|52=20250630-16:02:37.800|56=DROPCOPY|1=ACC002|6=17.3|11=789d7f690413|14=9778|31=17.3|32=9778|37=4f797a6320f4|38=9778|39=2|54=1|55=BBDC4|60=20250630-16:02:37.800|150=F|453=1|448=TRADER603|452=36|10=234|1010=169159.4|1011=TRADER603|
8=FIX.4.4|9=212|35=8|49=SISTEMA|52=20250630-16:02:37.800|56=DROPCOPY|1=ACC009|6=11.24|11=81918983b02f|14=9460|31=11.24|32=9460|37=8a59e6d46249|38=9460|39=2|54=1|55=VALE3|60=20250630-16:02:37.800|150=F|453=1|448=TRADER588|452=36|10=082|1010=106330.40|1011=TRADER588|
8=FIX.4.4|9=212|35=8|49=SISTEMA|52=20250630-16:02:37.801|56=DROPCOPY|1=ACC007|6=18.01|11=19809538b205|14=1814|31=18.01|32=1814|37=fa3655ffdb5c|38=1814|39=2|54=1|55=BBAS3|60=20250630-16:02:37.801|150=F|453=1|448=TRADER489|452=36|10=183|1010=32670.14|1011=TRADER489|
8=FIX.4.4|9=212|35=8|49=SISTEMA|52=20250630-16:02:37.801|56=DROPCOPY|1=ACC001|6=25.89|11=2675e5b9b995|14=5102|31=25.89|32=5102|37=164e5611aee5|38=5102|39=2|54=1|55=BBAS3|60=20250630-16:02:37.801|150=F|453=1|448=TRADER899|452=36|10=151|1010=132090.78|1011=TRADER899|
8=FIX.4.4|9=212|35=8|49=SISTEMA|52=20250630-16:02:37.801|56=DROPCOPY|1=ACC007|6=13.12|11=617a0a575810|14=6884|31=13.12|32=6884|37=bfac16f1e5e3|38=6884|39=2|54=2|55=RENT3|60=20250630-16:02:37.801|150=F|453=1|448=TRADER215|452=36|10=008|1010=90318.08|1011=TRADER215|
8=FIX.4.4|9=212|35=8|49=SISTEMA|52=20250630-16:02:37.801|56=DROPCOPY|1=ACC004|6=23.72|11=1b94f5991a80|14=1306|31=23.72|32=1306|37=660abc86a276|38=1306|39=2|54=2|55=BBAS3|60=20250630-16:02:37.801|150=F|453=1|448=TRADER547|452=36|10=123|1010=30978.32|1011=TRADER547|
8=FIX.4.4|9=211|35=8|49=SISTEMA|52=20250630-16:02:37.802|56=DROPCOPY|1=ACC009|6=10.03|11=11d07f8b79b6|14=6455|31=10.03|32=6455|37=86e9fbd66d45|38=6455|39=2|54=2|55=ITUB4|60=20250630-16:02:37.802|150=F|453=1|448=TRADER46|452=36|10=225|1010=64743.65|1011=TRADER46|
8=FIX.4.4|9=212|35=8|49=SISTEMA|52=20250630-16:02:37.802|56=DROPCOPY|1=ACC005|6=20.44|11=925646d777b6|14=9472|31=20.44|32=9472|37=4d297969ef8b|38=9472|39=2|54=1|55=ITUB4|60=20250630-16:02:37.802|150=F|453=1|448=TRADER881|452=36|10=168|1010=193607.68|1011=TRADER881|
8=FIX.4.4|9=212|35=8|49=SISTEMA|52=20250630-16:02:37.802|56=DROPCOPY|1=ACC009|6=22.13|11=ca942fd82c21|14=6646|31=22.13|32=6646|37=1c67a98ab0cd|38=6646|39=2|54=1|55=ABEV3|60=20250630-16:02:37.802|150=F|453=1|448=TRADER195|452=36|10=081|1010=147075.98|1011=TRADER195|
8=FIX.4.4|9=212|35=8|49=SISTEMA|52=20250630-16:02:37.802|56=DROPCOPY|1=ACC001|6=12.44|11=d8a8145c2a94|14=6124|31=12.44|32=6124|37=08c9e67b6f93|38=6124|39=2|54=2|55=RENT3|60=20250630-16:02:37.802|150=F|453=1|448=TRADER551|452=36|10=212|1010=76182.56|1011=TRADER551|
8=FIX.4.4|9=212|35=8|49=SISTEMA|52=20250630-16:02:37.802|56=DROPCOPY|1=ACC006|6=15.92|11=0408f9f212ed|14=7677|31=15.92|32=7677|37=b1f1ebee62bc|38=7677|39=2|54=2|55=RADL3|60=20250630-16:02:37.802|150=F|453=1|448=TRADER245|452=36|10=158|1010=122217.84|1011=TRADER245|
8=FIX.4.4|9=211|35=8|49=SISTEMA|52=20250630-16:02:37.803|56=DROPCOPY|1=ACC002|6=27.32|11=dc6720283121|14=5846|31=27.32|32=5846|37=cf6b16025243|38=5846|39=2|54=2|55=RADL3|60=20250630-16:02:37.803|150=F|453=1|448=TRADER50|452=36|10=251|1010=159712.72|1011=TRADER50|
8=FIX.4.4|9=212|35=8|49=SISTEMA|52=20250630-16:02:37.803|56=DROPCOPY|1=ACC005|6=20.47|11=e272a95ba290|14=4971|31=20.47|32=4971|37=06fa4d04277b|38=4971|39=2|54=1|55=RADL3|60=20250630-16:02:37.803|150=F|453=1|448=TRADER996|452=36|10=210|1010=101756.37|1011=TRADER996|
8=FIX.4.4|9=212|35=8|49=SISTEMA|52=20250630-16:02:37.803|56=DROPCOPY|1=ACC003|6=11.28|11=5b0e2d3ad0d7|14=6163|31=11.28|32=6163|37=ede4319d73cb|38=6163|39=2|54=1|55=SUZB3|60=20250630-16:02:37.803|150=F|453=1|448=TRADER872|452=36|10=152|1010=69518.64|1011=TRADER872|
8=FIX.4.4|9=212|35=8|49=SISTEMA|52=20250630-16:02:37.803|56=DROPCOPY|1=ACC009|6=20.52|11=5bd3add43db2|14=5519|31=20.52|32=5519|37=93b2e017cbae|38=5519|39=2|54=1|55=BBDC4|60=20250630-16:02:37.803|150=F|453=1|448=TRADER405|452=36|10=139|1010=113249.88|1011=TRADER405|
8=FIX.4.4|9=212|35=8|49=SISTEMA|52=20250630-16:02:37.803|56=DROPCOPY|1=ACC006|6=23.03|11=5f8ae7cf93b0|14=4877|31=23.03|32=4877|37=ac5792298f8e|38=4877|39=2|54=2|55=WEGE3|60=20250630-16:02:37.803|150=F|453=1|448=TRADER783|452=36|10=088|1010=112317.31|1011=TRADER783|
8=FIX.4.4|9=212|35=8|49=SISTEMA|52=20250630-16:02:37.804|56=DROPCOPY|1=ACC008|6=20.81|11=ff8a2785f946|14=5794|31=20.81|32=5794|37=7d2346ded58d|38=5794|39=2|54=2|55=RENT3|60=20250630-16:02:37.804|150=F|453=1|448=TRADER813|452=36|10=062|1010=120573.14|1011=TRADER813|
8=FIX.4.4|9=212|35=8|49=SISTEMA|52=20250630-16:02:37.804|56=DROPCOPY|1=ACC010|6=17.57|11=4eee65df1802|14=6163|31=17.57|32=6163|37=458a470c98c7|38=6163|39=2|54=1|55=WEGE3|60=20250630-16:02:37.804|150=F|453=1|448=TRADER328|452=36|10=223|1010=108283.91|1011=TRADER328|
8=FIX.4.4|9=212|35=8|49=SISTEMA|52=20250630-16:02:37.804|56=DROPCOPY|1=ACC007|6=10.51|11=d62ffbb2b5b4|14=8282|31=10.51|32=8282|37=82eeb2e91657|38=8282|39=2|54=1|55=ABEV3|60=20250630-16:02:37.804|150=F|453=1|448=TRADER648|452=36|10=088|1010=87043.82|1011=TRADER648|
8=FIX.4.4|9=212|35=8|49=SISTEMA|52=20250630-16:02:37.804|56=DROPCOPY|1=ACC002|6=15.97|11=7302df63fb67|14=7374|31=15.97|32=7374|37=2317f59d7aaf|38=7374|39=2|54=1|55=ITUB4|60=20250630-16:02:37.804|150=F|453=1|448=TRADER525|452=36|10=041|1010=117762.78|1011=TRADER525|
8=FIX.4.4|9=212|35=8|49=SISTEMA|52=20250630-16:02:37.804|56=DROPCOPY|1=ACC007|6=14.53|11=53cd8d4ce1f8|14=4197|31=14.53|32=4197|37=43227efff5ab|38=4197|39=2|54=1|55=RADL3|60=20250630-16:02:37.804|150=F|453=1|448=TRADER541|452=36|10=151|1010=60982.41|1011=TRADER541|
8=FIX.4.4|9=212|35=8|49=SISTEMA|52=20250630-16:02:37.805|56=DROPCOPY|1=ACC005|6=22.44|11=eaaa5d9a3fa4|14=8286|31=22.44|32=8286|37=539b4dc16191|38=8286|39=2|54=1|55=PETR4|60=20250630-16:02:37.805|150=F|453=1|448=TRADER422|452=36|10=119|1010=185937.84|1011=TRADER422|
8=FIX.4.4|9=212|35=8|49=SISTEMA|52=20250630-16:02:37.805|56=DROPCOPY|1=ACC004|6=11.39|11=e761384f3188|14=4218|31=11.39|32=4218|37=1a2cb66bf059|38=4218|39=2|54=2|55=RADL3|60=20250630-16:02:37.805|150=F|453=1|448=TRADER198|452=36|10=159|1010=48043.02|1011=TRADER198|
8=FIX.4.4|9=212|35=8|49=SISTEMA|52=20250630-16:02:37.805|56=DROPCOPY|1=ACC005|6=11.56|11=356ca84c07d1|14=3515|31=11.56|32=3515|37=d4e819890ecd|38=3515|39=2|54=2|55=ABEV3|60=20250630-16:02:37.805|150=F|453=1|448=TRADER795|452=36|10=251|1010=40633.40|1011=TRADER795|
8=FIX.4.4|9=212|35=8|49=SISTEMA|52=20250630-16:02:37.805|56=DROPCOPY|1=ACC002|6=28.65|11=c471dbb8099a|14=1033|31=28.65|32=1033|37=ada9f2497317|38=1033|39=2|54=2|55=PETR4|60=20250630-16:02:37.805|150=F|453=1|448=TRADER234|452=36|10=004|1010=29595.45|1011=TRADER234|
8=FIX.4.4|9=212|35=8|49=SISTEMA|52=20250630-16:02:37.806|56=DROPCOPY|1=ACC007|6=24.93|11=f3b64df13543|14=1639|31=24.93|32=1639|37=3ceb35072d1c|38=1639|39=2|54=1|55=BBAS3|60=20250630-16:02:37.806|150=F|453=1|448=TRADER513|452=36|10=241|1010=40860.27|1011=TRADER513|
8=FIX.4.4|9=212|35=8|49=SISTEMA|52=20250630-16:02:37.806|56=DROPCOPY|1=ACC003|6=19.01|11=460893f696bc|14=9356|31=19.01|32=9356|37=e75aa36aa94f|38=9356|39=2|54=1|55=SUZB3|60=20250630-16:02:37.806|150=F|453=1|448=TRADER556|452=36|10=056|1010=177857.56|1011=TRADER556|
8=FIX.4.4|9=212|35=8|49=SISTEMA|52=20250630-16:02:37.806|56=DROPCOPY|1=ACC007|6=19.84|11=84d2256836db|14=9483|31=19.84|32=9483|37=2d7fb33317ab|38=9483|39=2|54=2|55=ABEV3|60=20250630-16:02:37.806|150=F|453=1|448=TRADER686|452=36|10=244|1010=188142.72|1011=TRADER686|
8=FIX.4.4|9=212|35=8|49=SISTEMA|52=20250630-16:02:37.806|56=DROPCOPY|1=ACC006|6=26.17|11=e5d6cc9f1de7|14=6620|31=26.17|32=6620|37=e6e99aed702b|38=6620|39=2|54=2|55=BBAS3|60=20250630-16:02:37.806|150=F|453=1|448=TRADER994|452=36|10=199|1010=173245.40|1011=TRADER994|
8=FIX.4.4|9=212|35=8|49=SISTEMA|52=20250630-16:02:37.806|56=DROPCOPY|1=ACC004|6=17.82|11=7ef1b2a32b27|14=6099|31=17.82|32=6099|37=6c051128cdaf|38=6099|39=2|54=2|55=RENT3|60=20250630-16:02:37.806|150=F|453=1|448=TRADER920|452=36|10=076|1010=108684.18|1011=TRADER920|
8=FIX.4.4|9=212|35=8|49=SISTEMA|52=20250630-16:02:37.806|56=DROPCOPY|1=ACC002|6=12.34|11=e0480e8fbda4|14=8376|31=12.34|32=8376|37=cb339a578d23|38=8376|39=2|54=2|55=PETR4|60=20250630-16:02:37.806|150=F|453=1|448=TRADER828|452=36|10=085|1010=103359.84|1011=TRADER828|
8=FIX.4.4|9=212|35=8|49=SISTEMA|52=20250630-16:02:37.807|56=DROPCOPY|1=ACC006|6=18.63|11=2c7299bb361d|14=5175|31=18.63|32=5175|37=2d52f64be5c1|38=5175|39=2|54=2|55=RENT3|60=20250630-16:02:37.807|150=F|453=1|448=TRADER243|452=36|10=027|1010=96410.25|1011=TRADER243|
8=FIX.4.4|9=212|35=8|49=SISTEMA|52=20250630-16:02:37.807|56=DROPCOPY|1=ACC007|6=26.38|11=9ced7531e292|14=7969|31=26.38|32=7969|37=f47f6f21af57|38=7969|39=2|54=2|55=ITUB4|60=20250630-16:02:37.807|150=F|453=1|448=TRADER404|452=36|10=081|1010=210222.22|1011=TRADER404|
8=FIX.4.4|9=212|35=8|49=SISTEMA|52=20250630-16:02:37.807|56=DROPCOPY|1=ACC009|6=26.31|11=444ca94bf138|14=2877|31=26.31|32=2877|37=da0952f3b561|38=2877|39=2|54=1|55=WEGE3|60=20250630-16:02:37.807|150=F|453=1|448=TRADER567|452=36|10=233|1010=75693.87|1011=TRADER567|
8=FIX.4.4|9=212|35=8|49=SISTEMA|52=20250630-16:02:37.807|56=DROPCOPY|1=ACC005|6=28.73|11=b2edb90946a8|14=4878|31=28.73|32=4878|37=50980c7cb1e9|38=4878|39=2|54=2|55=BBDC4|60=20250630-16:02:37.807|150=F|453=1|448=TRADER115|452=36|10=019|1010=140144.94|1011=TRADER115|
8=FIX.4.4|9=212|35=8|49=SISTEMA|52=20250630-16:02:37.807|56=DROPCOPY|1=ACC009|6=23.32|11=fa4bb4208f9f|14=3263|31=23.32|32=3263|37=ee3e6607035f|38=3263|39=2|54=2|55=SUZB3|60=20250630-16:02:37.807|150=F|453=1|448=TRADER318|452=36|10=070|1010=76093.16|1011=TRADER318|
8=FIX.4.4|9=212|35=8|49=SISTEMA|52=20250630-16:02:37.807|56=DROPCOPY|1=ACC005|6=22.59|11=9b759e53f6d7|14=4750|31=22.59|32=4750|37=70292e51678a|38=4750|39=2|54=2|55=BBDC4|60=20250630-16:02:37.807|150=F|453=1|448=TRADER700|452=36|10=111|1010=107302.50|1011=TRADER700|
8=FIX.4.4|9=212|35=8|49=SISTEMA|52=20250630-16:02:37.808|56=DROPCOPY|1=ACC009|6=29.95|11=058ec4704444|14=2125|31=29.95|32=2125|37=96069bf0682e|38=2125|39=2|54=2|55=BBDC4|60=20250630-16:02:37.808|150=F|453=1|448=TRADER774|452=36|10=062|1010=63643.75|1011=TRADER774|
8=FIX.4.4|9=212|35=8|49=SISTEMA|52=20250630-16:02:37.808|56=DROPCOPY|1=ACC009|6=15.93|11=41a921377a24|14=6002|31=15.93|32=6002|37=b24502f0233f|38=6002|39=2|54=1|55=RADL3|60=20250630-16:02:37.808|150=F|453=1|448=TRADER375|452=36|10=031|1010=95611.86|1011=TRADER375|
8=FIX.4.4|9=212|35=8|49=SISTEMA|52=20250630-16:02:37.808|56=DROPCOPY|1=ACC001|6=12.25|11=e02eb5ac9f2d|14=8304|31=12.25|32=8304|37=0230d41593bd|38=8304|39=2|54=1|55=RADL3|60=20250630-16:02:37.808|150=F|453=1|448=TRADER742|452=36|10=014|1010=101724.00|1011=TRADER742|
8=FIX.4.4|9=212|35=8|49=SISTEMA|52=20250630-16:02:37.808|56=DROPCOPY|1=ACC008|6=23.77|11=11435dabf40b|14=5312|31=23.77|32=5312|37=04076a5a6d42|38=5312|39=2|54=1|55=WEGE3|60=20250630-16:02:37.808|150=F|453=1|448=TRADER813|452=36|10=183|1010=126266.24|1011=TRADER813|
8=FIX.4.4|9=212|35=8|49=SISTEMA|52=20250630-16:02:37.808|56=DROPCOPY|1=ACC002|6=15.12|11=3aae1b3af223|14=1964|31=15.12|32=1964|37=846b47946846|38=1964|39=2|54=2|55=RADL3|60=20250630-16:02:37.808|150=F|453=1|448=TRADER712|452=36|10=155|1010=29695.68|1011=TRADER712|
8=FIX.4.4|9=212|35=8|49=SISTEMA|52=20250630-16:02:37.809|56=DROPCOPY|1=ACC007|6=10.25|11=6ca519409b64|14=1314|31=10.25|32=1314|37=f776be441940|38=1314|39=2|54=2|55=ABEV3|60=20250630-16:02:37.809|150=F|453=1|448=TRADER190|452=36|10=081|1010=13468.50|1011=TRADER190|
8=FIX.4.4|9=212|35=8|49=SISTEMA|52=20250630-16:02:37.809|56=DROPCOPY|1=ACC010|6=28.41|11=90ce6791b4bb|14=2627|31=28.41|32=2627|37=e92985b9679e|38=2627|39=2|54=2|55=BBDC4|60=20250630-16:02:37.809|150=F|453=1|448=TRADER668|452=36|10=222|1010=74633.07|1011=TRADER668|
8=FIX.4.4|9=212|35=8|49=SISTEMA|52=20250630-16:02:37.809|56=DROPCOPY|1=ACC001|6=21.66|11=130eb41ec6a4|14=8098|31=21.66|32=8098|37=7ae24aaf72e0|38=8098|39=2|54=2|55=PETR4|60=20250630-16:02:37.809|150=F|453=1|448=TRADER916|452=36|10=128|1010=175402.68|1011=TRADER916|
8=FIX.4.4|9=211|35=8|49=SISTEMA|52=20250630-16:02:37.809|56=DROPCOPY|1=ACC009|6=18.87|11=0bdb60856314|14=4935|31=18.87|32=4935|37=1f28e1b28ff5|38=4935|39=2|54=2|55=ABEV3|60=20250630-16:02:37.809|150=F|453=1|448=TRADER19|452=36|10=186|1010=93123.45|1011=TRADER19|
8=FIX.4.4|9=212|35=8|49=SISTEMA|52=20250630-16:02:37.809|56=DROPCOPY|1=ACC010|6=11.39|11=c9875c0074ed|14=7029|31=11.39|32=7029|37=c557d20865a1|38=7029|39=2|54=1|55=WEGE3|60=20250630-16:02:37.809|150=F|453=1|448=TRADER990|452=36|10=176|1010=80060.31|1011=TRADER990|
8=FIX.4.4|9=212|35=8|49=SISTEMA|52=20250630-16:02:37.810|56=DROPCOPY|1=ACC007|6=29.44|11=e031858f2ccd|14=5317|31=29.44|32=5317|37=a6e5267b137d|38=5317|39=2|54=2|55=ITUB4|60=20250630-16:02:37.810|150=F|453=1|448=TRADER949|452=36|10=023|1010=156532.48|1011=TRADER949|
8=FIX.4.4|9=211|35=8|49=SISTEMA|52=20250630-16:02:37.810|56=DROPCOPY|1=ACC002|6=26.84|11=6f69fd99ab2b|14=8686|31=26.84|32=8686|37=86f1467fa5df|38=8686|39=2|54=2|55=RADL3|60=20250630-16:02:37.810|150=F|453=1|448=TRADER50|452=36|10=093|1010=233132.24|1011=TRADER50|
8=FIX.4.4|9=210|35=8|49=SISTEMA|52=20250630-16:02:37.810|56=DROPCOPY|1=ACC009|6=29.2|11=97faeb146429|14=6125|31=29.2|32=6125|37=3c2fe9d6ff54|38=6125|39=2|54=1|55=RADL3|60=20250630-16:02:37.810|150=F|453=1|448=TRADER768|452=36|10=211|1010=178850.0|1011=TRADER768|
8=FIX.4.4|9=212|35=8|49=SISTEMA|52=20250630-16:02:37.810|56=DROPCOPY|1=ACC009|6=20.51|11=be3a35b1cdfd|14=3746|31=20.51|32=3746|37=89e8dbdc603e|38=3746|39=2|54=2|55=PETR4|60=20250630-16:02:37.810|150=F|453=1|448=TRADER504|452=36|10=248|1010=76830.46|1011=TRADER504|
8=FIX.4.4|9=212|35=8|49=SISTEMA|52=20250630-16:02:37.810|56=DROPCOPY|1=ACC005|6=23.75|11=a10833e7627f|14=8917|31=23.75|32=8917|37=a4ca93cde937|38=8917|39=2|54=2|55=WEGE3|60=20250630-16:02:37.810|150=F|453=1|448=TRADER596|452=36|10=033|1010=211778.75|1011=TRADER596|
8=FIX.4.4|9=212|35=8|49=SISTEMA|52=20250630-16:02:37.811|56=DROPCOPY|1=ACC009|6=25.51|11=9a5005218ac8|14=8570|31=25.51|32=8570|37=e74bbf12fe17|38=8570|39=2|54=1|55=RENT3|60=20250630-16:02:37.811|150=F|453=1|448=TRADER619|452=36|10=018|1010=218620.70|1011=TRADER619|
8=FIX.4.4|9=210|35=8|49=SISTEMA|52=20250630-16:02:37.811|56=DROPCOPY|1=ACC005|6=13.3|11=2bb18edfe627|14=4234|31=13.3|32=4234|37=59d2a08855da|38=4234|39=2|54=1|55=SUZB3|60=20250630-16:02:37.811|150=F|453=1|448=TRADER296|452=36|10=210|1010=56312.2|1011=TRADER296|
8=FIX.4.4|9=211|35=8|49=SISTEMA|52=20250630-16:02:37.811|56=DROPCOPY|1=ACC007|6=10.91|11=5dd061f42602|14=9196|31=10.91|32=9196|37=030f27ca04e5|38=9196|39=2|54=2|55=ABEV3|60=20250630-16:02:37.811|150=F|453=1|448=TRADER22|452=36|10=085|1010=100328.36|1011=TRADER22|
8=FIX.4.4|9=212|35=8|49=SISTEMA|52=20250630-16:02:37.811|56=DROPCOPY|1=ACC001|6=11.82|11=e03d883fd8fd|14=1072|31=11.82|32=1072|37=902ae35d56b6|38=1072|39=2|54=1|55=BBDC4|60=20250630-16:02:37.811|150=F|453=1|448=TRADER236|452=36|10=248|1010=12671.04|1011=TRADER236|
8=FIX.4.4|9=212|35=8|49=SISTEMA|52=20250630-16:02:37.811|56=DROPCOPY|1=ACC001|6=23.57|11=3596ba650257|14=1986|31=23.57|32=1986|37=85f1656ee0a9|38=1986|39=2|54=1|55=RADL3|60=20250630-16:02:37.811|150=F|453=1|448=TRADER546|452=36|10=136|1010=46810.02|1011=TRADER546|
8=FIX.4.4|9=212|35=8|49=SISTEMA|52=20250630-16:02:37.811|56=DROPCOPY|1=ACC007|6=21.48|11=39e7fbe7df46|14=9313|31=21.48|32=9313|37=16da8b3e4a8c|38=9313|39=2|54=1|55=RADL3|60=20250630-16:02:37.811|150=F|453=1|448=TRADER904|452=36|10=146|1010=200043.24|1011=TRADER904|
8=FIX.4.4|9=212|35=8|49=SISTEMA|52=20250630-16:02:37.812|56=DROPCOPY|1=ACC010|6=15.94|11=3de2dfbc9c05|14=2529|31=15.94|32=2529|37=9823f3b4d32b|38=2529|39=2|54=2|55=PETR4|60=20250630-16:02:37.812|150=F|453=1|448=TRADER767|452=36|10=125|1010=40312.26|1011=TRADER767|
8=FIX.4.4|9=212|35=8|49=SISTEMA|52=20250630-16:02:37.812|56=DROPCOPY|1=ACC008|6=24.22|11=c0dfce851dee|14=2254|31=24.22|32=2254|37=4a11f1f0644a|38=2254|39=2|54=1|55=RENT3|60=20250630-16:02:37.812|150=F|453=1|448=TRADER334|452=36|10=123|1010=54591.88|1011=TRADER334|
8=FIX.4.4|9=212|35=8|49=SISTEMA|52=20250630-16:02:37.812|56=DROPCOPY|1=ACC003|6=18.07|11=9cbbd4b7db03|14=6357|31=18.07|32=6357|37=e8f92df5e8b2|38=6357|39=2|54=1|55=PETR4|60=20250630-16:02:37.812|150=F|453=1|448=TRADER389|452=36|10=235|1010=114870.99|1011=TRADER389|
8=FIX.4.4|9=209|35=8|49=SISTEMA|52=20250630-16:02:37.812|56=DROPCOPY|1=ACC010|6=29.6|11=82d614b77dcb|14=9171|31=29.6|32=9171|37=710a370912cb|38=9171|39=2|54=1|55=VALE3|60=20250630-16:02:37.812|150=F|453=1|448=TRADER53|452=36|10=054|1010=271461.6|1011=TRADER53|
8=FIX.4.4|9=212|35=8|49=SISTEMA|52=20250630-16:02:37.812|56=DROPCOPY|1=ACC002|6=28.49|11=2fdca45e5e0e|14=5038|31=28.49|32=5038|37=a083390d9d82|38=5038|39=2|54=1|55=VALE3|60=20250630-16:02:37.812|150=F|453=1|448=TRADER884|452=36|10=061|1010=143532.62|1011=TRADER884|
8=FIX.4.4|9=210|35=8|49=SISTEMA|52=20250630-16:02:37.813|56=DROPCOPY|1=ACC006|6=14.9|11=2808880668b2|14=3327|31=14.9|32=3327|37=e46c0244d9bb|38=3327|39=2|54=1|55=PETR4|60=20250630-16:02:37.813|150=F|453=1|448=TRADER816|452=36|10=034|1010=49572.3|1011=TRADER816|
8=FIX.4.4|9=212|35=8|49=SISTEMA|52=20250630-16:02:37.813|56=DROPCOPY|1=ACC003|6=28.34|11=6bf612f4063a|14=5023|31=28.34|32=5023|37=23f743080542|38=5023|39=2|54=2|55=BBDC4|60=20250630-16:02:37.813|150=F|453=1|448=TRADER493|452=36|10=010|1010=142351.82|1011=TRADER493|
