8=FIX.4.4|9=212|35=8|49=SISTEMA|52=20250630-14:04:01.750|56=DROPCOPY|1=ACC004|6=29.05|11=cff4d8b27bf9|14=9432|31=29.05|32=9432|37=efbdec2a2854|38=9432|39=2|54=1|55=ABEV3|60=20250630-14:04:01.750|150=F|453=1|448=TRADER731|452=36|10=222|
8=FIX.4.4|9=212|35=8|49=SISTEMA|52=20250630-14:04:01.793|56=DROPCOPY|1=ACC009|6=18.55|11=5cfe2ecb4bd1|14=5898|31=18.55|32=5898|37=9e18c2a9a73c|38=5898|39=2|54=2|55=BBAS3|60=20250630-14:04:01.793|150=F|453=1|448=TRADER781|452=36|10=223|
8=FIX.4.4|9=212|35=8|49=SISTEMA|52=20250630-14:04:01.795|56=DROPCOPY|1=ACC009|6=19.46|11=acf741559250|14=3227|31=19.46|32=3227|37=5b4e23918189|38=3227|39=2|54=1|55=ITUB4|60=20250630-14:04:01.795|150=F|453=1|448=TRADER735|452=36|10=091|
8=FIX.4.4|9=212|35=8|49=SISTEMA|52=20250630-14:04:01.795|56=DROPCOPY|1=ACC007|6=25.07|11=10170672f89a|14=9384|31=25.07|32=9384|37=337ea72b9633|38=9384|39=2|54=2|55=VALE3|60=20250630-14:04:01.795|150=F|453=1|448=TRADER663|452=36|10=089|
8=FIX.4.4|9=212|35=8|49=SISTEMA|52=20250630-14:04:01.795|56=DROPCOPY|1=ACC007|6=14.41|11=e7d713d7bb4c|14=3094|31=14.41|32=3094|37=903b3649c864|38=3094|39=2|54=1|55=ITUB4|60=20250630-14:04:01.795|150=F|453=1|448=TRADER614|452=36|10=216|
8=FIX.4.4|9=212|35=8|49=SISTEMA|52=20250630-14:04:01.795|56=DROPCOPY|1=ACC003|6=20.19|11=7cc1d19087ce|14=3213|31=20.19|32=3213|37=4e8125608f60|38=3213|39=2|54=1|55=RENT3|60=20250630-14:04:01.795|150=F|453=1|448=TRADER440|452=36|10=144|
8=FIX.4.4|9=212|35=8|49=SISTEMA|52=20250630-14:04:01.797|56=DROPCOPY|1=ACC006|6=13.18|11=997809938ff1|14=3883|31=13.18|32=3883|37=d737a77bb32f|38=3883|39=2|54=1|55=WEGE3|60=20250630-14:04:01.797|150=F|453=1|448=TRADER481|452=36|10=204|
8=FIX.4.4|9=212|35=8|49=SISTEMA|52=20250630-14:04:01.797|56=DROPCOPY|1=ACC002|6=11.51|11=f8226bab3b36|14=2262|31=11.51|32=2262|37=8e1fed0260cd|38=2262|39=2|54=1|55=SUZB3|60=20250630-14:04:01.797|150=F|453=1|448=TRADER172|452=36|10=082|
8=FIX.4.4|9=212|35=8|49=SISTEMA|52=20250630-14:04:01.797|56=DROPCOPY|1=ACC010|6=27.52|11=c44f60daa932|14=5088|31=27.52|32=5088|37=fa5458d3643f|38=5088|39=2|54=2|55=WEGE3|60=20250630-14:04:01.797|150=F|453=1|448=TRADER625|452=36|10=015|
8=FIX.4.4|9=210|35=8|49=SISTEMA|52=20250630-14:04:01.798|56=DROPCOPY|1=ACC007|6=14.6|11=f3fcb40a0318|14=7935|31=14.6|32=7935|37=f0e5b50b1a3b|38=7935|39=2|54=1|55=VALE3|60=20250630-14:04:01.798|150=F|453=1|448=TRADER200|452=36|10=235|
8=FIX.4.4|9=212|35=8|49=SISTEMA|52=20250630-14:04:01.798|56=DROPCOPY|1=ACC001|6=20.82|11=32a32de68b8a|14=8156|31=20.82|32=8156|37=2859b2479c62|38=8156|39=2|54=2|55=BBDC4|60=20250630-14:04:01.798|150=F|453=1|448=TRADER732|452=36|10=143|
8=FIX.4.4|9=212|35=8|49=SISTEMA|52=20250630-14:04:01.798|56=DROPCOPY|1=ACC001|6=11.83|11=c3f7b36ab9c0|14=2126|31=11.83|32=2126|37=87d468c008fc|38=2126|39=2|54=1|55=PETR4|60=20250630-14:04:01.798|150=F|453=1|448=TRADER354|452=36|10=051|
8=FIX.4.4|9=212|35=8|49=SISTEMA|52=20250630-14:04:01.799|56=DROPCOPY|1=ACC002|6=17.82|11=a461fe96e308|14=4106|31=17.82|32=4106|37=7c41b5cf3753|38=4106|39=2|54=2|55=VALE3|60=20250630-14:04:01.799|150=F|453=1|448=TRADER905|452=36|10=208|
8=FIX.4.4|9=212|35=8|49=SISTEMA|52=20250630-14:04:01.799|56=DROPCOPY|1=ACC001|6=22.64|11=81412af3502a|14=7400|31=22.64|32=7400|37=f66a36607594|38=7400|39=2|54=1|55=ITUB4|60=20250630-14:04:01.799|150=F|453=1|448=TRADER797|452=36|10=066|
8=FIX.4.4|9=212|35=8|49=SISTEMA|52=20250630-14:04:01.799|56=DROPCOPY|1=ACC010|6=24.07|11=781faf17847f|14=6271|31=24.07|32=6271|37=4b01da8b7479|38=6271|39=2|54=2|55=ITUB4|60=20250630-14:04:01.799|150=F|453=1|448=TRADER716|452=36|10=233|
8=FIX.4.4|9=212|35=8|49=SISTEMA|52=20250630-14:04:01.799|56=DROPCOPY|1=ACC003|6=19.72|11=35fb4dfea301|14=8389|31=19.72|32=8389|37=871fb62d8d39|38=8389|39=2|54=2|55=SUZB3|60=20250630-14:04:01.799|150=F|453=1|448=TRADER287|452=36|10=130|
8=FIX.4.4|9=210|35=8|49=SISTEMA|52=20250630-14:04:01.800|56=DROPCOPY|1=ACC006|6=23.9|11=a5897f09d45f|14=9773|31=23.9|32=9773|37=c16391f7b897|38=9773|39=2|54=1|55=SUZB3|60=20250630-14:04:01.800|150=F|453=1|448=TRADER171|452=36|10=114|
8=FIX.4.4|9=212|35=8|49=SISTEMA|52=20250630-14:04:01.800|56=DROPCOPY|1=ACC005|6=16.94|11=fc65a83a4a88|14=1405|31=16.94|32=1405|37=451c6babf783|38=1405|39=2|54=2|55=RENT3|60=20250630-14:04:01.800|150=F|453=1|448=TRADER995|452=36|10=043|
8=FIX.4.4|9=212|35=8|49=SISTEMA|52=20250630-14:04:01.800|56=DROPCOPY|1=ACC010|6=15.96|11=9e634bf917b0|14=1620|31=15.96|32=1620|37=1c102a93ecef|38=1620|39=2|54=1|55=WEGE3|60=20250630-14:04:01.800|150=F|453=1|448=TRADER335|452=36|10=255|
8=FIX.4.4|9=210|35=8|49=SISTEMA|52=20250630-14:04:01.801|56=DROPCOPY|1=ACC001|6=12.4|11=25ab6d314485|14=1350|31=12.4|32=1350|37=767b1fd2567e|38=1350|39=2|54=1|55=BBAS3|60=20250630-14:04:01.801|150=F|453=1|448=TRADER586|452=36|10=245|
8=FIX.4.4|9=212|35=8|49=SISTEMA|52=20250630-14:04:01.801|56=DROPCOPY|1=ACC008|6=24.97|11=7d71c7bfce2e|14=1535|31=24.97|32=1535|37=2dc661e25cc6|38=1535|39=2|54=2|55=RENT3|60=20250630-14:04:01.801|150=F|453=1|448=TRADER878|452=36|10=156|
8=FIX.4.4|9=210|35=8|49=SISTEMA|52=20250630-14:04:01.801|56=DROPCOPY|1=ACC008|6=26.7|11=70083dd5f6ac|14=7501|31=26.7|32=7501|37=5cd2e15d4dff|38=7501|39=2|54=2|55=ITUB4|60=20250630-14:04:01.801|150=F|453=1|448=TRADER246|452=36|10=024|
8=FIX.4.4|9=212|35=8|49=SISTEMA|52=20250630-14:04:01.801|56=DROPCOPY|1=ACC001|6=23.37|11=e67795aea05f|14=9883|31=23.37|32=9883|37=3eca69242426|38=9883|39=2|54=2|55=ITUB4|60=20250630-14:04:01.801|150=F|453=1|448=TRADER924|452=36|10=235|
8=FIX.4.4|9=212|35=8|49=SISTEMA|52=20250630-14:04:01.802|56=DROPCOPY|1=ACC002|6=21.56|11=a7fb692845c5|14=3757|31=21.56|32=3757|37=b5195c39d4e0|38=3757|39=2|54=2|55=RENT3|60=20250630-14:04:01.802|150=F|453=1|448=TRADER234|452=36|10=220|
8=FIX.4.4|9=210|35=8|49=SISTEMA|52=20250630-14:04:01.802|56=DROPCOPY|1=ACC010|6=27.33|11=18a1d1a69f30|14=5150|31=27.33|32=5150|37=f01aaba87afb|38=5150|39=2|54=1|55=VALE3|60=20250630-14:04:01.802|150=F|453=1|448=TRADER4|452=36|10=228|
8=FIX.4.4|9=212|35=8|49=SISTEMA|52=20250630-14:04:01.802|56=DROPCOPY|1=ACC008|6=14.76|11=b9934c8062f2|14=3801|31=14.76|32=3801|37=7732aa33939e|38=3801|39=2|54=2|55=ABEV3|60=20250630-14:04:01.802|150=F|453=1|448=TRADER275|452=36|10=085|
8=FIX.4.4|9=212|35=8|49=SISTEMA|52=20250630-14:04:01.802|56=DROPCOPY|1=ACC010|6=29.93|11=74c1d9d1631e|14=4265|31=29.93|32=4265|37=661f4f6f8a0a|38=4265|39=2|54=2|55=RENT3|60=20250630-14:04:01.802|150=F|453=1|448=TRADER381|452=36|10=008|
8=FIX.4.4|9=212|35=8|49=SISTEMA|52=20250630-14:04:01.802|56=DROPCOPY|1=ACC006|6=23.79|11=fa669bcf6766|14=5839|31=23.79|32=5839|37=110f6b2a6df4|38=5839|39=2|54=1|55=SUZB3|60=20250630-14:04:01.802|150=F|453=1|448=TRADER299|452=36|10=103|
8=FIX.4.4|9=212|35=8|49=SISTEMA|52=20250630-14:04:01.803|56=DROPCOPY|1=ACC002|6=20.99|11=dee707c4c995|14=2709|31=20.99|32=2709|37=50067e87530c|38=2709|39=2|54=1|55=VALE3|60=20250630-14:04:01.803|150=F|453=1|448=TRADER265|452=36|10=162|
8=FIX.4.4|9=212|35=8|49=SISTEMA|52=20250630-14:04:01.803|56=DROPCOPY|1=ACC010|6=10.43|11=20071f633d09|14=9392|31=10.43|32=9392|37=fb1e8d81e7ff|38=9392|39=2|54=2|55=VALE3|60=20250630-14:04:01.803|150=F|453=1|448=TRADER174|452=36|10=238|
8=FIX.4.4|9=212|35=8|49=SISTEMA|52=20250630-14:04:01.803|56=DROPCOPY|1=ACC008|6=16.86|11=8f92aaa855b6|14=7024|31=16.86|32=7024|37=25219b0b062b|38=7024|39=2|54=2|55=BBAS3|60=20250630-14:04:01.803|150=F|453=1|448=TRADER422|452=36|10=160|
8=FIX.4.4|9=212|35=8|49=SISTEMA|52=20250630-14:04:01.803|56=DROPCOPY|1=ACC007|6=13.97|11=3beb06b17d99|14=4213|31=13.97|32=4213|37=a96d243d3342|38=4213|39=2|54=1|55=SUZB3|60=20250630-14:04:01.803|150=F|453=1|448=TRADER630|452=36|10=200|
8=FIX.4.4|9=210|35=8|49=SISTEMA|52=20250630-14:04:01.804|56=DROPCOPY|1=ACC009|6=26.1|11=32ab072b3754|14=9442|31=26.1|32=9442|37=95f6a12e1f23|38=9442|39=2|54=2|55=WEGE3|60=20250630-14:04:01.804|150=F|453=1|448=TRADER291|452=36|10=029|
8=FIX.4.4|9=212|35=8|49=SISTEMA|52=20250630-14:04:01.804|56=DROPCOPY|1=ACC010|6=22.82|11=acf8c8f5adc4|14=4368|31=22.82|32=4368|37=f5de6008a58d|38=4368|39=2|54=2|55=RADL3|60=20250630-14:04:01.804|150=F|453=1|448=TRADER597|452=36|10=190|
8=FIX.4.4|9=211|35=8|49=SISTEMA|52=20250630-14:04:01.804|56=DROPCOPY|1=ACC006|6=21.84|11=6af349a7b9c8|14=2644|31=21.84|32=2644|37=2ee739c660bd|38=2644|39=2|54=2|55=PETR4|60=20250630-14:04:01.804|150=F|453=1|448=TRADER16|452=36|10=007|
8=FIX.4.4|9=212|35=8|49=SISTEMA|52=20250630-14:04:01.805|56=DROPCOPY|1=ACC005|6=24.21|11=c9c243b66f28|14=3801|31=24.21|32=3801|37=393ada4a6a7a|38=3801|39=2|54=2|55=VALE3|60=20250630-14:04:01.805|150=F|453=1|448=TRADER212|452=36|10=251|
8=FIX.4.4|9=209|35=8|49=SISTEMA|52=20250630-14:04:01.806|56=DROPCOPY|1=ACC006|6=19.5|11=28df43f7538d|14=8139|31=19.5|32=8139|37=c9c9092eda27|38=8139|39=2|54=1|55=WEGE3|60=20250630-14:04:01.806|150=F|453=1|448=TRADER81|452=36|10=129|
8=FIX.4.4|9=212|35=8|49=SISTEMA|52=20250630-14:04:01.806|56=DROPCOPY|1=ACC006|6=14.43|11=aa251f0d3f11|14=6737|31=14.43|32=6737|37=2d6d99ae0a3b|38=6737|39=2|54=2|55=WEGE3|60=20250630-14:04:01.806|150=F|453=1|448=TRADER599|452=36|10=085|
8=FIX.4.4|9=212|35=8|49=SISTEMA|52=20250630-14:04:01.806|56=DROPCOPY|1=ACC001|6=29.47|11=659328fdde9f|14=1157|31=29.47|32=1157|37=ff78048040ed|38=1157|39=2|54=1|55=ITUB4|60=20250630-14:04:01.806|150=F|453=1|448=TRADER552|452=36|10=020|
8=FIX.4.4|9=212|35=8|49=SISTEMA|52=20250630-14:04:01.807|56=DROPCOPY|1=ACC005|6=13.36|11=309f94989f6e|14=8898|31=13.36|32=8898|37=49ec402f519a|38=8898|39=2|54=1|55=BBAS3|60=20250630-14:04:01.807|150=F|453=1|448=TRADER838|452=36|10=207|
8=FIX.4.4|9=212|35=8|49=SISTEMA|52=20250630-14:04:01.807|56=DROPCOPY|1=ACC006|6=29.93|11=dde5bcd067c4|14=7196|31=29.93|32=7196|37=b07e6c77d072|38=7196|39=2|54=2|55=RENT3|60=20250630-14:04:01.807|150=F|453=1|448=TRADER672|452=36|10=138|
8=FIX.4.4|9=212|35=8|49=SISTEMA|52=20250630-14:04:01.807|56=DROPCOPY|1=ACC008|6=25.98|11=15e725a17fb7|14=9564|31=25.98|32=9564|37=cfd956e4d8bc|38=9564|39=2|54=2|55=BBAS3|60=20250630-14:04:01.807|150=F|453=1|448=TRADER744|452=36|10=123|
8=FIX.4.4|9=210|35=8|49=SISTEMA|52=20250630-14:04:01.807|56=DROPCOPY|1=ACC001|6=22.1|11=d91718ad152d|14=5173|31=22.1|32=5173|37=e9bb8d58366d|38=5173|39=2|54=2|55=BBDC4|60=20250630-14:04:01.807|150=F|453=1|448=TRADER112|452=36|10=094|
8=FIX.4.4|9=212|35=8|49=SISTEMA|52=20250630-14:04:01.808|56=DROPCOPY|1=ACC009|6=12.04|11=35452449b3bf|14=2145|31=12.04|32=2145|37=566fe16a1cf1|38=2145|39=2|54=1|55=SUZB3|60=20250630-14:04:01.808|150=F|453=1|448=TRADER725|452=36|10=198|
8=FIX.4.4|9=212|35=8|49=SISTEMA|52=20250630-14:04:01.808|56=DROPCOPY|1=ACC009|6=25.29|11=66bef4d50e0e|14=7630|31=25.29|32=7630|37=473fde849bfa|38=7630|39=2|54=1|55=ABEV3|60=20250630-14:04:01.808|150=F|453=1|448=TRADER248|452=36|10=141|
8=FIX.4.4|9=212|35=8|49=SISTEMA|52=20250630-14:04:01.808|56=DROPCOPY|1=ACC009|6=29.46|11=63a16fdf1ccf|14=5513|31=29.46|32=5513|37=731ed171dea1|38=5513|39=2|54=1|55=WEGE3|60=20250630-14:04:01.808|150=F|453=1|448=TRADER445|452=36|10=129|
8=FIX.4.4|9=212|35=8|49=SISTEMA|52=20250630-14:04:01.808|56=DROPCOPY|1=ACC005|6=21.51|11=58ff10e1d7f4|14=9776|31=21.51|32=9776|37=567fc8157ce8|38=9776|39=2|54=1|55=RADL3|60=20250630-14:04:01.808|150=F|453=1|448=TRADER903|452=36|10=027|
8=FIX.4.4|9=212|35=8|49=SISTEMA|52=20250630-14:04:01.808|56=DROPCOPY|1=ACC004|6=16.31|11=8b08fdb67045|14=1141|31=16.31|32=1141|37=63b4a58ee173|38=1141|39=2|54=1|55=BBAS3|60=20250630-14:04:01.808|150=F|453=1|448=TRADER185|452=36|10=148|
8=FIX.4.4|9=212|35=8|49=SISTEMA|52=20250630-14:04:01.809|56=DROPCOPY|1=ACC002|6=29.54|11=53298d42ef6f|14=6406|31=29.54|32=6406|37=c59451c33eb6|38=6406|39=2|54=2|55=RADL3|60=20250630-14:04:01.809|150=F|453=1|448=TRADER205|452=36|10=205|
8=FIX.4.4|9=212|35=8|49=SISTEMA|52=20250630-14:04:01.809|56=DROPCOPY|1=ACC003|6=18.92|11=cd7fd328fd09|14=1990|31=18.92|32=1990|37=59033a727fa3|38=1990|39=2|54=1|55=WEGE3|60=20250630-14:04:01.809|150=F|453=1|448=TRADER247|452=36|10=011|
8=FIX.4.4|9=212|35=8|49=SISTEMA|52=20250630-14:04:01.809|56=DROPCOPY|1=ACC009|6=16.93|11=69288f6db03f|14=9947|31=16.93|32=9947|37=c51635c50b07|38=9947|39=2|54=1|55=RENT3|60=20250630-14:04:01.809|150=F|453=1|448=TRADER517|452=36|10=219|
8=FIX.4.4|9=212|35=8|49=SISTEMA|52=20250630-14:04:01.809|56=DROPCOPY|1=ACC005|6=27.61|11=bf5c0398f877|14=3938|31=27.61|32=3938|37=7d8c23859c2d|38=3938|39=2|54=2|55=BBAS3|60=20250630-14:04:01.809|150=F|453=1|448=TRADER224|452=36|10=224|
8=FIX.4.4|9=212|35=8|49=SISTEMA|52=20250630-14:04:01.810|56=DROPCOPY|1=ACC003|6=21.98|11=7394c890b60f|14=1351|31=21.98|32=1351|37=c5b17d200d1d|38=1351|39=2|54=1|55=RENT3|60=20250630-14:04:01.810|150=F|453=1|448=TRADER336|452=36|10=179|
8=FIX.4.4|9=212|35=8|49=SISTEMA|52=20250630-14:04:01.810|56=DROPCOPY|1=ACC004|6=25.66|11=b3af2b7f5365|14=5276|31=25.66|32=5276|37=468c5acbe0de|38=5276|39=2|54=1|55=VALE3|60=20250630-14:04:01.810|150=F|453=1|448=TRADER535|452=36|10=132|
8=FIX.4.4|9=212|35=8|49=SISTEMA|52=20250630-14:04:01.810|56=DROPCOPY|1=ACC001|6=24.83|11=a12b9f2d2839|14=7346|31=24.83|32=7346|37=5125c5f9113c|38=7346|39=2|54=1|55=RADL3|60=20250630-14:04:01.810|150=F|453=1|448=TRADER495|452=36|10=140|
8=FIX.4.4|9=212|35=8|49=SISTEMA|52=20250630-14:04:01.810|56=DROPCOPY|1=ACC010|6=11.99|11=6120f915c316|14=6173|31=11.99|32=6173|37=32e5c1f4903e|38=6173|39=2|54=2|55=SUZB3|60=20250630-14:04:01.810|150=F|453=1|448=TRADER684|452=36|10=119|
8=FIX.4.4|9=212|35=8|49=SISTEMA|52=20250630-14:04:01.810|56=DROPCOPY|1=ACC004|6=11.58|11=7098db4699f0|14=3710|31=11.58|32=3710|37=a8ca577269c7|38=3710|39=2|54=2|55=SUZB3|60=20250630-14:04:01.810|150=F|453=1|448=TRADER853|452=36|10=174|
8=FIX.4.4|9=212|35=8|49=SISTEMA|52=20250630-14:04:01.811|56=DROPCOPY|1=ACC010|6=26.92|11=a4821312fee8|14=9508|31=26.92|32=9508|37=7906254f8c1a|38=9508|39=2|54=1|55=RENT3|60=20250630-14:04:01.811|150=F|453=1|448=TRADER998|452=36|10=187|
8=FIX.4.4|9=212|35=8|49=SISTEMA|52=20250630-14:04:01.811|56=DROPCOPY|1=ACC009|6=24.91|11=d514b47c3e86|14=3714|31=24.91|32=3714|37=9aa95415011c|38=3714|39=2|54=1|55=BBAS3|60=20250630-14:04:01.811|150=F|453=1|448=TRADER745|452=36|10=119|
8=FIX.4.4|9=212|35=8|49=SISTEMA|52=20250630-14:04:01.811|56=DROPCOPY|1=ACC003|6=21.48|11=4c729fc097e9|14=9788|31=21.48|32=9788|37=39693328e668|38=9788|39=2|54=2|55=RADL3|60=20250630-14:04:01.811|150=F|453=1|448=TRADER464|452=36|10=116|
8=FIX.4.4|9=212|35=8|49=SISTEMA|52=20250630-14:04:01.811|56=DROPCOPY|1=ACC008|6=17.93|11=ee5f45f926dc|14=8289|31=17.93|32=8289|37=2bb654aa82ec|38=8289|39=2|54=2|55=PETR4|60=20250630-14:04:01.811|150=F|453=1|448=TRADER438|452=36|10=191|
8=FIX.4.4|9=212|35=8|49=SISTEMA|52=20250630-14:04:01.812|56=DROPCOPY|1=ACC006|6=23.42|11=284ae35b3cb2|14=7327|31=23.42|32=7327|37=0d70954873cd|38=7327|39=2|54=1|55=RADL3|60=20250630-14:04:01.812|150=F|453=1|448=TRADER334|452=36|10=175|
8=FIX.4.4|9=212|35=8|49=SISTEMA|52=20250630-14:04:01.812|56=DROPCOPY|1=ACC002|6=22.91|11=f819c5cf1ede|14=5591|31=22.91|32=5591|37=6ace44d4a36b|38=5591|39=2|54=2|55=BBAS3|60=20250630-14:04:01.812|150=F|453=1|448=TRADER458|452=36|10=166|
8=FIX.4.4|9=210|35=8|49=SISTEMA|52=20250630-14:04:01.812|56=DROPCOPY|1=ACC008|6=22.83|11=2fc7a0b4a07d|14=1570|31=22.83|32=1570|37=628b9df76631|38=1570|39=2|54=2|55=RADL3|60=20250630-14:04:01.812|150=F|453=1|448=TRADER1|452=36|10=112|
8=FIX.4.4|9=212|35=8|49=SISTEMA|52=20250630-14:04:01.812|56=DROPCOPY|1=ACC007|6=13.27|11=a8099e2c1358|14=8620|31=13.27|32=8620|37=940befc93edb|38=8620|39=2|54=1|55=BBDC4|60=20250630-14:04:01.812|150=F|453=1|448=TRADER758|452=36|10=010|
8=FIX.4.4|9=212|35=8|49=SISTEMA|52=20250630-14:04:01.812|56=DROPCOPY|1=ACC008|6=19.41|11=9abc7710b441|14=9980|31=19.41|32=9980|37=b471f4284aad|38=9980|39=2|54=2|55=PETR4|60=20250630-14:04:01.812|150=F|453=1|448=TRADER577|452=36|10=024|
8=FIX.4.4|9=212|35=8|49=SISTEMA|52=20250630-14:04:01.812|56=DROPCOPY|1=ACC003|6=15.44|11=a62939047f5b|14=7947|31=15.44|32=7947|37=faea36965638|38=7947|39=2|54=1|55=BBAS3|60=20250630-14:04:01.812|150=F|453=1|448=TRADER609|452=36|10=167|
8=FIX.4.4|9=212|35=8|49=SISTEMA|52=20250630-14:04:01.812|56=DROPCOPY|1=ACC003|6=11.93|11=1d7fadb4af4f|14=8591|31=11.93|32=8591|37=e7bcb608e8dc|38=8591|39=2|54=2|55=WEGE3|60=20250630-14:04:01.812|150=F|453=1|448=TRADER878|452=36|10=038|
8=FIX.4.4|9=212|35=8|49=SISTEMA|52=20250630-14:04:01.813|56=DROPCOPY|1=ACC008|6=13.78|11=a69c52261a53|14=2713|31=13.78|32=2713|37=0ee4f4391531|38=2713|39=2|54=1|55=BBAS3|60=20250630-14:04:01.813|150=F|453=1|448=TRADER930|452=36|10=068|
8=FIX.4.4|9=212|35=8|49=SISTEMA|52=20250630-14:04:01.813|56=DROPCOPY|1=ACC007|6=29.31|11=67cb6f30d509|14=5754|31=29.31|32=5754|37=bc0a4d7e274c|38=5754|39=2|54=2|55=WEGE3|60=20250630-14:04:01.813|150=F|453=1|448=TRADER164|452=36|10=038|
8=FIX.4.4|9=212|35=8|49=SISTEMA|52=20250630-14:04:01.813|56=DROPCOPY|1=ACC010|6=29.69|11=af936305c405|14=1300|31=29.69|32=1300|37=6c64dbe5a45e|38=1300|39=2|54=2|55=ITUB4|60=20250630-14:04:01.813|150=F|453=1|448=TRADER989|452=36|10=241|
8=FIX.4.4|9=212|35=8|49=SISTEMA|52=20250630-14:04:01.814|56=DROPCOPY|1=ACC004|6=18.49|11=533738cb3f89|14=4205|31=18.49|32=4205|37=0a5beec42d1d|38=4205|39=2|54=2|55=BBDC4|60=20250630-14:04:01.814|150=F|453=1|448=TRADER619|452=36|10=001|
8=FIX.4.4|9=212|35=8|49=SISTEMA|52=20250630-14:04:01.814|56=DROPCOPY|1=ACC003|6=19.14|11=c86ef70c8990|14=9114|31=19.14|32=9114|37=11b4ede5fdc5|38=9114|39=2|54=2|55=RENT3|60=20250630-14:04:01.814|150=F|453=1|448=TRADER313|452=36|10=095|
8=FIX.4.4|9=212|35=8|49=SISTEMA|52=20250630-14:04:01.814|56=DROPCOPY|1=ACC006|6=13.57|11=dfa679df9736|14=4381|31=13.57|32=4381|37=e6622165185a|38=4381|39=2|54=2|55=SUZB3|60=20250630-14:04:01.814|150=F|453=1|448=TRADER640|452=36|10=188|
8=FIX.4.4|9=212|35=8|49=SISTEMA|52=20250630-14:04:01.814|56=DROPCOPY|1=ACC002|6=20.53|11=0a9a9689ea5e|14=1145|31=20.53|32=1145|37=5bb6b3b45fd6|38=1145|39=2|54=2|55=RENT3|60=20250630-14:04:01.814|150=F|453=1|448=TRADER483|452=36|10=077|
8=FIX.4.4|9=212|35=8|49=SISTEMA|52=20250630-14:04:01.814|56=DROPCOPY|1=ACC008|6=17.82|11=6d0028f2aaea|14=1352|31=17.82|32=1352|37=93fe77b0b584|38=1352|39=2|54=1|55=WEGE3|60=20250630-14:04:01.814|150=F|453=1|448=TRADER743|452=36|10=020|
8=FIX.4.4|9=206|35=8|49=SISTEMA|52=20250630-14:04:01.814|56=DROPCOPY|1=ACC010|6=26|11=199fda8e25e8|14=9285|31=26|32=9285|37=d3e9e0f65570|38=9285|39=2|54=2|55=VALE3|60=20250630-14:04:01.814|150=F|453=1|448=TRADER899|452=36|10=252|
8=FIX.4.4|9=212|35=8|49=SISTEMA|52=20250630-14:04:01.814|56=DROPCOPY|1=ACC006|6=12.77|11=c1d586dfe0d4|14=1750|31=12.77|32=1750|37=938696fe2df7|38=1750|39=2|54=2|55=WEGE3|60=20250630-14:04:01.814|150=F|453=1|448=TRADER735|452=36|10=051|
8=FIX.4.4|9=212|35=8|49=SISTEMA|52=20250630-14:04:01.814|56=DROPCOPY|1=ACC009|6=19.32|11=8e3c36dc5947|14=5360|31=19.32|32=5360|37=955fa65ce846|38=5360|39=2|54=2|55=RENT3|60=20250630-14:04:01.814|150=F|453=1|448=TRADER929|452=36|10=237|
8=FIX.4.4|9=212|35=8|49=SISTEMA|52=20250630-14:04:01.814|56=DROPCOPY|1=ACC010|6=11.14|11=1a9a9c1d46b9|14=7772|31=11.14|32=7772|37=014d2ffd56cb|38=7772|39=2|54=2|55=ABEV3|60=20250630-14:04:01.814|150=F|453=1|448=TRADER248|452=36|10=065|
8=FIX.4.4|9=212|35=8|49=SISTEMA|52=20250630-14:04:01.814|56=DROPCOPY|1=ACC010|6=12.25|11=11320a57c3a5|14=4764|31=12.25|32=4764|37=d0a42e259286|38=4764|39=2|54=1|55=RENT3|60=20250630-14:04:01.814|150=F|453=1|448=TRADER495|452=36|10=098|
8=FIX.4.4|9=212|35=8|49=SISTEMA|52=20250630-14:04:01.814|56=DROPCOPY|1=ACC009|6=29.68|11=0a3f53093c96|14=2596|31=29.68|32=2596|37=1070e468e9d1|38=2596|39=2|54=2|55=BBDC4|60=20250630-14:04:01.814|150=F|453=1|448=TRADER734|452=36|10=109|
8=FIX.4.4|9=212|35=8|49=SISTEMA|52=20250630-14:04:01.814|56=DROPCOPY|1=ACC006|6=29.87|11=9bc52038d626|14=2238|31=29.87|32=2238|37=f86746a3fb4d|38=2238|39=2|54=2|55=BBDC4|60=20250630-14:04:01.814|150=F|453=1|448=TRADER311|452=36|10=183|
8=FIX.4.4|9=212|35=8|49=SISTEMA|52=20250630-14:04:01.814|56=DROPCOPY|1=ACC004|6=20.28|11=6f25b944a588|14=2961|31=20.28|32=2961|37=5c1af39b0a8d|38=2961|39=2|54=1|55=RADL3|60=20250630-14:04:01.814|150=F|453=1|448=TRADER528|452=36|10=238|
8=FIX.4.4|9=212|35=8|49=SISTEMA|52=20250630-14:04:01.814|56=DROPCOPY|1=ACC002|6=14.68|11=f76028211c77|14=6071|31=14.68|32=6071|37=837bef711fa5|38=6071|39=2|54=1|55=WEGE3|60=20250630-14:04:01.814|150=F|453=1|448=TRADER478|452=36|10=150|
8=FIX.4.4|9=209|35=8|49=SISTEMA|52=20250630-14:04:01.814|56=DROPCOPY|1=ACC001|6=21.3|11=f8a260705245|14=4279|31=21.3|32=4279|37=7fcc69b6793a|38=4279|39=2|54=2|55=WEGE3|60=20250630-14:04:01.814|150=F|453=1|448=TRADER68|452=36|10=011|
8=FIX.4.4|9=212|35=8|49=SISTEMA|52=20250630-14:04:01.814|56=DROPCOPY|1=ACC008|6=23.85|11=567996b531a1|14=5517|31=23.85|32=5517|37=1d38cc19b04b|38=5517|39=2|54=1|55=BBAS3|60=20250630-14:04:01.814|150=F|453=1|448=TRADER366|452=36|10=139|
8=FIX.4.4|9=211|35=8|49=SISTEMA|52=20250630-14:04:01.814|56=DROPCOPY|1=ACC003|6=17.56|11=371772232c70|14=5419|31=17.56|32=5419|37=219b2ddde596|38=5419|39=2|54=2|55=PETR4|60=20250630-14:04:01.814|150=F|453=1|448=TRADER86|452=36|10=080|
8=FIX.4.4|9=210|35=8|49=SISTEMA|52=20250630-14:04:01.814|56=DROPCOPY|1=ACC006|6=13.9|11=61a88f2dcc83|14=9966|31=13.9|32=9966|37=ef2667c2f5e7|38=9966|39=2|54=2|55=PETR4|60=20250630-14:04:01.814|150=F|453=1|448=TRADER812|452=36|10=004|
8=FIX.4.4|9=212|35=8|49=SISTEMA|52=20250630-14:04:01.814|56=DROPCOPY|1=ACC001|6=24.22|11=0fff97ed7eaa|14=5387|31=24.22|32=5387|37=e8ee4fc21159|38=5387|39=2|54=2|55=VALE3|60=20250630-14:04:01.814|150=F|453=1|448=TRADER542|452=36|10=192|
8=FIX.4.4|9=212|35=8|49=SISTEMA|52=20250630-14:04:01.814|56=DROPCOPY|1=ACC008|6=14.46|11=245b59d567cb|14=3507|31=14.46|32=3507|37=f56c2d0dad5a|38=3507|39=2|54=2|55=BBDC4|60=20250630-14:04:01.814|150=F|453=1|448=TRADER305|452=36|10=042|
8=FIX.4.4|9=212|35=8|49=SISTEMA|52=20250630-14:04:01.814|56=DROPCOPY|1=ACC005|6=19.22|11=6886376a5770|14=3027|31=19.22|32=3027|37=e4a234329224|38=3027|39=2|54=2|55=RENT3|60=20250630-14:04:01.814|150=F|453=1|448=TRADER267|452=36|10=218|
8=FIX.4.4|9=212|35=8|49=SISTEMA|52=20250630-14:04:01.814|56=DROPCOPY|1=ACC002|6=18.61|11=dbe43a64155b|14=6288|31=18.61|32=6288|37=6c75993e3852|38=6288|39=2|54=2|55=RENT3|60=20250630-14:04:01.814|150=F|453=1|448=TRADER791|452=36|10=195|
8=FIX.4.4|9=212|35=8|49=SISTEMA|52=20250630-14:04:01.814|56=DROPCOPY|1=ACC002|6=23.13|11=f17f41fbd2ba|14=2458|31=23.13|32=2458|37=ce3a799b7d68|38=2458|39=2|54=1|55=ITUB4|60=20250630-14:04:01.814|150=F|453=1|448=TRADER437|452=36|10=141|
8=FIX.4.4|9=212|35=8|49=SISTEMA|52=20250630-14:04:01.814|56=DROPCOPY|1=ACC002|6=26.74|11=98ce8119c0c0|14=3068|31=26.74|32=3068|37=36768953c75b|38=3068|39=2|54=1|55=BBDC4|60=20250630-14:04:01.814|150=F|453=1|448=TRADER264|452=36|10=088|
8=FIX.4.4|9=212|35=8|49=SISTEMA|52=20250630-14:04:01.814|56=DROPCOPY|1=ACC010|6=25.17|11=76138c4729cc|14=7187|31=25.17|32=7187|37=1bb82eef49e0|38=7187|39=2|54=2|55=PETR4|60=20250630-14:04:01.814|150=F|453=1|448=TRADER727|452=36|10=029|
8=FIX.4.4|9=212|35=8|49=SISTEMA|52=20250630-14:04:01.814|56=DROPCOPY|1=ACC010|6=19.91|11=d2304f523e83|14=9642|31=19.91|32=9642|37=46a3a0834996|38=9642|39=2|54=2|55=PETR4|60=20250630-14:04:01.814|150=F|453=1|448=TRADER959|452=36|10=098|
8=FIX.4.4|9=211|35=8|49=SISTEMA|52=20250630-14:04:01.820|56=DROPCOPY|1=ACC003|6=29.97|11=c971eb02104d|14=5258|31=29.97|32=5258|37=8b634c16a51f|38=5258|39=2|54=2|55=RADL3|60=20250630-14:04:01.820|150=F|453=1|448=TRADER13|452=36|10=141|
8=FIX.4.4|9=212|35=8|49=SISTEMA|52=20250630-14:04:01.820|56=DROPCOPY|1=ACC008|6=16.65|11=a3fc344fa42f|14=8902|31=16.65|32=8902|37=4c3cbca19dc3|38=8902|39=2|54=1|55=BBAS3|60=20250630-14:04:01.820|150=F|453=1|448=TRADER140|452=36|10=145|
8=FIX.4.4|9=212|35=8|49=SISTEMA|52=20250630-14:04:01.820|56=DROPCOPY|1=ACC009|6=26.71|11=4fb9ced29457|14=2918|31=26.71|32=2918|37=175fb889c921|38=2918|39=2|54=2|55=PETR4|60=20250630-14:04:01.820|150=F|453=1|448=TRADER495|452=36|10=250|
8=FIX.4.4|9=210|35=8|49=SISTEMA|52=20250630-14:04:01.820|56=DROPCOPY|1=ACC004|6=18.3|11=437e1ce1cdbd|14=4549|31=18.3|32=4549|37=9304f309733b|38=4549|39=2|54=2|55=SUZB3|60=20250630-14:04:01.820|150=F|453=1|448=TRADER780|452=36|10=168|
8=FIX.4.4|9=212|35=8|49=SISTEMA|52=20250630-14:04:01.820|56=DROPCOPY|1=ACC006|6=27.03|11=756f82193234|14=4382|31=27.03|32=4382|37=0e9fab76bf8d|38=4382|39=2|54=2|55=ITUB4|60=20250630-14:04:01.820|150=F|453=1|448=TRADER763|452=36|10=212|
8=FIX.4.4|9=212|35=8|49=SISTEMA|52=20250630-14:04:01.820|56=DROPCOPY|1=ACC001|6=18.89|11=915e225371e2|14=4813|31=18.89|32=4813|37=c0dd45b298d4|38=4813|39=2|54=2|55=BBAS3|60=20250630-14:04:01.820|150=F|453=1|448=TRADER301|452=36|10=127|
8=FIX.4.4|9=212|35=8|49=SISTEMA|52=20250630-14:04:01.820|56=DROPCOPY|1=ACC009|6=25.25|11=15047d2fc106|14=9214|31=25.25|32=9214|37=acaf4f83c3e1|38=9214|39=2|54=1|55=PETR4|60=20250630-14:04:01.820|150=F|453=1|448=TRADER310|452=36|10=021|
8=FIX.4.4|9=212|35=8|49=SISTEMA|52=20250630-14:04:01.820|56=DROPCOPY|1=ACC004|6=26.62|11=dec0f8080dc6|14=1576|31=26.62|32=1576|37=6c47d0cf1d79|38=1576|39=2|54=1|55=VALE3|60=20250630-14:04:01.820|150=F|453=1|448=TRADER919|452=36|10=090|
8=FIX.4.4|9=212|35=8|49=SISTEMA|52=20250630-14:04:01.820|56=DROPCOPY|1=ACC009|6=15.57|11=01149894f744|14=3664|31=15.57|32=3664|37=ba8b774c13bb|38=3664|39=2|54=1|55=PETR4|60=20250630-14:04:01.820|150=F|453=1|448=TRADER212|452=36|10=167|
8=FIX.4.4|9=212|35=8|49=SISTEMA|52=20250630-14:04:01.820|56=DROPCOPY|1=ACC006|6=13.21|11=432452bbf455|14=6170|31=13.21|32=6170|37=924c3c2d13ab|38=6170|39=2|54=1|55=SUZB3|60=20250630-14:04:01.820|150=F|453=1|448=TRADER424|452=36|10=170|
8=FIX.4.4|9=212|35=8|49=SISTEMA|52=20250630-14:04:01.820|56=DROPCOPY|1=ACC009|6=20.16|11=d2d8ffe5317a|14=6350|31=20.16|32=6350|37=46f7d0ab3def|38=6350|39=2|54=2|55=ABEV3|60=20250630-14:04:01.820|150=F|453=1|448=TRADER629|452=36|10=150|
8=FIX.4.4|9=212|35=8|49=SISTEMA|52=20250630-14:04:01.820|56=DROPCOPY|1=ACC005|6=26.06|11=ef447ccc8225|14=4925|31=26.06|32=4925|37=3f856e0d6336|38=4925|39=2|54=2|55=WEGE3|60=20250630-14:04:01.820|150=F|453=1|448=TRADER128|452=36|10=201|
8=FIX.4.4|9=212|35=8|49=SISTEMA|52=20250630-14:04:01.823|56=DROPCOPY|1=ACC003|6=18.82|11=98eecfddfba5|14=9316|31=18.82|32=9316|37=4a9c3f275b30|38=9316|39=2|54=1|55=BBAS3|60=20250630-14:04:01.823|150=F|453=1|448=TRADER821|452=36|10=175|
8=FIX.4.4|9=212|35=8|49=SISTEMA|52=20250630-14:04:01.823|56=DROPCOPY|1=ACC001|6=28.29|11=a399d325c1e8|14=3189|31=28.29|32=3189|37=4599cef5b9cd|38=3189|39=2|54=1|55=ITUB4|60=20250630-14:04:01.823|150=F|453=1|448=TRADER388|452=36|10=090|
8=FIX.4.4|9=212|35=8|49=SISTEMA|52=20250630-14:04:01.823|56=DROPCOPY|1=ACC002|6=17.19|11=fb7aee5bbd1a|14=7759|31=17.19|32=7759|37=637bbc0d0382|38=7759|39=2|54=2|55=WEGE3|60=20250630-14:04:01.823|150=F|453=1|448=TRADER472|452=36|10=196|
8=FIX.4.4|9=210|35=8|49=SISTEMA|52=20250630-14:04:01.823|56=DROPCOPY|1=ACC007|6=17.68|11=46c6b2597908|14=3300|31=17.68|32=3300|37=ae5f23ed1ec1|38=3300|39=2|54=1|55=WEGE3|60=20250630-14:04:01.823|150=F|453=1|448=TRADER6|452=36|10=122|
8=FIX.4.4|9=212|35=8|49=SISTEMA|52=20250630-14:04:01.823|56=DROPCOPY|1=ACC010|6=18.61|11=911046d7a8d8|14=4865|31=18.61|32=4865|37=56bddc32b2ff|38=4865|39=2|54=2|55=BBDC4|60=20250630-14:04:01.823|150=F|453=1|448=TRADER828|452=36|10=026|
8=FIX.4.4|9=212|35=8|49=SISTEMA|52=20250630-14:04:01.823|56=DROPCOPY|1=ACC005|6=24.35|11=a624f54cbf64|14=1876|31=24.35|32=1876|37=eb6087bdf477|38=1876|39=2|54=2|55=WEGE3|60=20250630-14:04:01.823|150=F|453=1|448=TRADER243|452=36|10=051|
8=FIX.4.4|9=212|35=8|49=SISTEMA|52=20250630-14:04:01.823|56=DROPCOPY|1=ACC009|6=23.56|11=ca584f3724a8|14=8479|31=23.56|32=8479|37=dea15d653733|38=8479|39=2|54=1|55=RADL3|60=20250630-14:04:01.823|150=F|453=1|448=TRADER158|452=36|10=228|
8=FIX.4.4|9=212|35=8|49=SISTEMA|52=20250630-14:04:01.823|56=DROPCOPY|1=ACC003|6=23.61|11=7dd6b09a311a|14=9401|31=23.61|32=9401|37=617a8e312d85|38=9401|39=2|54=1|55=RENT3|60=20250630-14:04:01.823|150=F|453=1|448=TRADER836|452=36|10=188|
8=FIX.4.4|9=212|35=8|49=SISTEMA|52=20250630-14:04:01.823|56=DROPCOPY|1=ACC010|6=13.62|11=bf73a671bd39|14=5290|31=13.62|32=5290|37=d5ca4b8db470|38=5290|39=2|54=2|55=WEGE3|60=20250630-14:04:01.823|150=F|453=1|448=TRADER905|452=36|10=066|
8=FIX.4.4|9=211|35=8|49=SISTEMA|52=20250630-14:04:01.823|56=DROPCOPY|1=ACC007|6=27.11|11=81569aee95f6|14=6782|31=27.11|32=6782|37=b20fa545d757|38=6782|39=2|54=1|55=RENT3|60=20250630-14:04:01.823|150=F|453=1|448=TRADER94|452=36|10=188|
8=FIX.4.4|9=212|35=8|49=SISTEMA|52=20250630-14:04:01.823|56=DROPCOPY|1=ACC001|6=22.32|11=2aadd69b2100|14=2268|31=22.32|32=2268|37=1464022e9cea|38=2268|39=2|54=2|55=BBDC4|60=20250630-14:04:01.823|150=F|453=1|448=TRADER252|452=36|10=172|
8=FIX.4.4|9=212|35=8|49=SISTEMA|52=20250630-14:04:01.823|56=DROPCOPY|1=ACC001|6=11.64|11=d08229b036db|14=4531|31=11.64|32=4531|37=7fa351abf316|38=4531|39=2|54=1|55=ITUB4|60=20250630-14:04:01.823|150=F|453=1|448=TRADER552|452=36|10=216|
8=FIX.4.4|9=212|35=8|49=SISTEMA|52=20250630-14:04:01.823|56=DROPCOPY|1=ACC009|6=28.58|11=888ce3130356|14=7569|31=28.58|32=7569|37=293eb0b58166|38=7569|39=2|54=2|55=BBAS3|60=20250630-14:04:01.823|150=F|453=1|448=TRADER528|452=36|10=089|
8=FIX.4.4|9=212|35=8|49=SISTEMA|52=20250630-14:04:01.823|56=DROPCOPY|1=ACC004|6=24.48|11=7724f2ee1c93|14=5784|31=24.48|32=5784|37=9228ed7ee6d5|38=5784|39=2|54=2|55=RENT3|60=20250630-14:04:01.823|150=F|453=1|448=TRADER930|452=36|10=045|
8=FIX.4.4|9=212|35=8|49=SISTEMA|52=20250630-14:04:01.823|56=DROPCOPY|1=ACC002|6=14.39|11=6883f92a9674|14=5512|31=14.39|32=5512|37=f76524f9b57f|38=5512|39=2|54=1|55=PETR4|60=20250630-14:04:01.823|150=F|453=1|448=TRADER855|452=36|10=146|
8=FIX.4.4|9=210|35=8|49=SISTEMA|52=20250630-14:04:01.823|56=DROPCOPY|1=ACC006|6=10.2|11=e9ff9b7dff6a|14=3140|31=10.2|32=3140|37=4be9a1addd2c|38=3140|39=2|54=2|55=PETR4|60=20250630-14:04:01.823|150=F|453=1|448=TRADER430|452=36|10=196|
8=FIX.4.4|9=212|35=8|49=SISTEMA|52=20250630-14:04:01.823|56=DROPCOPY|1=ACC009|6=11.75|11=1b7f50e0ee48|14=4379|31=11.75|32=4379|37=5de925a95f22|38=4379|39=2|54=1|55=BBAS3|60=20250630-14:04:01.823|150=F|453=1|448=TRADER870|452=36|10=251|
8=FIX.4.4|9=210|35=8|49=SISTEMA|52=20250630-14:04:01.823|56=DROPCOPY|1=ACC002|6=18.2|11=63958d5129f0|14=7355|31=18.2|32=7355|37=9a6eb81cc4b4|38=7355|39=2|54=1|55=ITUB4|60=20250630-14:04:01.823|150=F|453=1|448=TRADER167|452=36|10=114|
8=FIX.4.4|9=212|35=8|49=SISTEMA|52=20250630-14:04:01.823|56=DROPCOPY|1=ACC001|6=15.19|11=898049ae72a9|14=1950|31=15.19|32=1950|37=306e3ab77ebc|38=1950|39=2|54=1|55=ITUB4|60=20250630-14:04:01.823|150=F|453=1|448=TRADER524|452=36|10=252|
8=FIX.4.4|9=212|35=8|49=SISTEMA|52=20250630-14:04:01.823|56=DROPCOPY|1=ACC005|6=11.81|11=3a7dc957d1ad|14=5055|31=11.81|32=5055|37=d846ec43d04d|38=5055|39=2|54=2|55=SUZB3|60=20250630-14:04:01.823|150=F|453=1|448=TRADER771|452=36|10=097|
8=FIX.4.4|9=212|35=8|49=SISTEMA|52=20250630-14:04:01.823|56=DROPCOPY|1=ACC004|6=16.38|11=f5e02c9e9570|14=5646|31=16.38|32=5646|37=5771281f76c1|38=5646|39=2|54=2|55=WEGE3|60=20250630-14:04:01.823|150=F|453=1|448=TRADER663|452=36|10=128|
8=FIX.4.4|9=212|35=8|49=SISTEMA|52=20250630-14:04:01.823|56=DROPCOPY|1=ACC010|6=10.24|11=2618a7479fba|14=7289|31=10.24|32=7289|37=f7a1189d259b|38=7289|39=2|54=1|55=PETR4|60=20250630-14:04:01.823|150=F|453=1|448=TRADER695|452=36|10=237|
8=FIX.4.4|9=212|35=8|49=SISTEMA|52=20250630-14:04:01.823|56=DROPCOPY|1=ACC005|6=27.93|11=d059c1713a91|14=1971|31=27.93|32=1971|37=4e7e89faf82c|38=1971|39=2|54=1|55=ABEV3|60=20250630-14:04:01.823|150=F|453=1|448=TRADER613|452=36|10=252|
8=FIX.4.4|9=212|35=8|49=SISTEMA|52=20250630-14:04:01.823|56=DROPCOPY|1=ACC009|6=28.84|11=8307ebc7857b|14=7017|31=28.84|32=7017|37=3a062ebe0f49|38=7017|39=2|54=2|55=BBDC4|60=20250630-14:04:01.823|150=F|453=1|448=TRADER317|452=36|10=225|
8=FIX.4.4|9=212|35=8|49=SISTEMA|52=20250630-14:04:01.823|56=DROPCOPY|1=ACC006|6=24.11|11=a92be86058bf|14=6607|31=24.11|32=6607|37=db280ed98a7c|38=6607|39=2|54=2|55=BBAS3|60=20250630-14:04:01.823|150=F|453=1|448=TRADER321|452=36|10=060|
8=FIX.4.4|9=212|35=8|49=SISTEMA|52=20250630-14:04:01.823|56=DROPCOPY|1=ACC009|6=29.25|11=9e8a0668a83a|14=2642|31=29.25|32=2642|37=7d44fa8b1532|38=2642|39=2|54=1|55=BBDC4|60=20250630-14:04:01.823|150=F|453=1|448=TRADER364|452=36|10=170|
8=FIX.4.4|9=212|35=8|49=SISTEMA|52=20250630-14:04:01.823|56=DROPCOPY|1=ACC008|6=23.81|11=257f10645c5f|14=9847|31=23.81|32=9847|37=d29292cdd181|38=9847|39=2|54=2|55=VALE3|60=20250630-14:04:01.823|150=F|453=1|448=TRADER522|452=36|10=176|
8=FIX.4.4|9=212|35=8|49=SISTEMA|52=20250630-14:04:01.823|56=DROPCOPY|1=ACC005|6=12.73|11=0d404e303c6f|14=3671|31=12.73|32=3671|37=5a66c69a03f8|38=3671|39=2|54=1|55=BBAS3|60=20250630-14:04:01.823|150=F|453=1|448=TRADER470|452=36|10=164|
8=FIX.4.4|9=211|35=8|49=SISTEMA|52=20250630-14:04:01.828|56=DROPCOPY|1=ACC009|6=27.82|11=9245435fb2a0|14=6913|31=27.82|32=6913|37=eb7b3c31d3ff|38=6913|39=2|54=2|55=ITUB4|60=20250630-14:04:01.828|150=F|453=1|448=TRADER15|452=36|10=008|
8=FIX.4.4|9=212|35=8|49=SISTEMA|52=20250630-14:04:01.828|56=DROPCOPY|1=ACC003|6=17.94|11=237f7f15e1af|14=6574|31=17.94|32=6574|37=c7ff3c90b57a|38=6574|39=2|54=1|55=SUZB3|60=20250630-14:04:01.828|150=F|453=1|448=TRADER531|452=36|10=143|
8=FIX.4.4|9=212|35=8|49=SISTEMA|52=20250630-14:04:01.828|56=DROPCOPY|1=ACC008|6=28.69|11=08781182e092|14=6105|31=28.69|32=6105|37=76799d4d3092|38=6105|39=2|54=1|55=ABEV3|60=20250630-14:04:01.828|150=F|453=1|448=TRADER682|452=36|10=236|
8=FIX.4.4|9=212|35=8|49=SISTEMA|52=20250630-14:04:01.828|56=DROPCOPY|1=ACC005|6=24.86|11=a30b964c517e|14=5961|31=24.86|32=5961|37=9e2634b4081c|38=5961|39=2|54=2|55=VALE3|60=20250630-14:04:01.828|150=F|453=1|448=TRADER601|452=36|10=166|
8=FIX.4.4|9=212|35=8|49=SISTEMA|52=20250630-14:04:01.828|56=DROPCOPY|1=ACC003|6=20.47|11=3e08b0e0f0af|14=5767|31=20.47|32=5767|37=31af0a41c3e5|38=5767|39=2|54=1|55=VALE3|60=20250630-14:04:01.828|150=F|453=1|448=TRADER477|452=36|10=084|
8=FIX.4.4|9=212|35=8|49=SISTEMA|52=20250630-14:04:01.828|56=DROPCOPY|1=ACC006|6=15.07|11=24da4af32876|14=9241|31=15.07|32=9241|37=1b0d55e11e3f|38=9241|39=2|54=2|55=ITUB4|60=20250630-14:04:01.828|150=F|453=1|448=TRADER469|452=36|10=252|
8=FIX.4.4|9=212|35=8|49=SISTEMA|52=20250630-14:04:01.828|56=DROPCOPY|1=ACC010|6=28.39|11=512c4d0b3ca2|14=6185|31=28.39|32=6185|37=76f736cb2064|38=6185|39=2|54=1|55=RADL3|60=20250630-14:04:01.828|150=F|453=1|448=TRADER101|452=36|10=189|
8=FIX.4.4|9=212|35=8|49=SISTEMA|52=20250630-14:04:01.828|56=DROPCOPY|1=ACC001|6=22.69|11=d1a062abd6ce|14=4561|31=22.69|32=4561|37=b80b9f34ed59|38=4561|39=2|54=2|55=RENT3|60=20250630-14:04:01.828|150=F|453=1|448=TRADER469|452=36|10=157|
8=FIX.4.4|9=212|35=8|49=SISTEMA|52=20250630-14:04:01.828|56=DROPCOPY|1=ACC010|6=18.05|11=68505439d642|14=3211|31=18.05|32=3211|37=3ff85eef6a4e|38=3211|39=2|54=1|55=ITUB4|60=20250630-14:04:01.828|150=F|453=1|448=TRADER460|452=36|10=194|
8=FIX.4.4|9=212|35=8|49=SISTEMA|52=20250630-14:04:01.830|56=DROPCOPY|1=ACC004|6=16.24|11=39b32ad176c6|14=5054|31=16.24|32=5054|37=9572c2f46834|38=5054|39=2|54=2|55=BBAS3|60=20250630-14:04:01.830|150=F|453=1|448=TRADER604|452=36|10=068|
8=FIX.4.4|9=212|35=8|49=SISTEMA|52=20250630-14:04:01.830|56=DROPCOPY|1=ACC008|6=21.89|11=047246e1e1b9|14=6576|31=21.89|32=6576|37=98431ddac937|38=6576|39=2|54=2|55=BBDC4|60=20250630-14:04:01.830|150=F|453=1|448=TRADER183|452=36|10=150|
8=FIX.4.4|9=212|35=8|49=SISTEMA|52=20250630-14:04:01.830|56=DROPCOPY|1=ACC010|6=19.38|11=ea0e80c304b5|14=8667|31=19.38|32=8667|37=7b3a993471b2|38=8667|39=2|54=1|55=BBDC4|60=20250630-14:04:01.830|150=F|453=1|448=TRADER182|452=36|10=184|
8=FIX.4.4|9=212|35=8|49=SISTEMA|52=20250630-14:04:01.830|56=DROPCOPY|1=ACC008|6=11.27|11=76dbacd4036e|14=2968|31=11.27|32=2968|37=074ffcc8860d|38=2968|39=2|54=2|55=SUZB3|60=20250630-14:04:01.830|150=F|453=1|448=TRADER506|452=36|10=124|
8=FIX.4.4|9=210|35=8|49=SISTEMA|52=20250630-14:04:01.830|56=DROPCOPY|1=ACC005|6=28.14|11=aae4f2c6c361|14=8586|31=28.14|32=8586|37=54d0611dc305|38=8586|39=2|54=2|55=RENT3|60=20250630-14:04:01.830|150=F|453=1|448=TRADER3|452=36|10=155|
8=FIX.4.4|9=210|35=8|49=SISTEMA|52=20250630-14:04:01.830|56=DROPCOPY|1=ACC003|6=20.2|11=cd3418925bb2|14=3172|31=20.2|32=3172|37=087b48553081|38=3172|39=2|54=1|55=BBDC4|60=20250630-14:04:01.830|150=F|453=1|448=TRADER490|452=36|10=136|
8=FIX.4.4|9=212|35=8|49=SISTEMA|52=20250630-14:04:01.830|56=DROPCOPY|1=ACC001|6=18.43|11=992ce70a5c94|14=6345|31=18.43|32=6345|37=d7950bdbd4a0|38=6345|39=2|54=2|55=BBDC4|60=20250630-14:04:01.830|150=F|453=1|448=TRADER763|452=36|10=006|
8=FIX.4.4|9=212|35=8|49=SISTEMA|52=20250630-14:04:01.830|56=DROPCOPY|1=ACC002|6=22.95|11=76493cc3a1ef|14=2539|31=22.95|32=2539|37=7f2c6d3e5e59|38=2539|39=2|54=2|55=SUZB3|60=20250630-14:04:01.830|150=F|453=1|448=TRADER120|452=36|10=069|
8=FIX.4.4|9=212|35=8|49=SISTEMA|52=20250630-14:04:01.832|56=DROPCOPY|1=ACC007|6=10.17|11=37ecd3b88261|14=2494|31=10.17|32=2494|37=682c9181fae5|38=2494|39=2|54=2|55=SUZB3|60=20250630-14:04:01.832|150=F|453=1|448=TRADER679|452=36|10=235|
8=FIX.4.4|9=212|35=8|49=SISTEMA|52=20250630-14:04:01.832|56=DROPCOPY|1=ACC002|6=24.26|11=23b6378632a3|14=6008|31=24.26|32=6008|37=55d82ffab829|38=6008|39=2|54=1|55=WEGE3|60=20250630-14:04:01.832|150=F|453=1|448=TRADER472|452=36|10=136|
8=FIX.4.4|9=212|35=8|49=SISTEMA|52=20250630-14:04:01.832|56=DROPCOPY|1=ACC005|6=10.34|11=e367d27d43b4|14=8506|31=10.34|32=8506|37=cd0a989744fc|38=8506|39=2|54=1|55=BBAS3|60=20250630-14:04:01.832|150=F|453=1|448=TRADER833|452=36|10=228|
8=FIX.4.4|9=210|35=8|49=SISTEMA|52=20250630-14:04:01.832|56=DROPCOPY|1=ACC007|6=19.2|11=881fb6ebb17b|14=8862|31=19.2|32=8862|37=4021210098d6|38=8862|39=2|54=2|55=RADL3|60=20250630-14:04:01.832|150=F|453=1|448=TRADER343|452=36|10=045|
8=FIX.4.4|9=212|35=8|49=SISTEMA|52=20250630-14:04:01.832|56=DROPCOPY|1=ACC002|6=23.89|11=f1b001c33723|14=2928|31=23.89|32=2928|37=a65491c94ce9|38=2928|39=2|54=1|55=ITUB4|60=20250630-14:04:01.832|150=F|453=1|448=TRADER321|452=36|10=165|
8=FIX.4.4|9=212|35=8|49=SISTEMA|52=20250630-14:04:01.833|56=DROPCOPY|1=ACC010|6=29.32|11=a80a88622321|14=1935|31=29.32|32=1935|37=c7c598dac32d|38=1935|39=2|54=1|55=PETR4|60=20250630-14:04:01.833|150=F|453=1|448=TRADER940|452=36|10=211|
8=FIX.4.4|9=212|35=8|49=SISTEMA|52=20250630-14:04:01.833|56=DROPCOPY|1=ACC010|6=16.91|11=5e11745757fb|14=5976|31=16.91|32=5976|37=6c8b82e231dd|38=5976|39=2|54=1|55=ITUB4|60=20250630-14:04:01.833|150=F|453=1|448=TRADER853|452=36|10=245|
8=FIX.4.4|9=212|35=8|49=SISTEMA|52=20250630-14:04:01.833|56=DROPCOPY|1=ACC005|6=22.18|11=0cb2b7879b2c|14=5053|31=22.18|32=5053|37=47363e84e4a8|38=5053|39=2|54=2|55=ABEV3|60=20250630-14:04:01.833|150=F|453=1|448=TRADER121|452=36|10=167|
8=FIX.4.4|9=211|35=8|49=SISTEMA|52=20250630-14:04:01.833|56=DROPCOPY|1=ACC002|6=19.94|11=4aa5cc6cbb55|14=5030|31=19.94|32=5030|37=f9b44cef544a|38=5030|39=2|54=1|55=SUZB3|60=20250630-14:04:01.833|150=F|453=1|448=TRADER94|452=36|10=138|
8=FIX.4.4|9=212|35=8|49=SISTEMA|52=20250630-14:04:01.833|56=DROPCOPY|1=ACC006|6=25.55|11=dde218e272f8|14=8352|31=25.55|32=8352|37=86df3b55ee53|38=8352|39=2|54=1|55=VALE3|60=20250630-14:04:01.833|150=F|453=1|448=TRADER140|452=36|10=047|
8=FIX.4.4|9=212|35=8|49=SISTEMA|52=20250630-14:04:01.833|56=DROPCOPY|1=ACC006|6=26.18|11=0f83055d6912|14=1075|31=26.18|32=1075|37=d215efe3bbed|38=1075|39=2|54=2|55=SUZB3|60=20250630-14:04:01.833|150=F|453=1|448=TRADER335|452=36|10=049|
8=FIX.4.4|9=212|35=8|49=SISTEMA|52=20250630-14:04:01.833|56=DROPCOPY|1=ACC004|6=13.22|11=d98bac796082|14=3898|31=13.22|32=3898|37=99a0f01bd541|38=3898|39=2|54=2|55=BBAS3|60=20250630-14:04:01.833|150=F|453=1|448=TRADER777|452=36|10=208|
8=FIX.4.4|9=212|35=8|49=SISTEMA|52=20250630-14:04:01.833|56=DROPCOPY|1=ACC007|6=20.29|11=705b18bc953f|14=1648|31=20.29|32=1648|37=0f76d530f066|38=1648|39=2|54=1|55=BBDC4|60=20250630-14:04:01.833|150=F|453=1|448=TRADER334|452=36|10=121|
8=FIX.4.4|9=212|35=8|49=SISTEMA|52=20250630-14:04:01.833|56=DROPCOPY|1=ACC008|6=10.92|11=0dff25e20c8b|14=7796|31=10.92|32=7796|37=fe2ae91b38a9|38=7796|39=2|54=2|55=PETR4|60=20250630-14:04:01.833|150=F|453=1|448=TRADER325|452=36|10=178|
8=FIX.4.4|9=212|35=8|49=SISTEMA|52=20250630-14:04:01.833|56=DROPCOPY|1=ACC005|6=29.62|11=ce7c77572ad7|14=4718|31=29.62|32=4718|37=90879b75439b|38=4718|39=2|54=2|55=BBDC4|60=20250630-14:04:01.833|150=F|453=1|448=TRADER356|452=36|10=162|
8=FIX.4.4|9=211|35=8|49=SISTEMA|52=20250630-14:04:01.833|56=DROPCOPY|1=ACC003|6=25.95|11=2b32060c5baa|14=7482|31=25.95|32=7482|37=e48cdcbf6899|38=7482|39=2|54=1|55=WEGE3|60=20250630-14:04:01.833|150=F|453=1|448=TRADER30|452=36|10=041|
8=FIX.4.4|9=212|35=8|49=SISTEMA|52=20250630-14:04:01.833|56=DROPCOPY|1=ACC003|6=22.07|11=de71557156c9|14=2249|31=22.07|32=2249|37=174f0bc65126|38=2249|39=2|54=2|55=RADL3|60=20250630-14:04:01.833|150=F|453=1|448=TRADER232|452=36|10=081|
8=FIX.4.4|9=210|35=8|49=SISTEMA|52=20250630-14:04:01.833|56=DROPCOPY|1=ACC003|6=27.5|11=2559adc66472|14=2356|31=27.5|32=2356|37=3c425390bdab|38=2356|39=2|54=1|55=BBAS3|60=20250630-14:04:01.833|150=F|453=1|448=TRADER403|452=36|10=061|
8=FIX.4.4|9=212|35=8|49=SISTEMA|52=20250630-14:04:01.833|56=DROPCOPY|1=ACC010|6=10.99|11=a3bf80bba7b0|14=5597|31=10.99|32=5597|37=da73c52e3e9b|38=5597|39=2|54=1|55=BBAS3|60=20250630-14:04:01.833|150=F|453=1|448=TRADER868|452=36|10=187|
8=FIX.4.4|9=212|35=8|49=SISTEMA|52=20250630-14:04:01.833|56=DROPCOPY|1=ACC006|6=21.97|11=756504a3369e|14=1307|31=21.97|32=1307|37=4bd4fd547952|38=1307|39=2|54=1|55=ITUB4|60=20250630-14:04:01.833|150=F|453=1|448=TRADER570|452=36|10=113|
8=FIX.4.4|9=212|35=8|49=SISTEMA|52=20250630-14:04:01.833|56=DROPCOPY|1=ACC002|6=11.56|11=206efe582736|14=1273|31=11.56|32=1273|37=e66a8833913d|38=1273|39=2|54=2|55=WEGE3|60=20250630-14:04:01.833|150=F|453=1|448=TRADER528|452=36|10=096|
8=FIX.4.4|9=212|35=8|49=SISTEMA|52=20250630-14:04:01.836|56=DROPCOPY|1=ACC007|6=15.12|11=51d5d651883a|14=4631|31=15.12|32=4631|37=d245c407ac1e|38=4631|39=2|54=1|55=RENT3|60=20250630-14:04:01.836|150=F|453=1|448=TRADER434|452=36|10=188|
8=FIX.4.4|9=212|35=8|49=SISTEMA|52=20250630-14:04:01.836|56=DROPCOPY|1=ACC006|6=17.25|11=b3f8c97507d5|14=4208|31=17.25|32=4208|37=9f4d04e0ceac|38=4208|39=2|54=2|55=RENT3|60=20250630-14:04:01.836|150=F|453=1|448=TRADER801|452=36|10=099|
8=FIX.4.4|9=212|35=8|49=SISTEMA|52=20250630-14:04:01.836|56=DROPCOPY|1=ACC003|6=15.49|11=8e53a55b5f33|14=8334|31=15.49|32=8334|37=f250c42a70fa|38=8334|39=2|54=2|55=SUZB3|60=20250630-14:04:01.836|150=F|453=1|448=TRADER579|452=36|10=028|
8=FIX.4.4|9=212|35=8|49=SISTEMA|52=20250630-14:04:01.836|56=DROPCOPY|1=ACC009|6=21.64|11=d34422e1256d|14=9394|31=21.64|32=9394|37=57548a77b627|38=9394|39=2|54=1|55=BBDC4|60=20250630-14:04:01.836|150=F|453=1|448=TRADER439|452=36|10=060|
8=FIX.4.4|9=212|35=8|49=SISTEMA|52=20250630-14:04:01.836|56=DROPCOPY|1=ACC009|6=27.28|11=e40ea6f751ff|14=4104|31=27.28|32=4104|37=be04c9f1e565|38=4104|39=2|54=2|55=ABEV3|60=20250630-14:04:01.836|150=F|453=1|448=TRADER550|452=36|10=069|
8=FIX.4.4|9=210|35=8|49=SISTEMA|52=20250630-14:04:01.836|56=DROPCOPY|1=ACC010|6=15.98|11=85a7a808727c|14=2728|31=15.98|32=2728|37=5605b070ecdc|38=2728|39=2|54=1|55=BBDC4|60=20250630-14:04:01.836|150=F|453=1|448=TRADER0|452=36|10=078|
8=FIX.4.4|9=212|35=8|49=SISTEMA|52=20250630-14:04:01.836|56=DROPCOPY|1=ACC009|6=18.48|11=cc5561051bd4|14=6870|31=18.48|32=6870|37=03635733d707|38=6870|39=2|54=2|55=ITUB4|60=20250630-14:04:01.836|150=F|453=1|448=TRADER539|452=36|10=091|
8=FIX.4.4|9=210|35=8|49=SISTEMA|52=20250630-14:04:01.836|56=DROPCOPY|1=ACC010|6=22.7|11=44d0a9bab28c|14=1645|31=22.7|32=1645|37=71f74d999d5a|38=1645|39=2|54=1|55=PETR4|60=20250630-14:04:01.836|150=F|453=1|448=TRADER232|452=36|10=205|
8=FIX.4.4|9=212|35=8|49=SISTEMA|52=20250630-14:04:01.836|56=DROPCOPY|1=ACC009|6=15.66|11=e7c05309ab5c|14=4238|31=15.66|32=4238|37=cbb66fd42975|38=4238|39=2|54=1|55=SUZB3|60=20250630-14:04:01.836|150=F|453=1|448=TRADER100|452=36|10=067|
8=FIX.4.4|9=212|35=8|49=SISTEMA|52=20250630-14:04:01.836|56=DROPCOPY|1=ACC007|6=27.01|11=6f11a6745059|14=6700|31=27.01|32=6700|37=081eea1fbd13|38=6700|39=2|54=2|55=SUZB3|60=20250630-14:04:01.836|150=F|453=1|448=TRADER449|452=36|10=203|
8=FIX.4.4|9=212|35=8|49=SISTEMA|52=20250630-14:04:01.836|56=DROPCOPY|1=ACC009|6=22.89|11=45c9fefb3b27|14=2483|31=22.89|32=2483|37=7967b7f8fa69|38=2483|39=2|54=1|55=ITUB4|60=20250630-14:04:01.836|150=F|453=1|448=TRADER953|452=36|10=103|
8=FIX.4.4|9=212|35=8|49=SISTEMA|52=20250630-14:04:01.836|56=DROPCOPY|1=ACC009|6=21.97|11=d2814675fb50|14=7216|31=21.97|32=7216|37=cb147c2d7a4a|38=7216|39=2|54=1|55=RENT3|60=20250630-14:04:01.836|150=F|453=1|448=TRADER124|452=36|10=003|
8=FIX.4.4|9=210|35=8|49=SISTEMA|52=20250630-14:04:01.836|56=DROPCOPY|1=ACC007|6=17.1|11=0a77e077a7fc|14=9405|31=17.1|32=9405|37=f03fc2fd8756|38=9405|39=2|54=1|55=PETR4|60=20250630-14:04:01.836|150=F|453=1|448=TRADER419|452=36|10=221|
8=FIX.4.4|9=212|35=8|49=SISTEMA|52=20250630-14:04:01.839|56=DROPCOPY|1=ACC004|6=29.82|11=191a251e5cda|14=6135|31=29.82|32=6135|37=c9c7389ea88b|38=6135|39=2|54=2|55=ITUB4|60=20250630-14:04:01.839|150=F|453=1|448=TRADER202|452=36|10=062|
8=FIX.4.4|9=212|35=8|49=SISTEMA|52=20250630-14:04:01.839|56=DROPCOPY|1=ACC004|6=11.61|11=031635a5663c|14=4065|31=11.61|32=4065|37=ff756696d886|38=4065|39=2|54=2|55=ABEV3|60=20250630-14:04:01.839|150=F|453=1|448=TRADER811|452=36|10=052|
8=FIX.4.4|9=212|35=8|49=SISTEMA|52=20250630-14:04:01.839|56=DROPCOPY|1=ACC003|6=25.44|11=2ba2f558fbf5|14=4975|31=25.44|32=4975|37=c12d8e4b505a|38=4975|39=2|54=1|55=ABEV3|60=20250630-14:04:01.839|150=F|453=1|448=TRADER284|452=36|10=099|
8=FIX.4.4|9=212|35=8|49=SISTEMA|52=20250630-14:04:01.839|56=DROPCOPY|1=ACC006|6=16.42|11=adaca7092c81|14=1897|31=16.42|32=1897|37=f49f00158c3f|38=1897|39=2|54=2|55=VALE3|60=20250630-14:04:01.839|150=F|453=1|448=TRADER554|452=36|10=062|
8=FIX.4.4|9=212|35=8|49=SISTEMA|52=20250630-14:04:01.839|56=DROPCOPY|1=ACC003|6=10.89|11=a89e1becbfbb|14=4792|31=10.89|32=4792|37=159e13c9a72b|38=4792|39=2|54=1|55=WEGE3|60=20250630-14:04:01.839|150=F|453=1|448=TRADER457|452=36|10=208|
8=FIX.4.4|9=210|35=8|49=SISTEMA|52=20250630-14:04:01.839|56=DROPCOPY|1=ACC002|6=12.9|11=ab176391127d|14=8666|31=12.9|32=8666|37=becbbdec3ac7|38=8666|39=2|54=1|55=SUZB3|60=20250630-14:04:01.839|150=F|453=1|448=TRADER727|452=36|10=127|
8=FIX.4.4|9=212|35=8|49=SISTEMA|52=20250630-14:04:01.839|56=DROPCOPY|1=ACC006|6=13.27|11=26eebefb30ce|14=3540|31=13.27|32=3540|37=55b68b130385|38=3540|39=2|54=2|55=ABEV3|60=20250630-14:04:01.839|150=F|453=1|448=TRADER603|452=36|10=009|
8=FIX.4.4|9=211|35=8|49=SISTEMA|52=20250630-14:04:01.839|56=DROPCOPY|1=ACC002|6=20.49|11=68b9981e0bb8|14=4186|31=20.49|32=4186|37=20793b197c0c|38=4186|39=2|54=1|55=WEGE3|60=20250630-14:04:01.839|150=F|453=1|448=TRADER23|452=36|10=112|
8=FIX.4.4|9=212|35=8|49=SISTEMA|52=20250630-14:04:01.839|56=DROPCOPY|1=ACC003|6=20.03|11=33dcc72478cd|14=3806|31=20.03|32=3806|37=b87dca1169b0|38=3806|39=2|54=1|55=RADL3|60=20250630-14:04:01.839|150=F|453=1|448=TRADER184|452=36|10=016|
8=FIX.4.4|9=212|35=8|49=SISTEMA|52=20250630-14:04:01.841|56=DROPCOPY|1=ACC009|6=12.69|11=fd1409fb3786|14=8594|31=12.69|32=8594|37=71e6077d9ebb|38=8594|39=2|54=2|55=RADL3|60=20250630-14:04:01.841|150=F|453=1|448=TRADER110|452=36|10=019|
8=FIX.4.4|9=212|35=8|49=SISTEMA|52=20250630-14:04:01.841|56=DROPCOPY|1=ACC002|6=16.84|11=fa7f6456020e|14=4179|31=16.84|32=4179|37=2adc618ac9ae|38=4179|39=2|54=2|55=SUZB3|60=20250630-14:04:01.841|150=F|453=1|448=TRADER134|452=36|10=115|
8=FIX.4.4|9=212|35=8|49=SISTEMA|52=20250630-14:04:01.841|56=DROPCOPY|1=ACC010|6=13.97|11=c33d70d257b7|14=4962|31=13.97|32=4962|37=085a48cd3235|38=4962|39=2|54=2|55=ITUB4|60=20250630-14:04:01.841|150=F|453=1|448=TRADER553|452=36|10=171|
8=FIX.4.4|9=212|35=8|49=SISTEMA|52=20250630-14:04:01.841|56=DROPCOPY|1=ACC008|6=11.39|11=6d3345d98b6f|14=3863|31=11.39|32=3863|37=62731487a0d2|38=3863|39=2|54=1|55=PETR4|60=20250630-14:04:01.841|150=F|453=1|448=TRADER842|452=36|10=134|
8=FIX.4.4|9=212|35=8|49=SISTEMA|52=20250630-14:04:01.841|56=DROPCOPY|1=ACC006|6=23.78|11=e30ecc66fd40|14=3017|31=23.78|32=3017|37=1b098b13d61b|38=3017|39=2|54=1|55=SUZB3|60=20250630-14:04:01.841|150=F|453=1|448=TRADER285|452=36|10=041|
8=FIX.4.4|9=212|35=8|49=SISTEMA|52=20250630-14:04:01.841|56=DROPCOPY|1=ACC004|6=13.05|11=a9196c5ffd95|14=8750|31=13.05|32=8750|37=380dc3ee3cc2|38=8750|39=2|54=1|55=WEGE3|60=20250630-14:04:01.841|150=F|453=1|448=TRADER580|452=36|10=084|
8=FIX.4.4|9=212|35=8|49=SISTEMA|52=20250630-14:04:01.841|56=DROPCOPY|1=ACC008|6=19.06|11=f2bfffb952e9|14=6754|31=19.06|32=6754|37=7d05486e8283|38=6754|39=2|54=1|55=VALE3|60=20250630-14:04:01.841|150=F|453=1|448=TRADER658|452=36|10=032|
8=FIX.4.4|9=212|35=8|49=SISTEMA|52=20250630-14:04:01.841|56=DROPCOPY|1=ACC005|6=19.15|11=8696d9b4d207|14=2101|31=19.15|32=2101|37=c52ae665413e|38=2101|39=2|54=1|55=BBDC4|60=20250630-14:04:01.841|150=F|453=1|448=TRADER307|452=36|10=085|
8=FIX.4.4|9=212|35=8|49=SISTEMA|52=20250630-14:04:01.841|56=DROPCOPY|1=ACC003|6=28.65|11=e2b46903e490|14=2100|31=28.65|32=2100|37=30f2a7996e6c|38=2100|39=2|54=1|55=RENT3|60=20250630-14:04:01.841|150=F|453=1|448=TRADER808|452=36|10=140|
8=FIX.4.4|9=212|35=8|49=SISTEMA|52=20250630-14:04:01.841|56=DROPCOPY|1=ACC007|6=29.57|11=42ae24ca114d|14=9369|31=29.57|32=9369|37=d070d14eb1c1|38=9369|39=2|54=1|55=WEGE3|60=20250630-14:04:01.841|150=F|453=1|448=TRADER784|452=36|10=052|
8=FIX.4.4|9=212|35=8|49=SISTEMA|52=20250630-14:04:01.841|56=DROPCOPY|1=ACC002|6=26.65|11=3eeacbf2dcec|14=4229|31=26.65|32=4229|37=7d8e567f6dea|38=4229|39=2|54=1|55=RENT3|60=20250630-14:04:01.841|150=F|453=1|448=TRADER549|452=36|10=099|
8=FIX.4.4|9=212|35=8|49=SISTEMA|52=20250630-14:04:01.843|56=DROPCOPY|1=ACC008|6=21.07|11=6796afc9a7f5|14=6957|31=21.07|32=6957|37=aef0c07b63fb|38=6957|39=2|54=1|55=BBDC4|60=20250630-14:04:01.843|150=F|453=1|448=TRADER733|452=36|10=136|
8=FIX.4.4|9=212|35=8|49=SISTEMA|52=20250630-14:04:01.843|56=DROPCOPY|1=ACC005|6=19.46|11=12af27a8b4f6|14=6340|31=19.46|32=6340|37=9de6bc8db3e0|38=6340|39=2|54=2|55=SUZB3|60=20250630-14:04:01.843|150=F|453=1|448=TRADER812|452=36|10=156|
8=FIX.4.4|9=212|35=8|49=SISTEMA|52=20250630-14:04:01.843|56=DROPCOPY|1=ACC009|6=20.01|11=f77d2ee3870d|14=2148|31=20.01|32=2148|37=bdbf736d48c5|38=2148|39=2|54=2|55=RADL3|60=20250630-14:04:01.843|150=F|453=1|448=TRADER639|452=36|10=073|
8=FIX.4.4|9=212|35=8|49=SISTEMA|52=20250630-14:04:01.843|56=DROPCOPY|1=ACC004|6=21.22|11=637a13d7f7bd|14=2692|31=21.22|32=2692|37=b83658739ed2|38=2692|39=2|54=2|55=RADL3|60=20250630-14:04:01.843|150=F|453=1|448=TRADER568|452=36|10=202|
8=FIX.4.4|9=211|35=8|49=SISTEMA|52=20250630-14:04:01.843|56=DROPCOPY|1=ACC008|6=12.68|11=232e6a479676|14=5236|31=12.68|32=5236|37=adf9ba56312c|38=5236|39=2|54=1|55=WEGE3|60=20250630-14:04:01.843|150=F|453=1|448=TRADER31|452=36|10=145|
8=FIX.4.4|9=212|35=8|49=SISTEMA|52=20250630-14:04:01.843|56=DROPCOPY|1=ACC008|6=24.56|11=2898577fa3a4|14=3688|31=24.56|32=3688|37=7e22760e78e3|38=3688|39=2|54=2|55=BBDC4|60=20250630-14:04:01.843|150=F|453=1|448=TRADER192|452=36|10=123|
8=FIX.4.4|9=206|35=8|49=SISTEMA|52=20250630-14:04:01.843|56=DROPCOPY|1=ACC006|6=17|11=f4dd948d50ce|14=6179|31=17|32=6179|37=de2ecf554d10|38=6179|39=2|54=1|55=VALE3|60=20250630-14:04:01.843|150=F|453=1|448=TRADER339|452=36|10=116|
8=FIX.4.4|9=212|35=8|49=SISTEMA|52=20250630-14:04:01.843|56=DROPCOPY|1=ACC003|6=28.82|11=21c8537c6f04|14=1159|31=28.82|32=1159|37=8e4be0b46ad9|38=1159|39=2|54=1|55=SUZB3|60=20250630-14:04:01.843|150=F|453=1|448=TRADER406|452=36|10=018|
8=FIX.4.4|9=212|35=8|49=SISTEMA|52=20250630-14:04:01.843|56=DROPCOPY|1=ACC005|6=14.23|11=6228ba15542e|14=1263|31=14.23|32=1263|37=5ba208b318c3|38=1263|39=2|54=2|55=BBAS3|60=20250630-14:04:01.843|150=F|453=1|448=TRADER903|452=36|10=090|
8=FIX.4.4|9=212|35=8|49=SISTEMA|52=20250630-14:04:01.843|56=DROPCOPY|1=ACC007|6=19.33|11=34e230081ce3|14=3015|31=19.33|32=3015|37=aaf4dedd9102|38=3015|39=2|54=1|55=BBDC4|60=20250630-14:04:01.843|150=F|453=1|448=TRADER232|452=36|10=218|
8=FIX.4.4|9=212|35=8|49=SISTEMA|52=20250630-14:04:01.843|56=DROPCOPY|1=ACC001|6=28.15|11=1fcc78f59108|14=7547|31=28.15|32=7547|37=5881a578cac2|38=7547|39=2|54=2|55=RENT3|60=20250630-14:04:01.843|150=F|453=1|448=TRADER677|452=36|10=248|
8=FIX.4.4|9=212|35=8|49=SISTEMA|52=20250630-14:04:01.843|56=DROPCOPY|1=ACC005|6=26.56|11=7555f152ded2|14=4460|31=26.56|32=4460|37=b010c224ace5|38=4460|39=2|54=1|55=VALE3|60=20250630-14:04:01.843|150=F|453=1|448=TRADER483|452=36|10=226|
8=FIX.4.4|9=211|35=8|49=SISTEMA|52=20250630-14:04:01.846|56=DROPCOPY|1=ACC002|6=11.27|11=555fceb12c0c|14=5854|31=11.27|32=5854|37=63e0366f8f39|38=5854|39=2|54=2|55=BBDC4|60=20250630-14:04:01.846|150=F|453=1|448=TRADER39|452=36|10=180|
8=FIX.4.4|9=212|35=8|49=SISTEMA|52=20250630-14:04:01.846|56=DROPCOPY|1=ACC007|6=19.91|11=32c442c3d672|14=2262|31=19.91|32=2262|37=c1b4b0692464|38=2262|39=2|54=2|55=VALE3|60=20250630-14:04:01.846|150=F|453=1|448=TRADER463|452=36|10=092|
8=FIX.4.4|9=212|35=8|49=SISTEMA|52=20250630-14:04:01.846|56=DROPCOPY|1=ACC004|6=18.15|11=5906e97978c4|14=7139|31=18.15|32=7139|37=872100ca02b6|38=7139|39=2|54=2|55=SUZB3|60=20250630-14:04:01.846|150=F|453=1|448=TRADER970|452=36|10=104|
8=FIX.4.4|9=212|35=8|49=SISTEMA|52=20250630-14:04:01.846|56=DROPCOPY|1=ACC007|6=29.91|11=a522bdb03d24|14=5737|31=29.91|32=5737|37=64c01ff6384d|38=5737|39=2|54=2|55=WEGE3|60=20250630-14:04:01.846|150=F|453=1|448=TRADER548|452=36|10=012|
8=FIX.4.4|9=212|35=8|49=SISTEMA|52=20250630-14:04:01.846|56=DROPCOPY|1=ACC008|6=12.41|11=a29ab64458a5|14=9012|31=12.41|32=9012|37=5b3ae9e35cc7|38=9012|39=2|54=2|55=RENT3|60=20250630-14:04:01.846|150=F|453=1|448=TRADER429|452=36|10=037|
8=FIX.4.4|9=212|35=8|49=SISTEMA|52=20250630-14:04:01.846|56=DROPCOPY|1=ACC002|6=25.22|11=09e8d6debe22|14=1089|31=25.22|32=1089|37=c9e760f45272|38=1089|39=2|54=1|55=ABEV3|60=20250630-14:04:01.846|150=F|453=1|448=TRADER359|452=36|10=246|
8=FIX.4.4|9=212|35=8|49=SISTEMA|52=20250630-14:04:01.846|56=DROPCOPY|1=ACC004|6=10.48|11=a4b556d1ef5d|14=1564|31=10.48|32=1564|37=07b53ee04ed8|38=1564|39=2|54=1|55=ITUB4|60=20250630-14:04:01.846|150=F|453=1|448=TRADER540|452=36|10=089|
8=FIX.4.4|9=212|35=8|49=SISTEMA|52=20250630-14:04:01.846|56=DROPCOPY|1=ACC007|6=25.69|11=8f1db48eba7d|14=5645|31=25.69|32=5645|37=29d47942495b|38=5645|39=2|54=2|55=VALE3|60=20250630-14:04:01.846|150=F|453=1|448=TRADER234|452=36|10=031|
8=FIX.4.4|9=212|35=8|49=SISTEMA|52=20250630-14:04:01.846|56=DROPCOPY|1=ACC001|6=16.36|11=62f103772f1a|14=4647|31=16.36|32=4647|37=6ce5980bd7dc|38=4647|39=2|54=2|55=ITUB4|60=20250630-14:04:01.846|150=F|453=1|448=TRADER251|452=36|10=013|
8=FIX.4.4|9=212|35=8|49=SISTEMA|52=20250630-14:04:01.846|56=DROPCOPY|1=ACC007|6=13.47|11=dc765c6fd632|14=7061|31=13.47|32=7061|37=70f1894ba2c0|38=7061|39=2|54=1|55=SUZB3|60=20250630-14:04:01.846|150=F|453=1|448=TRADER846|452=36|10=020|
8=FIX.4.4|9=212|35=8|49=SISTEMA|52=20250630-14:04:01.846|56=DROPCOPY|1=ACC010|6=15.05|11=b670407a00cf|14=1567|31=15.05|32=1567|37=b21637e20604|38=1567|39=2|54=2|55=PETR4|60=20250630-14:04:01.846|150=F|453=1|448=TRADER714|452=36|10=096|
8=FIX.4.4|9=212|35=8|49=SISTEMA|52=20250630-14:04:01.846|56=DROPCOPY|1=ACC010|6=14.58|11=e917d50b87f7|14=5117|31=14.58|32=5117|37=e54cf87171c9|38=5117|39=2|54=1|55=WEGE3|60=20250630-14:04:01.846|150=F|453=1|448=TRADER211|452=36|10=208|
8=FIX.4.4|9=210|35=8|49=SISTEMA|52=20250630-14:04:01.846|56=DROPCOPY|1=ACC002|6=21.5|11=23dd97994085|14=7135|31=21.5|32=7135|37=a2dfeb85f7a2|38=7135|39=2|54=1|55=SUZB3|60=20250630-14:04:01.846|150=F|453=1|448=TRADER118|452=36|10=172|
8=FIX.4.4|9=212|35=8|49=SISTEMA|52=20250630-14:04:01.846|56=DROPCOPY|1=ACC005|6=18.11|11=f91badb3b8dd|14=9649|31=18.11|32=9649|37=b377f4f7fe02|38=9649|39=2|54=2|55=ABEV3|60=20250630-14:04:01.846|150=F|453=1|448=TRADER847|452=36|10=211|
8=FIX.4.4|9=212|35=8|49=SISTEMA|52=20250630-14:04:01.848|56=DROPCOPY|1=ACC006|6=20.57|11=7f32a6c2824c|14=4561|31=20.57|32=4561|37=1e4cd80f3cce|38=4561|39=2|54=1|55=ABEV3|60=20250630-14:04:01.848|150=F|453=1|448=TRADER474|452=36|10=076|
8=FIX.4.4|9=212|35=8|49=SISTEMA|52=20250630-14:04:01.848|56=DROPCOPY|1=ACC004|6=26.46|11=6814c91d083e|14=1025|31=26.46|32=1025|37=f72303f22a9f|38=1025|39=2|54=2|55=SUZB3|60=20250630-14:04:01.848|150=F|453=1|448=TRADER286|452=36|10=169|
8=FIX.4.4|9=212|35=8|49=SISTEMA|52=20250630-14:04:01.848|56=DROPCOPY|1=ACC005|6=18.09|11=a92c29d93c32|14=7646|31=18.09|32=7646|37=53d2171bb681|38=7646|39=2|54=1|55=ABEV3|60=20250630-14:04:01.848|150=F|453=1|448=TRADER508|452=36|10=166|
8=FIX.4.4|9=211|35=8|49=SISTEMA|52=20250630-14:04:01.848|56=DROPCOPY|1=ACC009|6=11.85|11=f72931374609|14=4141|31=11.85|32=4141|37=084397e0a41c|38=4141|39=2|54=1|55=RENT3|60=20250630-14:04:01.848|150=F|453=1|448=TRADER36|452=36|10=221|
8=FIX.4.4|9=212|35=8|49=SISTEMA|52=20250630-14:04:01.848|56=DROPCOPY|1=ACC010|6=10.92|11=b4102fb86ad1|14=2485|31=10.92|32=2485|37=62de45b3ab46|38=2485|39=2|54=1|55=RENT3|60=20250630-14:04:01.848|150=F|453=1|448=TRADER443|452=36|10=040|
8=FIX.4.4|9=212|35=8|49=SISTEMA|52=20250630-14:04:01.848|56=DROPCOPY|1=ACC004|6=10.47|11=9c52e2ffe002|14=6486|31=10.47|32=6486|37=34ca90b5e6ca|38=6486|39=2|54=1|55=WEGE3|60=20250630-14:04:01.848|150=F|453=1|448=TRADER897|452=36|10=108|
8=FIX.4.4|9=212|35=8|49=SISTEMA|52=20250630-14:04:01.848|56=DROPCOPY|1=ACC003|6=25.07|11=408a8c9cbc60|14=2755|31=25.07|32=2755|37=ff64d87e2f8e|38=2755|39=2|54=2|55=BBDC4|60=20250630-14:04:01.848|150=F|453=1|448=TRADER486|452=36|10=090|
8=FIX.4.4|9=212|35=8|49=SISTEMA|52=20250630-14:04:01.848|56=DROPCOPY|1=ACC002|6=29.39|11=f5b3b11203fb|14=4331|31=29.39|32=4331|37=13bd47459d38|38=4331|39=2|54=2|55=SUZB3|60=20250630-14:04:01.848|150=F|453=1|448=TRADER108|452=36|10=215|
8=FIX.4.4|9=212|35=8|49=SISTEMA|52=20250630-14:04:01.848|56=DROPCOPY|1=ACC009|6=16.43|11=7844ff85e35a|14=8591|31=16.43|32=8591|37=5237e180068e|38=8591|39=2|54=2|55=BBAS3|60=20250630-14:04:01.848|150=F|453=1|448=TRADER608|452=36|10=130|
8=FIX.4.4|9=212|35=8|49=SISTEMA|52=20250630-14:04:01.848|56=DROPCOPY|1=ACC007|6=12.42|11=5e78837c6d33|14=6854|31=12.42|32=6854|37=2e14c98fe2bc|38=6854|39=2|54=1|55=WEGE3|60=20250630-14:04:01.848|150=F|453=1|448=TRADER128|452=36|10=018|
8=FIX.4.4|9=212|35=8|49=SISTEMA|52=20250630-14:04:01.848|56=DROPCOPY|1=ACC005|6=14.42|11=7131ab93dad6|14=9715|31=14.42|32=9715|37=96f8207964f8|38=9715|39=2|54=1|55=PETR4|60=20250630-14:04:01.848|150=F|453=1|448=TRADER133|452=36|10=194|
8=FIX.4.4|9=212|35=8|49=SISTEMA|52=20250630-14:04:01.850|56=DROPCOPY|1=ACC010|6=25.95|11=69586db11a28|14=2578|31=25.95|32=2578|37=199a16c78105|38=2578|39=2|54=1|55=BBDC4|60=20250630-14:04:01.850|150=F|453=1|448=TRADER478|452=36|10=055|
8=FIX.4.4|9=212|35=8|49=SISTEMA|52=20250630-14:04:01.850|56=DROPCOPY|1=ACC007|6=18.84|11=c39e43bdbae8|14=9576|31=18.84|32=9576|37=1b182b783284|38=9576|39=2|54=1|55=SUZB3|60=20250630-14:04:01.850|150=F|453=1|448=TRADER326|452=36|10=053|
8=FIX.4.4|9=212|35=8|49=SISTEMA|52=20250630-14:04:01.850|56=DROPCOPY|1=ACC006|6=14.99|11=276319966ee0|14=9210|31=14.99|32=9210|37=685f0c8a9778|38=9210|39=2|54=1|55=RENT3|60=20250630-14:04:01.850|150=F|453=1|448=TRADER835|452=36|10=099|
8=FIX.4.4|9=211|35=8|49=SISTEMA|52=20250630-14:04:01.850|56=DROPCOPY|1=ACC010|6=18.35|11=8fbfef4ebe61|14=3110|31=18.35|32=3110|37=b0ed448a3322|38=3110|39=2|54=1|55=BBAS3|60=20250630-14:04:01.850|150=F|453=1|448=TRADER96|452=36|10=025|
8=FIX.4.4|9=212|35=8|49=SISTEMA|52=20250630-14:04:01.850|56=DROPCOPY|1=ACC005|6=22.88|11=74b102fa4acc|14=2082|31=22.88|32=2082|37=d2554e847793|38=2082|39=2|54=2|55=ITUB4|60=20250630-14:04:01.850|150=F|453=1|448=TRADER337|452=36|10=200|
8=FIX.4.4|9=212|35=8|49=SISTEMA|52=20250630-14:04:01.850|56=DROPCOPY|1=ACC007|6=24.04|11=d446d8254a66|14=6906|31=24.04|32=6906|37=a4b8e9e6f202|38=6906|39=2|54=1|55=VALE3|60=20250630-14:04:01.850|150=F|453=1|448=TRADER327|452=36|10=201|
8=FIX.4.4|9=211|35=8|49=SISTEMA|52=20250630-14:04:01.850|56=DROPCOPY|1=ACC001|6=19.17|11=304f9047c9ff|14=2273|31=19.17|32=2273|37=da79884b73bd|38=2273|39=2|54=2|55=PETR4|60=20250630-14:04:01.850|150=F|453=1|448=TRADER92|452=36|10=221|
8=FIX.4.4|9=211|35=8|49=SISTEMA|52=20250630-14:04:01.850|56=DROPCOPY|1=ACC005|6=13.84|11=a795f5eeab57|14=1979|31=13.84|32=1979|37=cece16cd4032|38=1979|39=2|54=1|55=RENT3|60=20250630-14:04:01.850|150=F|453=1|448=TRADER34|452=36|10=118|
8=FIX.4.4|9=212|35=8|49=SISTEMA|52=20250630-14:04:01.852|56=DROPCOPY|1=ACC003|6=18.48|11=06dbed6b8dc6|14=9218|31=18.48|32=9218|37=fb0593777ab4|38=9218|39=2|54=2|55=BBAS3|60=20250630-14:04:01.852|150=F|453=1|448=TRADER693|452=36|10=098|
8=FIX.4.4|9=212|35=8|49=SISTEMA|52=20250630-14:04:01.852|56=DROPCOPY|1=ACC004|6=20.02|11=832afe4e02c3|14=1826|31=20.02|32=1826|37=58e5ebc430e8|38=1826|39=2|54=2|55=RADL3|60=20250630-14:04:01.852|150=F|453=1|448=TRADER479|452=36|10=013|
8=FIX.4.4|9=211|35=8|49=SISTEMA|52=20250630-14:04:01.852|56=DROPCOPY|1=ACC003|6=11.87|11=013b99dc8e8e|14=8930|31=11.87|32=8930|37=8a3eef0b8f81|38=8930|39=2|54=1|55=RENT3|60=20250630-14:04:01.852|150=F|453=1|448=TRADER36|452=36|10=071|
8=FIX.4.4|9=212|35=8|49=SISTEMA|52=20250630-14:04:01.852|56=DROPCOPY|1=ACC003|6=18.18|11=b8657d09fd04|14=7008|31=18.18|32=7008|37=f76d9463b5da|38=7008|39=2|54=2|55=BBDC4|60=20250630-14:04:01.852|150=F|453=1|448=TRADER978|452=36|10=240|
8=FIX.4.4|9=212|35=8|49=SISTEMA|52=20250630-14:04:01.853|56=DROPCOPY|1=ACC003|6=14.86|11=242fcfa1e540|14=3862|31=14.86|32=3862|37=918d0e5b5721|38=3862|39=2|54=2|55=VALE3|60=20250630-14:04:01.853|150=F|453=1|448=TRADER634|452=36|10=201|
8=FIX.4.4|9=212|35=8|49=SISTEMA|52=20250630-14:04:01.853|56=DROPCOPY|1=ACC007|6=27.61|11=5d47075fd49a|14=9548|31=27.61|32=9548|37=f0063efeffdd|38=9548|39=2|54=1|55=ITUB4|60=20250630-14:04:01.853|150=F|453=1|448=TRADER725|452=36|10=188|
8=FIX.4.4|9=211|35=8|49=SISTEMA|52=20250630-14:04:01.853|56=DROPCOPY|1=ACC002|6=17.87|11=b9842e1612b2|14=9413|31=17.87|32=9413|37=e076fc34385d|38=9413|39=2|54=1|55=SUZB3|60=20250630-14:04:01.853|150=F|453=1|448=TRADER82|452=36|10=139|
8=FIX.4.4|9=212|35=8|49=SISTEMA|52=20250630-14:04:01.853|56=DROPCOPY|1=ACC006|6=18.31|11=51298d04b775|14=9280|31=18.31|32=9280|37=707b401f23d2|38=9280|39=2|54=2|55=RADL3|60=20250630-14:04:01.853|150=F|453=1|448=TRADER860|452=36|10=048|
8=FIX.4.4|9=210|35=8|49=SISTEMA|52=20250630-14:04:01.853|56=DROPCOPY|1=ACC008|6=13.8|11=ba1b186f8155|14=3621|31=13.8|32=3621|37=fc690837f3a2|38=3621|39=2|54=2|55=BBDC4|60=20250630-14:04:01.853|150=F|453=1|448=TRADER100|452=36|10=045|
8=FIX.4.4|9=212|35=8|49=SISTEMA|52=20250630-14:04:01.853|56=DROPCOPY|1=ACC005|6=26.16|11=d070a2428859|14=2200|31=26.16|32=2200|37=5102c32c0340|38=2200|39=2|54=1|55=WEGE3|60=20250630-14:04:01.853|150=F|453=1|448=TRADER636|452=36|10=203|
8=FIX.4.4|9=212|35=8|49=SISTEMA|52=20250630-14:04:01.853|56=DROPCOPY|1=ACC005|6=21.67|11=707a81c520f9|14=2080|31=21.67|32=2080|37=0d592c895b8c|38=2080|39=2|54=2|55=RADL3|60=20250630-14:04:01.853|150=F|453=1|448=TRADER967|452=36|10=145|
8=FIX.4.4|9=212|35=8|49=SISTEMA|52=20250630-14:04:01.853|56=DROPCOPY|1=ACC005|6=27.46|11=3d1823817aac|14=4698|31=27.46|32=4698|37=25e325c6af5e|38=4698|39=2|54=2|55=RENT3|60=20250630-14:04:01.853|150=F|453=1|448=TRADER580|452=36|10=038|
8=FIX.4.4|9=210|35=8|49=SISTEMA|52=20250630-14:04:01.853|56=DROPCOPY|1=ACC002|6=29.83|11=bbff9d7d409b|14=1055|31=29.83|32=1055|37=cb96ebca1296|38=1055|39=2|54=1|55=WEGE3|60=20250630-14:04:01.853|150=F|453=1|448=TRADER9|452=36|10=079|
8=FIX.4.4|9=211|35=8|49=SISTEMA|52=20250630-14:04:01.853|56=DROPCOPY|1=ACC003|6=20.35|11=6f53eec2e393|14=9351|31=20.35|32=9351|37=62fb34b58582|38=9351|39=2|54=2|55=BBAS3|60=20250630-14:04:01.853|150=F|453=1|448=TRADER47|452=36|10=133|
8=FIX.4.4|9=212|35=8|49=SISTEMA|52=20250630-14:04:01.855|56=DROPCOPY|1=ACC001|6=23.77|11=95aa8b9e7667|14=6788|31=23.77|32=6788|37=6984f911380d|38=6788|39=2|54=1|55=PETR4|60=20250630-14:04:01.855|150=F|453=1|448=TRADER441|452=36|10=189|
8=FIX.4.4|9=210|35=8|49=SISTEMA|52=20250630-14:04:01.855|56=DROPCOPY|1=ACC009|6=19.6|11=3b31c312e39a|14=6186|31=19.6|32=6186|37=7e22a5057d1a|38=6186|39=2|54=2|55=ITUB4|60=20250630-14:04:01.855|150=F|453=1|448=TRADER818|452=36|10=118|
8=FIX.4.4|9=212|35=8|49=SISTEMA|52=20250630-14:04:01.855|56=DROPCOPY|1=ACC006|6=18.84|11=cf9f58322168|14=1795|31=18.84|32=1795|37=4556c112af21|38=1795|39=2|54=1|55=ABEV3|60=20250630-14:04:01.855|150=F|453=1|448=TRADER496|452=36|10=128|
8=FIX.4.4|9=212|35=8|49=SISTEMA|52=20250630-14:04:01.855|56=DROPCOPY|1=ACC005|6=22.95|11=70aa02caf42b|14=9289|31=22.95|32=9289|37=cb2892d16d01|38=9289|39=2|54=1|55=RADL3|60=20250630-14:04:01.855|150=F|453=1|448=TRADER523|452=36|10=046|
8=FIX.4.4|9=212|35=8|49=SISTEMA|52=20250630-14:04:01.855|56=DROPCOPY|1=ACC008|6=18.69|11=cbf28abcbf72|14=1278|31=18.69|32=1278|37=64c97bbd881a|38=1278|39=2|54=2|55=RADL3|60=20250630-14:04:01.855|150=F|453=1|448=TRADER409|452=36|10=207|
8=FIX.4.4|9=212|35=8|49=SISTEMA|52=20250630-14:04:01.855|56=DROPCOPY|1=ACC001|6=27.52|11=3e14c07f098d|14=1111|31=27.52|32=1111|37=a53ca6d76e0c|38=1111|39=2|54=2|55=ABEV3|60=20250630-14:04:01.855|150=F|453=1|448=TRADER600|452=36|10=237|
8=FIX.4.4|9=212|35=8|49=SISTEMA|52=20250630-14:04:01.855|56=DROPCOPY|1=ACC007|6=19.19|11=ab950e89c78c|14=7342|31=19.19|32=7342|37=48413b859d62|38=7342|39=2|54=2|55=ABEV3|60=20250630-14:04:01.855|150=F|453=1|448=TRADER287|452=36|10=176|
8=FIX.4.4|9=212|35=8|49=SISTEMA|52=20250630-14:04:01.855|56=DROPCOPY|1=ACC010|6=12.97|11=e6a0e80c189f|14=1535|31=12.97|32=1535|37=1db23f0ad4e8|38=1535|39=2|54=1|55=ABEV3|60=20250630-14:04:01.855|150=F|453=1|448=TRADER798|452=36|10=080|
8=FIX.4.4|9=212|35=8|49=SISTEMA|52=20250630-14:04:01.855|56=DROPCOPY|1=ACC008|6=20.15|11=072db5104fdc|14=7427|31=20.15|32=7427|37=d86cb7cc136d|38=7427|39=2|54=1|55=ITUB4|60=20250630-14:04:01.855|150=F|453=1|448=TRADER754|452=36|10=094|
8=FIX.4.4|9=212|35=8|49=SISTEMA|52=20250630-14:04:01.855|56=DROPCOPY|1=ACC004|6=20.66|11=77dc449a0694|14=2290|31=20.66|32=2290|37=368c8d2dfdf4|38=2290|39=2|54=2|55=ITUB4|60=20250630-14:04:01.855|150=F|453=1|448=TRADER223|452=36|10=005|
8=FIX.4.4|9=212|35=8|49=SISTEMA|52=20250630-14:04:01.857|56=DROPCOPY|1=ACC007|6=10.88|11=ae1996d9886d|14=7416|31=10.88|32=7416|37=a4d7d6c73ea5|38=7416|39=2|54=2|55=RADL3|60=20250630-14:04:01.857|150=F|453=1|448=TRADER855|452=36|10=078|
8=FIX.4.4|9=212|35=8|49=SISTEMA|52=20250630-14:04:01.857|56=DROPCOPY|1=ACC003|6=21.61|11=3ddd96a337d3|14=9296|31=21.61|32=9296|37=907bbb5d4c0c|38=9296|39=2|54=1|55=BBDC4|60=20250630-14:04:01.857|150=F|453=1|448=TRADER414|452=36|10=071|
8=FIX.4.4|9=210|35=8|49=SISTEMA|52=20250630-14:04:01.857|56=DROPCOPY|1=ACC009|6=28.7|11=d62bceffac84|14=5964|31=28.7|32=5964|37=82ffe555bece|38=5964|39=2|54=2|55=WEGE3|60=20250630-14:04:01.857|150=F|453=1|448=TRADER185|452=36|10=228|
8=FIX.4.4|9=212|35=8|49=SISTEMA|52=20250630-14:04:01.857|56=DROPCOPY|1=ACC010|6=18.67|11=c7c62e09c200|14=1815|31=18.67|32=1815|37=ab4570390d4a|38=1815|39=2|54=2|55=PETR4|60=20250630-14:04:01.857|150=F|453=1|448=TRADER721|452=36|10=210|
8=FIX.4.4|9=212|35=8|49=SISTEMA|52=20250630-14:04:01.857|56=DROPCOPY|1=ACC001|6=19.24|11=bff47ffb098f|14=7545|31=19.24|32=7545|37=1d5b2625124a|38=7545|39=2|54=1|55=RADL3|60=20250630-14:04:01.857|150=F|453=1|448=TRADER487|452=36|10=056|
8=FIX.4.4|9=212|35=8|49=SISTEMA|52=20250630-14:04:01.857|56=DROPCOPY|1=ACC010|6=17.89|11=611bc810e514|14=2258|31=17.89|32=2258|37=8a249b2602ff|38=2258|39=2|54=1|55=RENT3|60=20250630-14:04:01.857|150=F|453=1|448=TRADER733|452=36|10=178|
8=FIX.4.4|9=212|35=8|49=SISTEMA|52=20250630-14:04:01.857|56=DROPCOPY|1=ACC003|6=25.08|11=73895469cfda|14=2057|31=25.08|32=2057|37=add89a1068fb|38=2057|39=2|54=1|55=ABEV3|60=20250630-14:04:01.857|150=F|453=1|448=TRADER347|452=36|10=043|
8=FIX.4.4|9=211|35=8|49=SISTEMA|52=20250630-14:04:01.857|56=DROPCOPY|1=ACC006|6=13.94|11=7f2b4d48b010|14=9682|31=13.94|32=9682|37=d7ca6e83b5e4|38=9682|39=2|54=2|55=RENT3|60=20250630-14:04:01.857|150=F|453=1|448=TRADER65|452=36|10=037|
8=FIX.4.4|9=210|35=8|49=SISTEMA|52=20250630-14:04:01.857|56=DROPCOPY|1=ACC007|6=23.9|11=75e4a4014653|14=2673|31=23.9|32=2673|37=522576f3f851|38=2673|39=2|54=2|55=WEGE3|60=20250630-14:04:01.857|150=F|453=1|448=TRADER731|452=36|10=177|
8=FIX.4.4|9=212|35=8|49=SISTEMA|52=20250630-14:04:01.857|56=DROPCOPY|1=ACC003|6=21.22|11=e63072984337|14=7942|31=21.22|32=7942|37=bd59eef825cc|38=7942|39=2|54=1|55=BBDC4|60=20250630-14:04:01.857|150=F|453=1|448=TRADER777|452=36|10=199|
8=FIX.4.4|9=212|35=8|49=SISTEMA|52=20250630-14:04:01.857|56=DROPCOPY|1=ACC006|6=19.12|11=079bfb52debe|14=6513|31=19.12|32=6513|37=10c198015701|38=6513|39=2|54=1|55=BBAS3|60=20250630-14:04:01.857|150=F|453=1|448=TRADER792|452=36|10=173|
8=FIX.4.4|9=212|35=8|49=SISTEMA|52=20250630-14:04:01.857|56=DROPCOPY|1=ACC010|6=27.84|11=1dad3a72b850|14=5423|31=27.84|32=5423|37=82a898641964|38=5423|39=2|54=2|55=VALE3|60=20250630-14:04:01.857|150=F|453=1|448=TRADER767|452=36|10=123|
8=FIX.4.4|9=212|35=8|49=SISTEMA|52=20250630-14:04:01.857|56=DROPCOPY|1=ACC003|6=13.42|11=7622d36b69a5|14=1078|31=13.42|32=1078|37=cf22a473f939|38=1078|39=2|54=1|55=PETR4|60=20250630-14:04:01.857|150=F|453=1|448=TRADER479|452=36|10=180|
8=FIX.4.4|9=212|35=8|49=SISTEMA|52=20250630-14:04:01.857|56=DROPCOPY|1=ACC003|6=23.71|11=c8249a6d6669|14=9552|31=23.71|32=9552|37=c66bc20d4d0c|38=9552|39=2|54=2|55=RENT3|60=20250630-14:04:01.857|150=F|453=1|448=TRADER640|452=36|10=022|
8=FIX.4.4|9=206|35=8|49=SISTEMA|52=20250630-14:04:01.857|56=DROPCOPY|1=ACC007|6=30|11=dd573d0f8b2d|14=1574|31=30|32=1574|37=8856b0f31ae6|38=1574|39=2|54=2|55=RENT3|60=20250630-14:04:01.857|150=F|453=1|448=TRADER770|452=36|10=020|
8=FIX.4.4|9=212|35=8|49=SISTEMA|52=20250630-14:04:01.857|56=DROPCOPY|1=ACC003|6=10.58|11=d24e329358b9|14=4382|31=10.58|32=4382|37=f82eaa996f26|38=4382|39=2|54=2|55=ABEV3|60=20250630-14:04:01.857|150=F|453=1|448=TRADER214|452=36|10=206|
8=FIX.4.4|9=212|35=8|49=SISTEMA|52=20250630-14:04:01.857|56=DROPCOPY|1=ACC006|6=11.36|11=f7e4246e9388|14=8087|31=11.36|32=8087|37=3f576b07528a|38=8087|39=2|54=2|55=ABEV3|60=20250630-14:04:01.857|150=F|453=1|448=TRADER165|452=36|10=132|
8=FIX.4.4|9=212|35=8|49=SISTEMA|52=20250630-14:04:01.857|56=DROPCOPY|1=ACC004|6=28.23|11=0bd1bdbaabb2|14=5753|31=28.23|32=5753|37=47a2fbbf782a|38=5753|39=2|54=2|55=VALE3|60=20250630-14:04:01.857|150=F|453=1|448=TRADER681|452=36|10=014|
8=FIX.4.4|9=212|35=8|49=SISTEMA|52=20250630-14:04:01.857|56=DROPCOPY|1=ACC008|6=23.89|11=fdc2696ac2ef|14=2047|31=23.89|32=2047|37=ce2ac1d3ee53|38=2047|39=2|54=2|55=RADL3|60=20250630-14:04:01.857|150=F|453=1|448=TRADER721|452=36|10=231|
8=FIX.4.4|9=212|35=8|49=SISTEMA|52=20250630-14:04:01.857|56=DROPCOPY|1=ACC005|6=12.81|11=a994c423f022|14=8267|31=12.81|32=8267|37=6dbd1cd43ad4|38=8267|39=2|54=2|55=BBDC4|60=20250630-14:04:01.857|150=F|453=1|448=TRADER335|452=36|10=016|
8=FIX.4.4|9=212|35=8|49=SISTEMA|52=20250630-14:04:01.857|56=DROPCOPY|1=ACC008|6=11.35|11=f4dc804f867a|14=5853|31=11.35|32=5853|37=7412f35180ba|38=5853|39=2|54=2|55=BBDC4|60=20250630-14:04:01.857|150=F|453=1|448=TRADER615|452=36|10=182|
8=FIX.4.4|9=212|35=8|49=SISTEMA|52=20250630-14:04:01.857|56=DROPCOPY|1=ACC009|6=29.57|11=119af79be84d|14=7339|31=29.57|32=7339|37=6b1dfcda76af|38=7339|39=2|54=2|55=ITUB4|60=20250630-14:04:01.857|150=F|453=1|448=TRADER717|452=36|10=247|
8=FIX.4.4|9=212|35=8|49=SISTEMA|52=20250630-14:04:01.857|56=DROPCOPY|1=ACC010|6=24.62|11=38f3cb672fa5|14=6167|31=24.62|32=6167|37=6be339ee784d|38=6167|39=2|54=2|55=ITUB4|60=20250630-14:04:01.857|150=F|453=1|448=TRADER695|452=36|10=085|
8=FIX.4.4|9=212|35=8|49=SISTEMA|52=20250630-14:04:01.857|56=DROPCOPY|1=ACC004|6=18.42|11=dd1e7d17f542|14=9151|31=18.42|32=9151|37=ce7d5c95a0fa|38=9151|39=2|54=2|55=VALE3|60=20250630-14:04:01.857|150=F|453=1|448=TRADER672|452=36|10=142|
8=FIX.4.4|9=212|35=8|49=SISTEMA|52=20250630-14:04:01.857|56=DROPCOPY|1=ACC009|6=17.84|11=8c3daf195ac1|14=9946|31=17.84|32=9946|37=209d3f053800|38=9946|39=2|54=1|55=SUZB3|60=20250630-14:04:01.857|150=F|453=1|448=TRADER298|452=36|10=018|
8=FIX.4.4|9=212|35=8|49=SISTEMA|52=20250630-14:04:01.857|56=DROPCOPY|1=ACC003|6=29.36|11=8bbdf2f735fd|14=3713|31=29.36|32=3713|37=006e11a55c78|38=3713|39=2|54=2|55=ABEV3|60=20250630-14:04:01.857|150=F|453=1|448=TRADER765|452=36|10=040|
8=FIX.4.4|9=212|35=8|49=SISTEMA|52=20250630-14:04:01.857|56=DROPCOPY|1=ACC005|6=11.26|11=c568850af77e|14=1314|31=11.26|32=1314|37=b0e9a35d1e9d|38=1314|39=2|54=1|55=RADL3|60=20250630-14:04:01.857|150=F|453=1|448=TRADER538|452=36|10=021|
8=FIX.4.4|9=212|35=8|49=SISTEMA|52=20250630-14:04:01.857|56=DROPCOPY|1=ACC010|6=15.05|11=16451434153d|14=3949|31=15.05|32=3949|37=f15b65066f84|38=3949|39=2|54=1|55=RADL3|60=20250630-14:04:01.857|150=F|453=1|448=TRADER990|452=36|10=024|
8=FIX.4.4|9=212|35=8|49=SISTEMA|52=20250630-14:04:01.857|56=DROPCOPY|1=ACC001|6=24.69|11=b30772b4995d|14=6049|31=24.69|32=6049|37=fdd6c4817d0e|38=6049|39=2|54=1|55=PETR4|60=20250630-14:04:01.857|150=F|453=1|448=TRADER216|452=36|10=036|
8=FIX.4.4|9=212|35=8|49=SISTEMA|52=20250630-14:04:01.857|56=DROPCOPY|1=ACC002|6=19.27|11=c9c9bffc44f6|14=6024|31=19.27|32=6024|37=847caf7bd0c8|38=6024|39=2|54=1|55=BBDC4|60=20250630-14:04:01.857|150=F|453=1|448=TRADER998|452=36|10=181|
8=FIX.4.4|9=210|35=8|49=SISTEMA|52=20250630-14:04:01.857|56=DROPCOPY|1=ACC009|6=13.3|11=f61fa906646d|14=3327|31=13.3|32=3327|37=55c35dbc3953|38=3327|39=2|54=2|55=BBDC4|60=20250630-14:04:01.857|150=F|453=1|448=TRADER283|452=36|10=070|
8=FIX.4.4|9=212|35=8|49=SISTEMA|52=20250630-14:04:01.862|56=DROPCOPY|1=ACC010|6=12.85|11=53d877394b2d|14=6163|31=12.85|32=6163|37=1ba6989213d4|38=6163|39=2|54=1|55=SUZB3|60=20250630-14:04:01.862|150=F|453=1|448=TRADER121|452=36|10=126|
8=FIX.4.4|9=212|35=8|49=SISTEMA|52=20250630-14:04:01.862|56=DROPCOPY|1=ACC008|6=16.58|11=2d45e4151ca9|14=1733|31=16.58|32=1733|37=ff646d493891|38=1733|39=2|54=1|55=RADL3|60=20250630-14:04:01.862|150=F|453=1|448=TRADER441|452=36|10=157|
8=FIX.4.4|9=212|35=8|49=SISTEMA|52=20250630-14:04:01.862|56=DROPCOPY|1=ACC006|6=11.23|11=74c99a92b198|14=1150|31=11.23|32=1150|37=1f1ca4b01312|38=1150|39=2|54=1|55=ITUB4|60=20250630-14:04:01.862|150=F|453=1|448=TRADER647|452=36|10=113|
8=FIX.4.4|9=212|35=8|49=SISTEMA|52=20250630-14:04:01.862|56=DROPCOPY|1=ACC002|6=22.14|11=53b4a544a5e9|14=9553|31=22.14|32=9553|37=7446180353a9|38=9553|39=2|54=2|55=RADL3|60=20250630-14:04:01.862|150=F|453=1|448=TRADER170|452=36|10=046|
8=FIX.4.4|9=212|35=8|49=SISTEMA|52=20250630-14:04:01.863|56=DROPCOPY|1=ACC009|6=27.29|11=146923477d4c|14=6244|31=27.29|32=6244|37=4eb9f174643e|38=6244|39=2|54=1|55=VALE3|60=20250630-14:04:01.863|150=F|453=1|448=TRADER926|452=36|10=131|
8=FIX.4.4|9=212|35=8|49=SISTEMA|52=20250630-14:04:01.863|56=DROPCOPY|1=ACC005|6=26.11|11=8d554fc864c2|14=4295|31=26.11|32=4295|37=85cff1260027|38=4295|39=2|54=2|55=RADL3|60=20250630-14:04:01.863|150=F|453=1|448=TRADER975|452=36|10=161|
8=FIX.4.4|9=212|35=8|49=SISTEMA|52=20250630-14:04:01.863|56=DROPCOPY|1=ACC001|6=23.37|11=ff985391e7b4|14=5197|31=23.37|32=5197|37=2acc75cff691|38=5197|39=2|54=2|55=ITUB4|60=20250630-14:04:01.863|150=F|453=1|448=TRADER731|452=36|10=082|
8=FIX.4.4|9=212|35=8|49=SISTEMA|52=20250630-14:04:01.863|56=DROPCOPY|1=ACC006|6=22.02|11=330ad26b6f0b|14=9662|31=22.02|32=9662|37=be8717e1112a|38=9662|39=2|54=2|55=BBDC4|60=20250630-14:04:01.863|150=F|453=1|448=TRADER364|452=36|10=200|
8=FIX.4.4|9=212|35=8|49=SISTEMA|52=20250630-14:04:01.863|56=DROPCOPY|1=ACC007|6=11.97|11=d112f95b7e74|14=7775|31=11.97|32=7775|37=9ebf947a1ab4|38=7775|39=2|54=1|55=WEGE3|60=20250630-14:04:01.863|150=F|453=1|448=TRADER863|452=36|10=085|
8=FIX.4.4|9=210|35=8|49=SISTEMA|52=20250630-14:04:01.863|56=DROPCOPY|1=ACC002|6=23.7|11=6ad0a69bb4c0|14=3055|31=23.7|32=3055|37=cf53e0f1442c|38=3055|39=2|54=2|55=VALE3|60=20250630-14:04:01.863|150=F|453=1|448=TRADER603|452=36|10=204|
8=FIX.4.4|9=212|35=8|49=SISTEMA|52=20250630-14:04:01.863|56=DROPCOPY|1=ACC007|6=23.83|11=53be2fde57f6|14=8148|31=23.83|32=8148|37=ff40e2533f0e|38=8148|39=2|54=2|55=RENT3|60=20250630-14:04:01.863|150=F|453=1|448=TRADER474|452=36|10=127|
8=FIX.4.4|9=212|35=8|49=SISTEMA|52=20250630-14:04:01.863|56=DROPCOPY|1=ACC001|6=21.24|11=8d497da3b530|14=9682|31=21.24|32=9682|37=93f0a78de4ad|38=9682|39=2|54=1|55=BBDC4|60=20250630-14:04:01.863|150=F|453=1|448=TRADER786|452=36|10=032|
8=FIX.4.4|9=212|35=8|49=SISTEMA|52=20250630-14:04:01.863|56=DROPCOPY|1=ACC007|6=28.46|11=b2ff758664e0|14=9606|31=28.46|32=9606|37=d6a0523da2c2|38=9606|39=2|54=1|55=ITUB4|60=20250630-14:04:01.863|150=F|453=1|448=TRADER405|452=36|10=017|
8=FIX.4.4|9=212|35=8|49=SISTEMA|52=20250630-14:04:01.863|56=DROPCOPY|1=ACC007|6=23.98|11=f37793fcfa52|14=3604|31=23.98|32=3604|37=9eae0595c80a|38=3604|39=2|54=2|55=ABEV3|60=20250630-14:04:01.863|150=F|453=1|448=TRADER336|452=36|10=045|
8=FIX.4.4|9=212|35=8|49=SISTEMA|52=20250630-14:04:01.863|56=DROPCOPY|1=ACC004|6=22.15|11=c1509cbaf78f|14=3146|31=22.15|32=3146|37=f1a6170ece91|38=3146|39=2|54=2|55=SUZB3|60=20250630-14:04:01.863|150=F|453=1|448=TRADER507|452=36|10=094|
8=FIX.4.4|9=210|35=8|49=SISTEMA|52=20250630-14:04:01.863|56=DROPCOPY|1=ACC005|6=14.5|11=dcad9e366023|14=9325|31=14.5|32=9325|37=c7d270049d42|38=9325|39=2|54=2|55=WEGE3|60=20250630-14:04:01.863|150=F|453=1|448=TRADER511|452=36|10=087|
8=FIX.4.4|9=211|35=8|49=SISTEMA|52=20250630-14:04:01.863|56=DROPCOPY|1=ACC008|6=17.37|11=b9657845da68|14=4150|31=17.37|32=4150|37=abe34f917f64|38=4150|39=2|54=1|55=ABEV3|60=20250630-14:04:01.863|150=F|453=1|448=TRADER31|452=36|10=141|
8=FIX.4.4|9=211|35=8|49=SISTEMA|52=20250630-14:04:01.863|56=DROPCOPY|1=ACC010|6=23.06|11=68b5f75be8bd|14=3943|31=23.06|32=3943|37=d77ad1628653|38=3943|39=2|54=1|55=BBAS3|60=20250630-14:04:01.863|150=F|453=1|448=TRADER43|452=36|10=187|
8=FIX.4.4|9=212|35=8|49=SISTEMA|52=20250630-14:04:01.863|56=DROPCOPY|1=ACC006|6=15.76|11=2cae7a2eb744|14=4056|31=15.76|32=4056|37=222ea67f1886|38=4056|39=2|54=1|55=ITUB4|60=20250630-14:04:01.863|150=F|453=1|448=TRADER188|452=36|10=011|
8=FIX.4.4|9=210|35=8|49=SISTEMA|52=20250630-14:04:01.863|56=DROPCOPY|1=ACC002|6=11.6|11=231ef39dac4e|14=1207|31=11.6|32=1207|37=7b89f511290d|38=1207|39=2|54=1|55=VALE3|60=20250630-14:04:01.863|150=F|453=1|448=TRADER453|452=36|10=113|
8=FIX.4.4|9=210|35=8|49=SISTEMA|52=20250630-14:04:01.863|56=DROPCOPY|1=ACC006|6=16.3|11=8daaa7eb0f5c|14=2015|31=16.3|32=2015|37=1278d577acfc|38=2015|39=2|54=1|55=VALE3|60=20250630-14:04:01.863|150=F|453=1|448=TRADER548|452=36|10=053|
8=FIX.4.4|9=212|35=8|49=SISTEMA|52=20250630-14:04:01.863|56=DROPCOPY|1=ACC004|6=10.37|11=07b58ef5f448|14=6529|31=10.37|32=6529|37=673575c3f452|38=6529|39=2|54=2|55=VALE3|60=20250630-14:04:01.863|150=F|453=1|448=TRADER452|452=36|10=127|
8=FIX.4.4|9=212|35=8|49=SISTEMA|52=20250630-14:04:01.863|56=DROPCOPY|1=ACC010|6=23.98|11=b386212d81be|14=4306|31=23.98|32=4306|37=954c74a8c197|38=4306|39=2|54=1|55=BBAS3|60=20250630-14:04:01.863|150=F|453=1|448=TRADER338|452=36|10=142|
8=FIX.4.4|9=206|35=8|49=SISTEMA|52=20250630-14:04:01.863|56=DROPCOPY|1=ACC007|6=19|11=a8b24ad4cf78|14=5950|31=19|32=5950|37=8869a5351f3a|38=5950|39=2|54=2|55=BBAS3|60=20250630-14:04:01.863|150=F|453=1|448=TRADER924|452=36|10=216|
8=FIX.4.4|9=212|35=8|49=SISTEMA|52=20250630-14:04:01.863|56=DROPCOPY|1=ACC007|6=13.29|11=e6ee6b57911e|14=1927|31=13.29|32=1927|37=d1db8a4262e2|38=1927|39=2|54=2|55=RADL3|60=20250630-14:04:01.863|150=F|453=1|448=TRADER156|452=36|10=043|
8=FIX.4.4|9=212|35=8|49=SISTEMA|52=20250630-14:04:01.863|56=DROPCOPY|1=ACC003|6=28.11|11=49d3ab75f5a8|14=2349|31=28.11|32=2349|37=a10b9fba767a|38=2349|39=2|54=1|55=RADL3|60=20250630-14:04:01.863|150=F|453=1|448=TRADER549|452=36|10=083|
8=FIX.4.4|9=212|35=8|49=SISTEMA|52=20250630-14:04:01.863|56=DROPCOPY|1=ACC003|6=26.49|11=18efdcb7de55|14=6785|31=26.49|32=6785|37=5a4deae47c04|38=6785|39=2|54=1|55=BBAS3|60=20250630-14:04:01.863|150=F|453=1|448=TRADER948|452=36|10=213|
8=FIX.4.4|9=212|35=8|49=SISTEMA|52=20250630-14:04:01.865|56=DROPCOPY|1=ACC004|6=26.26|11=78087f232531|14=3950|31=26.26|32=3950|37=220d8e94ec68|38=3950|39=2|54=1|55=ABEV3|60=20250630-14:04:01.865|150=F|453=1|448=TRADER449|452=36|10=065|
8=FIX.4.4|9=211|35=8|49=SISTEMA|52=20250630-14:04:01.865|56=DROPCOPY|1=ACC002|6=18.34|11=4d57238e9f84|14=9097|31=18.34|32=9097|37=3eddd6ab8547|38=9097|39=2|54=1|55=BBAS3|60=20250630-14:04:01.865|150=F|453=1|448=TRADER36|452=36|10=226|
8=FIX.4.4|9=212|35=8|49=SISTEMA|52=20250630-14:04:01.865|56=DROPCOPY|1=ACC004|6=24.99|11=6bf17543a8b7|14=3833|31=24.99|32=3833|37=9581ec4f2dcd|38=3833|39=2|54=2|55=SUZB3|60=20250630-14:04:01.865|150=F|453=1|448=TRADER900|452=36|10=094|
8=FIX.4.4|9=212|35=8|49=SISTEMA|52=20250630-14:04:01.865|56=DROPCOPY|1=ACC004|6=12.16|11=cc479a9816ba|14=1631|31=12.16|32=1631|37=806b85493cea|38=1631|39=2|54=1|55=VALE3|60=20250630-14:04:01.865|150=F|453=1|448=TRADER251|452=36|10=228|
8=FIX.4.4|9=212|35=8|49=SISTEMA|52=20250630-14:04:01.865|56=DROPCOPY|1=ACC003|6=15.19|11=c4e81685ef2e|14=3942|31=15.19|32=3942|37=1ca3752176e3|38=3942|39=2|54=1|55=ITUB4|60=20250630-14:04:01.865|150=F|453=1|448=TRADER662|452=36|10=225|
8=FIX.4.4|9=212|35=8|49=SISTEMA|52=20250630-14:04:01.865|56=DROPCOPY|1=ACC006|6=10.34|11=a954fc4b09ba|14=2748|31=10.34|32=2748|37=254987ce3f93|38=2748|39=2|54=1|55=BBAS3|60=20250630-14:04:01.865|150=F|453=1|448=TRADER288|452=36|10=252|
8=FIX.4.4|9=210|35=8|49=SISTEMA|52=20250630-14:04:01.865|56=DROPCOPY|1=ACC008|6=29.1|11=39eba92e4c36|14=9342|31=29.1|32=9342|37=0140779253b2|38=9342|39=2|54=1|55=BBDC4|60=20250630-14:04:01.865|150=F|453=1|448=TRADER775|452=36|10=240|
8=FIX.4.4|9=212|35=8|49=SISTEMA|52=20250630-14:04:01.865|56=DROPCOPY|1=ACC007|6=25.93|11=a2cd23d72b41|14=2416|31=25.93|32=2416|37=74cc0da1038c|38=2416|39=2|54=1|55=BBDC4|60=20250630-14:04:01.865|150=F|453=1|448=TRADER884|452=36|10=251|
8=FIX.4.4|9=212|35=8|49=SISTEMA|52=20250630-14:04:01.865|56=DROPCOPY|1=ACC010|6=28.07|11=aa7f54e0c4ab|14=2347|31=28.07|32=2347|37=3fc011e82318|38=2347|39=2|54=1|55=SUZB3|60=20250630-14:04:01.865|150=F|453=1|448=TRADER516|452=36|10=050|
8=FIX.4.4|9=212|35=8|49=SISTEMA|52=20250630-14:04:01.865|56=DROPCOPY|1=ACC003|6=23.28|11=a79e85d9bef7|14=8546|31=23.28|32=8546|37=fbadf33bc97e|38=8546|39=2|54=2|55=SUZB3|60=20250630-14:04:01.865|150=F|453=1|448=TRADER586|452=36|10=052|
8=FIX.4.4|9=212|35=8|49=SISTEMA|52=20250630-14:04:01.865|56=DROPCOPY|1=ACC005|6=21.36|11=6e59ffc096e6|14=1632|31=21.36|32=1632|37=45764abcc994|38=1632|39=2|54=1|55=BBDC4|60=20250630-14:04:01.865|150=F|453=1|448=TRADER508|452=36|10=228|
8=FIX.4.4|9=212|35=8|49=SISTEMA|52=20250630-14:04:01.865|56=DROPCOPY|1=ACC009|6=28.76|11=29b4fa86a6a7|14=6362|31=28.76|32=6362|37=ad8b73655fad|38=6362|39=2|54=1|55=WEGE3|60=20250630-14:04:01.865|150=F|453=1|448=TRADER254|452=36|10=117|
8=FIX.4.4|9=210|35=8|49=SISTEMA|52=20250630-14:04:01.865|56=DROPCOPY|1=ACC005|6=22.4|11=4c04ce576e70|14=9326|31=22.4|32=9326|37=ecb2a959491f|38=9326|39=2|54=1|55=SUZB3|60=20250630-14:04:01.865|150=F|453=1|448=TRADER201|452=36|10=174|
8=FIX.4.4|9=212|35=8|49=SISTEMA|52=20250630-14:04:01.865|56=DROPCOPY|1=ACC010|6=15.04|11=1eab8b3ca93c|14=6566|31=15.04|32=6566|37=d1f7f5c2716d|38=6566|39=2|54=2|55=RADL3|60=20250630-14:04:01.865|150=F|453=1|448=TRADER487|452=36|10=141|
8=FIX.4.4|9=210|35=8|49=SISTEMA|52=20250630-14:04:01.865|56=DROPCOPY|1=ACC002|6=25.3|11=d8d8a17c91a4|14=5071|31=25.3|32=5071|37=e5a056c09ef0|38=5071|39=2|54=1|55=RENT3|60=20250630-14:04:01.865|150=F|453=1|448=TRADER755|452=36|10=196|
8=FIX.4.4|9=212|35=8|49=SISTEMA|52=20250630-14:04:01.865|56=DROPCOPY|1=ACC004|6=22.16|11=98b5d5f1ae06|14=8952|31=22.16|32=8952|37=ad501d6566ea|38=8952|39=2|54=1|55=ITUB4|60=20250630-14:04:01.865|150=F|453=1|448=TRADER767|452=36|10=074|
8=FIX.4.4|9=210|35=8|49=SISTEMA|52=20250630-14:04:01.865|56=DROPCOPY|1=ACC001|6=20.5|11=e88052ff4767|14=8015|31=20.5|32=8015|37=761ca9c5abe0|38=8015|39=2|54=2|55=RENT3|60=20250630-14:04:01.865|150=F|453=1|448=TRADER288|452=36|10=157|
8=FIX.4.4|9=211|35=8|49=SISTEMA|52=20250630-14:04:01.865|56=DROPCOPY|1=ACC005|6=28.98|11=2e6fe50a6845|14=6873|31=28.98|32=6873|37=3aebca1495fb|38=6873|39=2|54=2|55=BBAS3|60=20250630-14:04:01.865|150=F|453=1|448=TRADER43|452=36|10=064|
8=FIX.4.4|9=212|35=8|49=SISTEMA|52=20250630-14:04:01.865|56=DROPCOPY|1=ACC005|6=25.54|11=af9f58118e1b|14=3644|31=25.54|32=3644|37=1b3afd012047|38=3644|39=2|54=2|55=PETR4|60=20250630-14:04:01.865|150=F|453=1|448=TRADER146|452=36|10=003|
8=FIX.4.4|9=212|35=8|49=SISTEMA|52=20250630-14:04:01.865|56=DROPCOPY|1=ACC001|6=16.21|11=0ea1bcb53c4d|14=7537|31=16.21|32=7537|37=96b64b4d4ca6|38=7537|39=2|54=1|55=VALE3|60=20250630-14:04:01.865|150=F|453=1|448=TRADER481|452=36|10=127|
8=FIX.4.4|9=212|35=8|49=SISTEMA|52=20250630-14:04:01.865|56=DROPCOPY|1=ACC006|6=27.13|11=da31c12490ec|14=2812|31=27.13|32=2812|37=269b1b634111|38=2812|39=2|54=2|55=ABEV3|60=20250630-14:04:01.865|150=F|453=1|448=TRADER900|452=36|10=104|
8=FIX.4.4|9=212|35=8|49=SISTEMA|52=20250630-14:04:01.865|56=DROPCOPY|1=ACC008|6=23.81|11=1e169b60ffd8|14=6043|31=23.81|32=6043|37=197104470ec0|38=6043|39=2|54=2|55=BBDC4|60=20250630-14:04:01.865|150=F|453=1|448=TRADER938|452=36|10=122|
8=FIX.4.4|9=212|35=8|49=SISTEMA|52=20250630-14:04:01.865|56=DROPCOPY|1=ACC006|6=22.35|11=07ba7bed3673|14=7304|31=22.35|32=7304|37=88b56d18242e|38=7304|39=2|54=2|55=PETR4|60=20250630-14:04:01.865|150=F|453=1|448=TRADER652|452=36|10=215|
8=FIX.4.4|9=212|35=8|49=SISTEMA|52=20250630-14:04:01.865|56=DROPCOPY|1=ACC003|6=17.17|11=012213d65ccc|14=2759|31=17.17|32=2759|37=108c7c3c50a2|38=2759|39=2|54=1|55=RADL3|60=20250630-14:04:01.865|150=F|453=1|448=TRADER171|452=36|10=184|
8=FIX.4.4|9=211|35=8|49=SISTEMA|52=20250630-14:04:01.865|56=DROPCOPY|1=ACC010|6=18.23|11=af98f3c35ed8|14=1212|31=18.23|32=1212|37=9a80afbc0836|38=1212|39=2|54=2|55=RADL3|60=20250630-14:04:01.865|150=F|453=1|448=TRADER31|452=36|10=001|
8=FIX.4.4|9=212|35=8|49=SISTEMA|52=20250630-14:04:01.865|56=DROPCOPY|1=ACC010|6=28.42|11=7a2080ccd034|14=2873|31=28.42|32=2873|37=72b19b23c258|38=2873|39=2|54=2|55=BBDC4|60=20250630-14:04:01.865|150=F|453=1|448=TRADER703|452=36|10=116|
8=FIX.4.4|9=212|35=8|49=SISTEMA|52=20250630-14:04:01.865|56=DROPCOPY|1=ACC004|6=19.94|11=55cded63a21d|14=8326|31=19.94|32=8326|37=aead35dfa709|38=8326|39=2|54=2|55=ABEV3|60=20250630-14:04:01.865|150=F|453=1|448=TRADER973|452=36|10=197|
8=FIX.4.4|9=212|35=8|49=SISTEMA|52=20250630-14:04:01.865|56=DROPCOPY|1=ACC006|6=26.58|11=701c8ba90d51|14=1175|31=26.58|32=1175|37=503c544e70d9|38=1175|39=2|54=1|55=PETR4|60=20250630-14:04:01.865|150=F|453=1|448=TRADER786|452=36|10=180|
8=FIX.4.4|9=212|35=8|49=SISTEMA|52=20250630-14:04:01.865|56=DROPCOPY|1=ACC004|6=28.27|11=587b7653d83b|14=9181|31=28.27|32=9181|37=c975c55d00d3|38=9181|39=2|54=2|55=BBDC4|60=20250630-14:04:01.865|150=F|453=1|448=TRADER829|452=36|10=158|
8=FIX.4.4|9=212|35=8|49=SISTEMA|52=20250630-14:04:01.865|56=DROPCOPY|1=ACC001|6=18.93|11=073896570ee6|14=9864|31=18.93|32=9864|37=5cf09dcd7133|38=9864|39=2|54=2|55=RADL3|60=20250630-14:04:01.865|150=F|453=1|448=TRADER337|452=36|10=201|
8=FIX.4.4|9=212|35=8|49=SISTEMA|52=20250630-14:04:01.865|56=DROPCOPY|1=ACC006|6=25.12|11=52d6af856086|14=8121|31=25.12|32=8121|37=bfbb59707aaf|38=8121|39=2|54=2|55=PETR4|60=20250630-14:04:01.865|150=F|453=1|448=TRADER877|452=36|10=057|
8=FIX.4.4|9=212|35=8|49=SISTEMA|52=20250630-14:04:01.865|56=DROPCOPY|1=ACC009|6=15.01|11=52f172a5fb07|14=9300|31=15.01|32=9300|37=2e4c6dd8c966|38=9300|39=2|54=1|55=SUZB3|60=20250630-14:04:01.865|150=F|453=1|448=TRADER990|452=36|10=008|
8=FIX.4.4|9=212|35=8|49=SISTEMA|52=20250630-14:04:01.865|56=DROPCOPY|1=ACC007|6=27.05|11=b271052a93ff|14=8997|31=27.05|32=8997|37=fb7389e37855|38=8997|39=2|54=1|55=VALE3|60=20250630-14:04:01.865|150=F|453=1|448=TRADER608|452=36|10=219|
8=FIX.4.4|9=212|35=8|49=SISTEMA|52=20250630-14:04:01.865|56=DROPCOPY|1=ACC005|6=12.62|11=959afdf5086f|14=4174|31=12.62|32=4174|37=60cf4e67f2b9|38=4174|39=2|54=1|55=RENT3|60=20250630-14:04:01.865|150=F|453=1|448=TRADER544|452=36|10=073|
8=FIX.4.4|9=212|35=8|49=SISTEMA|52=20250630-14:04:01.865|56=DROPCOPY|1=ACC004|6=27.46|11=bc7f99d9293a|14=5897|31=27.46|32=5897|37=88d4fd1bd2c8|38=5897|39=2|54=2|55=BBDC4|60=20250630-14:04:01.865|150=F|453=1|448=TRADER839|452=36|10=135|
8=FIX.4.4|9=212|35=8|49=SISTEMA|52=20250630-14:04:01.865|56=DROPCOPY|1=ACC005|6=14.49|11=33d8b6b3b845|14=6696|31=14.49|32=6696|37=23cc34a33840|38=6696|39=2|54=2|55=WEGE3|60=20250630-14:04:01.865|150=F|453=1|448=TRADER529|452=36|10=185|
8=FIX.4.4|9=212|35=8|49=SISTEMA|52=20250630-14:04:01.865|56=DROPCOPY|1=ACC002|6=24.05|11=15ebfc0ea0f0|14=4725|31=24.05|32=4725|37=fce0e27bd0d6|38=4725|39=2|54=1|55=ABEV3|60=20250630-14:04:01.865|150=F|453=1|448=TRADER848|452=36|10=205|
8=FIX.4.4|9=210|35=8|49=SISTEMA|52=20250630-14:04:01.865|56=DROPCOPY|1=ACC001|6=24.81|11=2d000930aa81|14=1024|31=24.81|32=1024|37=78cd1722ee64|38=1024|39=2|54=2|55=RADL3|60=20250630-14:04:01.865|150=F|453=1|448=TRADER6|452=36|10=254|
8=FIX.4.4|9=212|35=8|49=SISTEMA|52=20250630-14:04:01.865|56=DROPCOPY|1=ACC003|6=15.71|11=f19899512000|14=1935|31=15.71|32=1935|37=c564cb8d15fa|38=1935|39=2|54=1|55=ITUB4|60=20250630-14:04:01.865|150=F|453=1|448=TRADER805|452=36|10=168|
8=FIX.4.4|9=212|35=8|49=SISTEMA|52=20250630-14:04:01.865|56=DROPCOPY|1=ACC006|6=18.97|11=76aed7ec094a|14=4432|31=18.97|32=4432|37=ccaca60244dc|38=4432|39=2|54=2|55=BBAS3|60=20250630-14:04:01.865|150=F|453=1|448=TRADER747|452=36|10=175|
8=FIX.4.4|9=211|35=8|49=SISTEMA|52=20250630-14:04:01.865|56=DROPCOPY|1=ACC002|6=17.22|11=8383d07777b4|14=5009|31=17.22|32=5009|37=7ff0b9d38915|38=5009|39=2|54=1|55=ITUB4|60=20250630-14:04:01.865|150=F|453=1|448=TRADER33|452=36|10=069|
8=FIX.4.4|9=212|35=8|49=SISTEMA|52=20250630-14:04:01.865|56=DROPCOPY|1=ACC010|6=18.99|11=eed0d000a0a5|14=9068|31=18.99|32=9068|37=196ffaa3bf97|38=9068|39=2|54=1|55=BBAS3|60=20250630-14:04:01.865|150=F|453=1|448=TRADER682|452=36|10=149|
8=FIX.4.4|9=211|35=8|49=SISTEMA|52=20250630-14:04:01.865|56=DROPCOPY|1=ACC002|6=12.48|11=7586162e70c3|14=8944|31=12.48|32=8944|37=33c6c8aec2de|38=8944|39=2|54=1|55=VALE3|60=20250630-14:04:01.865|150=F|453=1|448=TRADER12|452=36|10=215|
8=FIX.4.4|9=212|35=8|49=SISTEMA|52=20250630-14:04:01.865|56=DROPCOPY|1=ACC007|6=12.66|11=acbcf9faddf3|14=1738|31=12.66|32=1738|37=f3d122ff7617|38=1738|39=2|54=2|55=BBAS3|60=20250630-14:04:01.865|150=F|453=1|448=TRADER249|452=36|10=232|
8=FIX.4.4|9=212|35=8|49=SISTEMA|52=20250630-14:04:01.865|56=DROPCOPY|1=ACC003|6=13.71|11=38b874677429|14=1411|31=13.71|32=1411|37=b35721add15d|38=1411|39=2|54=1|55=RADL3|60=20250630-14:04:01.865|150=F|453=1|448=TRADER457|452=36|10=076|
8=FIX.4.4|9=212|35=8|49=SISTEMA|52=20250630-14:04:01.865|56=DROPCOPY|1=ACC008|6=25.74|11=9c92ecece3fe|14=4668|31=25.74|32=4668|37=81784b268e30|38=4668|39=2|54=1|55=RADL3|60=20250630-14:04:01.865|150=F|453=1|448=TRADER127|452=36|10=080|
8=FIX.4.4|9=212|35=8|49=SISTEMA|52=20250630-14:04:01.865|56=DROPCOPY|1=ACC005|6=14.98|11=6bcaed6d34ca|14=4175|31=14.98|32=4175|37=e9d317dc37d3|38=4175|39=2|54=1|55=BBAS3|60=20250630-14:04:01.865|150=F|453=1|448=TRADER358|452=36|10=186|
8=FIX.4.4|9=212|35=8|49=SISTEMA|52=20250630-14:04:01.865|56=DROPCOPY|1=ACC005|6=13.25|11=6408a16538d5|14=8718|31=13.25|32=8718|37=11435b05ec6b|38=8718|39=2|54=1|55=BBDC4|60=20250630-14:04:01.865|150=F|453=1|448=TRADER644|452=36|10=084|
8=FIX.4.4|9=212|35=8|49=SISTEMA|52=20250630-14:04:01.865|56=DROPCOPY|1=ACC006|6=23.81|11=987a9e4c2bad|14=8599|31=23.81|32=8599|37=b81e5d4d5cd9|38=8599|39=2|54=2|55=SUZB3|60=20250630-14:04:01.865|150=F|453=1|448=TRADER964|452=36|10=227|
8=FIX.4.4|9=212|35=8|49=SISTEMA|52=20250630-14:04:01.865|56=DROPCOPY|1=ACC010|6=14.29|11=c1d8aa4acfa2|14=2388|31=14.29|32=2388|37=b0a2b7c25914|38=2388|39=2|54=1|55=BBDC4|60=20250630-14:04:01.865|150=F|453=1|448=TRADER651|452=36|10=096|
8=FIX.4.4|9=212|35=8|49=SISTEMA|52=20250630-14:04:01.865|56=DROPCOPY|1=ACC005|6=16.28|11=6eeb68313d9f|14=1203|31=16.28|32=1203|37=de5098019e39|38=1203|39=2|54=1|55=BBAS3|60=20250630-14:04:01.865|150=F|453=1|448=TRADER217|452=36|10=174|
8=FIX.4.4|9=212|35=8|49=SISTEMA|52=20250630-14:04:01.865|56=DROPCOPY|1=ACC006|6=28.63|11=75ee901980c7|14=8878|31=28.63|32=8878|37=30aeec309abd|38=8878|39=2|54=1|55=BBAS3|60=20250630-14:04:01.865|150=F|453=1|448=TRADER694|452=36|10=082|
8=FIX.4.4|9=212|35=8|49=SISTEMA|52=20250630-14:04:01.865|56=DROPCOPY|1=ACC004|6=21.52|11=68ade03c17e6|14=8152|31=21.52|32=8152|37=cf3e50fabe90|38=8152|39=2|54=2|55=ITUB4|60=20250630-14:04:01.865|150=F|453=1|448=TRADER421|452=36|10=130|
8=FIX.4.4|9=210|35=8|49=SISTEMA|52=20250630-14:04:01.865|56=DROPCOPY|1=ACC006|6=10.9|11=7b6b1c7c6f94|14=1833|31=10.9|32=1833|37=38161f7efd9d|38=1833|39=2|54=1|55=PETR4|60=20250630-14:04:01.865|150=F|453=1|448=TRADER563|452=36|10=226|
8=FIX.4.4|9=212|35=8|49=SISTEMA|52=20250630-14:04:01.865|56=DROPCOPY|1=ACC002|6=24.18|11=6aec9b251cd2|14=3295|31=24.18|32=3295|37=bc04bc2d311e|38=3295|39=2|54=1|55=VALE3|60=20250630-14:04:01.865|150=F|453=1|448=TRADER898|452=36|10=130|
8=FIX.4.4|9=212|35=8|49=SISTEMA|52=20250630-14:04:01.865|56=DROPCOPY|1=ACC004|6=10.21|11=3f8d294a5261|14=5588|31=10.21|32=5588|37=aff5185a8944|38=5588|39=2|54=2|55=VALE3|60=20250630-14:04:01.865|150=F|453=1|448=TRADER888|452=36|10=183|
8=FIX.4.4|9=212|35=8|49=SISTEMA|52=20250630-14:04:01.865|56=DROPCOPY|1=ACC009|6=11.16|11=cf16dd0c9852|14=5345|31=11.16|32=5345|37=7835bff11b9f|38=5345|39=2|54=1|55=BBDC4|60=20250630-14:04:01.865|150=F|453=1|448=TRADER467|452=36|10=021|
8=FIX.4.4|9=210|35=8|49=SISTEMA|52=20250630-14:04:01.865|56=DROPCOPY|1=ACC009|6=15.1|11=08b7e08925d2|14=8919|31=15.1|32=8919|37=4084e7342f5f|38=8919|39=2|54=1|55=RADL3|60=20250630-14:04:01.865|150=F|453=1|448=TRADER706|452=36|10=031|
8=FIX.4.4|9=212|35=8|49=SISTEMA|52=20250630-14:04:01.865|56=DROPCOPY|1=ACC009|6=24.88|11=7c8734d349bb|14=5497|31=24.88|32=5497|37=25df673299de|38=5497|39=2|54=1|55=WEGE3|60=20250630-14:04:01.865|150=F|453=1|448=TRADER486|452=36|10=015|
8=FIX.4.4|9=212|35=8|49=SISTEMA|52=20250630-14:04:01.865|56=DROPCOPY|1=ACC003|6=17.99|11=8cd92556568d|14=4886|31=17.99|32=4886|37=d7eef947007f|38=4886|39=2|54=2|55=WEGE3|60=20250630-14:04:01.865|150=F|453=1|448=TRADER343|452=36|10=020|
8=FIX.4.4|9=211|35=8|49=SISTEMA|52=20250630-14:04:01.865|56=DROPCOPY|1=ACC004|6=28.33|11=581b516aed8f|14=2176|31=28.33|32=2176|37=faabf875e139|38=2176|39=2|54=2|55=RADL3|60=20250630-14:04:01.865|150=F|453=1|448=TRADER77|452=36|10=046|
8=FIX.4.4|9=211|35=8|49=SISTEMA|52=20250630-14:04:01.865|56=DROPCOPY|1=ACC004|6=19.05|11=61e39ebd2e7f|14=6902|31=19.05|32=6902|37=8ab571befc96|38=6902|39=2|54=2|55=SUZB3|60=20250630-14:04:01.865|150=F|453=1|448=TRADER18|452=36|10=127|
8=FIX.4.4|9=212|35=8|49=SISTEMA|52=20250630-14:04:01.865|56=DROPCOPY|1=ACC001|6=10.83|11=7aaf46a46c43|14=7963|31=10.83|32=7963|37=d495ddf6b965|38=7963|39=2|54=2|55=ITUB4|60=20250630-14:04:01.865|150=F|453=1|448=TRADER790|452=36|10=087|
8=FIX.4.4|9=212|35=8|49=SISTEMA|52=20250630-14:04:01.865|56=DROPCOPY|1=ACC004|6=16.89|11=c4ef5a95a08d|14=9128|31=16.89|32=9128|37=ce456ae2cbf8|38=9128|39=2|54=1|55=VALE3|60=20250630-14:04:01.865|150=F|453=1|448=TRADER397|452=36|10=223|
8=FIX.4.4|9=212|35=8|49=SISTEMA|52=20250630-14:04:01.865|56=DROPCOPY|1=ACC005|6=16.47|11=ce3dcfde0d16|14=9420|31=16.47|32=9420|37=20c0aba2d03d|38=9420|39=2|54=2|55=WEGE3|60=20250630-14:04:01.865|150=F|453=1|448=TRADER900|452=36|10=201|
8=FIX.4.4|9=212|35=8|49=SISTEMA|52=20250630-14:04:01.873|56=DROPCOPY|1=ACC002|6=12.95|11=8512e6c59ba2|14=7000|31=12.95|32=7000|37=f882e1478119|38=7000|39=2|54=1|55=SUZB3|60=20250630-14:04:01.873|150=F|453=1|448=TRADER563|452=36|10=117|
8=FIX.4.4|9=212|35=8|49=SISTEMA|52=20250630-14:04:01.873|56=DROPCOPY|1=ACC001|6=26.79|11=bff2b4b0274e|14=5397|31=26.79|32=5397|37=815d892318e4|38=5397|39=2|54=1|55=RENT3|60=20250630-14:04:01.873|150=F|453=1|448=TRADER708|452=36|10=002|
8=FIX.4.4|9=212|35=8|49=SISTEMA|52=20250630-14:04:01.873|56=DROPCOPY|1=ACC005|6=23.11|11=d99a129a067b|14=9926|31=23.11|32=9926|37=d7e531998df2|38=9926|39=2|54=2|55=BBAS3|60=20250630-14:04:01.873|150=F|453=1|448=TRADER684|452=36|10=219|
8=FIX.4.4|9=211|35=8|49=SISTEMA|52=20250630-14:04:01.873|56=DROPCOPY|1=ACC010|6=19.17|11=d9cfb549bf4e|14=7470|31=19.17|32=7470|37=648ce3fa95b7|38=7470|39=2|54=2|55=ITUB4|60=20250630-14:04:01.873|150=F|453=1|448=TRADER60|452=36|10=121|
8=FIX.4.4|9=212|35=8|49=SISTEMA|52=20250630-14:04:01.873|56=DROPCOPY|1=ACC002|6=23.25|11=8177855efc9c|14=2067|31=23.25|32=2067|37=e397db52eacb|38=2067|39=2|54=1|55=ITUB4|60=20250630-14:04:01.873|150=F|453=1|448=TRADER864|452=36|10=110|
8=FIX.4.4|9=212|35=8|49=SISTEMA|52=20250630-14:04:01.873|56=DROPCOPY|1=ACC002|6=19.82|11=9df42fc5d97a|14=9964|31=19.82|32=9964|37=ba8ef72eb2a7|38=9964|39=2|54=1|55=BBAS3|60=20250630-14:04:01.873|150=F|453=1|448=TRADER744|452=36|10=222|
8=FIX.4.4|9=211|35=8|49=SISTEMA|52=20250630-14:04:01.873|56=DROPCOPY|1=ACC004|6=14.17|11=1ffc7dd3cd9f|14=1332|31=14.17|32=1332|37=d65de7cdafd1|38=1332|39=2|54=1|55=BBDC4|60=20250630-14:04:01.873|150=F|453=1|448=TRADER70|452=36|10=226|
8=FIX.4.4|9=212|35=8|49=SISTEMA|52=20250630-14:04:01.873|56=DROPCOPY|1=ACC005|6=20.09|11=794c42e4160d|14=3373|31=20.09|32=3373|37=854395b9b403|38=3373|39=2|54=2|55=PETR4|60=20250630-14:04:01.873|150=F|453=1|448=TRADER294|452=36|10=075|
8=FIX.4.4|9=212|35=8|49=SISTEMA|52=20250630-14:04:01.873|56=DROPCOPY|1=ACC008|6=28.74|11=4866c49cb3b3|14=1111|31=28.74|32=1111|37=3543bbd8accf|38=1111|39=2|54=1|55=SUZB3|60=20250630-14:04:01.873|150=F|453=1|448=TRADER153|452=36|10=089|
8=FIX.4.4|9=212|35=8|49=SISTEMA|52=20250630-14:04:01.873|56=DROPCOPY|1=ACC005|6=17.48|11=beb79dcfc176|14=1644|31=17.48|32=1644|37=8771d52b2a1f|38=1644|39=2|54=1|55=BBAS3|60=20250630-14:04:01.873|150=F|453=1|448=TRADER889|452=36|10=093|
8=FIX.4.4|9=211|35=8|49=SISTEMA|52=20250630-14:04:01.873|56=DROPCOPY|1=ACC002|6=16.49|11=2fcd1defdb94|14=7819|31=16.49|32=7819|37=64607c3c938a|38=7819|39=2|54=1|55=BBDC4|60=20250630-14:04:01.873|150=F|453=1|448=TRADER72|452=36|10=045|
8=FIX.4.4|9=211|35=8|49=SISTEMA|52=20250630-14:04:01.873|56=DROPCOPY|1=ACC003|6=22.03|11=a8fff1937ec3|14=5018|31=22.03|32=5018|37=d32ba19d2547|38=5018|39=2|54=2|55=RADL3|60=20250630-14:04:01.873|150=F|453=1|448=TRADER29|452=36|10=220|
8=FIX.4.4|9=212|35=8|49=SISTEMA|52=20250630-14:04:01.873|56=DROPCOPY|1=ACC003|6=26.94|11=ae7bd49f122d|14=8931|31=26.94|32=8931|37=39da85523b62|38=8931|39=2|54=1|55=ITUB4|60=20250630-14:04:01.873|150=F|453=1|448=TRADER458|452=36|10=032|
8=FIX.4.4|9=212|35=8|49=SISTEMA|52=20250630-14:04:01.873|56=DROPCOPY|1=ACC008|6=16.87|11=53f53cdff1c3|14=9905|31=16.87|32=9905|37=a090ceff9a39|38=9905|39=2|54=2|55=ITUB4|60=20250630-14:04:01.873|150=F|453=1|448=TRADER625|452=36|10=189|
8=FIX.4.4|9=212|35=8|49=SISTEMA|52=20250630-14:04:01.873|56=DROPCOPY|1=ACC001|6=27.94|11=a877e10cf6ca|14=2762|31=27.94|32=2762|37=d46815b5b93a|38=2762|39=2|54=1|55=WEGE3|60=20250630-14:04:01.873|150=F|453=1|448=TRADER781|452=36|10=055|
8=FIX.4.4|9=212|35=8|49=SISTEMA|52=20250630-14:04:01.873|56=DROPCOPY|1=ACC008|6=16.59|11=ba3ab3878239|14=8060|31=16.59|32=8060|37=bc9949da9267|38=8060|39=2|54=2|55=RENT3|60=20250630-14:04:01.873|150=F|453=1|448=TRADER595|452=36|10=248|
8=FIX.4.4|9=212|35=8|49=SISTEMA|52=20250630-14:04:01.873|56=DROPCOPY|1=ACC005|6=29.13|11=c3dce35b658a|14=2818|31=29.13|32=2818|37=26134deeedd5|38=2818|39=2|54=1|55=PETR4|60=20250630-14:04:01.873|150=F|453=1|448=TRADER985|452=36|10=171|
8=FIX.4.4|9=212|35=8|49=SISTEMA|52=20250630-14:04:01.873|56=DROPCOPY|1=ACC007|6=25.71|11=e6cff17cca02|14=5588|31=25.71|32=5588|37=fc84c01dbd90|38=5588|39=2|54=1|55=RADL3|60=20250630-14:04:01.873|150=F|453=1|448=TRADER560|452=36|10=197|
8=FIX.4.4|9=212|35=8|49=SISTEMA|52=20250630-14:04:01.873|56=DROPCOPY|1=ACC003|6=15.41|11=5fd7d2c38d22|14=7287|31=15.41|32=7287|37=37333a80d271|38=7287|39=2|54=1|55=RENT3|60=20250630-14:04:01.873|150=F|453=1|448=TRADER311|452=36|10=168|
8=FIX.4.4|9=212|35=8|49=SISTEMA|52=20250630-14:04:01.873|56=DROPCOPY|1=ACC007|6=24.53|11=425d4a761513|14=7574|31=24.53|32=7574|37=0f08822e24e4|38=7574|39=2|54=1|55=BBDC4|60=20250630-14:04:01.873|150=F|453=1|448=TRADER455|452=36|10=040|
8=FIX.4.4|9=212|35=8|49=SISTEMA|52=20250630-14:04:01.873|56=DROPCOPY|1=ACC001|6=14.03|11=5cef0571d029|14=9036|31=14.03|32=9036|37=e28a921e6ba7|38=9036|39=2|54=1|55=ABEV3|60=20250630-14:04:01.873|150=F|453=1|448=TRADER318|452=36|10=222|
8=FIX.4.4|9=212|35=8|49=SISTEMA|52=20250630-14:04:01.873|56=DROPCOPY|1=ACC001|6=27.47|11=268351f35db0|14=1792|31=27.47|32=1792|37=29b533d8512d|38=1792|39=2|54=2|55=PETR4|60=20250630-14:04:01.873|150=F|453=1|448=TRADER555|452=36|10=136|
