8=FIX.4.4|9=212|35=8|49=SISTEMA|52=20250630-11:59:24.315|56=DROPCOPY|1=ACC002|6=20.55|11=2e114411c24c|14=9088|31=20.55|32=9088|37=558363c38a96|38=9088|39=2|54=1|55=ITUB4|60=20250630-11:59:24.315|150=F|453=1|448=TRADER377|452=36|10=089|
8=FIX.4.4|9=212|35=8|49=SISTEMA|52=20250630-11:59:24.356|56=DROPCOPY|1=ACC006|6=28.26|11=142832698c94|14=3807|31=28.26|32=3807|37=2dd651757002|38=3807|39=2|54=1|55=PETR4|60=20250630-11:59:24.356|150=F|453=1|448=TRADER929|452=36|10=019|
8=FIX.4.4|9=212|35=8|49=SISTEMA|52=20250630-11:59:24.357|56=DROPCOPY|1=ACC007|6=22.66|11=8c6eebfda758|14=8810|31=22.66|32=8810|37=a17854740c21|38=8810|39=2|54=2|55=RENT3|60=20250630-11:59:24.357|150=F|453=1|448=TRADER947|452=36|10=046|
8=FIX.4.4|9=212|35=8|49=SISTEMA|52=20250630-11:59:24.358|56=DROPCOPY|1=ACC006|6=23.76|11=bca082e852fd|14=5321|31=23.76|32=5321|37=807f9e6f6f80|38=5321|39=2|54=1|55=ABEV3|60=20250630-11:59:24.358|150=F|453=1|448=TRADER548|452=36|10=060|
8=FIX.4.4|9=212|35=8|49=SISTEMA|52=20250630-11:59:24.358|56=DROPCOPY|1=ACC007|6=27.89|11=980c9ae7ada6|14=1250|31=27.89|32=1250|37=b16447821412|38=1250|39=2|54=1|55=RENT3|60=20250630-11:59:24.358|150=F|453=1|448=TRADER597|452=36|10=194|
8=FIX.4.4|9=212|35=8|49=SISTEMA|52=20250630-11:59:24.358|56=DROPCOPY|1=ACC002|6=16.36|11=2f9d93fb764d|14=8042|31=16.36|32=8042|37=90da8ae2a42c|38=8042|39=2|54=2|55=RADL3|60=20250630-11:59:24.358|150=F|453=1|448=TRADER997|452=36|10=112|
8=FIX.4.4|9=212|35=8|49=SISTEMA|52=20250630-11:59:24.359|56=DROPCOPY|1=ACC004|6=19.44|11=f6c744eff2d3|14=8138|31=19.44|32=8138|37=2e8666419d08|38=8138|39=2|54=2|55=SUZB3|60=20250630-11:59:24.359|150=F|453=1|448=TRADER774|452=36|10=033|
8=FIX.4.4|9=212|35=8|49=SISTEMA|52=20250630-11:59:24.359|56=DROPCOPY|1=ACC002|6=28.05|11=6177b9658e40|14=4728|31=28.05|32=4728|37=f480f37e90a1|38=4728|39=2|54=2|55=ABEV3|60=20250630-11:59:24.359|150=F|453=1|448=TRADER133|452=36|10=134|
8=FIX.4.4|9=212|35=8|49=SISTEMA|52=20250630-11:59:24.359|56=DROPCOPY|1=ACC010|6=14.36|11=bccebc9e8162|14=3120|31=14.36|32=3120|37=b9978519f394|38=3120|39=2|54=1|55=RENT3|60=20250630-11:59:24.359|150=F|453=1|448=TRADER919|452=36|10=023|
8=FIX.4.4|9=212|35=8|49=SISTEMA|52=20250630-11:59:24.360|56=DROPCOPY|1=ACC004|6=20.83|11=f28fbc49acbd|14=8787|31=20.83|32=8787|37=5592de1aaf4e|38=8787|39=2|54=2|55=ITUB4|60=20250630-11:59:24.360|150=F|453=1|448=TRADER843|452=36|10=034|
8=FIX.4.4|9=211|35=8|49=SISTEMA|52=20250630-11:59:24.360|56=DROPCOPY|1=ACC007|6=25.87|11=62e4493f6181|14=5245|31=25.87|32=5245|37=3bf72bba4e5c|38=5245|39=2|54=2|55=RENT3|60=20250630-11:59:24.360|150=F|453=1|448=TRADER14|452=36|10=229|
8=FIX.4.4|9=212|35=8|49=SISTEMA|52=20250630-11:59:24.361|56=DROPCOPY|1=ACC009|6=28.39|11=0044d8f63b0f|14=3545|31=28.39|32=3545|37=bb4e3d651ce6|38=3545|39=2|54=2|55=BBDC4|60=20250630-11:59:24.361|150=F|453=1|448=TRADER620|452=36|10=027|
8=FIX.4.4|9=212|35=8|49=SISTEMA|52=20250630-11:59:24.361|56=DROPCOPY|1=ACC002|6=11.16|11=5c7e4b31e563|14=8422|31=11.16|32=8422|37=28598817e225|38=8422|39=2|54=1|55=RENT3|60=20250630-11:59:24.361|150=F|453=1|448=TRADER251|452=36|10=073|
8=FIX.4.4|9=212|35=8|49=SISTEMA|52=20250630-11:59:24.361|56=DROPCOPY|1=ACC002|6=14.29|11=fbb13ff1401e|14=9180|31=14.29|32=9180|37=c05c9fb661a6|38=9180|39=2|54=1|55=PETR4|60=20250630-11:59:24.361|150=F|453=1|448=TRADER318|452=36|10=106|
8=FIX.4.4|9=212|35=8|49=SISTEMA|52=20250630-11:59:24.362|56=DROPCOPY|1=ACC010|6=12.57|11=04a5a9413c10|14=5287|31=12.57|32=5287|37=05164d7254e7|38=5287|39=2|54=1|55=VALE3|60=20250630-11:59:24.362|150=F|453=1|448=TRADER424|452=36|10=060|
8=FIX.4.4|9=212|35=8|49=SISTEMA|52=20250630-11:59:24.362|56=DROPCOPY|1=ACC003|6=17.76|11=c98ed3df0ae5|14=9078|31=17.76|32=9078|37=2c2c82b6d848|38=9078|39=2|54=1|55=BBDC4|60=20250630-11:59:24.362|150=F|453=1|448=TRADER128|452=36|10=108|
8=FIX.4.4|9=211|35=8|49=SISTEMA|52=20250630-11:59:24.363|56=DROPCOPY|1=ACC003|6=19.53|11=0ad930a86b03|14=8405|31=19.53|32=8405|37=fae4c16d02ec|38=8405|39=2|54=2|55=BBDC4|60=20250630-11:59:24.363|150=F|453=1|448=TRADER32|452=36|10=001|
8=FIX.4.4|9=212|35=8|49=SISTEMA|52=20250630-11:59:24.363|56=DROPCOPY|1=ACC002|6=13.89|11=c2a8a079db41|14=5633|31=13.89|32=5633|37=d0d6c0ec9d41|38=5633|39=2|54=2|55=VALE3|60=20250630-11:59:24.363|150=F|453=1|448=TRADER797|452=36|10=109|
8=FIX.4.4|9=212|35=8|49=SISTEMA|52=20250630-11:59:24.363|56=DROPCOPY|1=ACC008|6=22.61|11=3e3f90e02b5b|14=4090|31=22.61|32=4090|37=c9719a2ca2cc|38=4090|39=2|54=2|55=BBDC4|60=20250630-11:59:24.363|150=F|453=1|448=TRADER630|452=36|10=042|
8=FIX.4.4|9=212|35=8|49=SISTEMA|52=20250630-11:59:24.364|56=DROPCOPY|1=ACC008|6=20.74|11=1c27f2781362|14=7387|31=20.74|32=7387|37=dae662a11fa1|38=7387|39=2|54=1|55=ABEV3|60=20250630-11:59:24.364|150=F|453=1|448=TRADER518|452=36|10=215|
8=FIX.4.4|9=212|35=8|49=SISTEMA|52=20250630-11:59:24.364|56=DROPCOPY|1=ACC008|6=26.49|11=bf44b9352d6c|14=5203|31=26.49|32=5203|37=ba850463a01a|38=5203|39=2|54=1|55=BBAS3|60=20250630-11:59:24.364|150=F|453=1|448=TRADER913|452=36|10=226|
8=FIX.4.4|9=212|35=8|49=SISTEMA|52=20250630-11:59:24.365|56=DROPCOPY|1=ACC005|6=12.53|11=47e70a694c65|14=1609|31=12.53|32=1609|37=d1c066199cad|38=1609|39=2|54=2|55=BBAS3|60=20250630-11:59:24.365|150=F|453=1|448=TRADER641|452=36|10=196|
8=FIX.4.4|9=212|35=8|49=SISTEMA|52=20250630-11:59:24.365|56=DROPCOPY|1=ACC005|6=29.16|11=214e4b8e292b|14=5823|31=29.16|32=5823|37=a5cbdf7add5c|38=5823|39=2|54=1|55=SUZB3|60=20250630-11:59:24.365|150=F|453=1|448=TRADER912|452=36|10=231|
8=FIX.4.4|9=210|35=8|49=SISTEMA|52=20250630-11:59:24.365|56=DROPCOPY|1=ACC003|6=19.2|11=af03282fcfb2|14=1348|31=19.2|32=1348|37=e65876a9a5dd|38=1348|39=2|54=2|55=ABEV3|60=20250630-11:59:24.365|150=F|453=1|448=TRADER584|452=36|10=252|
8=FIX.4.4|9=211|35=8|49=SISTEMA|52=20250630-11:59:24.366|56=DROPCOPY|1=ACC005|6=13.88|11=33227601bae8|14=3540|31=13.88|32=3540|37=a7210c1657a1|38=3540|39=2|54=2|55=WEGE3|60=20250630-11:59:24.366|150=F|453=1|448=TRADER28|452=36|10=045|
8=FIX.4.4|9=212|35=8|49=SISTEMA|52=20250630-11:59:24.366|56=DROPCOPY|1=ACC010|6=20.85|11=90a77f2eb199|14=3736|31=20.85|32=3736|37=29ab68b0d6ce|38=3736|39=2|54=1|55=RADL3|60=20250630-11:59:24.366|150=F|453=1|448=TRADER226|452=36|10=062|
8=FIX.4.4|9=212|35=8|49=SISTEMA|52=20250630-11:59:24.367|56=DROPCOPY|1=ACC009|6=16.79|11=b95bdf391f26|14=6407|31=16.79|32=6407|37=9eba1569af55|38=6407|39=2|54=2|55=BBDC4|60=20250630-11:59:24.367|150=F|453=1|448=TRADER320|452=36|10=059|
8=FIX.4.4|9=212|35=8|49=SISTEMA|52=20250630-11:59:24.367|56=DROPCOPY|1=ACC004|6=25.89|11=031f4cc3690c|14=1146|31=25.89|32=1146|37=740c0a9d4474|38=1146|39=2|54=1|55=PETR4|60=20250630-11:59:24.367|150=F|453=1|448=TRADER261|452=36|10=182|
8=FIX.4.4|9=212|35=8|49=SISTEMA|52=20250630-11:59:24.367|56=DROPCOPY|1=ACC009|6=13.24|11=131e9c98b7a5|14=4395|31=13.24|32=4395|37=024d403a9ecc|38=4395|39=2|54=1|55=WEGE3|60=20250630-11:59:24.367|150=F|453=1|448=TRADER805|452=36|10=014|
8=FIX.4.4|9=212|35=8|49=SISTEMA|52=20250630-11:59:24.367|56=DROPCOPY|1=ACC007|6=28.71|11=c91e68f4939f|14=7217|31=28.71|32=7217|37=aa2c95f4209f|38=7217|39=2|54=2|55=BBDC4|60=20250630-11:59:24.367|150=F|453=1|448=TRADER611|452=36|10=009|
8=FIX.4.4|9=212|35=8|49=SISTEMA|52=20250630-11:59:24.368|56=DROPCOPY|1=ACC002|6=24.67|11=65a78c64f270|14=4562|31=24.67|32=4562|37=f7c807831c1f|38=4562|39=2|54=2|55=WEGE3|60=20250630-11:59:24.368|150=F|453=1|448=TRADER587|452=36|10=199|
8=FIX.4.4|9=212|35=8|49=SISTEMA|52=20250630-11:59:24.368|56=DROPCOPY|1=ACC006|6=27.47|11=9e8e35e7b6ea|14=8203|31=27.47|32=8203|37=7b5765e7c0d1|38=8203|39=2|54=1|55=SUZB3|60=20250630-11:59:24.368|150=F|453=1|448=TRADER284|452=36|10=107|
8=FIX.4.4|9=212|35=8|49=SISTEMA|52=20250630-11:59:24.368|56=DROPCOPY|1=ACC003|6=13.97|11=b6f5b27a7156|14=3474|31=13.97|32=3474|37=6fe98d1742ae|38=3474|39=2|54=2|55=RENT3|60=20250630-11:59:24.368|150=F|453=1|448=TRADER900|452=36|10=051|
8=FIX.4.4|9=212|35=8|49=SISTEMA|52=20250630-11:59:24.368|56=DROPCOPY|1=ACC006|6=12.08|11=f9416d51cb8a|14=1929|31=12.08|32=1929|37=65b1d0cac796|38=1929|39=2|54=1|55=SUZB3|60=20250630-11:59:24.368|150=F|453=1|448=TRADER927|452=36|10=101|
8=FIX.4.4|9=212|35=8|49=SISTEMA|52=20250630-11:59:24.369|56=DROPCOPY|1=ACC001|6=18.97|11=7e1dbe8cc9a3|14=5922|31=18.97|32=5922|37=483932c0b57f|38=5922|39=2|54=2|55=SUZB3|60=20250630-11:59:24.369|150=F|453=1|448=TRADER123|452=36|10=112|
8=FIX.4.4|9=212|35=8|49=SISTEMA|52=20250630-11:59:24.369|56=DROPCOPY|1=ACC005|6=29.15|11=420d6fada625|14=9169|31=29.15|32=9169|37=403dbc55494c|38=9169|39=2|54=2|55=BBAS3|60=20250630-11:59:24.369|150=F|453=1|448=TRADER845|452=36|10=024|
8=FIX.4.4|9=212|35=8|49=SISTEMA|52=20250630-11:59:24.370|56=DROPCOPY|1=ACC008|6=15.87|11=ed90928e6ddb|14=9962|31=15.87|32=9962|37=9bef36057fa6|38=9962|39=2|54=2|55=RADL3|60=20250630-11:59:24.370|150=F|453=1|448=TRADER490|452=36|10=152|
8=FIX.4.4|9=212|35=8|49=SISTEMA|52=20250630-11:59:24.371|56=DROPCOPY|1=ACC004|6=15.47|11=63fa2dbf318d|14=1264|31=15.47|32=1264|37=17bbfd0231e1|38=1264|39=2|54=1|55=BBAS3|60=20250630-11:59:24.371|150=F|453=1|448=TRADER783|452=36|10=062|
8=FIX.4.4|9=212|35=8|49=SISTEMA|52=20250630-11:59:24.371|56=DROPCOPY|1=ACC009|6=28.23|11=5b80ea716570|14=5389|31=28.23|32=5389|37=cbe74d0c1ee8|38=5389|39=2|54=1|55=SUZB3|60=20250630-11:59:24.371|150=F|453=1|448=TRADER707|452=36|10=105|
8=FIX.4.4|9=212|35=8|49=SISTEMA|52=20250630-11:59:24.371|56=DROPCOPY|1=ACC005|6=13.72|11=ba4e711b2b5b|14=4818|31=13.72|32=4818|37=c8e526b595a0|38=4818|39=2|54=1|55=BBDC4|60=20250630-11:59:24.371|150=F|453=1|448=TRADER822|452=36|10=018|
8=FIX.4.4|9=212|35=8|49=SISTEMA|52=20250630-11:59:24.371|56=DROPCOPY|1=ACC006|6=12.12|11=5e1542427a91|14=9840|31=12.12|32=9840|37=8a0ea37f69b3|38=9840|39=2|54=1|55=RADL3|60=20250630-11:59:24.371|150=F|453=1|448=TRADER634|452=36|10=153|
8=FIX.4.4|9=212|35=8|49=SISTEMA|52=20250630-11:59:24.372|56=DROPCOPY|1=ACC005|6=26.43|11=9b714b40c984|14=5993|31=26.43|32=5993|37=e8066c578c4a|38=5993|39=2|54=2|55=RADL3|60=20250630-11:59:24.372|150=F|453=1|448=TRADER754|452=36|10=203|
8=FIX.4.4|9=212|35=8|49=SISTEMA|52=20250630-11:59:24.372|56=DROPCOPY|1=ACC008|6=24.71|11=c7b30b78deb2|14=2053|31=24.71|32=2053|37=ec79c0f10139|38=2053|39=2|54=1|55=RADL3|60=20250630-11:59:24.372|150=F|453=1|448=TRADER114|452=36|10=016|
8=FIX.4.4|9=212|35=8|49=SISTEMA|52=20250630-11:59:24.373|56=DROPCOPY|1=ACC007|6=26.86|11=68bc57a016e8|14=4142|31=26.86|32=4142|37=a0e5eebfa990|38=4142|39=2|54=1|55=ABEV3|60=20250630-11:59:24.373|150=F|453=1|448=TRADER822|452=36|10=093|
8=FIX.4.4|9=210|35=8|49=SISTEMA|52=20250630-11:59:24.373|56=DROPCOPY|1=ACC009|6=22.8|11=e319ea611998|14=3686|31=22.8|32=3686|37=7c372c286e7f|38=3686|39=2|54=1|55=PETR4|60=20250630-11:59:24.373|150=F|453=1|448=TRADER379|452=36|10=131|
8=FIX.4.4|9=211|35=8|49=SISTEMA|52=20250630-11:59:24.373|56=DROPCOPY|1=ACC003|6=16.88|11=ed88104ed829|14=4129|31=16.88|32=4129|37=e2aa1ef97aaa|38=4129|39=2|54=2|55=ABEV3|60=20250630-11:59:24.373|150=F|453=1|448=TRADER32|452=36|10=097|
8=FIX.4.4|9=212|35=8|49=SISTEMA|52=20250630-11:59:24.373|56=DROPCOPY|1=ACC006|6=12.87|11=73376702b8f6|14=4093|31=12.87|32=4093|37=02386364283b|38=4093|39=2|54=1|55=RENT3|60=20250630-11:59:24.373|150=F|453=1|448=TRADER304|452=36|10=253|
8=FIX.4.4|9=211|35=8|49=SISTEMA|52=20250630-11:59:24.373|56=DROPCOPY|1=ACC007|6=12.64|11=e0e9e7825951|14=8727|31=12.64|32=8727|37=8ac9fd0d96d6|38=8727|39=2|54=2|55=VALE3|60=20250630-11:59:24.373|150=F|453=1|448=TRADER98|452=36|10=006|
8=FIX.4.4|9=212|35=8|49=SISTEMA|52=20250630-11:59:24.374|56=DROPCOPY|1=ACC009|6=27.37|11=afd54fcaaa62|14=8090|31=27.37|32=8090|37=fef3aa96d52e|38=8090|39=2|54=1|55=VALE3|60=20250630-11:59:24.374|150=F|453=1|448=TRADER788|452=36|10=059|
8=FIX.4.4|9=212|35=8|49=SISTEMA|52=20250630-11:59:24.374|56=DROPCOPY|1=ACC004|6=28.93|11=10e241de196d|14=1428|31=28.93|32=1428|37=006db309d486|38=1428|39=2|54=2|55=BBDC4|60=20250630-11:59:24.374|150=F|453=1|448=TRADER692|452=36|10=144|
8=FIX.4.4|9=212|35=8|49=SISTEMA|52=20250630-11:59:24.375|56=DROPCOPY|1=ACC005|6=13.32|11=bac6ba58b11d|14=6363|31=13.32|32=6363|37=0312674b0e7f|38=6363|39=2|54=2|55=BBAS3|60=20250630-11:59:24.375|150=F|453=1|448=TRADER431|452=36|10=012|
8=FIX.4.4|9=212|35=8|49=SISTEMA|52=20250630-11:59:24.375|56=DROPCOPY|1=ACC007|6=19.77|11=6c6d192b39ea|14=6345|31=19.77|32=6345|37=024125aa3da1|38=6345|39=2|54=1|55=VALE3|60=20250630-11:59:24.375|150=F|453=1|448=TRADER466|452=36|10=016|
8=FIX.4.4|9=212|35=8|49=SISTEMA|52=20250630-11:59:24.375|56=DROPCOPY|1=ACC008|6=16.42|11=6a21262f6abe|14=5494|31=16.42|32=5494|37=75af558d29c8|38=5494|39=2|54=2|55=SUZB3|60=20250630-11:59:24.375|150=F|453=1|448=TRADER568|452=36|10=066|
8=FIX.4.4|9=212|35=8|49=SISTEMA|52=20250630-11:59:24.376|56=DROPCOPY|1=ACC001|6=11.68|11=87cca8e4f0b4|14=7523|31=11.68|32=7523|37=d48020b4ade9|38=7523|39=2|54=2|55=VALE3|60=20250630-11:59:24.376|150=F|453=1|448=TRADER325|452=36|10=102|
8=FIX.4.4|9=211|35=8|49=SISTEMA|52=20250630-11:59:24.376|56=DROPCOPY|1=ACC003|6=21.61|11=5ea5b4629013|14=2845|31=21.61|32=2845|37=ef58b4b3b69e|38=2845|39=2|54=2|55=ABEV3|60=20250630-11:59:24.376|150=F|453=1|448=TRADER33|452=36|10=201|
8=FIX.4.4|9=210|35=8|49=SISTEMA|52=20250630-11:59:24.376|56=DROPCOPY|1=ACC005|6=10.7|11=5b6e98a35a7f|14=3234|31=10.7|32=3234|37=5b885b9fe36e|38=3234|39=2|54=1|55=PETR4|60=20250630-11:59:24.376|150=F|453=1|448=TRADER359|452=36|10=239|
8=FIX.4.4|9=211|35=8|49=SISTEMA|52=20250630-11:59:24.376|56=DROPCOPY|1=ACC003|6=25.78|11=56ff39ba93f0|14=7916|31=25.78|32=7916|37=d7a61fb31c78|38=7916|39=2|54=2|55=ITUB4|60=20250630-11:59:24.376|150=F|453=1|448=TRADER80|452=36|10=059|
8=FIX.4.4|9=212|35=8|49=SISTEMA|52=20250630-11:59:24.376|56=DROPCOPY|1=ACC002|6=19.95|11=ec4b9dde4b9d|14=1402|31=19.95|32=1402|37=87083bc82a62|38=1402|39=2|54=2|55=PETR4|60=20250630-11:59:24.376|150=F|453=1|448=TRADER376|452=36|10=126|
8=FIX.4.4|9=212|35=8|49=SISTEMA|52=20250630-11:59:24.377|56=DROPCOPY|1=ACC004|6=12.44|11=846e160a7616|14=8473|31=12.44|32=8473|37=6d7c5413452e|38=8473|39=2|54=1|55=ITUB4|60=20250630-11:59:24.377|150=F|453=1|448=TRADER201|452=36|10=091|
8=FIX.4.4|9=210|35=8|49=SISTEMA|52=20250630-11:59:24.377|56=DROPCOPY|1=ACC004|6=26.91|11=78a802f9e126|14=9596|31=26.91|32=9596|37=4183d2983079|38=9596|39=2|54=2|55=VALE3|60=20250630-11:59:24.377|150=F|453=1|448=TRADER3|452=36|10=237|
8=FIX.4.4|9=212|35=8|49=SISTEMA|52=20250630-11:59:24.377|56=DROPCOPY|1=ACC002|6=20.22|11=31e2e978b855|14=5572|31=20.22|32=5572|37=3d622f720f87|38=5572|39=2|54=1|55=SUZB3|60=20250630-11:59:24.377|150=F|453=1|448=TRADER271|452=36|10=153|
8=FIX.4.4|9=212|35=8|49=SISTEMA|52=20250630-11:59:24.377|56=DROPCOPY|1=ACC005|6=18.71|11=9478f749a411|14=4686|31=18.71|32=4686|37=4a35d5b0fee5|38=4686|39=2|54=1|55=RADL3|60=20250630-11:59:24.377|150=F|453=1|448=TRADER628|452=36|10=255|
8=FIX.4.4|9=212|35=8|49=SISTEMA|52=20250630-11:59:24.377|56=DROPCOPY|1=ACC010|6=12.58|11=91c0649252bf|14=5012|31=12.58|32=5012|37=d7ab2640887a|38=5012|39=2|54=1|55=RENT3|60=20250630-11:59:24.377|150=F|453=1|448=TRADER612|452=36|10=161|
8=FIX.4.4|9=211|35=8|49=SISTEMA|52=20250630-11:59:24.377|56=DROPCOPY|1=ACC006|6=20.56|11=8ec0c3cfdc97|14=8951|31=20.56|32=8951|37=ccc141ec6ece|38=8951|39=2|54=2|55=RENT3|60=20250630-11:59:24.377|150=F|453=1|448=TRADER76|452=36|10=030|
8=FIX.4.4|9=212|35=8|49=SISTEMA|52=20250630-11:59:24.377|56=DROPCOPY|1=ACC003|6=19.88|11=34c33c47e60a|14=7292|31=19.88|32=7292|37=94d20f462ed5|38=7292|39=2|54=2|55=VALE3|60=20250630-11:59:24.377|150=F|453=1|448=TRADER872|452=36|10=253|
8=FIX.4.4|9=212|35=8|49=SISTEMA|52=20250630-11:59:24.377|56=DROPCOPY|1=ACC005|6=26.36|11=9298debb31d6|14=7764|31=26.36|32=7764|37=bf6f63ff0f72|38=7764|39=2|54=1|55=PETR4|60=20250630-11:59:24.377|150=F|453=1|448=TRADER666|452=36|10=175|
8=FIX.4.4|9=212|35=8|49=SISTEMA|52=20250630-11:59:24.377|56=DROPCOPY|1=ACC008|6=13.68|11=f1ba4c2899b2|14=1934|31=13.68|32=1934|37=43fcdd185d6a|38=1934|39=2|54=2|55=RADL3|60=20250630-11:59:24.377|150=F|453=1|448=TRADER517|452=36|10=117|
8=FIX.4.4|9=212|35=8|49=SISTEMA|52=20250630-11:59:24.377|56=DROPCOPY|1=ACC010|6=13.14|11=8c3548daca59|14=7332|31=13.14|32=7332|37=4244de78334c|38=7332|39=2|54=1|55=ITUB4|60=20250630-11:59:24.377|150=F|453=1|448=TRADER319|452=36|10=222|
8=FIX.4.4|9=212|35=8|49=SISTEMA|52=20250630-11:59:24.377|56=DROPCOPY|1=ACC004|6=21.68|11=a5bbd8d27130|14=8596|31=21.68|32=8596|37=7f369ebc65c0|38=8596|39=2|54=1|55=PETR4|60=20250630-11:59:24.377|150=F|453=1|448=TRADER723|452=36|10=115|
8=FIX.4.4|9=212|35=8|49=SISTEMA|52=20250630-11:59:24.377|56=DROPCOPY|1=ACC001|6=17.32|11=d4d6d3794a0b|14=3501|31=17.32|32=3501|37=ee6c831851b0|38=3501|39=2|54=2|55=RADL3|60=20250630-11:59:24.377|150=F|453=1|448=TRADER544|452=36|10=233|
8=FIX.4.4|9=212|35=8|49=SISTEMA|52=20250630-11:59:24.377|56=DROPCOPY|1=ACC001|6=27.58|11=73e5f41a9f8c|14=5521|31=27.58|32=5521|37=d4927d3fada4|38=5521|39=2|54=1|55=RADL3|60=20250630-11:59:24.377|150=F|453=1|448=TRADER648|452=36|10=119|
8=FIX.4.4|9=212|35=8|49=SISTEMA|52=20250630-11:59:24.377|56=DROPCOPY|1=ACC004|6=26.48|11=432c3ca46715|14=6955|31=26.48|32=6955|37=0b337af9ca59|38=6955|39=2|54=2|55=PETR4|60=20250630-11:59:24.377|150=F|453=1|448=TRADER757|452=36|10=021|
8=FIX.4.4|9=212|35=8|49=SISTEMA|52=20250630-11:59:24.377|56=DROPCOPY|1=ACC007|6=12.34|11=9c5d87694dca|14=1635|31=12.34|32=1635|37=063452c28fd5|38=1635|39=2|54=1|55=PETR4|60=20250630-11:59:24.377|150=F|453=1|448=TRADER382|452=36|10=243|
8=FIX.4.4|9=212|35=8|49=SISTEMA|52=20250630-11:59:24.377|56=DROPCOPY|1=ACC008|6=19.42|11=6fd1aab86d07|14=4462|31=19.42|32=4462|37=9a11911531ec|38=4462|39=2|54=2|55=WEGE3|60=20250630-11:59:24.377|150=F|453=1|448=TRADER689|452=36|10=017|
8=FIX.4.4|9=212|35=8|49=SISTEMA|52=20250630-11:59:24.377|56=DROPCOPY|1=ACC007|6=11.69|11=4f860e7467e5|14=9404|31=11.69|32=9404|37=36fcb5f79cc3|38=9404|39=2|54=1|55=ABEV3|60=20250630-11:59:24.377|150=F|453=1|448=TRADER695|452=36|10=040|
8=FIX.4.4|9=212|35=8|49=SISTEMA|52=20250630-11:59:24.377|56=DROPCOPY|1=ACC009|6=13.66|11=6e32be69e684|14=9693|31=13.66|32=9693|37=c538d31c9f40|38=9693|39=2|54=2|55=BBAS3|60=20250630-11:59:24.377|150=F|453=1|448=TRADER989|452=36|10=014|
8=FIX.4.4|9=212|35=8|49=SISTEMA|52=20250630-11:59:24.377|56=DROPCOPY|1=ACC003|6=13.64|11=dc503c76ba2b|14=8171|31=13.64|32=8171|37=c7f909e4b4da|38=8171|39=2|54=1|55=PETR4|60=20250630-11:59:24.377|150=F|453=1|448=TRADER575|452=36|10=174|
8=FIX.4.4|9=212|35=8|49=SISTEMA|52=20250630-11:59:24.377|56=DROPCOPY|1=ACC008|6=11.94|11=798958d151ff|14=1253|31=11.94|32=1253|37=0b9e984fa01d|38=1253|39=2|54=2|55=PETR4|60=20250630-11:59:24.377|150=F|453=1|448=TRADER876|452=36|10=002|
8=FIX.4.4|9=212|35=8|49=SISTEMA|52=20250630-11:59:24.377|56=DROPCOPY|1=ACC001|6=25.96|11=1a746ea3d3e2|14=6800|31=25.96|32=6800|37=d8f9b1cc5953|38=6800|39=2|54=1|55=ABEV3|60=20250630-11:59:24.377|150=F|453=1|448=TRADER369|452=36|10=062|
8=FIX.4.4|9=212|35=8|49=SISTEMA|52=20250630-11:59:24.377|56=DROPCOPY|1=ACC006|6=10.68|11=0a4a61f2256b|14=2109|31=10.68|32=2109|37=6d75e88fcfc3|38=2109|39=2|54=1|55=BBAS3|60=20250630-11:59:24.377|150=F|453=1|448=TRADER597|452=36|10=044|
8=FIX.4.4|9=212|35=8|49=SISTEMA|52=20250630-11:59:24.377|56=DROPCOPY|1=ACC006|6=27.37|11=5abbaa543c11|14=2237|31=27.37|32=2237|37=518ddd03b64e|38=2237|39=2|54=1|55=ITUB4|60=20250630-11:59:24.377|150=F|453=1|448=TRADER279|452=36|10=107|
8=FIX.4.4|9=212|35=8|49=SISTEMA|52=20250630-11:59:24.377|56=DROPCOPY|1=ACC003|6=28.07|11=b05ac05c7603|14=7365|31=28.07|32=7365|37=e3a92e2c5d5f|38=7365|39=2|54=2|55=RADL3|60=20250630-11:59:24.377|150=F|453=1|448=TRADER910|452=36|10=058|
8=FIX.4.4|9=212|35=8|49=SISTEMA|52=20250630-11:59:24.377|56=DROPCOPY|1=ACC006|6=12.99|11=704a7ae13421|14=4174|31=12.99|32=4174|37=87ab989a949e|38=4174|39=2|54=2|55=VALE3|60=20250630-11:59:24.377|150=F|453=1|448=TRADER489|452=36|10=205|
8=FIX.4.4|9=212|35=8|49=SISTEMA|52=20250630-11:59:24.377|56=DROPCOPY|1=ACC008|6=22.72|11=cd74135044d7|14=5609|31=22.72|32=5609|37=749beba7345b|38=5609|39=2|54=2|55=VALE3|60=20250630-11:59:24.377|150=F|453=1|448=TRADER637|452=36|10=235|
8=FIX.4.4|9=212|35=8|49=SISTEMA|52=20250630-11:59:24.377|56=DROPCOPY|1=ACC006|6=13.16|11=b685b81bdae1|14=4689|31=13.16|32=4689|37=77a663946679|38=4689|39=2|54=1|55=RADL3|60=20250630-11:59:24.377|150=F|453=1|448=TRADER978|452=36|10=223|
8=FIX.4.4|9=211|35=8|49=SISTEMA|52=20250630-11:59:24.377|56=DROPCOPY|1=ACC004|6=26.15|11=b222737bafff|14=1875|31=26.15|32=1875|37=658e3e41c505|38=1875|39=2|54=2|55=BBAS3|60=20250630-11:59:24.377|150=F|453=1|448=TRADER46|452=36|10=212|
8=FIX.4.4|9=211|35=8|49=SISTEMA|52=20250630-11:59:24.377|56=DROPCOPY|1=ACC003|6=21.18|11=ca2f8f43841b|14=4994|31=21.18|32=4994|37=3d4560ec5d6f|38=4994|39=2|54=2|55=RENT3|60=20250630-11:59:24.377|150=F|453=1|448=TRADER98|452=36|10=057|
8=FIX.4.4|9=210|35=8|49=SISTEMA|52=20250630-11:59:24.377|56=DROPCOPY|1=ACC005|6=19.2|11=6cec8b714b58|14=4117|31=19.2|32=4117|37=1f2e12bb66c4|38=4117|39=2|54=2|55=RADL3|60=20250630-11:59:24.377|150=F|453=1|448=TRADER122|452=36|10=188|
8=FIX.4.4|9=212|35=8|49=SISTEMA|52=20250630-11:59:24.377|56=DROPCOPY|1=ACC009|6=12.52|11=3095b07f6e88|14=2509|31=12.52|32=2509|37=50ef513df576|38=2509|39=2|54=1|55=BBAS3|60=20250630-11:59:24.377|150=F|453=1|448=TRADER578|452=36|10=172|
8=FIX.4.4|9=212|35=8|49=SISTEMA|52=20250630-11:59:24.377|56=DROPCOPY|1=ACC006|6=29.16|11=bad3384bd67a|14=9858|31=29.16|32=9858|37=7e4733857f6d|38=9858|39=2|54=2|55=PETR4|60=20250630-11:59:24.377|150=F|453=1|448=TRADER180|452=36|10=091|
8=FIX.4.4|9=212|35=8|49=SISTEMA|52=20250630-11:59:24.377|56=DROPCOPY|1=ACC009|6=21.27|11=e5c7ed7187ed|14=1896|31=21.27|32=1896|37=f76c3933b725|38=1896|39=2|54=2|55=RENT3|60=20250630-11:59:24.377|150=F|453=1|448=TRADER664|452=36|10=075|
8=FIX.4.4|9=212|35=8|49=SISTEMA|52=20250630-11:59:24.377|56=DROPCOPY|1=ACC010|6=12.66|11=d045b1233586|14=8080|31=12.66|32=8080|37=e76eb0a53670|38=8080|39=2|54=2|55=WEGE3|60=20250630-11:59:24.377|150=F|453=1|448=TRADER684|452=36|10=119|
8=FIX.4.4|9=212|35=8|49=SISTEMA|52=20250630-11:59:24.377|56=DROPCOPY|1=ACC008|6=25.12|11=2b6fc5a6e9d5|14=5399|31=25.12|32=5399|37=52d060420ba7|38=5399|39=2|54=2|55=ITUB4|60=20250630-11:59:24.377|150=F|453=1|448=TRADER283|452=36|10=039|
8=FIX.4.4|9=212|35=8|49=SISTEMA|52=20250630-11:59:24.377|56=DROPCOPY|1=ACC004|6=26.75|11=d0f0ded76482|14=3576|31=26.75|32=3576|37=07355c4b0b87|38=3576|39=2|54=1|55=RENT3|60=20250630-11:59:24.377|150=F|453=1|448=TRADER581|452=36|10=005|
8=FIX.4.4|9=212|35=8|49=SISTEMA|52=20250630-11:59:24.377|56=DROPCOPY|1=ACC008|6=28.18|11=52a81c0a0038|14=8738|31=28.18|32=8738|37=1c2656b0bb48|38=8738|39=2|54=1|55=ABEV3|60=20250630-11:59:24.377|150=F|453=1|448=TRADER691|452=36|10=182|
8=FIX.4.4|9=212|35=8|49=SISTEMA|52=20250630-11:59:24.377|56=DROPCOPY|1=ACC007|6=19.28|11=fa5dd09c39df|14=8623|31=19.28|32=8623|37=b37429ff16bb|38=8623|39=2|54=2|55=PETR4|60=20250630-11:59:24.377|150=F|453=1|448=TRADER629|452=36|10=209|
8=FIX.4.4|9=212|35=8|49=SISTEMA|52=20250630-11:59:24.377|56=DROPCOPY|1=ACC004|6=15.16|11=0cebbad4c832|14=1562|31=15.16|32=1562|37=e38974453416|38=1562|39=2|54=1|55=PETR4|60=20250630-11:59:24.377|150=F|453=1|448=TRADER704|452=36|10=226|
8=FIX.4.4|9=212|35=8|49=SISTEMA|52=20250630-11:59:24.377|56=DROPCOPY|1=ACC001|6=19.19|11=1083185c41be|14=6388|31=19.19|32=6388|37=8a7ecb8f7b1d|38=6388|39=2|54=2|55=WEGE3|60=20250630-11:59:24.377|150=F|453=1|448=TRADER374|452=36|10=093|
8=FIX.4.4|9=212|35=8|49=SISTEMA|52=20250630-11:59:24.377|56=DROPCOPY|1=ACC007|6=13.91|11=2199fc714878|14=7267|31=13.91|32=7267|37=215e64f61072|38=7267|39=2|54=1|55=WEGE3|60=20250630-11:59:24.377|150=F|453=1|448=TRADER661|452=36|10=059|
8=FIX.4.4|9=212|35=8|49=SISTEMA|52=20250630-11:59:24.377|56=DROPCOPY|1=ACC006|6=22.27|11=fbb5f4c1c462|14=8447|31=22.27|32=8447|37=65f20111262e|38=8447|39=2|54=2|55=RADL3|60=20250630-11:59:24.377|150=F|453=1|448=TRADER446|452=36|10=219|
8=FIX.4.4|9=210|35=8|49=SISTEMA|52=20250630-11:59:24.377|56=DROPCOPY|1=ACC006|6=17.3|11=9a5fd750a5b8|14=1907|31=17.3|32=1907|37=e10c76ffb036|38=1907|39=2|54=2|55=WEGE3|60=20250630-11:59:24.377|150=F|453=1|448=TRADER588|452=36|10=224|
8=FIX.4.4|9=212|35=8|49=SISTEMA|52=20250630-11:59:24.377|56=DROPCOPY|1=ACC002|6=13.07|11=430af35f99f5|14=2519|31=13.07|32=2519|37=14d52adb4af9|38=2519|39=2|54=1|55=RENT3|60=20250630-11:59:24.377|150=F|453=1|448=TRADER332|452=36|10=067|
8=FIX.4.4|9=212|35=8|49=SISTEMA|52=20250630-11:59:24.377|56=DROPCOPY|1=ACC005|6=19.15|11=002f75e9c724|14=2858|31=19.15|32=2858|37=5810d15c9829|38=2858|39=2|54=2|55=WEGE3|60=20250630-11:59:24.377|150=F|453=1|448=TRADER627|452=36|10=110|
8=FIX.4.4|9=212|35=8|49=SISTEMA|52=20250630-11:59:24.391|56=DROPCOPY|1=ACC007|6=17.83|11=e0bec9db5425|14=5376|31=17.83|32=5376|37=470005bdbe35|38=5376|39=2|54=2|55=BBAS3|60=20250630-11:59:24.391|150=F|453=1|448=TRADER199|452=36|10=054|
8=FIX.4.4|9=212|35=8|49=SISTEMA|52=20250630-11:59:24.391|56=DROPCOPY|1=ACC008|6=21.44|11=4a7c85ce892a|14=7614|31=21.44|32=7614|37=1d072b700724|38=7614|39=2|54=1|55=ABEV3|60=20250630-11:59:24.391|150=F|453=1|448=TRADER925|452=36|10=153|
8=FIX.4.4|9=210|35=8|49=SISTEMA|52=20250630-11:59:24.391|56=DROPCOPY|1=ACC008|6=23.3|11=ed23a83f4ee8|14=3455|31=23.3|32=3455|37=056774f3e613|38=3455|39=2|54=2|55=BBAS3|60=20250630-11:59:24.391|150=F|453=1|448=TRADER261|452=36|10=097|
8=FIX.4.4|9=212|35=8|49=SISTEMA|52=20250630-11:59:24.391|56=DROPCOPY|1=ACC006|6=18.46|11=fc9b2a1745cf|14=2175|31=18.46|32=2175|37=d1d510de957c|38=2175|39=2|54=2|55=BBAS3|60=20250630-11:59:24.391|150=F|453=1|448=TRADER713|452=36|10=089|
8=FIX.4.4|9=212|35=8|49=SISTEMA|52=20250630-11:59:24.391|56=DROPCOPY|1=ACC008|6=20.79|11=4bbaaf7c13ad|14=1379|31=20.79|32=1379|37=c1713019118a|38=1379|39=2|54=2|55=SUZB3|60=20250630-11:59:24.391|150=F|453=1|448=TRADER595|452=36|10=082|
8=FIX.4.4|9=212|35=8|49=SISTEMA|52=20250630-11:59:24.391|56=DROPCOPY|1=ACC002|6=26.03|11=bb52ed13023a|14=3784|31=26.03|32=3784|37=2b356ae52629|38=3784|39=2|54=1|55=RADL3|60=20250630-11:59:24.391|150=F|453=1|448=TRADER802|452=36|10=192|
8=FIX.4.4|9=212|35=8|49=SISTEMA|52=20250630-11:59:24.391|56=DROPCOPY|1=ACC006|6=21.01|11=8e0aec7d8fc9|14=4116|31=21.01|32=4116|37=22b4c2904755|38=4116|39=2|54=1|55=ITUB4|60=20250630-11:59:24.391|150=F|453=1|448=TRADER125|452=36|10=242|
8=FIX.4.4|9=212|35=8|49=SISTEMA|52=20250630-11:59:24.391|56=DROPCOPY|1=ACC001|6=29.96|11=5da59afb786e|14=6243|31=29.96|32=6243|37=c85661e9fcfe|38=6243|39=2|54=1|55=ABEV3|60=20250630-11:59:24.391|150=F|453=1|448=TRADER766|452=36|10=184|
8=FIX.4.4|9=212|35=8|49=SISTEMA|52=20250630-11:59:24.391|56=DROPCOPY|1=ACC004|6=12.72|11=b4869c7fb1b5|14=3510|31=12.72|32=3510|37=e8cffd450793|38=3510|39=2|54=2|55=RADL3|60=20250630-11:59:24.391|150=F|453=1|448=TRADER485|452=36|10=042|
8=FIX.4.4|9=212|35=8|49=SISTEMA|52=20250630-11:59:24.391|56=DROPCOPY|1=ACC009|6=10.61|11=ebae7faf044a|14=5674|31=10.61|32=5674|37=2f1f991a307b|38=5674|39=2|54=2|55=BBAS3|60=20250630-11:59:24.391|150=F|453=1|448=TRADER925|452=36|10=136|
8=FIX.4.4|9=212|35=8|49=SISTEMA|52=20250630-11:59:24.391|56=DROPCOPY|1=ACC004|6=19.33|11=aeb6f7145ca8|14=4338|31=19.33|32=4338|37=7f5dd0f107f1|38=4338|39=2|54=1|55=SUZB3|60=20250630-11:59:24.391|150=F|453=1|448=TRADER480|452=36|10=133|
8=FIX.4.4|9=212|35=8|49=SISTEMA|52=20250630-11:59:24.391|56=DROPCOPY|1=ACC003|6=19.68|11=c0109d60a348|14=4319|31=19.68|32=4319|37=e05c3c58fb8e|38=4319|39=2|54=2|55=RADL3|60=20250630-11:59:24.391|150=F|453=1|448=TRADER942|452=36|10=016|
8=FIX.4.4|9=210|35=8|49=SISTEMA|52=20250630-11:59:24.391|56=DROPCOPY|1=ACC007|6=15.6|11=66ddeb6ae5b9|14=7526|31=15.6|32=7526|37=f2559a0f19a4|38=7526|39=2|54=1|55=ABEV3|60=20250630-11:59:24.391|150=F|453=1|448=TRADER323|452=36|10=002|
8=FIX.4.4|9=212|35=8|49=SISTEMA|52=20250630-11:59:24.391|56=DROPCOPY|1=ACC003|6=14.85|11=359a40e8678c|14=6183|31=14.85|32=6183|37=008a58acb218|38=6183|39=2|54=2|55=ABEV3|60=20250630-11:59:24.391|150=F|453=1|448=TRADER322|452=36|10=160|
8=FIX.4.4|9=212|35=8|49=SISTEMA|52=20250630-11:59:24.391|56=DROPCOPY|1=ACC002|6=24.45|11=2ae014b055d0|14=2821|31=24.45|32=2821|37=63b221669f66|38=2821|39=2|54=1|55=BBAS3|60=20250630-11:59:24.391|150=F|453=1|448=TRADER759|452=36|10=083|
8=FIX.4.4|9=212|35=8|49=SISTEMA|52=20250630-11:59:24.391|56=DROPCOPY|1=ACC001|6=22.19|11=a8ad46d571fa|14=8251|31=22.19|32=8251|37=d0b58aeaef8d|38=8251|39=2|54=1|55=BBDC4|60=20250630-11:59:24.391|150=F|453=1|448=TRADER590|452=36|10=211|
8=FIX.4.4|9=212|35=8|49=SISTEMA|52=20250630-11:59:24.391|56=DROPCOPY|1=ACC002|6=15.04|11=062ee19c5135|14=4826|31=15.04|32=4826|37=b666da0255ac|38=4826|39=2|54=1|55=RENT3|60=20250630-11:59:24.391|150=F|453=1|448=TRADER174|452=36|10=216|
8=FIX.4.4|9=211|35=8|49=SISTEMA|52=20250630-11:59:24.391|56=DROPCOPY|1=ACC008|6=24.81|11=629a7b48e44b|14=9475|31=24.81|32=9475|37=e0e43c2e41f6|38=9475|39=2|54=2|55=BBDC4|60=20250630-11:59:24.391|150=F|453=1|448=TRADER46|452=36|10=212|
8=FIX.4.4|9=212|35=8|49=SISTEMA|52=20250630-11:59:24.391|56=DROPCOPY|1=ACC005|6=24.66|11=50899d07f0b3|14=2355|31=24.66|32=2355|37=e01779786f2c|38=2355|39=2|54=1|55=BBAS3|60=20250630-11:59:24.391|150=F|453=1|448=TRADER266|452=36|10=121|
8=FIX.4.4|9=212|35=8|49=SISTEMA|52=20250630-11:59:24.391|56=DROPCOPY|1=ACC001|6=15.49|11=c0e2e94281bf|14=4472|31=15.49|32=4472|37=9c0e79c18fa8|38=4472|39=2|54=1|55=ABEV3|60=20250630-11:59:24.391|150=F|453=1|448=TRADER331|452=36|10=053|
8=FIX.4.4|9=212|35=8|49=SISTEMA|52=20250630-11:59:24.391|56=DROPCOPY|1=ACC007|6=27.99|11=15d466c98bc9|14=2871|31=27.99|32=2871|37=e331e1355f33|38=2871|39=2|54=1|55=RADL3|60=20250630-11:59:24.391|150=F|453=1|448=TRADER506|452=36|10=195|
8=FIX.4.4|9=212|35=8|49=SISTEMA|52=20250630-11:59:24.391|56=DROPCOPY|1=ACC005|6=24.23|11=577824426351|14=7986|31=24.23|32=7986|37=0727b2fe9037|38=7986|39=2|54=1|55=PETR4|60=20250630-11:59:24.391|150=F|453=1|448=TRADER292|452=36|10=033|
8=FIX.4.4|9=211|35=8|49=SISTEMA|52=20250630-11:59:24.391|56=DROPCOPY|1=ACC004|6=29.79|11=7e7264ed93e6|14=2715|31=29.79|32=2715|37=374d74c1f60d|38=2715|39=2|54=2|55=VALE3|60=20250630-11:59:24.391|150=F|453=1|448=TRADER66|452=36|10=198|
8=FIX.4.4|9=212|35=8|49=SISTEMA|52=20250630-11:59:24.391|56=DROPCOPY|1=ACC006|6=24.79|11=0f0f3f93d6cc|14=7765|31=24.79|32=7765|37=1b3432db21a7|38=7765|39=2|54=1|55=BBDC4|60=20250630-11:59:24.391|150=F|453=1|448=TRADER860|452=36|10=051|
8=FIX.4.4|9=212|35=8|49=SISTEMA|52=20250630-11:59:24.391|56=DROPCOPY|1=ACC001|6=11.06|11=70973b8f8270|14=7775|31=11.06|32=7775|37=49bd1e0e2611|38=7775|39=2|54=2|55=RENT3|60=20250630-11:59:24.391|150=F|453=1|448=TRADER232|452=36|10=142|
8=FIX.4.4|9=210|35=8|49=SISTEMA|52=20250630-11:59:24.391|56=DROPCOPY|1=ACC009|6=23.4|11=9abe0effd6a8|14=4225|31=23.4|32=4225|37=f7d093409e79|38=4225|39=2|54=1|55=ITUB4|60=20250630-11:59:24.391|150=F|453=1|448=TRADER370|452=36|10=014|
8=FIX.4.4|9=212|35=8|49=SISTEMA|52=20250630-11:59:24.391|56=DROPCOPY|1=ACC005|6=14.15|11=d89462ff5410|14=5124|31=14.15|32=5124|37=7999d7021a33|38=5124|39=2|54=2|55=ITUB4|60=20250630-11:59:24.391|150=F|453=1|448=TRADER784|452=36|10=081|
8=FIX.4.4|9=210|35=8|49=SISTEMA|52=20250630-11:59:24.391|56=DROPCOPY|1=ACC007|6=15.6|11=7df970602c39|14=1667|31=15.6|32=1667|37=25cdcc156700|38=1667|39=2|54=2|55=ABEV3|60=20250630-11:59:24.391|150=F|453=1|448=TRADER983|452=36|10=070|
8=FIX.4.4|9=212|35=8|49=SISTEMA|52=20250630-11:59:24.391|56=DROPCOPY|1=ACC002|6=11.53|11=fc98f02e13a4|14=8037|31=11.53|32=8037|37=0be7ae2a5b2a|38=8037|39=2|54=1|55=BBAS3|60=20250630-11:59:24.391|150=F|453=1|448=TRADER238|452=36|10=109|
8=FIX.4.4|9=212|35=8|49=SISTEMA|52=20250630-11:59:24.391|56=DROPCOPY|1=ACC004|6=17.96|11=c9cfcc680729|14=4755|31=17.96|32=4755|37=7f06d4d17601|38=4755|39=2|54=1|55=BBAS3|60=20250630-11:59:24.391|150=F|453=1|448=TRADER307|452=36|10=231|
8=FIX.4.4|9=212|35=8|49=SISTEMA|52=20250630-11:59:24.391|56=DROPCOPY|1=ACC001|6=11.46|11=a1846d101352|14=2761|31=11.46|32=2761|37=0c7baf708056|38=2761|39=2|54=2|55=RADL3|60=20250630-11:59:24.391|150=F|453=1|448=TRADER678|452=36|10=094|
8=FIX.4.4|9=212|35=8|49=SISTEMA|52=20250630-11:59:24.391|56=DROPCOPY|1=ACC009|6=15.36|11=30f055b49ca1|14=7310|31=15.36|32=7310|37=c0d38a3e3e27|38=7310|39=2|54=2|55=VALE3|60=20250630-11:59:24.391|150=F|453=1|448=TRADER168|452=36|10=238|
8=FIX.4.4|9=212|35=8|49=SISTEMA|52=20250630-11:59:24.391|56=DROPCOPY|1=ACC007|6=28.27|11=a58ce353c591|14=6179|31=28.27|32=6179|37=52f25fb6ea35|38=6179|39=2|54=1|55=ABEV3|60=20250630-11:59:24.391|150=F|453=1|448=TRADER303|452=36|10=020|
8=FIX.4.4|9=211|35=8|49=SISTEMA|52=20250630-11:59:24.391|56=DROPCOPY|1=ACC001|6=21.82|11=0664ddcebdc4|14=1891|31=21.82|32=1891|37=7fde78bf3728|38=1891|39=2|54=1|55=ITUB4|60=20250630-11:59:24.391|150=F|453=1|448=TRADER36|452=36|10=122|
8=FIX.4.4|9=212|35=8|49=SISTEMA|52=20250630-11:59:24.391|56=DROPCOPY|1=ACC006|6=26.48|11=e73eb9942c1b|14=2248|31=26.48|32=2248|37=94f73796b6ab|38=2248|39=2|54=1|55=ABEV3|60=20250630-11:59:24.391|150=F|453=1|448=TRADER545|452=36|10=023|
8=FIX.4.4|9=212|35=8|49=SISTEMA|52=20250630-11:59:24.391|56=DROPCOPY|1=ACC005|6=18.43|11=0ef3448edcf8|14=9400|31=18.43|32=9400|37=53f82f24fab0|38=9400|39=2|54=2|55=SUZB3|60=20250630-11:59:24.391|150=F|453=1|448=TRADER235|452=36|10=123|
8=FIX.4.4|9=211|35=8|49=SISTEMA|52=20250630-11:59:24.391|56=DROPCOPY|1=ACC002|6=12.65|11=31c6cbc7bad1|14=5116|31=12.65|32=5116|37=473b01d4d050|38=5116|39=2|54=1|55=ABEV3|60=20250630-11:59:24.391|150=F|453=1|448=TRADER13|452=36|10=199|
8=FIX.4.4|9=212|35=8|49=SISTEMA|52=20250630-11:59:24.391|56=DROPCOPY|1=ACC003|6=11.04|11=5b5acae36dd3|14=3026|31=11.04|32=3026|37=ddbe2b86d441|38=3026|39=2|54=2|55=BBAS3|60=20250630-11:59:24.391|150=F|453=1|448=TRADER697|452=36|10=146|
8=FIX.4.4|9=212|35=8|49=SISTEMA|52=20250630-11:59:24.391|56=DROPCOPY|1=ACC007|6=27.75|11=f5a065a1dad4|14=2978|31=27.75|32=2978|37=76cd6f30076b|38=2978|39=2|54=1|55=RENT3|60=20250630-11:59:24.391|150=F|453=1|448=TRADER912|452=36|10=103|
8=FIX.4.4|9=212|35=8|49=SISTEMA|52=20250630-11:59:24.391|56=DROPCOPY|1=ACC008|6=14.05|11=37aa29c6daf2|14=8258|31=14.05|32=8258|37=35351f9534f0|38=8258|39=2|54=1|55=RADL3|60=20250630-11:59:24.391|150=F|453=1|448=TRADER619|452=36|10=222|
8=FIX.4.4|9=212|35=8|49=SISTEMA|52=20250630-11:59:24.391|56=DROPCOPY|1=ACC009|6=28.82|11=f03e9a3ae94c|14=3596|31=28.82|32=3596|37=f66caf8ca67b|38=3596|39=2|54=2|55=BBAS3|60=20250630-11:59:24.391|150=F|453=1|448=TRADER623|452=36|10=221|
8=FIX.4.4|9=212|35=8|49=SISTEMA|52=20250630-11:59:24.391|56=DROPCOPY|1=ACC007|6=27.63|11=d29dec8e881a|14=2005|31=27.63|32=2005|37=f1f917b8c932|38=2005|39=2|54=1|55=PETR4|60=20250630-11:59:24.391|150=F|453=1|448=TRADER905|452=36|10=072|
8=FIX.4.4|9=212|35=8|49=SISTEMA|52=20250630-11:59:24.391|56=DROPCOPY|1=ACC008|6=15.26|11=237ffb1bd520|14=4557|31=15.26|32=4557|37=1b42ba6ae9d8|38=4557|39=2|54=2|55=BBDC4|60=20250630-11:59:24.391|150=F|453=1|448=TRADER341|452=36|10=072|
8=FIX.4.4|9=212|35=8|49=SISTEMA|52=20250630-11:59:24.391|56=DROPCOPY|1=ACC006|6=10.77|11=38c201804ef4|14=7393|31=10.77|32=7393|37=49b526f27734|38=7393|39=2|54=1|55=ITUB4|60=20250630-11:59:24.391|150=F|453=1|448=TRADER787|452=36|10=113|
8=FIX.4.4|9=211|35=8|49=SISTEMA|52=20250630-11:59:24.391|56=DROPCOPY|1=ACC002|6=12.36|11=d7f813323377|14=2308|31=12.36|32=2308|37=05b1d3c4de27|38=2308|39=2|54=1|55=ITUB4|60=20250630-11:59:24.391|150=F|453=1|448=TRADER24|452=36|10=100|
8=FIX.4.4|9=212|35=8|49=SISTEMA|52=20250630-11:59:24.391|56=DROPCOPY|1=ACC001|6=15.09|11=a969dc492ad7|14=3413|31=15.09|32=3413|37=fe981f8adfb0|38=3413|39=2|54=2|55=SUZB3|60=20250630-11:59:24.391|150=F|453=1|448=TRADER485|452=36|10=180|
8=FIX.4.4|9=212|35=8|49=SISTEMA|52=20250630-11:59:24.391|56=DROPCOPY|1=ACC003|6=27.46|11=237bb52533a1|14=1166|31=27.46|32=1166|37=f432524a1936|38=1166|39=2|54=1|55=SUZB3|60=20250630-11:59:24.391|150=F|453=1|448=TRADER621|452=36|10=077|
8=FIX.4.4|9=212|35=8|49=SISTEMA|52=20250630-11:59:24.391|56=DROPCOPY|1=ACC005|6=12.66|11=efd57b5cfb97|14=7691|31=12.66|32=7691|37=4b362db350eb|38=7691|39=2|54=2|55=RENT3|60=20250630-11:59:24.391|150=F|453=1|448=TRADER626|452=36|10=190|
8=FIX.4.4|9=212|35=8|49=SISTEMA|52=20250630-11:59:24.391|56=DROPCOPY|1=ACC004|6=18.18|11=319537e64b40|14=9427|31=18.18|32=9427|37=1ca8cc65639c|38=9427|39=2|54=2|55=BBDC4|60=20250630-11:59:24.391|150=F|453=1|448=TRADER590|452=36|10=164|
8=FIX.4.4|9=212|35=8|49=SISTEMA|52=20250630-11:59:24.391|56=DROPCOPY|1=ACC005|6=21.13|11=d0f854cf1ef8|14=9507|31=21.13|32=9507|37=5288f921bfaf|38=9507|39=2|54=1|55=SUZB3|60=20250630-11:59:24.391|150=F|453=1|448=TRADER224|452=36|10=137|
8=FIX.4.4|9=212|35=8|49=SISTEMA|52=20250630-11:59:24.391|56=DROPCOPY|1=ACC006|6=29.22|11=8780d68e0d2d|14=9715|31=29.22|32=9715|37=7874091208f6|38=9715|39=2|54=1|55=VALE3|60=20250630-11:59:24.391|150=F|453=1|448=TRADER526|452=36|10=104|
8=FIX.4.4|9=212|35=8|49=SISTEMA|52=20250630-11:59:24.391|56=DROPCOPY|1=ACC004|6=10.42|11=37b5f2318405|14=1510|31=10.42|32=1510|37=edb84e5fc372|38=1510|39=2|54=1|55=VALE3|60=20250630-11:59:24.391|150=F|453=1|448=TRADER332|452=36|10=166|
8=FIX.4.4|9=210|35=8|49=SISTEMA|52=20250630-11:59:24.391|56=DROPCOPY|1=ACC004|6=21.3|11=8552dddc6fff|14=5104|31=21.3|32=5104|37=79242bf6ab3c|38=5104|39=2|54=2|55=BBDC4|60=20250630-11:59:24.391|150=F|453=1|448=TRADER995|452=36|10=005|
8=FIX.4.4|9=212|35=8|49=SISTEMA|52=20250630-11:59:24.391|56=DROPCOPY|1=ACC001|6=20.47|11=986f7704d961|14=2774|31=20.47|32=2774|37=f4c37d10dc42|38=2774|39=2|54=1|55=VALE3|60=20250630-11:59:24.391|150=F|453=1|448=TRADER615|452=36|10=178|
8=FIX.4.4|9=212|35=8|49=SISTEMA|52=20250630-11:59:24.391|56=DROPCOPY|1=ACC005|6=28.05|11=e27f35c2ee5f|14=2516|31=28.05|32=2516|37=37520936df6e|38=2516|39=2|54=1|55=ABEV3|60=20250630-11:59:24.391|150=F|453=1|448=TRADER238|452=36|10=001|
8=FIX.4.4|9=210|35=8|49=SISTEMA|52=20250630-11:59:24.391|56=DROPCOPY|1=ACC001|6=28.6|11=c91ed7f8f7a7|14=8443|31=28.6|32=8443|37=bd2f22b0b688|38=8443|39=2|54=1|55=ABEV3|60=20250630-11:59:24.391|150=F|453=1|448=TRADER812|452=36|10=008|
8=FIX.4.4|9=212|35=8|49=SISTEMA|52=20250630-11:59:24.391|56=DROPCOPY|1=ACC002|6=24.71|11=cb9424fa3f05|14=9883|31=24.71|32=9883|37=c5fb4f83cfc7|38=9883|39=2|54=2|55=WEGE3|60=20250630-11:59:24.391|150=F|453=1|448=TRADER939|452=36|10=192|
8=FIX.4.4|9=212|35=8|49=SISTEMA|52=20250630-11:59:24.407|56=DROPCOPY|1=ACC008|6=24.49|11=94b246c063ba|14=4028|31=24.49|32=4028|37=8c9b42b3b27b|38=4028|39=2|54=1|55=RENT3|60=20250630-11:59:24.407|150=F|453=1|448=TRADER273|452=36|10=012|
8=FIX.4.4|9=210|35=8|49=SISTEMA|52=20250630-11:59:24.407|56=DROPCOPY|1=ACC008|6=23.4|11=a0194c40607f|14=9489|31=23.4|32=9489|37=242dac5da621|38=9489|39=2|54=2|55=RENT3|60=20250630-11:59:24.407|150=F|453=1|448=TRADER883|452=36|10=146|
8=FIX.4.4|9=212|35=8|49=SISTEMA|52=20250630-11:59:24.407|56=DROPCOPY|1=ACC006|6=14.61|11=24b31f2a56d4|14=8035|31=14.61|32=8035|37=915deb6729ea|38=8035|39=2|54=1|55=ABEV3|60=20250630-11:59:24.407|150=F|453=1|448=TRADER454|452=36|10=240|
8=FIX.4.4|9=211|35=8|49=SISTEMA|52=20250630-11:59:24.407|56=DROPCOPY|1=ACC008|6=28.75|11=87673f26271f|14=1355|31=28.75|32=1355|37=eda8beb7eede|38=1355|39=2|54=1|55=RADL3|60=20250630-11:59:24.407|150=F|453=1|448=TRADER34|452=36|10=112|
8=FIX.4.4|9=212|35=8|49=SISTEMA|52=20250630-11:59:24.407|56=DROPCOPY|1=ACC003|6=29.05|11=dc45ac6fc5b8|14=1634|31=29.05|32=1634|37=2b9eef985014|38=1634|39=2|54=1|55=VALE3|60=20250630-11:59:24.407|150=F|453=1|448=TRADER945|452=36|10=104|
8=FIX.4.4|9=212|35=8|49=SISTEMA|52=20250630-11:59:24.407|56=DROPCOPY|1=ACC009|6=15.68|11=482b1d056f29|14=8343|31=15.68|32=8343|37=f74a3fbf52fd|38=8343|39=2|54=1|55=VALE3|60=20250630-11:59:24.407|150=F|453=1|448=TRADER459|452=36|10=077|
8=FIX.4.4|9=212|35=8|49=SISTEMA|52=20250630-11:59:24.407|56=DROPCOPY|1=ACC003|6=16.35|11=cff0f1405038|14=9038|31=16.35|32=9038|37=7e9073420a5f|38=9038|39=2|54=1|55=RENT3|60=20250630-11:59:24.407|150=F|453=1|448=TRADER593|452=36|10=185|
8=FIX.4.4|9=212|35=8|49=SISTEMA|52=20250630-11:59:24.407|56=DROPCOPY|1=ACC002|6=18.82|11=3394925a105f|14=9138|31=18.82|32=9138|37=1ddeb9c02a1f|38=9138|39=2|54=1|55=BBDC4|60=20250630-11:59:24.407|150=F|453=1|448=TRADER146|452=36|10=235|
8=FIX.4.4|9=212|35=8|49=SISTEMA|52=20250630-11:59:24.407|56=DROPCOPY|1=ACC001|6=21.37|11=dcc6a71a298a|14=1384|31=21.37|32=1384|37=7cd279c1c501|38=1384|39=2|54=1|55=ABEV3|60=20250630-11:59:24.407|150=F|453=1|448=TRADER752|452=36|10=025|
8=FIX.4.4|9=210|35=8|49=SISTEMA|52=20250630-11:59:24.407|56=DROPCOPY|1=ACC005|6=10.1|11=604426c6cdf9|14=4909|31=10.1|32=4909|37=daa1e3922d40|38=4909|39=2|54=1|55=BBAS3|60=20250630-11:59:24.407|150=F|453=1|448=TRADER657|452=36|10=131|
8=FIX.4.4|9=212|35=8|49=SISTEMA|52=20250630-11:59:24.410|56=DROPCOPY|1=ACC003|6=26.45|11=5b0c6bdb523f|14=9052|31=26.45|32=9052|37=59ad9b1e176a|38=9052|39=2|54=1|55=ITUB4|60=20250630-11:59:24.410|150=F|453=1|448=TRADER842|452=36|10=094|
8=FIX.4.4|9=212|35=8|49=SISTEMA|52=20250630-11:59:24.410|56=DROPCOPY|1=ACC006|6=28.18|11=232387dbbd9d|14=4059|31=28.18|32=4059|37=c83df7a0d536|38=4059|39=2|54=1|55=ABEV3|60=20250630-11:59:24.410|150=F|453=1|448=TRADER278|452=36|10=048|
8=FIX.4.4|9=212|35=8|49=SISTEMA|52=20250630-11:59:24.410|56=DROPCOPY|1=ACC002|6=18.63|11=c551ee048ba4|14=7925|31=18.63|32=7925|37=f67432dbf80c|38=7925|39=2|54=2|55=BBDC4|60=20250630-11:59:24.410|150=F|453=1|448=TRADER863|452=36|10=034|
8=FIX.4.4|9=212|35=8|49=SISTEMA|52=20250630-11:59:24.410|56=DROPCOPY|1=ACC007|6=26.67|11=8cdd929e955d|14=9604|31=26.67|32=9604|37=6ad75f305978|38=9604|39=2|54=2|55=WEGE3|60=20250630-11:59:24.410|150=F|453=1|448=TRADER905|452=36|10=252|
8=FIX.4.4|9=212|35=8|49=SISTEMA|52=20250630-11:59:24.410|56=DROPCOPY|1=ACC004|6=29.98|11=9ab9e5042c62|14=8970|31=29.98|32=8970|37=3bc0ee1d364d|38=8970|39=2|54=1|55=PETR4|60=20250630-11:59:24.410|150=F|453=1|448=TRADER468|452=36|10=101|
8=FIX.4.4|9=212|35=8|49=SISTEMA|52=20250630-11:59:24.410|56=DROPCOPY|1=ACC009|6=17.13|11=b0aca3a733d3|14=9805|31=17.13|32=9805|37=ab17b398029e|38=9805|39=2|54=1|55=VALE3|60=20250630-11:59:24.410|150=F|453=1|448=TRADER598|452=36|10=044|
8=FIX.4.4|9=211|35=8|49=SISTEMA|52=20250630-11:59:24.410|56=DROPCOPY|1=ACC009|6=29.82|11=8f5c7ae489a5|14=3098|31=29.82|32=3098|37=c87013ec25fd|38=3098|39=2|54=2|55=ABEV3|60=20250630-11:59:24.410|150=F|453=1|448=TRADER65|452=36|10=016|
8=FIX.4.4|9=210|35=8|49=SISTEMA|52=20250630-11:59:24.410|56=DROPCOPY|1=ACC005|6=14.8|11=738273996ca4|14=3268|31=14.8|32=3268|37=6d6bbeae8907|38=3268|39=2|54=1|55=RADL3|60=20250630-11:59:24.410|150=F|453=1|448=TRADER328|452=36|10=118|
8=FIX.4.4|9=212|35=8|49=SISTEMA|52=20250630-11:59:24.410|56=DROPCOPY|1=ACC008|6=27.98|11=8be15c4c160d|14=3338|31=27.98|32=3338|37=41169668cd35|38=3338|39=2|54=2|55=RENT3|60=20250630-11:59:24.410|150=F|453=1|448=TRADER204|452=36|10=188|
8=FIX.4.4|9=212|35=8|49=SISTEMA|52=20250630-11:59:24.410|56=DROPCOPY|1=ACC010|6=19.03|11=f84231f4a00e|14=5104|31=19.03|32=5104|37=207748392a9a|38=5104|39=2|54=2|55=ITUB4|60=20250630-11:59:24.410|150=F|453=1|448=TRADER615|452=36|10=083|
8=FIX.4.4|9=212|35=8|49=SISTEMA|52=20250630-11:59:24.410|56=DROPCOPY|1=ACC007|6=18.43|11=3b18bffd2df8|14=4927|31=18.43|32=4927|37=b3693a43057e|38=4927|39=2|54=2|55=SUZB3|60=20250630-11:59:24.410|150=F|453=1|448=TRADER687|452=36|10=098|
8=FIX.4.4|9=212|35=8|49=SISTEMA|52=20250630-11:59:24.410|56=DROPCOPY|1=ACC001|6=18.41|11=ffb85116d17d|14=9561|31=18.41|32=9561|37=1d5bdb55522d|38=9561|39=2|54=1|55=ABEV3|60=20250630-11:59:24.410|150=F|453=1|448=TRADER748|452=36|10=036|
8=FIX.4.4|9=212|35=8|49=SISTEMA|52=20250630-11:59:24.410|56=DROPCOPY|1=ACC006|6=27.18|11=c551df972dc1|14=1455|31=27.18|32=1455|37=d44ba05fcd1b|38=1455|39=2|54=1|55=RADL3|60=20250630-11:59:24.410|150=F|453=1|448=TRADER881|452=36|10=124|
8=FIX.4.4|9=212|35=8|49=SISTEMA|52=20250630-11:59:24.410|56=DROPCOPY|1=ACC001|6=18.87|11=bce87c747c20|14=1254|31=18.87|32=1254|37=816eb84bf740|38=1254|39=2|54=1|55=PETR4|60=20250630-11:59:24.410|150=F|453=1|448=TRADER478|452=36|10=023|
8=FIX.4.4|9=212|35=8|49=SISTEMA|52=20250630-11:59:24.410|56=DROPCOPY|1=ACC005|6=12.81|11=9571085629d3|14=5936|31=12.81|32=5936|37=7f92f174aa93|38=5936|39=2|54=1|55=WEGE3|60=20250630-11:59:24.410|150=F|453=1|448=TRADER924|452=36|10=087|
8=FIX.4.4|9=212|35=8|49=SISTEMA|52=20250630-11:59:24.410|56=DROPCOPY|1=ACC003|6=27.56|11=9925dc2595b5|14=5372|31=27.56|32=5372|37=2a93b1ed6494|38=5372|39=2|54=1|55=RADL3|60=20250630-11:59:24.410|150=F|453=1|448=TRADER245|452=36|10=165|
8=FIX.4.4|9=212|35=8|49=SISTEMA|52=20250630-11:59:24.410|56=DROPCOPY|1=ACC010|6=11.83|11=4eb4dcc92aa5|14=8043|31=11.83|32=8043|37=d72af3c4f16e|38=8043|39=2|54=1|55=WEGE3|60=20250630-11:59:24.410|150=F|453=1|448=TRADER488|452=36|10=170|
8=FIX.4.4|9=212|35=8|49=SISTEMA|52=20250630-11:59:24.410|56=DROPCOPY|1=ACC001|6=15.13|11=6180d164dd2a|14=2773|31=15.13|32=2773|37=1ada31b95e06|38=2773|39=2|54=2|55=RADL3|60=20250630-11:59:24.410|150=F|453=1|448=TRADER377|452=36|10=221|
8=FIX.4.4|9=212|35=8|49=SISTEMA|52=20250630-11:59:24.410|56=DROPCOPY|1=ACC007|6=25.96|11=c2fb88bdeac8|14=3906|31=25.96|32=3906|37=0e669c69a6ce|38=3906|39=2|54=1|55=VALE3|60=20250630-11:59:24.410|150=F|453=1|448=TRADER600|452=36|10=209|
8=FIX.4.4|9=212|35=8|49=SISTEMA|52=20250630-11:59:24.410|56=DROPCOPY|1=ACC007|6=25.47|11=05ff191f2aad|14=1478|31=25.47|32=1478|37=3e8d850fd6d0|38=1478|39=2|54=1|55=BBDC4|60=20250630-11:59:24.410|150=F|453=1|448=TRADER678|452=36|10=082|
8=FIX.4.4|9=212|35=8|49=SISTEMA|52=20250630-11:59:24.410|56=DROPCOPY|1=ACC010|6=19.74|11=777727b4caab|14=2024|31=19.74|32=2024|37=45aa2353f902|38=2024|39=2|54=2|55=WEGE3|60=20250630-11:59:24.410|150=F|453=1|448=TRADER182|452=36|10=173|
8=FIX.4.4|9=212|35=8|49=SISTEMA|52=20250630-11:59:24.410|56=DROPCOPY|1=ACC010|6=27.15|11=42aed55c66e7|14=8624|31=27.15|32=8624|37=f816f866e6fa|38=8624|39=2|54=1|55=BBAS3|60=20250630-11:59:24.410|150=F|453=1|448=TRADER874|452=36|10=055|
8=FIX.4.4|9=210|35=8|49=SISTEMA|52=20250630-11:59:24.410|56=DROPCOPY|1=ACC010|6=15.2|11=188f2e7889bb|14=5463|31=15.2|32=5463|37=e59deba0e402|38=5463|39=2|54=2|55=ITUB4|60=20250630-11:59:24.410|150=F|453=1|448=TRADER545|452=36|10=208|
8=FIX.4.4|9=211|35=8|49=SISTEMA|52=20250630-11:59:24.410|56=DROPCOPY|1=ACC002|6=15.77|11=5708356eea86|14=6399|31=15.77|32=6399|37=28db28f341a0|38=6399|39=2|54=1|55=RADL3|60=20250630-11:59:24.410|150=F|453=1|448=TRADER91|452=36|10=134|
8=FIX.4.4|9=210|35=8|49=SISTEMA|52=20250630-11:59:24.410|56=DROPCOPY|1=ACC008|6=13.2|11=61e9851a9968|14=8775|31=13.2|32=8775|37=b9ce99736788|38=8775|39=2|54=1|55=ABEV3|60=20250630-11:59:24.410|150=F|453=1|448=TRADER143|452=36|10=004|
8=FIX.4.4|9=212|35=8|49=SISTEMA|52=20250630-11:59:24.410|56=DROPCOPY|1=ACC003|6=16.09|11=44727299c1f2|14=4580|31=16.09|32=4580|37=a3d47993bc93|38=4580|39=2|54=2|55=RADL3|60=20250630-11:59:24.410|150=F|453=1|448=TRADER936|452=36|10=120|
8=FIX.4.4|9=212|35=8|49=SISTEMA|52=20250630-11:59:24.410|56=DROPCOPY|1=ACC007|6=17.61|11=6754ab5b06d6|14=7762|31=17.61|32=7762|37=3f5cdebe52e0|38=7762|39=2|54=1|55=RENT3|60=20250630-11:59:24.410|150=F|453=1|448=TRADER493|452=36|10=120|
8=FIX.4.4|9=212|35=8|49=SISTEMA|52=20250630-11:59:24.410|56=DROPCOPY|1=ACC004|6=23.84|11=298043ce34d5|14=8878|31=23.84|32=8878|37=7f8e82bb8eae|38=8878|39=2|54=1|55=ITUB4|60=20250630-11:59:24.410|150=F|453=1|448=TRADER959|452=36|10=119|
8=FIX.4.4|9=212|35=8|49=SISTEMA|52=20250630-11:59:24.410|56=DROPCOPY|1=ACC006|6=26.16|11=25754bd7e731|14=4376|31=26.16|32=4376|37=4669d5988bd4|38=4376|39=2|54=1|55=SUZB3|60=20250630-11:59:24.410|150=F|453=1|448=TRADER364|452=36|10=165|
8=FIX.4.4|9=212|35=8|49=SISTEMA|52=20250630-11:59:24.410|56=DROPCOPY|1=ACC006|6=18.18|11=767dede9f4a1|14=9311|31=18.18|32=9311|37=aa72fed388e6|38=9311|39=2|54=2|55=VALE3|60=20250630-11:59:24.410|150=F|453=1|448=TRADER859|452=36|10=161|
8=FIX.4.4|9=210|35=8|49=SISTEMA|52=20250630-11:59:24.410|56=DROPCOPY|1=ACC002|6=21.5|11=d75f0e62bade|14=1072|31=21.5|32=1072|37=01b12ca5dbb6|38=1072|39=2|54=1|55=RENT3|60=20250630-11:59:24.410|150=F|453=1|448=TRADER244|452=36|10=040|
8=FIX.4.4|9=212|35=8|49=SISTEMA|52=20250630-11:59:24.410|56=DROPCOPY|1=ACC008|6=28.33|11=2b4037b934d7|14=4938|31=28.33|32=4938|37=da2785cd13e9|38=4938|39=2|54=2|55=RENT3|60=20250630-11:59:24.410|150=F|453=1|448=TRADER321|452=36|10=238|
8=FIX.4.4|9=212|35=8|49=SISTEMA|52=20250630-11:59:24.410|56=DROPCOPY|1=ACC005|6=21.31|11=e134e1cfb5ea|14=7471|31=21.31|32=7471|37=3d18edf5148b|38=7471|39=2|54=1|55=WEGE3|60=20250630-11:59:24.410|150=F|453=1|448=TRADER418|452=36|10=120|
8=FIX.4.4|9=212|35=8|49=SISTEMA|52=20250630-11:59:24.410|56=DROPCOPY|1=ACC003|6=17.45|11=c1a2be072a84|14=1476|31=17.45|32=1476|37=481d80cdc404|38=1476|39=2|54=1|55=SUZB3|60=20250630-11:59:24.410|150=F|453=1|448=TRADER572|452=36|10=007|
8=FIX.4.4|9=212|35=8|49=SISTEMA|52=20250630-11:59:24.410|56=DROPCOPY|1=ACC010|6=20.08|11=3cbcc150ff09|14=4484|31=20.08|32=4484|37=fd7fe077cf5d|38=4484|39=2|54=2|55=SUZB3|60=20250630-11:59:24.410|150=F|453=1|448=TRADER585|452=36|10=216|
8=FIX.4.4|9=212|35=8|49=SISTEMA|52=20250630-11:59:24.410|56=DROPCOPY|1=ACC007|6=13.04|11=123965cb22fc|14=3965|31=13.04|32=3965|37=40e90ae98c16|38=3965|39=2|54=2|55=RENT3|60=20250630-11:59:24.410|150=F|453=1|448=TRADER835|452=36|10=224|
8=FIX.4.4|9=210|35=8|49=SISTEMA|52=20250630-11:59:24.410|56=DROPCOPY|1=ACC009|6=10.2|11=79a61607070d|14=2742|31=10.2|32=2742|37=7c0dc3a91c5d|38=2742|39=2|54=2|55=RENT3|60=20250630-11:59:24.410|150=F|453=1|448=TRADER893|452=36|10=094|
8=FIX.4.4|9=212|35=8|49=SISTEMA|52=20250630-11:59:24.410|56=DROPCOPY|1=ACC010|6=15.95|11=d9258743f347|14=6595|31=15.95|32=6595|37=6923290a5339|38=6595|39=2|54=2|55=BBDC4|60=20250630-11:59:24.410|150=F|453=1|448=TRADER511|452=36|10=229|
8=FIX.4.4|9=212|35=8|49=SISTEMA|52=20250630-11:59:24.410|56=DROPCOPY|1=ACC004|6=16.78|11=c153d44d5abd|14=2302|31=16.78|32=2302|37=bb3c69fab663|38=2302|39=2|54=2|55=ABEV3|60=20250630-11:59:24.410|150=F|453=1|448=TRADER552|452=36|10=100|
8=FIX.4.4|9=211|35=8|49=SISTEMA|52=20250630-11:59:24.410|56=DROPCOPY|1=ACC002|6=15.18|11=032ea6b94d70|14=4161|31=15.18|32=4161|37=99a32c9febbd|38=4161|39=2|54=2|55=ITUB4|60=20250630-11:59:24.410|150=F|453=1|448=TRADER95|452=36|10=036|
8=FIX.4.4|9=212|35=8|49=SISTEMA|52=20250630-11:59:24.410|56=DROPCOPY|1=ACC002|6=12.87|11=87849ec0e1a1|14=9373|31=12.87|32=9373|37=889e81ef34e5|38=9373|39=2|54=1|55=RENT3|60=20250630-11:59:24.410|150=F|453=1|448=TRADER212|452=36|10=248|
8=FIX.4.4|9=212|35=8|49=SISTEMA|52=20250630-11:59:24.410|56=DROPCOPY|1=ACC005|6=29.86|11=e042ca235d84|14=3742|31=29.86|32=3742|37=deff3d0343e5|38=3742|39=2|54=2|55=ABEV3|60=20250630-11:59:24.410|150=F|453=1|448=TRADER934|452=36|10=042|
8=FIX.4.4|9=211|35=8|49=SISTEMA|52=20250630-11:59:24.410|56=DROPCOPY|1=ACC009|6=15.56|11=ab4cc2dcd573|14=4056|31=15.56|32=4056|37=2675cc0397cd|38=4056|39=2|54=2|55=RENT3|60=20250630-11:59:24.410|150=F|453=1|448=TRADER19|452=36|10=051|
8=FIX.4.4|9=210|35=8|49=SISTEMA|52=20250630-11:59:24.410|56=DROPCOPY|1=ACC005|6=11.6|11=b1f5b8a34b0f|14=3610|31=11.6|32=3610|37=fcf84c31f187|38=3610|39=2|54=2|55=BBAS3|60=20250630-11:59:24.410|150=F|453=1|448=TRADER376|452=36|10=197|
8=FIX.4.4|9=212|35=8|49=SISTEMA|52=20250630-11:59:24.410|56=DROPCOPY|1=ACC002|6=13.86|11=41e30d7fbd58|14=7506|31=13.86|32=7506|37=58bbb953b06b|38=7506|39=2|54=2|55=RENT3|60=20250630-11:59:24.410|150=F|453=1|448=TRADER655|452=36|10=064|
8=FIX.4.4|9=212|35=8|49=SISTEMA|52=20250630-11:59:24.410|56=DROPCOPY|1=ACC003|6=28.92|11=38471677358b|14=1469|31=28.92|32=1469|37=b1726eded394|38=1469|39=2|54=1|55=ABEV3|60=20250630-11:59:24.410|150=F|453=1|448=TRADER307|452=36|10=125|
8=FIX.4.4|9=212|35=8|49=SISTEMA|52=20250630-11:59:24.410|56=DROPCOPY|1=ACC007|6=22.51|11=a48a7f146f38|14=7046|31=22.51|32=7046|37=a81283edb242|38=7046|39=2|54=1|55=RENT3|60=20250630-11:59:24.410|150=F|453=1|448=TRADER334|452=36|10=205|
8=FIX.4.4|9=212|35=8|49=SISTEMA|52=20250630-11:59:24.410|56=DROPCOPY|1=ACC008|6=29.21|11=cb7aae3e7739|14=1915|31=29.21|32=1915|37=bf5255197077|38=1915|39=2|54=1|55=VALE3|60=20250630-11:59:24.410|150=F|453=1|448=TRADER938|452=36|10=216|
8=FIX.4.4|9=212|35=8|49=SISTEMA|52=20250630-11:59:24.410|56=DROPCOPY|1=ACC003|6=21.18|11=a93e1fbc8fa3|14=8390|31=21.18|32=8390|37=a64e420c7775|38=8390|39=2|54=2|55=SUZB3|60=20250630-11:59:24.410|150=F|453=1|448=TRADER595|452=36|10=077|
8=FIX.4.4|9=212|35=8|49=SISTEMA|52=20250630-11:59:24.410|56=DROPCOPY|1=ACC006|6=26.22|11=c6d768c5f4ca|14=7666|31=26.22|32=7666|37=dc2afef965ce|38=7666|39=2|54=2|55=PETR4|60=20250630-11:59:24.410|150=F|453=1|448=TRADER345|452=36|10=028|
8=FIX.4.4|9=211|35=8|49=SISTEMA|52=20250630-11:59:24.410|56=DROPCOPY|1=ACC009|6=11.89|11=c806738d0df0|14=3080|31=11.89|32=3080|37=e303bf80b1a8|38=3080|39=2|54=1|55=RADL3|60=20250630-11:59:24.410|150=F|453=1|448=TRADER58|452=36|10=178|
8=FIX.4.4|9=212|35=8|49=SISTEMA|52=20250630-11:59:24.410|56=DROPCOPY|1=ACC003|6=26.65|11=3b85588e455a|14=1229|31=26.65|32=1229|37=270c4fc3654e|38=1229|39=2|54=2|55=BBDC4|60=20250630-11:59:24.410|150=F|453=1|448=TRADER797|452=36|10=141|
8=FIX.4.4|9=212|35=8|49=SISTEMA|52=20250630-11:59:24.410|56=DROPCOPY|1=ACC001|6=14.96|11=1645b370fd96|14=2182|31=14.96|32=2182|37=cd4c3596cfd5|38=2182|39=2|54=1|55=VALE3|60=20250630-11:59:24.410|150=F|453=1|448=TRADER870|452=36|10=254|
8=FIX.4.4|9=210|35=8|49=SISTEMA|52=20250630-11:59:24.410|56=DROPCOPY|1=ACC001|6=28.3|11=aba00b25b302|14=5944|31=28.3|32=5944|37=5be18dbb728a|38=5944|39=2|54=1|55=BBDC4|60=20250630-11:59:24.410|150=F|453=1|448=TRADER167|452=36|10=195|
8=FIX.4.4|9=212|35=8|49=SISTEMA|52=20250630-11:59:24.410|56=DROPCOPY|1=ACC009|6=10.79|11=d6e0c2b2d4c6|14=5262|31=10.79|32=5262|37=b638a1a3bcdf|38=5262|39=2|54=1|55=SUZB3|60=20250630-11:59:24.410|150=F|453=1|448=TRADER630|452=36|10=193|
8=FIX.4.4|9=212|35=8|49=SISTEMA|52=20250630-11:59:24.423|56=DROPCOPY|1=ACC010|6=10.05|11=24f3d54fe218|14=8634|31=10.05|32=8634|37=eef5b1e890b7|38=8634|39=2|54=1|55=ITUB4|60=20250630-11:59:24.423|150=F|453=1|448=TRADER236|452=36|10=056|
8=FIX.4.4|9=212|35=8|49=SISTEMA|52=20250630-11:59:24.423|56=DROPCOPY|1=ACC010|6=11.92|11=d3f3507aca11|14=3795|31=11.92|32=3795|37=bbd1201a2dba|38=3795|39=2|54=1|55=BBDC4|60=20250630-11:59:24.423|150=F|453=1|448=TRADER702|452=36|10=084|
8=FIX.4.4|9=211|35=8|49=SISTEMA|52=20250630-11:59:24.423|56=DROPCOPY|1=ACC006|6=18.36|11=e7c215c1be26|14=9189|31=18.36|32=9189|37=c3d3db08c6d0|38=9189|39=2|54=1|55=BBAS3|60=20250630-11:59:24.423|150=F|453=1|448=TRADER35|452=36|10=047|
8=FIX.4.4|9=212|35=8|49=SISTEMA|52=20250630-11:59:24.423|56=DROPCOPY|1=ACC001|6=18.75|11=08009469e7a3|14=4647|31=18.75|32=4647|37=5473404a1082|38=4647|39=2|54=1|55=RADL3|60=20250630-11:59:24.423|150=F|453=1|448=TRADER512|452=36|10=227|
8=FIX.4.4|9=212|35=8|49=SISTEMA|52=20250630-11:59:24.423|56=DROPCOPY|1=ACC010|6=23.44|11=3993211db2da|14=2529|31=23.44|32=2529|37=f2a4bdfeb42a|38=2529|39=2|54=2|55=RADL3|60=20250630-11:59:24.423|150=F|453=1|448=TRADER677|452=36|10=124|
8=FIX.4.4|9=212|35=8|49=SISTEMA|52=20250630-11:59:24.423|56=DROPCOPY|1=ACC002|6=18.03|11=547d37427840|14=9927|31=18.03|32=9927|37=ecbee31a94cc|38=9927|39=2|54=2|55=BBAS3|60=20250630-11:59:24.423|150=F|453=1|448=TRADER172|452=36|10=004|
8=FIX.4.4|9=212|35=8|49=SISTEMA|52=20250630-11:59:24.423|56=DROPCOPY|1=ACC005|6=15.66|11=5d3f13dff1ed|14=6280|31=15.66|32=6280|37=c4f25a85ded5|38=6280|39=2|54=2|55=PETR4|60=20250630-11:59:24.423|150=F|453=1|448=TRADER703|452=36|10=215|
8=FIX.4.4|9=212|35=8|49=SISTEMA|52=20250630-11:59:24.423|56=DROPCOPY|1=ACC008|6=13.67|11=af403f9816c9|14=9839|31=13.67|32=9839|37=ddb4d010a501|38=9839|39=2|54=2|55=SUZB3|60=20250630-11:59:24.423|150=F|453=1|448=TRADER763|452=36|10=059|
8=FIX.4.4|9=212|35=8|49=SISTEMA|52=20250630-11:59:24.423|56=DROPCOPY|1=ACC009|6=11.33|11=dc1601a77eb1|14=4298|31=11.33|32=4298|37=2cf7e4b469b9|38=4298|39=2|54=1|55=PETR4|60=20250630-11:59:24.423|150=F|453=1|448=TRADER773|452=36|10=079|
8=FIX.4.4|9=211|35=8|49=SISTEMA|52=20250630-11:59:24.423|56=DROPCOPY|1=ACC008|6=21.19|11=ef52e463c7b4|14=5404|31=21.19|32=5404|37=407110ff41da|38=5404|39=2|54=1|55=PETR4|60=20250630-11:59:24.423|150=F|453=1|448=TRADER71|452=36|10=198|
8=FIX.4.4|9=211|35=8|49=SISTEMA|52=20250630-11:59:24.423|56=DROPCOPY|1=ACC006|6=22.67|11=9cd261fcbcb9|14=8461|31=22.67|32=8461|37=cac2fcd38419|38=8461|39=2|54=2|55=RENT3|60=20250630-11:59:24.423|150=F|453=1|448=TRADER50|452=36|10=163|
8=FIX.4.4|9=212|35=8|49=SISTEMA|52=20250630-11:59:24.423|56=DROPCOPY|1=ACC001|6=12.78|11=fe840b03b46f|14=1684|31=12.78|32=1684|37=139bd1bc2a10|38=1684|39=2|54=2|55=ABEV3|60=20250630-11:59:24.423|150=F|453=1|448=TRADER170|452=36|10=019|
8=FIX.4.4|9=212|35=8|49=SISTEMA|52=20250630-11:59:24.423|56=DROPCOPY|1=ACC005|6=24.25|11=32da7169035a|14=8850|31=24.25|32=8850|37=c755b1355afc|38=8850|39=2|54=2|55=ABEV3|60=20250630-11:59:24.423|150=F|453=1|448=TRADER747|452=36|10=202|
8=FIX.4.4|9=212|35=8|49=SISTEMA|52=20250630-11:59:24.423|56=DROPCOPY|1=ACC001|6=22.62|11=84be063494ce|14=2803|31=22.62|32=2803|37=111d9b87e98e|38=2803|39=2|54=1|55=BBDC4|60=20250630-11:59:24.423|150=F|453=1|448=TRADER131|452=36|10=165|
8=FIX.4.4|9=212|35=8|49=SISTEMA|52=20250630-11:59:24.423|56=DROPCOPY|1=ACC007|6=19.04|11=5fabc1d1d3da|14=6052|31=19.04|32=6052|37=1d65e74b5ac3|38=6052|39=2|54=2|55=ITUB4|60=20250630-11:59:24.423|150=F|453=1|448=TRADER189|452=36|10=182|
8=FIX.4.4|9=212|35=8|49=SISTEMA|52=20250630-11:59:24.423|56=DROPCOPY|1=ACC003|6=19.64|11=e1c126a8687b|14=7715|31=19.64|32=7715|37=94207b162726|38=7715|39=2|54=1|55=PETR4|60=20250630-11:59:24.423|150=F|453=1|448=TRADER722|452=36|10=099|
8=FIX.4.4|9=212|35=8|49=SISTEMA|52=20250630-11:59:24.423|56=DROPCOPY|1=ACC010|6=23.96|11=94d0002d52a5|14=8376|31=23.96|32=8376|37=b3757f7a4580|38=8376|39=2|54=2|55=RADL3|60=20250630-11:59:24.423|150=F|453=1|448=TRADER622|452=36|10=125|
8=FIX.4.4|9=212|35=8|49=SISTEMA|52=20250630-11:59:24.423|56=DROPCOPY|1=ACC003|6=22.61|11=edd82389658f|14=5781|31=22.61|32=5781|37=1cdc695c97f7|38=5781|39=2|54=2|55=RADL3|60=20250630-11:59:24.423|150=F|453=1|448=TRADER961|452=36|10=034|
8=FIX.4.4|9=212|35=8|49=SISTEMA|52=20250630-11:59:24.423|56=DROPCOPY|1=ACC004|6=25.44|11=189c4be5fb00|14=4561|31=25.44|32=4561|37=bb07388deeba|38=4561|39=2|54=2|55=RENT3|60=20250630-11:59:24.423|150=F|453=1|448=TRADER856|452=36|10=158|
8=FIX.4.4|9=210|35=8|49=SISTEMA|52=20250630-11:59:24.423|56=DROPCOPY|1=ACC002|6=28.3|11=95fc474a68f0|14=2789|31=28.3|32=2789|37=ba86f9792ef7|38=2789|39=2|54=1|55=WEGE3|60=20250630-11:59:24.423|150=F|453=1|448=TRADER637|452=36|10=210|
8=FIX.4.4|9=212|35=8|49=SISTEMA|52=20250630-11:59:24.423|56=DROPCOPY|1=ACC004|6=29.94|11=1c1440aeaa59|14=1070|31=29.94|32=1070|37=7c297e9972b9|38=1070|39=2|54=1|55=RADL3|60=20250630-11:59:24.423|150=F|453=1|448=TRADER852|452=36|10=203|
8=FIX.4.4|9=212|35=8|49=SISTEMA|52=20250630-11:59:24.423|56=DROPCOPY|1=ACC001|6=25.46|11=5c987f0e9781|14=4785|31=25.46|32=4785|37=10914a41cf22|38=4785|39=2|54=1|55=VALE3|60=20250630-11:59:24.423|150=F|453=1|448=TRADER304|452=36|10=131|
8=FIX.4.4|9=210|35=8|49=SISTEMA|52=20250630-11:59:24.423|56=DROPCOPY|1=ACC002|6=13.7|11=01d08aa46cb8|14=3694|31=13.7|32=3694|37=42236caa43cb|38=3694|39=2|54=2|55=RENT3|60=20250630-11:59:24.423|150=F|453=1|448=TRADER848|452=36|10=209|
8=FIX.4.4|9=212|35=8|49=SISTEMA|52=20250630-11:59:24.423|56=DROPCOPY|1=ACC010|6=26.32|11=13937e3cd6f5|14=2289|31=26.32|32=2289|37=be97d0dd1470|38=2289|39=2|54=1|55=WEGE3|60=20250630-11:59:24.423|150=F|453=1|448=TRADER682|452=36|10=011|
8=FIX.4.4|9=212|35=8|49=SISTEMA|52=20250630-11:59:24.423|56=DROPCOPY|1=ACC008|6=28.98|11=91f025789635|14=5452|31=28.98|32=5452|37=233a1f7ece42|38=5452|39=2|54=1|55=SUZB3|60=20250630-11:59:24.423|150=F|453=1|448=TRADER912|452=36|10=168|
8=FIX.4.4|9=212|35=8|49=SISTEMA|52=20250630-11:59:24.423|56=DROPCOPY|1=ACC006|6=28.73|11=a986a478adea|14=1210|31=28.73|32=1210|37=ed3739a29db1|38=1210|39=2|54=2|55=BBDC4|60=20250630-11:59:24.423|150=F|453=1|448=TRADER241|452=36|10=042|
8=FIX.4.4|9=212|35=8|49=SISTEMA|52=20250630-11:59:24.423|56=DROPCOPY|1=ACC010|6=25.04|11=1ef1e333718c|14=2516|31=25.04|32=2516|37=cf509a33f2c2|38=2516|39=2|54=2|55=ITUB4|60=20250630-11:59:24.423|150=F|453=1|448=TRADER383|452=36|10=241|
8=FIX.4.4|9=211|35=8|49=SISTEMA|52=20250630-11:59:24.423|56=DROPCOPY|1=ACC008|6=15.61|11=bc3c8116d826|14=6397|31=15.61|32=6397|37=856d6cb69a07|38=6397|39=2|54=1|55=PETR4|60=20250630-11:59:24.423|150=F|453=1|448=TRADER26|452=36|10=203|
8=FIX.4.4|9=212|35=8|49=SISTEMA|52=20250630-11:59:24.423|56=DROPCOPY|1=ACC008|6=20.04|11=7f8e4609ba63|14=3654|31=20.04|32=3654|37=2565301633b9|38=3654|39=2|54=2|55=PETR4|60=20250630-11:59:24.423|150=F|453=1|448=TRADER152|452=36|10=072|
8=FIX.4.4|9=212|35=8|49=SISTEMA|52=20250630-11:59:24.423|56=DROPCOPY|1=ACC004|6=21.97|11=9eb48266a853|14=9172|31=21.97|32=9172|37=39076de4ae0f|38=9172|39=2|54=1|55=RENT3|60=20250630-11:59:24.423|150=F|453=1|448=TRADER625|452=36|10=249|
8=FIX.4.4|9=212|35=8|49=SISTEMA|52=20250630-11:59:24.423|56=DROPCOPY|1=ACC002|6=24.24|11=bbd05a8b0049|14=4792|31=24.24|32=4792|37=4ae2383ba7b3|38=4792|39=2|54=2|55=ABEV3|60=20250630-11:59:24.423|150=F|453=1|448=TRADER160|452=36|10=019|
8=FIX.4.4|9=212|35=8|49=SISTEMA|52=20250630-11:59:24.423|56=DROPCOPY|1=ACC004|6=17.67|11=d32faff4107b|14=3181|31=17.67|32=3181|37=4c5419d33153|38=3181|39=2|54=2|55=BBDC4|60=20250630-11:59:24.423|150=F|453=1|448=TRADER940|452=36|10=169|
8=FIX.4.4|9=212|35=8|49=SISTEMA|52=20250630-11:59:24.423|56=DROPCOPY|1=ACC003|6=23.25|11=85db328d8d34|14=9678|31=23.25|32=9678|37=18a97fdf9c62|38=9678|39=2|54=1|55=WEGE3|60=20250630-11:59:24.423|150=F|453=1|448=TRADER138|452=36|10=049|
8=FIX.4.4|9=212|35=8|49=SISTEMA|52=20250630-11:59:24.423|56=DROPCOPY|1=ACC009|6=16.93|11=4e266cb76684|14=2091|31=16.93|32=2091|37=a685123d691a|38=2091|39=2|54=1|55=BBDC4|60=20250630-11:59:24.423|150=F|453=1|448=TRADER871|452=36|10=092|
8=FIX.4.4|9=212|35=8|49=SISTEMA|52=20250630-11:59:24.423|56=DROPCOPY|1=ACC004|6=28.31|11=1d920eb97ddf|14=9257|31=28.31|32=9257|37=43f2f789c4cf|38=9257|39=2|54=1|55=BBAS3|60=20250630-11:59:24.423|150=F|453=1|448=TRADER934|452=36|10=114|
8=FIX.4.4|9=212|35=8|49=SISTEMA|52=20250630-11:59:24.423|56=DROPCOPY|1=ACC005|6=26.71|11=0cdec4755090|14=5807|31=26.71|32=5807|37=58d99dbb2b3f|38=5807|39=2|54=1|55=ITUB4|60=20250630-11:59:24.423|150=F|453=1|448=TRADER825|452=36|10=077|
8=FIX.4.4|9=212|35=8|49=SISTEMA|52=20250630-11:59:24.423|56=DROPCOPY|1=ACC006|6=29.58|11=ace700c9e35b|14=2308|31=29.58|32=2308|37=db9488b268b9|38=2308|39=2|54=1|55=BBDC4|60=20250630-11:59:24.423|150=F|453=1|448=TRADER170|452=36|10=031|
8=FIX.4.4|9=212|35=8|49=SISTEMA|52=20250630-11:59:24.423|56=DROPCOPY|1=ACC003|6=18.85|11=6ad3d6904252|14=7136|31=18.85|32=7136|37=ab554337241f|38=7136|39=2|54=2|55=VALE3|60=20250630-11:59:24.423|150=F|453=1|448=TRADER846|452=36|10=121|
8=FIX.4.4|9=209|35=8|49=SISTEMA|52=20250630-11:59:24.423|56=DROPCOPY|1=ACC006|6=29.8|11=59c55c7bb782|14=7239|31=29.8|32=7239|37=1a14cd21753c|38=7239|39=2|54=1|55=RENT3|60=20250630-11:59:24.423|150=F|453=1|448=TRADER64|452=36|10=100|
8=FIX.4.4|9=212|35=8|49=SISTEMA|52=20250630-11:59:24.423|56=DROPCOPY|1=ACC004|6=14.54|11=31ffa0c90208|14=1081|31=14.54|32=1081|37=bf9cf96dedd5|38=1081|39=2|54=2|55=RADL3|60=20250630-11:59:24.423|150=F|453=1|448=TRADER667|452=36|10=126|
8=FIX.4.4|9=212|35=8|49=SISTEMA|52=20250630-11:59:24.423|56=DROPCOPY|1=ACC003|6=20.74|11=84c9055e46fb|14=5426|31=20.74|32=5426|37=70ca1334eeec|38=5426|39=2|54=1|55=WEGE3|60=20250630-11:59:24.423|150=F|453=1|448=TRADER809|452=36|10=045|
8=FIX.4.4|9=212|35=8|49=SISTEMA|52=20250630-11:59:24.423|56=DROPCOPY|1=ACC010|6=21.98|11=3edcf1903021|14=5761|31=21.98|32=5761|37=93f99fd10e0a|38=5761|39=2|54=2|55=ABEV3|60=20250630-11:59:24.423|150=F|453=1|448=TRADER261|452=36|10=247|
8=FIX.4.4|9=209|35=8|49=SISTEMA|52=20250630-11:59:24.423|56=DROPCOPY|1=ACC010|6=13.7|11=0bb85741f8fe|14=7823|31=13.7|32=7823|37=b2b6431d87bc|38=7823|39=2|54=1|55=BBAS3|60=20250630-11:59:24.423|150=F|453=1|448=TRADER19|452=36|10=144|
8=FIX.4.4|9=212|35=8|49=SISTEMA|52=20250630-11:59:24.423|56=DROPCOPY|1=ACC005|6=17.17|11=d36f1cb1c861|14=4880|31=17.17|32=4880|37=7bf3eb091510|38=4880|39=2|54=2|55=ABEV3|60=20250630-11:59:24.423|150=F|453=1|448=TRADER543|452=36|10=244|
8=FIX.4.4|9=211|35=8|49=SISTEMA|52=20250630-11:59:24.423|56=DROPCOPY|1=ACC001|6=22.36|11=029bdacea8ef|14=3829|31=22.36|32=3829|37=cdc444e12183|38=3829|39=2|54=1|55=WEGE3|60=20250630-11:59:24.423|150=F|453=1|448=TRADER92|452=36|10=090|
8=FIX.4.4|9=212|35=8|49=SISTEMA|52=20250630-11:59:24.423|56=DROPCOPY|1=ACC006|6=12.06|11=b15f99b9bce6|14=5715|31=12.06|32=5715|37=249c84206339|38=5715|39=2|54=2|55=BBAS3|60=20250630-11:59:24.423|150=F|453=1|448=TRADER817|452=36|10=154|
8=FIX.4.4|9=206|35=8|49=SISTEMA|52=20250630-11:59:24.423|56=DROPCOPY|1=ACC004|6=24|11=27446ce77741|14=8819|31=24|32=8819|37=9ecb48ed33ab|38=8819|39=2|54=2|55=VALE3|60=20250630-11:59:24.423|150=F|453=1|448=TRADER516|452=36|10=247|
8=FIX.4.4|9=212|35=8|49=SISTEMA|52=20250630-11:59:24.423|56=DROPCOPY|1=ACC003|6=10.51|11=215780d69f72|14=5191|31=10.51|32=5191|37=5c121f242334|38=5191|39=2|54=2|55=BBDC4|60=20250630-11:59:24.423|150=F|453=1|448=TRADER499|452=36|10=228|
8=FIX.4.4|9=212|35=8|49=SISTEMA|52=20250630-11:59:24.423|56=DROPCOPY|1=ACC007|6=21.08|11=ba219fdc005e|14=2023|31=21.08|32=2023|37=e97ff97fca3d|38=2023|39=2|54=1|55=ABEV3|60=20250630-11:59:24.423|150=F|453=1|448=TRADER535|452=36|10=152|
8=FIX.4.4|9=212|35=8|49=SISTEMA|52=20250630-11:59:24.423|56=DROPCOPY|1=ACC001|6=16.27|11=43cd9d58265b|14=7255|31=16.27|32=7255|37=4a255add0f95|38=7255|39=2|54=1|55=WEGE3|60=20250630-11:59:24.423|150=F|453=1|448=TRADER637|452=36|10=010|
8=FIX.4.4|9=212|35=8|49=SISTEMA|52=20250630-11:59:24.423|56=DROPCOPY|1=ACC009|6=22.71|11=3bec7c62e0b7|14=8510|31=22.71|32=8510|37=78691b457f63|38=8510|39=2|54=2|55=RADL3|60=20250630-11:59:24.423|150=F|453=1|448=TRADER792|452=36|10=209|
8=FIX.4.4|9=212|35=8|49=SISTEMA|52=20250630-11:59:24.423|56=DROPCOPY|1=ACC008|6=14.33|11=5d43f63a1f28|14=5650|31=14.33|32=5650|37=b317f3889373|38=5650|39=2|54=2|55=RENT3|60=20250630-11:59:24.423|150=F|453=1|448=TRADER842|452=36|10=134|
8=FIX.4.4|9=212|35=8|49=SISTEMA|52=20250630-11:59:24.423|56=DROPCOPY|1=ACC002|6=21.37|11=3b9ebac2fe8a|14=1727|31=21.37|32=1727|37=f54e99298a12|38=1727|39=2|54=1|55=BBAS3|60=20250630-11:59:24.423|150=F|453=1|448=TRADER693|452=36|10=088|
8=FIX.4.4|9=212|35=8|49=SISTEMA|52=20250630-11:59:24.423|56=DROPCOPY|1=ACC002|6=24.67|11=5c912b2cf75c|14=1519|31=24.67|32=1519|37=29a8de7e37e4|38=1519|39=2|54=1|55=ABEV3|60=20250630-11:59:24.423|150=F|453=1|448=TRADER104|452=36|10=042|
8=FIX.4.4|9=212|35=8|49=SISTEMA|52=20250630-11:59:24.423|56=DROPCOPY|1=ACC005|6=14.87|11=772a3304ad1c|14=2283|31=14.87|32=2283|37=7b685bd8fc65|38=2283|39=2|54=2|55=ABEV3|60=20250630-11:59:24.423|150=F|453=1|448=TRADER546|452=36|10=253|
8=FIX.4.4|9=212|35=8|49=SISTEMA|52=20250630-11:59:24.423|56=DROPCOPY|1=ACC009|6=29.36|11=6cfbc5bcb38f|14=9173|31=29.36|32=9173|37=49a305d67d0c|38=9173|39=2|54=2|55=BBDC4|60=20250630-11:59:24.423|150=F|453=1|448=TRADER108|452=36|10=133|
8=FIX.4.4|9=212|35=8|49=SISTEMA|52=20250630-11:59:24.423|56=DROPCOPY|1=ACC007|6=15.02|11=13947297ca8e|14=3042|31=15.02|32=3042|37=c7a7fab2508c|38=3042|39=2|54=2|55=BBDC4|60=20250630-11:59:24.423|150=F|453=1|448=TRADER429|452=36|10=201|
8=FIX.4.4|9=212|35=8|49=SISTEMA|52=20250630-11:59:24.423|56=DROPCOPY|1=ACC005|6=24.57|11=7b0071c52f9f|14=9795|31=24.57|32=9795|37=b90be02362e2|38=9795|39=2|54=2|55=SUZB3|60=20250630-11:59:24.423|150=F|453=1|448=TRADER605|452=36|10=012|
8=FIX.4.4|9=212|35=8|49=SISTEMA|52=20250630-11:59:24.423|56=DROPCOPY|1=ACC001|6=24.77|11=8cadd2171737|14=8070|31=24.77|32=8070|37=72d0b60fc3a1|38=8070|39=2|54=2|55=VALE3|60=20250630-11:59:24.423|150=F|453=1|448=TRADER879|452=36|10=253|
8=FIX.4.4|9=206|35=8|49=SISTEMA|52=20250630-11:59:24.423|56=DROPCOPY|1=ACC010|6=15|11=bcf9b1254d57|14=7460|31=15|32=7460|37=59ca07ed5588|38=7460|39=2|54=2|55=ITUB4|60=20250630-11:59:24.423|150=F|453=1|448=TRADER955|452=36|10=241|
8=FIX.4.4|9=212|35=8|49=SISTEMA|52=20250630-11:59:24.423|56=DROPCOPY|1=ACC007|6=17.48|11=32b8d1183fc8|14=2779|31=17.48|32=2779|37=df558be17910|38=2779|39=2|54=2|55=WEGE3|60=20250630-11:59:24.423|150=F|453=1|448=TRADER243|452=36|10=245|
8=FIX.4.4|9=212|35=8|49=SISTEMA|52=20250630-11:59:24.423|56=DROPCOPY|1=ACC005|6=15.47|11=c239ee5c7f78|14=2795|31=15.47|32=2795|37=e976510d6b77|38=2795|39=2|54=1|55=PETR4|60=20250630-11:59:24.423|150=F|453=1|448=TRADER657|452=36|10=023|
8=FIX.4.4|9=211|35=8|49=SISTEMA|52=20250630-11:59:24.423|56=DROPCOPY|1=ACC007|6=28.48|11=a2c7bf3f3fc0|14=1932|31=28.48|32=1932|37=e60229ac2155|38=1932|39=2|54=2|55=ABEV3|60=20250630-11:59:24.423|150=F|453=1|448=TRADER57|452=36|10=240|
8=FIX.4.4|9=212|35=8|49=SISTEMA|52=20250630-11:59:24.423|56=DROPCOPY|1=ACC005|6=27.02|11=54f66ca79970|14=4160|31=27.02|32=4160|37=1cc17e52f794|38=4160|39=2|54=2|55=SUZB3|60=20250630-11:59:24.423|150=F|453=1|448=TRADER223|452=36|10=175|
8=FIX.4.4|9=212|35=8|49=SISTEMA|52=20250630-11:59:24.423|56=DROPCOPY|1=ACC008|6=23.98|11=baf3bf6bd54a|14=2998|31=23.98|32=2998|37=e39c9270c609|38=2998|39=2|54=2|55=RENT3|60=20250630-11:59:24.423|150=F|453=1|448=TRADER865|452=36|10=170|
8=FIX.4.4|9=212|35=8|49=SISTEMA|52=20250630-11:59:24.423|56=DROPCOPY|1=ACC009|6=12.64|11=5dc777a47ad8|14=1979|31=12.64|32=1979|37=bc28360bc7a0|38=1979|39=2|54=1|55=BBDC4|60=20250630-11:59:24.423|150=F|453=1|448=TRADER526|452=36|10=044|
8=FIX.4.4|9=211|35=8|49=SISTEMA|52=20250630-11:59:24.423|56=DROPCOPY|1=ACC004|6=18.97|11=128f2515aad3|14=6949|31=18.97|32=6949|37=2b01e465356e|38=6949|39=2|54=2|55=VALE3|60=20250630-11:59:24.423|150=F|453=1|448=TRADER14|452=36|10=141|
8=FIX.4.4|9=212|35=8|49=SISTEMA|52=20250630-11:59:24.423|56=DROPCOPY|1=ACC001|6=20.79|11=364bb183b7d9|14=2244|31=20.79|32=2244|37=b18b5cecf699|38=2244|39=2|54=1|55=WEGE3|60=20250630-11:59:24.423|150=F|453=1|448=TRADER954|452=36|10=052|
8=FIX.4.4|9=212|35=8|49=SISTEMA|52=20250630-11:59:24.423|56=DROPCOPY|1=ACC004|6=17.02|11=16a7b56be7ca|14=2843|31=17.02|32=2843|37=28614e624685|38=2843|39=2|54=1|55=WEGE3|60=20250630-11:59:24.423|150=F|453=1|448=TRADER506|452=36|10=152|
8=FIX.4.4|9=212|35=8|49=SISTEMA|52=20250630-11:59:24.423|56=DROPCOPY|1=ACC002|6=22.74|11=eb049d86e6a9|14=5286|31=22.74|32=5286|37=410adc212bbc|38=5286|39=2|54=2|55=BBDC4|60=20250630-11:59:24.423|150=F|453=1|448=TRADER884|452=36|10=071|
8=FIX.4.4|9=212|35=8|49=SISTEMA|52=20250630-11:59:24.423|56=DROPCOPY|1=ACC003|6=22.64|11=8aef6e2b15ae|14=4362|31=22.64|32=4362|37=32a7df9b0fd6|38=4362|39=2|54=1|55=RADL3|60=20250630-11:59:24.423|150=F|453=1|448=TRADER341|452=36|10=171|
8=FIX.4.4|9=212|35=8|49=SISTEMA|52=20250630-11:59:24.423|56=DROPCOPY|1=ACC010|6=29.46|11=42c20827b0ce|14=6242|31=29.46|32=6242|37=0a7cd81f8a2f|38=6242|39=2|54=1|55=WEGE3|60=20250630-11:59:24.423|150=F|453=1|448=TRADER694|452=36|10=040|
8=FIX.4.4|9=212|35=8|49=SISTEMA|52=20250630-11:59:24.423|56=DROPCOPY|1=ACC001|6=27.77|11=3fdf45a4fc16|14=9574|31=27.77|32=9574|37=9055904bb26a|38=9574|39=2|54=1|55=BBDC4|60=20250630-11:59:24.423|150=F|453=1|448=TRADER242|452=36|10=255|
8=FIX.4.4|9=212|35=8|49=SISTEMA|52=20250630-11:59:24.423|56=DROPCOPY|1=ACC005|6=28.46|11=a567afaa2ce1|14=2209|31=28.46|32=2209|37=afa73087b850|38=2209|39=2|54=2|55=VALE3|60=20250630-11:59:24.423|150=F|453=1|448=TRADER591|452=36|10=086|
8=FIX.4.4|9=212|35=8|49=SISTEMA|52=20250630-11:59:24.423|56=DROPCOPY|1=ACC003|6=28.04|11=b82318d5348c|14=5888|31=28.04|32=5888|37=ae680656eb9e|38=5888|39=2|54=1|55=PETR4|60=20250630-11:59:24.423|150=F|453=1|448=TRADER837|452=36|10=020|
8=FIX.4.4|9=212|35=8|49=SISTEMA|52=20250630-11:59:24.423|56=DROPCOPY|1=ACC001|6=16.03|11=bc3e97d7119e|14=8334|31=16.03|32=8334|37=3890c84b32e4|38=8334|39=2|54=1|55=BBDC4|60=20250630-11:59:24.423|150=F|453=1|448=TRADER467|452=36|10=182|
8=FIX.4.4|9=211|35=8|49=SISTEMA|52=20250630-11:59:24.423|56=DROPCOPY|1=ACC010|6=28.11|11=50f624388149|14=3668|31=28.11|32=3668|37=3aba5119978d|38=3668|39=2|54=2|55=ABEV3|60=20250630-11:59:24.423|150=F|453=1|448=TRADER11|452=36|10=012|
8=FIX.4.4|9=212|35=8|49=SISTEMA|52=20250630-11:59:24.423|56=DROPCOPY|1=ACC009|6=18.24|11=478cd503ce7a|14=2397|31=18.24|32=2397|37=39719e19cd7a|38=2397|39=2|54=1|55=PETR4|60=20250630-11:59:24.423|150=F|453=1|448=TRADER260|452=36|10=042|
8=FIX.4.4|9=212|35=8|49=SISTEMA|52=20250630-11:59:24.423|56=DROPCOPY|1=ACC005|6=24.06|11=5bdee5e353f9|14=8803|31=24.06|32=8803|37=55a43562a809|38=8803|39=2|54=2|55=BBDC4|60=20250630-11:59:24.423|150=F|453=1|448=TRADER249|452=36|10=191|
8=FIX.4.4|9=211|35=8|49=SISTEMA|52=20250630-11:59:24.423|56=DROPCOPY|1=ACC008|6=27.84|11=88fff34eb423|14=1925|31=27.84|32=1925|37=b7008f485f8e|38=1925|39=2|54=2|55=WEGE3|60=20250630-11:59:24.423|150=F|453=1|448=TRADER55|452=36|10=238|
8=FIX.4.4|9=212|35=8|49=SISTEMA|52=20250630-11:59:24.423|56=DROPCOPY|1=ACC004|6=21.09|11=c3b4a1fa682b|14=8928|31=21.09|32=8928|37=7f10f7002a79|38=8928|39=2|54=1|55=RADL3|60=20250630-11:59:24.423|150=F|453=1|448=TRADER671|452=36|10=006|
8=FIX.4.4|9=212|35=8|49=SISTEMA|52=20250630-11:59:24.423|56=DROPCOPY|1=ACC010|6=21.39|11=6efe2f84bbff|14=5087|31=21.39|32=5087|37=b8e0deaa0cb0|38=5087|39=2|54=2|55=WEGE3|60=20250630-11:59:24.423|150=F|453=1|448=TRADER181|452=36|10=074|
8=FIX.4.4|9=212|35=8|49=SISTEMA|52=20250630-11:59:24.423|56=DROPCOPY|1=ACC007|6=26.95|11=9ec6b4edfdc0|14=4848|31=26.95|32=4848|37=4ebaeb847342|38=4848|39=2|54=1|55=WEGE3|60=20250630-11:59:24.423|150=F|453=1|448=TRADER443|452=36|10=227|
8=FIX.4.4|9=212|35=8|49=SISTEMA|52=20250630-11:59:24.438|56=DROPCOPY|1=ACC001|6=21.74|11=19dbec4427af|14=4258|31=21.74|32=4258|37=97a59a80d553|38=4258|39=2|54=1|55=VALE3|60=20250630-11:59:24.438|150=F|453=1|448=TRADER478|452=36|10=025|
8=FIX.4.4|9=210|35=8|49=SISTEMA|52=20250630-11:59:24.439|56=DROPCOPY|1=ACC007|6=24.1|11=9441e56567ed|14=6068|31=24.1|32=6068|37=1b65fd1089f6|38=6068|39=2|54=1|55=ITUB4|60=20250630-11:59:24.439|150=F|453=1|448=TRADER342|452=36|10=097|
8=FIX.4.4|9=212|35=8|49=SISTEMA|52=20250630-11:59:24.439|56=DROPCOPY|1=ACC003|6=13.49|11=9753a1577993|14=6208|31=13.49|32=6208|37=0aa2f984f852|38=6208|39=2|54=1|55=BBAS3|60=20250630-11:59:24.439|150=F|453=1|448=TRADER356|452=36|10=082|
8=FIX.4.4|9=212|35=8|49=SISTEMA|52=20250630-11:59:24.439|56=DROPCOPY|1=ACC004|6=13.78|11=1c9aaaa0c6c4|14=1498|31=13.78|32=1498|37=73618ffe4e17|38=1498|39=2|54=2|55=RENT3|60=20250630-11:59:24.439|150=F|453=1|448=TRADER388|452=36|10=150|
8=FIX.4.4|9=210|35=8|49=SISTEMA|52=20250630-11:59:24.439|56=DROPCOPY|1=ACC007|6=24.8|11=76adc5151e96|14=6590|31=24.8|32=6590|37=03cb8785abb5|38=6590|39=2|54=1|55=PETR4|60=20250630-11:59:24.439|150=F|453=1|448=TRADER304|452=36|10=196|
8=FIX.4.4|9=212|35=8|49=SISTEMA|52=20250630-11:59:24.439|56=DROPCOPY|1=ACC009|6=14.44|11=37616221444f|14=7555|31=14.44|32=7555|37=ab3bc8892729|38=7555|39=2|54=2|55=RADL3|60=20250630-11:59:24.439|150=F|453=1|448=TRADER100|452=36|10=081|
8=FIX.4.4|9=210|35=8|49=SISTEMA|52=20250630-11:59:24.439|56=DROPCOPY|1=ACC009|6=17.5|11=40303b6a104d|14=6220|31=17.5|32=6220|37=6f7be423e459|38=6220|39=2|54=1|55=PETR4|60=20250630-11:59:24.439|150=F|453=1|448=TRADER381|452=36|10=062|
8=FIX.4.4|9=212|35=8|49=SISTEMA|52=20250630-11:59:24.439|56=DROPCOPY|1=ACC009|6=29.67|11=9d33cf8641cc|14=8557|31=29.67|32=8557|37=ebc2fe3405ee|38=8557|39=2|54=2|55=RENT3|60=20250630-11:59:24.439|150=F|453=1|448=TRADER213|452=36|10=215|
8=FIX.4.4|9=212|35=8|49=SISTEMA|52=20250630-11:59:24.439|56=DROPCOPY|1=ACC006|6=20.14|11=98c17bb9a1f4|14=2106|31=20.14|32=2106|37=28029114ae5d|38=2106|39=2|54=1|55=ITUB4|60=20250630-11:59:24.439|150=F|453=1|448=TRADER697|452=36|10=202|
8=FIX.4.4|9=209|35=8|49=SISTEMA|52=20250630-11:59:24.439|56=DROPCOPY|1=ACC010|6=20.1|11=ba180ce4a5c9|14=8474|31=20.1|32=8474|37=569bc66b7113|38=8474|39=2|54=2|55=BBDC4|60=20250630-11:59:24.439|150=F|453=1|448=TRADER34|452=36|10=084|
8=FIX.4.4|9=212|35=8|49=SISTEMA|52=20250630-11:59:24.439|56=DROPCOPY|1=ACC009|6=24.69|11=3abbcbfe3e50|14=8665|31=24.69|32=8665|37=d836009fd90d|38=8665|39=2|54=1|55=RADL3|60=20250630-11:59:24.439|150=F|453=1|448=TRADER412|452=36|10=179|
8=FIX.4.4|9=212|35=8|49=SISTEMA|52=20250630-11:59:24.439|56=DROPCOPY|1=ACC010|6=21.53|11=ded98618ef95|14=5712|31=21.53|32=5712|37=9d30adbc9a39|38=5712|39=2|54=2|55=VALE3|60=20250630-11:59:24.439|150=F|453=1|448=TRADER381|452=36|10=112|
8=FIX.4.4|9=212|35=8|49=SISTEMA|52=20250630-11:59:24.439|56=DROPCOPY|1=ACC008|6=19.46|11=cae4352e7795|14=7660|31=19.46|32=7660|37=9e379c174c81|38=7660|39=2|54=1|55=WEGE3|60=20250630-11:59:24.439|150=F|453=1|448=TRADER987|452=36|10=222|
8=FIX.4.4|9=210|35=8|49=SISTEMA|52=20250630-11:59:24.439|56=DROPCOPY|1=ACC007|6=20.9|11=2a7dcb2980b9|14=4872|31=20.9|32=4872|37=40c3a6579c4d|38=4872|39=2|54=1|55=WEGE3|60=20250630-11:59:24.439|150=F|453=1|448=TRADER374|452=36|10=179|
8=FIX.4.4|9=212|35=8|49=SISTEMA|52=20250630-11:59:24.439|56=DROPCOPY|1=ACC010|6=29.76|11=6e7be7be1829|14=4447|31=29.76|32=4447|37=4aba902e4384|38=4447|39=2|54=2|55=BBDC4|60=20250630-11:59:24.439|150=F|453=1|448=TRADER894|452=36|10=019|
8=FIX.4.4|9=212|35=8|49=SISTEMA|52=20250630-11:59:24.439|56=DROPCOPY|1=ACC006|6=12.81|11=3ff9e1969416|14=5701|31=12.81|32=5701|37=bd7e04d929ae|38=5701|39=2|54=2|55=ITUB4|60=20250630-11:59:24.439|150=F|453=1|448=TRADER912|452=36|10=029|
8=FIX.4.4|9=212|35=8|49=SISTEMA|52=20250630-11:59:24.439|56=DROPCOPY|1=ACC001|6=15.98|11=392d58883415|14=5794|31=15.98|32=5794|37=ad690fe34267|38=5794|39=2|54=2|55=RADL3|60=20250630-11:59:24.439|150=F|453=1|448=TRADER951|452=36|10=127|
8=FIX.4.4|9=212|35=8|49=SISTEMA|52=20250630-11:59:24.439|56=DROPCOPY|1=ACC002|6=16.07|11=5071e2eeac8a|14=8203|31=16.07|32=8203|37=03e50c919ac5|38=8203|39=2|54=2|55=SUZB3|60=20250630-11:59:24.439|150=F|453=1|448=TRADER528|452=36|10=065|
8=FIX.4.4|9=211|35=8|49=SISTEMA|52=20250630-11:59:24.439|56=DROPCOPY|1=ACC010|6=23.74|11=c11678d7f8b7|14=9557|31=23.74|32=9557|37=3802e444f133|38=9557|39=2|54=2|55=WEGE3|60=20250630-11:59:24.439|150=F|453=1|448=TRADER44|452=36|10=103|
8=FIX.4.4|9=212|35=8|49=SISTEMA|52=20250630-11:59:24.439|56=DROPCOPY|1=ACC007|6=29.76|11=c602c3bd5403|14=9019|31=29.76|32=9019|37=37cc4ca9f253|38=9019|39=2|54=2|55=RADL3|60=20250630-11:59:24.439|150=F|453=1|448=TRADER391|452=36|10=022|
8=FIX.4.4|9=212|35=8|49=SISTEMA|52=20250630-11:59:24.439|56=DROPCOPY|1=ACC002|6=14.65|11=b8768c92cdec|14=7711|31=14.65|32=7711|37=845743861c5a|38=7711|39=2|54=2|55=ITUB4|60=20250630-11:59:24.439|150=F|453=1|448=TRADER626|452=36|10=250|
8=FIX.4.4|9=211|35=8|49=SISTEMA|52=20250630-11:59:24.439|56=DROPCOPY|1=ACC003|6=23.88|11=b43b0585ad0d|14=4018|31=23.88|32=4018|37=2cf287157c39|38=4018|39=2|54=2|55=ABEV3|60=20250630-11:59:24.439|150=F|453=1|448=TRADER35|452=36|10=153|
8=FIX.4.4|9=212|35=8|49=SISTEMA|52=20250630-11:59:24.439|56=DROPCOPY|1=ACC004|6=28.44|11=d7452e03e51b|14=6839|31=28.44|32=6839|37=1b44e318e47d|38=6839|39=2|54=1|55=SUZB3|60=20250630-11:59:24.439|150=F|453=1|448=TRADER162|452=36|10=015|
8=FIX.4.4|9=212|35=8|49=SISTEMA|52=20250630-11:59:24.439|56=DROPCOPY|1=ACC004|6=25.13|11=5f4cad59b33c|14=1708|31=25.13|32=1708|37=6de222669639|38=1708|39=2|54=2|55=BBAS3|60=20250630-11:59:24.439|150=F|453=1|448=TRADER258|452=36|10=207|
8=FIX.4.4|9=212|35=8|49=SISTEMA|52=20250630-11:59:24.439|56=DROPCOPY|1=ACC001|6=25.99|11=2111b5bcfaac|14=5800|31=25.99|32=5800|37=16028bf3df2c|38=5800|39=2|54=2|55=VALE3|60=20250630-11:59:24.439|150=F|453=1|448=TRADER483|452=36|10=138|
8=FIX.4.4|9=210|35=8|49=SISTEMA|52=20250630-11:59:24.439|56=DROPCOPY|1=ACC004|6=16.2|11=58b342425666|14=5202|31=16.2|32=5202|37=bd7f60c8c153|38=5202|39=2|54=2|55=VALE3|60=20250630-11:59:24.439|150=F|453=1|448=TRADER348|452=36|10=253|
8=FIX.4.4|9=212|35=8|49=SISTEMA|52=20250630-11:59:24.439|56=DROPCOPY|1=ACC003|6=20.55|11=1bcbdae1a26a|14=1275|31=20.55|32=1275|37=061c472aa0df|38=1275|39=2|54=1|55=SUZB3|60=20250630-11:59:24.439|150=F|453=1|448=TRADER414|452=36|10=182|
8=FIX.4.4|9=212|35=8|49=SISTEMA|52=20250630-11:59:24.439|56=DROPCOPY|1=ACC002|6=12.86|11=12dc14ad0b2d|14=5626|31=12.86|32=5626|37=975b90068693|38=5626|39=2|54=2|55=BBDC4|60=20250630-11:59:24.439|150=F|453=1|448=TRADER887|452=36|10=158|
8=FIX.4.4|9=212|35=8|49=SISTEMA|52=20250630-11:59:24.439|56=DROPCOPY|1=ACC009|6=27.85|11=133d6fec247c|14=4001|31=27.85|32=4001|37=acca60d7ef41|38=4001|39=2|54=1|55=BBAS3|60=20250630-11:59:24.439|150=F|453=1|448=TRADER650|452=36|10=112|
8=FIX.4.4|9=212|35=8|49=SISTEMA|52=20250630-11:59:24.439|56=DROPCOPY|1=ACC002|6=25.33|11=e9580e0292b7|14=5856|31=25.33|32=5856|37=4c4271965032|38=5856|39=2|54=2|55=WEGE3|60=20250630-11:59:24.439|150=F|453=1|448=TRADER923|452=36|10=048|
8=FIX.4.4|9=212|35=8|49=SISTEMA|52=20250630-11:59:24.439|56=DROPCOPY|1=ACC003|6=11.03|11=72823e6bf8ee|14=3106|31=11.03|32=3106|37=821ba54f3861|38=3106|39=2|54=2|55=RADL3|60=20250630-11:59:24.439|150=F|453=1|448=TRADER748|452=36|10=189|
8=FIX.4.4|9=212|35=8|49=SISTEMA|52=20250630-11:59:24.439|56=DROPCOPY|1=ACC001|6=15.78|11=440df2132146|14=3651|31=15.78|32=3651|37=b5167b572156|38=3651|39=2|54=1|55=RADL3|60=20250630-11:59:24.439|150=F|453=1|448=TRADER501|452=36|10=008|
8=FIX.4.4|9=209|35=8|49=SISTEMA|52=20250630-11:59:24.439|56=DROPCOPY|1=ACC009|6=23.3|11=84c10a3181a7|14=3362|31=23.3|32=3362|37=6de0ea33df33|38=3362|39=2|54=2|55=RENT3|60=20250630-11:59:24.439|150=F|453=1|448=TRADER36|452=36|10=110|
8=FIX.4.4|9=212|35=8|49=SISTEMA|52=20250630-11:59:24.439|56=DROPCOPY|1=ACC001|6=10.62|11=991bf4cdefda|14=6334|31=10.62|32=6334|37=d39d44c30d9b|38=6334|39=2|54=2|55=ITUB4|60=20250630-11:59:24.439|150=F|453=1|448=TRADER236|452=36|10=204|
8=FIX.4.4|9=212|35=8|49=SISTEMA|52=20250630-11:59:24.439|56=DROPCOPY|1=ACC010|6=16.78|11=649adb640570|14=4009|31=16.78|32=4009|37=2b589180a962|38=4009|39=2|54=1|55=BBAS3|60=20250630-11:59:24.439|150=F|453=1|448=TRADER695|452=36|10=070|
8=FIX.4.4|9=210|35=8|49=SISTEMA|52=20250630-11:59:24.439|56=DROPCOPY|1=ACC009|6=25.6|11=7510034f7886|14=8734|31=25.6|32=8734|37=90176a055ef9|38=8734|39=2|54=1|55=ABEV3|60=20250630-11:59:24.439|150=F|453=1|448=TRADER498|452=36|10=212|
8=FIX.4.4|9=212|35=8|49=SISTEMA|52=20250630-11:59:24.439|56=DROPCOPY|1=ACC005|6=26.56|11=fd6695d44f57|14=2873|31=26.56|32=2873|37=10a33bf47070|38=2873|39=2|54=2|55=ITUB4|60=20250630-11:59:24.439|150=F|453=1|448=TRADER843|452=36|10=209|
8=FIX.4.4|9=212|35=8|49=SISTEMA|52=20250630-11:59:24.439|56=DROPCOPY|1=ACC002|6=26.49|11=d47742ba9273|14=9585|31=26.49|32=9585|37=de7ac0784765|38=9585|39=2|54=1|55=RADL3|60=20250630-11:59:24.439|150=F|453=1|448=TRADER186|452=36|10=221|
8=FIX.4.4|9=212|35=8|49=SISTEMA|52=20250630-11:59:24.439|56=DROPCOPY|1=ACC004|6=11.83|11=4268c5e8a661|14=6131|31=11.83|32=6131|37=9dfe76ca5373|38=6131|39=2|54=1|55=ITUB4|60=20250630-11:59:24.439|150=F|453=1|448=TRADER507|452=36|10=227|
8=FIX.4.4|9=212|35=8|49=SISTEMA|52=20250630-11:59:24.439|56=DROPCOPY|1=ACC002|6=13.02|11=d1ef1eb8de19|14=7141|31=13.02|32=7141|37=867142789071|38=7141|39=2|54=1|55=SUZB3|60=20250630-11:59:24.439|150=F|453=1|448=TRADER165|452=36|10=181|
8=FIX.4.4|9=210|35=8|49=SISTEMA|52=20250630-11:59:24.439|56=DROPCOPY|1=ACC006|6=12.2|11=54b6b8008451|14=7691|31=12.2|32=7691|37=1cfd06facde1|38=7691|39=2|54=1|55=SUZB3|60=20250630-11:59:24.439|150=F|453=1|448=TRADER105|452=36|10=227|
8=FIX.4.4|9=212|35=8|49=SISTEMA|52=20250630-11:59:24.439|56=DROPCOPY|1=ACC006|6=20.45|11=fc819a9489f5|14=6127|31=20.45|32=6127|37=0d24f9e0ea2d|38=6127|39=2|54=1|55=BBDC4|60=20250630-11:59:24.439|150=F|453=1|448=TRADER440|452=36|10=032|
8=FIX.4.4|9=212|35=8|49=SISTEMA|52=20250630-11:59:24.439|56=DROPCOPY|1=ACC009|6=22.75|11=b04eb5d20bbe|14=9042|31=22.75|32=9042|37=757a93cf8c09|38=9042|39=2|54=1|55=BBDC4|60=20250630-11:59:24.439|150=F|453=1|448=TRADER590|452=36|10=079|
8=FIX.4.4|9=212|35=8|49=SISTEMA|52=20250630-11:59:24.439|56=DROPCOPY|1=ACC007|6=28.61|11=2ce1cd4c574b|14=7865|31=28.61|32=7865|37=d7b3273ab648|38=7865|39=2|54=2|55=WEGE3|60=20250630-11:59:24.439|150=F|453=1|448=TRADER112|452=36|10=081|
8=FIX.4.4|9=212|35=8|49=SISTEMA|52=20250630-11:59:24.439|56=DROPCOPY|1=ACC008|6=10.69|11=df1682f0735a|14=5315|31=10.69|32=5315|37=712bd52b6ef1|38=5315|39=2|54=2|55=RADL3|60=20250630-11:59:24.439|150=F|453=1|448=TRADER468|452=36|10=005|
8=FIX.4.4|9=212|35=8|49=SISTEMA|52=20250630-11:59:24.439|56=DROPCOPY|1=ACC005|6=16.29|11=54ed0a9f0b21|14=2941|31=16.29|32=2941|37=90573c07c66d|38=2941|39=2|54=2|55=ITUB4|60=20250630-11:59:24.439|150=F|453=1|448=TRADER340|452=36|10=227|
8=FIX.4.4|9=209|35=8|49=SISTEMA|52=20250630-11:59:24.439|56=DROPCOPY|1=ACC007|6=18.8|11=948e013203da|14=1914|31=18.8|32=1914|37=880c819f2c32|38=1914|39=2|54=1|55=ABEV3|60=20250630-11:59:24.439|150=F|453=1|448=TRADER36|452=36|10=225|
8=FIX.4.4|9=212|35=8|49=SISTEMA|52=20250630-11:59:24.439|56=DROPCOPY|1=ACC003|6=17.94|11=f755bb01ddb2|14=3812|31=17.94|32=3812|37=7f2013e51ffe|38=3812|39=2|54=2|55=VALE3|60=20250630-11:59:24.439|150=F|453=1|448=TRADER406|452=36|10=098|
8=FIX.4.4|9=212|35=8|49=SISTEMA|52=20250630-11:59:24.439|56=DROPCOPY|1=ACC001|6=28.33|11=7315ad0c0a57|14=1879|31=28.33|32=1879|37=260bfe362f6a|38=1879|39=2|54=1|55=RADL3|60=20250630-11:59:24.439|150=F|453=1|448=TRADER101|452=36|10=004|
8=FIX.4.4|9=212|35=8|49=SISTEMA|52=20250630-11:59:24.439|56=DROPCOPY|1=ACC004|6=22.29|11=d211c1aed57f|14=6431|31=22.29|32=6431|37=12814d816e1f|38=6431|39=2|54=1|55=ABEV3|60=20250630-11:59:24.439|150=F|453=1|448=TRADER609|452=36|10=241|
8=FIX.4.4|9=212|35=8|49=SISTEMA|52=20250630-11:59:24.439|56=DROPCOPY|1=ACC009|6=17.72|11=6d833b3d58ce|14=7978|31=17.72|32=7978|37=b00f6393df40|38=7978|39=2|54=1|55=PETR4|60=20250630-11:59:24.439|150=F|453=1|448=TRADER849|452=36|10=091|
8=FIX.4.4|9=212|35=8|49=SISTEMA|52=20250630-11:59:24.439|56=DROPCOPY|1=ACC010|6=16.01|11=c090b2b784be|14=3624|31=16.01|32=3624|37=6bd55db36911|38=3624|39=2|54=2|55=WEGE3|60=20250630-11:59:24.439|150=F|453=1|448=TRADER285|452=36|10=243|
8=FIX.4.4|9=212|35=8|49=SISTEMA|52=20250630-11:59:24.439|56=DROPCOPY|1=ACC007|6=27.76|11=ffdb82dafb96|14=4290|31=27.76|32=4290|37=7214d5259de4|38=4290|39=2|54=1|55=RADL3|60=20250630-11:59:24.439|150=F|453=1|448=TRADER362|452=36|10=123|
8=FIX.4.4|9=206|35=8|49=SISTEMA|52=20250630-11:59:24.439|56=DROPCOPY|1=ACC009|6=14|11=198eac56fe48|14=9586|31=14|32=9586|37=259ff5abafde|38=9586|39=2|54=1|55=ITUB4|60=20250630-11:59:24.439|150=F|453=1|448=TRADER535|452=36|10=226|
8=FIX.4.4|9=212|35=8|49=SISTEMA|52=20250630-11:59:24.439|56=DROPCOPY|1=ACC004|6=19.69|11=3030567909f3|14=4145|31=19.69|32=4145|37=6fbc840747fa|38=4145|39=2|54=2|55=RADL3|60=20250630-11:59:24.439|150=F|453=1|448=TRADER586|452=36|10=145|
8=FIX.4.4|9=210|35=8|49=SISTEMA|52=20250630-11:59:24.439|56=DROPCOPY|1=ACC005|6=25.3|11=73f2551c18b9|14=1822|31=25.3|32=1822|37=b13ae3790aac|38=1822|39=2|54=1|55=BBAS3|60=20250630-11:59:24.439|150=F|453=1|448=TRADER623|452=36|10=122|
8=FIX.4.4|9=212|35=8|49=SISTEMA|52=20250630-11:59:24.439|56=DROPCOPY|1=ACC008|6=11.33|11=fa2ed68543f0|14=2234|31=11.33|32=2234|37=28fdd62ba2c3|38=2234|39=2|54=2|55=RADL3|60=20250630-11:59:24.439|150=F|453=1|448=TRADER603|452=36|10=068|
8=FIX.4.4|9=212|35=8|49=SISTEMA|52=20250630-11:59:24.439|56=DROPCOPY|1=ACC001|6=21.87|11=aac942171e0d|14=4956|31=21.87|32=4956|37=39a535fd75e5|38=4956|39=2|54=1|55=WEGE3|60=20250630-11:59:24.439|150=F|453=1|448=TRADER555|452=36|10=037|
8=FIX.4.4|9=210|35=8|49=SISTEMA|52=20250630-11:59:24.439|56=DROPCOPY|1=ACC007|6=19.3|11=2bd5b149538b|14=4825|31=19.3|32=4825|37=5482dabb150a|38=4825|39=2|54=2|55=RENT3|60=20250630-11:59:24.439|150=F|453=1|448=TRADER629|452=36|10=182|
8=FIX.4.4|9=212|35=8|49=SISTEMA|52=20250630-11:59:24.439|56=DROPCOPY|1=ACC009|6=12.57|11=e972eda0856e|14=2059|31=12.57|32=2059|37=30627bc016ef|38=2059|39=2|54=2|55=RENT3|60=20250630-11:59:24.439|150=F|453=1|448=TRADER387|452=36|10=038|
8=FIX.4.4|9=212|35=8|49=SISTEMA|52=20250630-11:59:24.439|56=DROPCOPY|1=ACC002|6=11.97|11=4935bc6ce9c3|14=4656|31=11.97|32=4656|37=ef5c1a762771|38=4656|39=2|54=2|55=RENT3|60=20250630-11:59:24.439|150=F|453=1|448=TRADER496|452=36|10=061|
8=FIX.4.4|9=212|35=8|49=SISTEMA|52=20250630-11:59:24.439|56=DROPCOPY|1=ACC005|6=14.32|11=93d50df9e0f5|14=3011|31=14.32|32=3011|37=36acb811e90a|38=3011|39=2|54=2|55=SUZB3|60=20250630-11:59:24.439|150=F|453=1|448=TRADER550|452=36|10=040|
8=FIX.4.4|9=212|35=8|49=SISTEMA|52=20250630-11:59:24.439|56=DROPCOPY|1=ACC009|6=21.12|11=ab61a9dcfd02|14=7570|31=21.12|32=7570|37=baed21091982|38=7570|39=2|54=2|55=RADL3|60=20250630-11:59:24.439|150=F|453=1|448=TRADER440|452=36|10=078|
8=FIX.4.4|9=212|35=8|49=SISTEMA|52=20250630-11:59:24.439|56=DROPCOPY|1=ACC005|6=25.02|11=52f0cdbd79e3|14=6517|31=25.02|32=6517|37=bcdb683ba14a|38=6517|39=2|54=2|55=SUZB3|60=20250630-11:59:24.439|150=F|453=1|448=TRADER963|452=36|10=223|
8=FIX.4.4|9=212|35=8|49=SISTEMA|52=20250630-11:59:24.439|56=DROPCOPY|1=ACC002|6=20.46|11=88551bc8a122|14=7902|31=20.46|32=7902|37=37d0110e7113|38=7902|39=2|54=2|55=RADL3|60=20250630-11:59:24.439|150=F|453=1|448=TRADER433|452=36|10=046|
8=FIX.4.4|9=212|35=8|49=SISTEMA|52=20250630-11:59:24.439|56=DROPCOPY|1=ACC006|6=20.62|11=0fb3565fa7f9|14=9787|31=20.62|32=9787|37=c7dbe020563a|38=9787|39=2|54=1|55=ABEV3|60=20250630-11:59:24.439|150=F|453=1|448=TRADER979|452=36|10=093|
8=FIX.4.4|9=212|35=8|49=SISTEMA|52=20250630-11:59:24.439|56=DROPCOPY|1=ACC004|6=29.93|11=fc117185b6b3|14=2029|31=29.93|32=2029|37=75b8ba0de4b6|38=2029|39=2|54=2|55=ABEV3|60=20250630-11:59:24.439|150=F|453=1|448=TRADER998|452=36|10=062|
8=FIX.4.4|9=212|35=8|49=SISTEMA|52=20250630-11:59:24.439|56=DROPCOPY|1=ACC004|6=14.09|11=4b7e9aa74686|14=8106|31=14.09|32=8106|37=f48ea3ad2ac3|38=8106|39=2|54=2|55=RADL3|60=20250630-11:59:24.439|150=F|453=1|448=TRADER457|452=36|10=103|
8=FIX.4.4|9=212|35=8|49=SISTEMA|52=20250630-11:59:24.439|56=DROPCOPY|1=ACC003|6=25.37|11=f12b68f99a37|14=5640|31=25.37|32=5640|37=240566d641fb|38=5640|39=2|54=2|55=RENT3|60=20250630-11:59:24.439|150=F|453=1|448=TRADER383|452=36|10=197|
8=FIX.4.4|9=212|35=8|49=SISTEMA|52=20250630-11:59:24.439|56=DROPCOPY|1=ACC005|6=13.39|11=76cffcd653a1|14=2153|31=13.39|32=2153|37=043b49520138|38=2153|39=2|54=2|55=ITUB4|60=20250630-11:59:24.439|150=F|453=1|448=TRADER257|452=36|10=167|
8=FIX.4.4|9=210|35=8|49=SISTEMA|52=20250630-11:59:24.439|56=DROPCOPY|1=ACC005|6=12.1|11=94185ee33940|14=2218|31=12.1|32=2218|37=bd4ad1fc3784|38=2218|39=2|54=1|55=ABEV3|60=20250630-11:59:24.439|150=F|453=1|448=TRADER547|452=36|10=088|
8=FIX.4.4|9=212|35=8|49=SISTEMA|52=20250630-11:59:24.439|56=DROPCOPY|1=ACC003|6=14.42|11=8173fd474578|14=4881|31=14.42|32=4881|37=e9d0790c9ee0|38=4881|39=2|54=2|55=RADL3|60=20250630-11:59:24.439|150=F|453=1|448=TRADER355|452=36|10=194|
8=FIX.4.4|9=212|35=8|49=SISTEMA|52=20250630-11:59:24.439|56=DROPCOPY|1=ACC008|6=19.61|11=9da9dfe6f7bf|14=7002|31=19.61|32=7002|37=a8808f1f0721|38=7002|39=2|54=2|55=BBDC4|60=20250630-11:59:24.439|150=F|453=1|448=TRADER311|452=36|10=073|
8=FIX.4.4|9=212|35=8|49=SISTEMA|52=20250630-11:59:24.439|56=DROPCOPY|1=ACC008|6=11.11|11=ce837e5761de|14=6908|31=11.11|32=6908|37=61a4c554a828|38=6908|39=2|54=2|55=PETR4|60=20250630-11:59:24.439|150=F|453=1|448=TRADER410|452=36|10=243|
8=FIX.4.4|9=212|35=8|49=SISTEMA|52=20250630-11:59:24.439|56=DROPCOPY|1=ACC007|6=27.48|11=c139b40d067b|14=9545|31=27.48|32=9545|37=3366d1877b33|38=9545|39=2|54=2|55=PETR4|60=20250630-11:59:24.439|150=F|453=1|448=TRADER745|452=36|10=178|
8=FIX.4.4|9=212|35=8|49=SISTEMA|52=20250630-11:59:24.439|56=DROPCOPY|1=ACC010|6=15.58|11=489aa3de0b82|14=9369|31=15.58|32=9369|37=8b6f0722deae|38=9369|39=2|54=1|55=RENT3|60=20250630-11:59:24.439|150=F|453=1|448=TRADER623|452=36|10=156|
8=FIX.4.4|9=212|35=8|49=SISTEMA|52=20250630-11:59:24.439|56=DROPCOPY|1=ACC008|6=28.25|11=7e2270c4b007|14=4403|31=28.25|32=4403|37=500aa8a2ce16|38=4403|39=2|54=1|55=VALE3|60=20250630-11:59:24.439|150=F|453=1|448=TRADER654|452=36|10=187|
8=FIX.4.4|9=212|35=8|49=SISTEMA|52=20250630-11:59:24.439|56=DROPCOPY|1=ACC007|6=14.62|11=8346b9456e1c|14=4156|31=14.62|32=4156|37=276e159c0e3c|38=4156|39=2|54=1|55=BBDC4|60=20250630-11:59:24.439|150=F|453=1|448=TRADER911|452=36|10=146|
8=FIX.4.4|9=211|35=8|49=SISTEMA|52=20250630-11:59:24.439|56=DROPCOPY|1=ACC001|6=18.89|11=9d8b3cf708e7|14=3818|31=18.89|32=3818|37=3aa9324a7b48|38=3818|39=2|54=1|55=PETR4|60=20250630-11:59:24.439|150=F|453=1|448=TRADER84|452=36|10=020|
8=FIX.4.4|9=212|35=8|49=SISTEMA|52=20250630-11:59:24.439|56=DROPCOPY|1=ACC010|6=21.26|11=20e4dd30b9fa|14=9102|31=21.26|32=9102|37=0c3bbed5cc9d|38=9102|39=2|54=2|55=WEGE3|60=20250630-11:59:24.439|150=F|453=1|448=TRADER581|452=36|10=214|
8=FIX.4.4|9=210|35=8|49=SISTEMA|52=20250630-11:59:24.439|56=DROPCOPY|1=ACC007|6=25.2|11=53df722d6d71|14=4877|31=25.2|32=4877|37=72beb660665b|38=4877|39=2|54=1|55=WEGE3|60=20250630-11:59:24.439|150=F|453=1|448=TRADER479|452=36|10=150|
8=FIX.4.4|9=211|35=8|49=SISTEMA|52=20250630-11:59:24.439|56=DROPCOPY|1=ACC001|6=10.06|11=703d42f6139b|14=2492|31=10.06|32=2492|37=ee94488753ad|38=2492|39=2|54=2|55=WEGE3|60=20250630-11:59:24.439|150=F|453=1|448=TRADER96|452=36|10=120|
8=FIX.4.4|9=212|35=8|49=SISTEMA|52=20250630-11:59:24.439|56=DROPCOPY|1=ACC005|6=23.35|11=5a9ed04f7247|14=9025|31=23.35|32=9025|37=4b7f6ed44125|38=9025|39=2|54=1|55=ITUB4|60=20250630-11:59:24.439|150=F|453=1|448=TRADER968|452=36|10=244|
8=FIX.4.4|9=210|35=8|49=SISTEMA|52=20250630-11:59:24.439|56=DROPCOPY|1=ACC010|6=26.9|11=edd9ac0e72db|14=3276|31=26.9|32=3276|37=d2bbb59554d0|38=3276|39=2|54=2|55=ITUB4|60=20250630-11:59:24.439|150=F|453=1|448=TRADER800|452=36|10=112|
8=FIX.4.4|9=211|35=8|49=SISTEMA|52=20250630-11:59:24.439|56=DROPCOPY|1=ACC002|6=17.04|11=45a6104bd5cf|14=2553|31=17.04|32=2553|37=d0e82683932a|38=2553|39=2|54=2|55=PETR4|60=20250630-11:59:24.439|150=F|453=1|448=TRADER26|452=36|10=168|
8=FIX.4.4|9=212|35=8|49=SISTEMA|52=20250630-11:59:24.439|56=DROPCOPY|1=ACC004|6=22.34|11=454a18c39b56|14=2713|31=22.34|32=2713|37=7333ef4d780b|38=2713|39=2|54=2|55=SUZB3|60=20250630-11:59:24.439|150=F|453=1|448=TRADER757|452=36|10=193|
8=FIX.4.4|9=210|35=8|49=SISTEMA|52=20250630-11:59:24.439|56=DROPCOPY|1=ACC002|6=19.9|11=a0cbcc92b291|14=8129|31=19.9|32=8129|37=2737f16eefc3|38=8129|39=2|54=1|55=BBDC4|60=20250630-11:59:24.439|150=F|453=1|448=TRADER619|452=36|10=250|
8=FIX.4.4|9=212|35=8|49=SISTEMA|52=20250630-11:59:24.439|56=DROPCOPY|1=ACC006|6=23.01|11=3252975bfb5b|14=4851|31=23.01|32=4851|37=e3bfde5d95fb|38=4851|39=2|54=2|55=BBDC4|60=20250630-11:59:24.439|150=F|453=1|448=TRADER273|452=36|10=124|
8=FIX.4.4|9=212|35=8|49=SISTEMA|52=20250630-11:59:24.439|56=DROPCOPY|1=ACC005|6=10.03|11=8456f5b545e2|14=7041|31=10.03|32=7041|37=a9dcd78b38a9|38=7041|39=2|54=2|55=BBDC4|60=20250630-11:59:24.439|150=F|453=1|448=TRADER942|452=36|10=226|
8=FIX.4.4|9=212|35=8|49=SISTEMA|52=20250630-11:59:24.439|56=DROPCOPY|1=ACC005|6=28.86|11=152e727dcdfc|14=5412|31=28.86|32=5412|37=568f49d49376|38=5412|39=2|54=2|55=PETR4|60=20250630-11:59:24.439|150=F|453=1|448=TRADER627|452=36|10=014|
8=FIX.4.4|9=212|35=8|49=SISTEMA|52=20250630-11:59:24.439|56=DROPCOPY|1=ACC002|6=23.79|11=30238dcca04d|14=8827|31=23.79|32=8827|37=087701c6d6b4|38=8827|39=2|54=2|55=PETR4|60=20250630-11:59:24.439|150=F|453=1|448=TRADER925|452=36|10=008|
8=FIX.4.4|9=212|35=8|49=SISTEMA|52=20250630-11:59:24.439|56=DROPCOPY|1=ACC009|6=15.19|11=f23d960366e3|14=1818|31=15.19|32=1818|37=2d39f597cdbc|38=1818|39=2|54=2|55=SUZB3|60=20250630-11:59:24.439|150=F|453=1|448=TRADER224|452=36|10=059|
8=FIX.4.4|9=212|35=8|49=SISTEMA|52=20250630-11:59:24.439|56=DROPCOPY|1=ACC006|6=20.28|11=fbb46daf8d30|14=6548|31=20.28|32=6548|37=dc6d17eddaf7|38=6548|39=2|54=1|55=SUZB3|60=20250630-11:59:24.439|150=F|453=1|448=TRADER670|452=36|10=087|
8=FIX.4.4|9=212|35=8|49=SISTEMA|52=20250630-11:59:24.439|56=DROPCOPY|1=ACC008|6=10.07|11=91dcff3561b0|14=8709|31=10.07|32=8709|37=6beaeb65b5e5|38=8709|39=2|54=1|55=SUZB3|60=20250630-11:59:24.439|150=F|453=1|448=TRADER372|452=36|10=192|
8=FIX.4.4|9=212|35=8|49=SISTEMA|52=20250630-11:59:24.439|56=DROPCOPY|1=ACC008|6=18.31|11=1ceed9b708d0|14=9164|31=18.31|32=9164|37=6dd8a24da20d|38=9164|39=2|54=2|55=BBAS3|60=20250630-11:59:24.439|150=F|453=1|448=TRADER483|452=36|10=143|
8=FIX.4.4|9=212|35=8|49=SISTEMA|52=20250630-11:59:24.439|56=DROPCOPY|1=ACC004|6=26.54|11=3aac852687bf|14=6528|31=26.54|32=6528|37=d094a2c95f73|38=6528|39=2|54=1|55=BBAS3|60=20250630-11:59:24.439|150=F|453=1|448=TRADER855|452=36|10=025|
8=FIX.4.4|9=212|35=8|49=SISTEMA|52=20250630-11:59:24.439|56=DROPCOPY|1=ACC010|6=27.22|11=b0b6bb801f2e|14=1785|31=27.22|32=1785|37=3c56d1e4bd46|38=1785|39=2|54=2|55=RADL3|60=20250630-11:59:24.439|150=F|453=1|448=TRADER728|452=36|10=099|
8=FIX.4.4|9=212|35=8|49=SISTEMA|52=20250630-11:59:24.439|56=DROPCOPY|1=ACC005|6=12.68|11=549d0562aa7c|14=9470|31=12.68|32=9470|37=f82791ee8e02|38=9470|39=2|54=2|55=ABEV3|60=20250630-11:59:24.439|150=F|453=1|448=TRADER710|452=36|10=228|
8=FIX.4.4|9=211|35=8|49=SISTEMA|52=20250630-11:59:24.439|56=DROPCOPY|1=ACC008|6=20.69|11=2b16edadf84f|14=8544|31=20.69|32=8544|37=314ba9c46306|38=8544|39=2|54=2|55=ABEV3|60=20250630-11:59:24.439|150=F|453=1|448=TRADER12|452=36|10=006|
8=FIX.4.4|9=212|35=8|49=SISTEMA|52=20250630-11:59:24.454|56=DROPCOPY|1=ACC007|6=17.21|11=bfde0bc40b6f|14=7580|31=17.21|32=7580|37=76159392ef22|38=7580|39=2|54=1|55=RADL3|60=20250630-11:59:24.454|150=F|453=1|448=TRADER820|452=36|10=050|
8=FIX.4.4|9=212|35=8|49=SISTEMA|52=20250630-11:59:24.454|56=DROPCOPY|1=ACC004|6=18.42|11=877dcec5a28a|14=5673|31=18.42|32=5673|37=dc4f8d6e5433|38=5673|39=2|54=1|55=RENT3|60=20250630-11:59:24.454|150=F|453=1|448=TRADER513|452=36|10=139|
8=FIX.4.4|9=212|35=8|49=SISTEMA|52=20250630-11:59:24.454|56=DROPCOPY|1=ACC001|6=18.62|11=b0c102fc3c46|14=4054|31=18.62|32=4054|37=67219754bb65|38=4054|39=2|54=2|55=PETR4|60=20250630-11:59:24.454|150=F|453=1|448=TRADER279|452=36|10=173|
8=FIX.4.4|9=212|35=8|49=SISTEMA|52=20250630-11:59:24.454|56=DROPCOPY|1=ACC005|6=25.58|11=5512c8f9fe53|14=2151|31=25.58|32=2151|37=5876057bf511|38=2151|39=2|54=2|55=BBAS3|60=20250630-11:59:24.454|150=F|453=1|448=TRADER235|452=36|10=101|
8=FIX.4.4|9=212|35=8|49=SISTEMA|52=20250630-11:59:24.454|56=DROPCOPY|1=ACC002|6=26.55|11=3d0c03f3b6da|14=1149|31=26.55|32=1149|37=dc14fffacb8c|38=1149|39=2|54=1|55=BBDC4|60=20250630-11:59:24.454|150=F|453=1|448=TRADER946|452=36|10=255|
8=FIX.4.4|9=212|35=8|49=SISTEMA|52=20250630-11:59:24.454|56=DROPCOPY|1=ACC004|6=21.53|11=cba14c0e106c|14=5789|31=21.53|32=5789|37=3fa68dfd7dae|38=5789|39=2|54=2|55=RADL3|60=20250630-11:59:24.454|150=F|453=1|448=TRADER142|452=36|10=251|
8=FIX.4.4|9=212|35=8|49=SISTEMA|52=20250630-11:59:24.454|56=DROPCOPY|1=ACC004|6=29.47|11=dae8dc64f94b|14=4895|31=29.47|32=4895|37=83ffa2e0f65d|38=4895|39=2|54=2|55=RADL3|60=20250630-11:59:24.454|150=F|453=1|448=TRADER859|452=36|10=255|
8=FIX.4.4|9=212|35=8|49=SISTEMA|52=20250630-11:59:24.454|56=DROPCOPY|1=ACC001|6=24.03|11=13cc6d7940cb|14=9746|31=24.03|32=9746|37=b44f5551137f|38=9746|39=2|54=2|55=ITUB4|60=20250630-11:59:24.454|150=F|453=1|448=TRADER315|452=36|10=233|
8=FIX.4.4|9=211|35=8|49=SISTEMA|52=20250630-11:59:24.454|56=DROPCOPY|1=ACC010|6=13.09|11=c8ba96e6ba07|14=9349|31=13.09|32=9349|37=89df7c1c4107|38=9349|39=2|54=1|55=WEGE3|60=20250630-11:59:24.454|150=F|453=1|448=TRADER69|452=36|10=030|
8=FIX.4.4|9=212|35=8|49=SISTEMA|52=20250630-11:59:24.454|56=DROPCOPY|1=ACC009|6=29.17|11=f627ea52c921|14=8823|31=29.17|32=8823|37=e20883efbeee|38=8823|39=2|54=2|55=BBAS3|60=20250630-11:59:24.454|150=F|453=1|448=TRADER965|452=36|10=125|
8=FIX.4.4|9=212|35=8|49=SISTEMA|52=20250630-11:59:24.454|56=DROPCOPY|1=ACC009|6=16.29|11=0b2b56ad7e20|14=2608|31=16.29|32=2608|37=799292208aab|38=2608|39=2|54=2|55=PETR4|60=20250630-11:59:24.454|150=F|453=1|448=TRADER707|452=36|10=235|
8=FIX.4.4|9=212|35=8|49=SISTEMA|52=20250630-11:59:24.454|56=DROPCOPY|1=ACC003|6=11.98|11=708d0e17b7dd|14=3193|31=11.98|32=3193|37=a35cf7faa8f4|38=3193|39=2|54=1|55=VALE3|60=20250630-11:59:24.454|150=F|453=1|448=TRADER433|452=36|10=154|
8=FIX.4.4|9=211|35=8|49=SISTEMA|52=20250630-11:59:24.454|56=DROPCOPY|1=ACC002|6=28.51|11=ab3f2a55f733|14=4736|31=28.51|32=4736|37=2e77e817f5a9|38=4736|39=2|54=1|55=ABEV3|60=20250630-11:59:24.454|150=F|453=1|448=TRADER25|452=36|10=216|
8=FIX.4.4|9=212|35=8|49=SISTEMA|52=20250630-11:59:24.454|56=DROPCOPY|1=ACC001|6=10.16|11=5301147e0e62|14=9152|31=10.16|32=9152|37=0b1c3106a87d|38=9152|39=2|54=1|55=WEGE3|60=20250630-11:59:24.454|150=F|453=1|448=TRADER618|452=36|10=081|
8=FIX.4.4|9=212|35=8|49=SISTEMA|52=20250630-11:59:24.454|56=DROPCOPY|1=ACC007|6=19.96|11=6490213d1bdb|14=7460|31=19.96|32=7460|37=4eda33135ae0|38=7460|39=2|54=1|55=RENT3|60=20250630-11:59:24.454|150=F|453=1|448=TRADER251|452=36|10=017|
