8=FIX.4.4|9=212|35=8|49=SISTEMA|52=20250630-14:30:00.207|56=DROPCOPY|1=ACC003|6=13.14|11=c3d907be6a3d|14=5983|31=13.14|32=5983|37=5610c7791ddb|38=5983|39=2|54=1|55=ABEV3|60=20250630-14:30:00.207|150=F|453=1|448=TRADER915|452=36|10=020|
8=FIX.4.4|9=212|35=8|49=SISTEMA|52=20250630-14:30:00.247|56=DROPCOPY|1=ACC004|6=13.78|11=eac4f69f85c9|14=1653|31=13.78|32=1653|37=efc41c837cf1|38=1653|39=2|54=2|55=ABEV3|60=20250630-14:30:00.247|150=F|453=1|448=TRADER638|452=36|10=137|
8=FIX.4.4|9=212|35=8|49=SISTEMA|52=20250630-14:30:00.248|56=DROPCOPY|1=ACC003|6=12.76|11=9bad7d06b045|14=3661|31=12.76|32=3661|37=ab0166b52b27|38=3661|39=2|54=1|55=ITUB4|60=20250630-14:30:00.248|150=F|453=1|448=TRADER645|452=36|10=232|
8=FIX.4.4|9=210|35=8|49=SISTEMA|52=20250630-14:30:00.248|56=DROPCOPY|1=ACC007|6=25.5|11=cdbb97cae452|14=6989|31=25.5|32=6989|37=bbee70db7d72|38=6989|39=2|54=1|55=BBAS3|60=20250630-14:30:00.248|150=F|453=1|448=TRADER862|452=36|10=148|
8=FIX.4.4|9=212|35=8|49=SISTEMA|52=20250630-14:30:00.248|56=DROPCOPY|1=ACC008|6=26.33|11=9904cecf1473|14=3455|31=26.33|32=3455|37=3c2cca57158c|38=3455|39=2|54=2|55=VALE3|60=20250630-14:30:00.248|150=F|453=1|448=TRADER418|452=36|10=240|
8=FIX.4.4|9=210|35=8|49=SISTEMA|52=20250630-14:30:00.249|56=DROPCOPY|1=ACC006|6=18.6|11=cea829bd83d5|14=6555|31=18.6|32=6555|37=53b3558fd5ac|38=6555|39=2|54=2|55=RENT3|60=20250630-14:30:00.249|150=F|453=1|448=TRADER951|452=36|10=021|
8=FIX.4.4|9=212|35=8|49=SISTEMA|52=20250630-14:30:00.249|56=DROPCOPY|1=ACC002|6=14.47|11=df491d255abb|14=8871|31=14.47|32=8871|37=1293bb538e32|38=8871|39=2|54=1|55=PETR4|60=20250630-14:30:00.249|150=F|453=1|448=TRADER217|452=36|10=013|
8=FIX.4.4|9=210|35=8|49=SISTEMA|52=20250630-14:30:00.251|56=DROPCOPY|1=ACC009|6=24.9|11=74ac44fe14bc|14=4559|31=24.9|32=4559|37=ccfc282b1e79|38=4559|39=2|54=1|55=ITUB4|60=20250630-14:30:00.251|150=F|453=1|448=TRADER893|452=36|10=055|
8=FIX.4.4|9=212|35=8|49=SISTEMA|52=20250630-14:30:00.251|56=DROPCOPY|1=ACC009|6=11.44|11=d6dc7cd668b6|14=7340|31=11.44|32=7340|37=18c4647697bf|38=7340|39=2|54=2|55=ITUB4|60=20250630-14:30:00.251|150=F|453=1|448=TRADER275|452=36|10=250|
8=FIX.4.4|9=210|35=8|49=SISTEMA|52=20250630-14:30:00.251|56=DROPCOPY|1=ACC001|6=18.5|11=1fa8f05f66b2|14=5081|31=18.5|32=5081|37=17d419e29cd9|38=5081|39=2|54=1|55=ITUB4|60=20250630-14:30:00.251|150=F|453=1|448=TRADER732|452=36|10=134|
8=FIX.4.4|9=212|35=8|49=SISTEMA|52=20250630-14:30:00.251|56=DROPCOPY|1=ACC007|6=19.96|11=df4d27db0eb6|14=6926|31=19.96|32=6926|37=2a040c290eed|38=6926|39=2|54=2|55=RENT3|60=20250630-14:30:00.251|150=F|453=1|448=TRADER288|452=36|10=160|
8=FIX.4.4|9=212|35=8|49=SISTEMA|52=20250630-14:30:00.251|56=DROPCOPY|1=ACC005|6=22.09|11=278a45d4efc5|14=2264|31=22.09|32=2264|37=7e5845e8a872|38=2264|39=2|54=2|55=VALE3|60=20250630-14:30:00.251|150=F|453=1|448=TRADER526|452=36|10=187|
8=FIX.4.4|9=212|35=8|49=SISTEMA|52=20250630-14:30:00.251|56=DROPCOPY|1=ACC008|6=19.64|11=757d425e977e|14=6223|31=19.64|32=6223|37=4e19e0124569|38=6223|39=2|54=2|55=ITUB4|60=20250630-14:30:00.251|150=F|453=1|448=TRADER258|452=36|10=071|
8=FIX.4.4|9=212|35=8|49=SISTEMA|52=20250630-14:30:00.253|56=DROPCOPY|1=ACC001|6=16.47|11=86563c267c5a|14=9368|31=16.47|32=9368|37=cb82d0f041ef|38=9368|39=2|54=2|55=BBDC4|60=20250630-14:30:00.253|150=F|453=1|448=TRADER959|452=36|10=240|
8=FIX.4.4|9=212|35=8|49=SISTEMA|52=20250630-14:30:00.253|56=DROPCOPY|1=ACC005|6=24.06|11=698ccd906e0e|14=1130|31=24.06|32=1130|37=389ff477bbcb|38=1130|39=2|54=1|55=VALE3|60=20250630-14:30:00.253|150=F|453=1|448=TRADER812|452=36|10=045|
8=FIX.4.4|9=212|35=8|49=SISTEMA|52=20250630-14:30:00.253|56=DROPCOPY|1=ACC003|6=20.39|11=963bce51f5ef|14=8997|31=20.39|32=8997|37=dced3fda1726|38=8997|39=2|54=2|55=BBAS3|60=20250630-14:30:00.253|150=F|453=1|448=TRADER679|452=36|10=208|
8=FIX.4.4|9=212|35=8|49=SISTEMA|52=20250630-14:30:00.254|56=DROPCOPY|1=ACC005|6=20.01|11=1b752a8edf93|14=2088|31=20.01|32=2088|37=3acd7bbedc31|38=2088|39=2|54=2|55=RADL3|60=20250630-14:30:00.254|150=F|453=1|448=TRADER785|452=36|10=143|
8=FIX.4.4|9=212|35=8|49=SISTEMA|52=20250630-14:30:00.254|56=DROPCOPY|1=ACC004|6=29.26|11=70ec29d108f7|14=5804|31=29.26|32=5804|37=a765690523be|38=5804|39=2|54=2|55=VALE3|60=20250630-14:30:00.254|150=F|453=1|448=TRADER467|452=36|10=153|
8=FIX.4.4|9=212|35=8|49=SISTEMA|52=20250630-14:30:00.255|56=DROPCOPY|1=ACC002|6=15.76|11=d333478e8080|14=3861|31=15.76|32=3861|37=8bc94b12ea95|38=3861|39=2|54=2|55=BBAS3|60=20250630-14:30:00.255|150=F|453=1|448=TRADER456|452=36|10=139|
8=FIX.4.4|9=212|35=8|49=SISTEMA|52=20250630-14:30:00.255|56=DROPCOPY|1=ACC001|6=14.31|11=5f55c1feecce|14=1403|31=14.31|32=1403|37=43729f628c54|38=1403|39=2|54=1|55=ITUB4|60=20250630-14:30:00.255|150=F|453=1|448=TRADER667|452=36|10=015|
8=FIX.4.4|9=212|35=8|49=SISTEMA|52=20250630-14:30:00.255|56=DROPCOPY|1=ACC005|6=17.55|11=0f2d3cc66731|14=2684|31=17.55|32=2684|37=408505333e9c|38=2684|39=2|54=2|55=BBDC4|60=20250630-14:30:00.255|150=F|453=1|448=TRADER587|452=36|10=079|
8=FIX.4.4|9=212|35=8|49=SISTEMA|52=20250630-14:30:00.255|56=DROPCOPY|1=ACC009|6=26.96|11=7c59b5b9b227|14=9845|31=26.96|32=9845|37=a0a20481c195|38=9845|39=2|54=2|55=ABEV3|60=20250630-14:30:00.255|150=F|453=1|448=TRADER383|452=36|10=169|
8=FIX.4.4|9=212|35=8|49=SISTEMA|52=20250630-14:30:00.255|56=DROPCOPY|1=ACC001|6=23.24|11=686c9b53027b|14=3969|31=23.24|32=3969|37=41e05f002e1c|38=3969|39=2|54=1|55=BBAS3|60=20250630-14:30:00.255|150=F|453=1|448=TRADER830|452=36|10=125|
8=FIX.4.4|9=212|35=8|49=SISTEMA|52=20250630-14:30:00.257|56=DROPCOPY|1=ACC007|6=25.32|11=c01095b21295|14=8429|31=25.32|32=8429|37=2db7ed678035|38=8429|39=2|54=1|55=PETR4|60=20250630-14:30:00.257|150=F|453=1|448=TRADER857|452=36|10=129|
8=FIX.4.4|9=212|35=8|49=SISTEMA|52=20250630-14:30:00.257|56=DROPCOPY|1=ACC005|6=12.28|11=a30a9f469aaf|14=7215|31=12.28|32=7215|37=79ceee16bba9|38=7215|39=2|54=1|55=VALE3|60=20250630-14:30:00.257|150=F|453=1|448=TRADER868|452=36|10=177|
8=FIX.4.4|9=212|35=8|49=SISTEMA|52=20250630-14:30:00.257|56=DROPCOPY|1=ACC005|6=17.76|11=978958d5f2bf|14=3701|31=17.76|32=3701|37=d08bc98891ab|38=3701|39=2|54=2|55=RENT3|60=20250630-14:30:00.257|150=F|453=1|448=TRADER301|452=36|10=013|
8=FIX.4.4|9=212|35=8|49=SISTEMA|52=20250630-14:30:00.257|56=DROPCOPY|1=ACC007|6=18.05|11=d46253c97eaf|14=5821|31=18.05|32=5821|37=9c42a19ca809|38=5821|39=2|54=2|55=RADL3|60=20250630-14:30:00.257|150=F|453=1|448=TRADER111|452=36|10=228|
8=FIX.4.4|9=212|35=8|49=SISTEMA|52=20250630-14:30:00.257|56=DROPCOPY|1=ACC004|6=16.62|11=df9c7a7faf2c|14=3059|31=16.62|32=3059|37=034debdbce51|38=3059|39=2|54=2|55=RENT3|60=20250630-14:30:00.257|150=F|453=1|448=TRADER769|452=36|10=035|
8=FIX.4.4|9=212|35=8|49=SISTEMA|52=20250630-14:30:00.257|56=DROPCOPY|1=ACC004|6=23.67|11=f53b8e8a7d57|14=9098|31=23.67|32=9098|37=8b14517ba8bf|38=9098|39=2|54=1|55=RENT3|60=20250630-14:30:00.257|150=F|453=1|448=TRADER245|452=36|10=087|
8=FIX.4.4|9=212|35=8|49=SISTEMA|52=20250630-14:30:00.260|56=DROPCOPY|1=ACC006|6=19.07|11=8bf60e47ab2d|14=5500|31=19.07|32=5500|37=b1bbd51c3471|38=5500|39=2|54=2|55=PETR4|60=20250630-14:30:00.260|150=F|453=1|448=TRADER122|452=36|10=047|
8=FIX.4.4|9=211|35=8|49=SISTEMA|52=20250630-14:30:00.260|56=DROPCOPY|1=ACC005|6=29.58|11=63e350b3f774|14=5361|31=29.58|32=5361|37=0d688bbddd4f|38=5361|39=2|54=1|55=BBAS3|60=20250630-14:30:00.260|150=F|453=1|448=TRADER38|452=36|10=224|
8=FIX.4.4|9=212|35=8|49=SISTEMA|52=20250630-14:30:00.261|56=DROPCOPY|1=ACC002|6=18.08|11=00dbcf5e21ca|14=3857|31=18.08|32=3857|37=b8207c91cead|38=3857|39=2|54=1|55=ABEV3|60=20250630-14:30:00.261|150=F|453=1|448=TRADER525|452=36|10=151|
8=FIX.4.4|9=212|35=8|49=SISTEMA|52=20250630-14:30:00.261|56=DROPCOPY|1=ACC006|6=23.08|11=016b4cba244d|14=2537|31=23.08|32=2537|37=a49060ad0f36|38=2537|39=2|54=1|55=RENT3|60=20250630-14:30:00.261|150=F|453=1|448=TRADER842|452=36|10=218|
8=FIX.4.4|9=210|35=8|49=SISTEMA|52=20250630-14:30:00.261|56=DROPCOPY|1=ACC004|6=12.7|11=35eae76e299f|14=4594|31=12.7|32=4594|37=381e700c520f|38=4594|39=2|54=1|55=WEGE3|60=20250630-14:30:00.261|150=F|453=1|448=TRADER843|452=36|10=093|
8=FIX.4.4|9=212|35=8|49=SISTEMA|52=20250630-14:30:00.261|56=DROPCOPY|1=ACC004|6=24.63|11=65c820ce3270|14=3304|31=24.63|32=3304|37=b68675b5ad68|38=3304|39=2|54=2|55=RADL3|60=20250630-14:30:00.261|150=F|453=1|448=TRADER771|452=36|10=114|
8=FIX.4.4|9=212|35=8|49=SISTEMA|52=20250630-14:30:00.262|56=DROPCOPY|1=ACC006|6=24.32|11=e593d7f42de1|14=3217|31=24.32|32=3217|37=3f1a42efc7d3|38=3217|39=2|54=2|55=RENT3|60=20250630-14:30:00.262|150=F|453=1|448=TRADER428|452=36|10=072|
8=FIX.4.4|9=212|35=8|49=SISTEMA|52=20250630-14:30:00.262|56=DROPCOPY|1=ACC006|6=21.85|11=1e2c624068bb|14=7751|31=21.85|32=7751|37=4ce9f2e7e066|38=7751|39=2|54=2|55=BBAS3|60=20250630-14:30:00.262|150=F|453=1|448=TRADER210|452=36|10=218|
8=FIX.4.4|9=212|35=8|49=SISTEMA|52=20250630-14:30:00.262|56=DROPCOPY|1=ACC005|6=28.65|11=f4b388f09de6|14=8376|31=28.65|32=8376|37=5ee957774634|38=8376|39=2|54=2|55=ABEV3|60=20250630-14:30:00.262|150=F|453=1|448=TRADER522|452=36|10=184|
8=FIX.4.4|9=212|35=8|49=SISTEMA|52=20250630-14:30:00.262|56=DROPCOPY|1=ACC004|6=28.92|11=fcdacc74f7ce|14=3167|31=28.92|32=3167|37=9143b61fae02|38=3167|39=2|54=2|55=BBAS3|60=20250630-14:30:00.262|150=F|453=1|448=TRADER536|452=36|10=157|
8=FIX.4.4|9=211|35=8|49=SISTEMA|52=20250630-14:30:00.262|56=DROPCOPY|1=ACC003|6=24.41|11=daa3d3a864a5|14=2508|31=24.41|32=2508|37=92872be5ed83|38=2508|39=2|54=2|55=BBAS3|60=20250630-14:30:00.262|150=F|453=1|448=TRADER89|452=36|10=205|
8=FIX.4.4|9=212|35=8|49=SISTEMA|52=20250630-14:30:00.262|56=DROPCOPY|1=ACC003|6=19.67|11=6751501089ff|14=6790|31=19.67|32=6790|37=fc484cee0634|38=6790|39=2|54=1|55=ITUB4|60=20250630-14:30:00.262|150=F|453=1|448=TRADER550|452=36|10=180|
8=FIX.4.4|9=212|35=8|49=SISTEMA|52=20250630-14:30:00.262|56=DROPCOPY|1=ACC008|6=17.63|11=ead3a135c9df|14=9393|31=17.63|32=9393|37=71daa76e987f|38=9393|39=2|54=1|55=SUZB3|60=20250630-14:30:00.262|150=F|453=1|448=TRADER995|452=36|10=193|
8=FIX.4.4|9=211|35=8|49=SISTEMA|52=20250630-14:30:00.265|56=DROPCOPY|1=ACC009|6=12.44|11=5893d01bedc6|14=2445|31=12.44|32=2445|37=f7962e53b2f6|38=2445|39=2|54=2|55=RENT3|60=20250630-14:30:00.265|150=F|453=1|448=TRADER11|452=36|10=195|
8=FIX.4.4|9=212|35=8|49=SISTEMA|52=20250630-14:30:00.265|56=DROPCOPY|1=ACC005|6=20.55|11=6a4a1510e76b|14=2789|31=20.55|32=2789|37=8c344084320f|38=2789|39=2|54=2|55=BBAS3|60=20250630-14:30:00.265|150=F|453=1|448=TRADER789|452=36|10=095|
8=FIX.4.4|9=212|35=8|49=SISTEMA|52=20250630-14:30:00.265|56=DROPCOPY|1=ACC009|6=25.61|11=f2ce5f733986|14=2192|31=25.61|32=2192|37=b426dfa1b2ff|38=2192|39=2|54=1|55=VALE3|60=20250630-14:30:00.265|150=F|453=1|448=TRADER803|452=36|10=074|
8=FIX.4.4|9=212|35=8|49=SISTEMA|52=20250630-14:30:00.265|56=DROPCOPY|1=ACC006|6=17.94|11=ccd7de8a275c|14=6187|31=17.94|32=6187|37=72626ecd05cc|38=6187|39=2|54=1|55=VALE3|60=20250630-14:30:00.265|150=F|453=1|448=TRADER503|452=36|10=147|
8=FIX.4.4|9=212|35=8|49=SISTEMA|52=20250630-14:30:00.265|56=DROPCOPY|1=ACC008|6=25.26|11=776a4825271b|14=3639|31=25.26|32=3639|37=08adbdfad049|38=3639|39=2|54=1|55=VALE3|60=20250630-14:30:00.265|150=F|453=1|448=TRADER401|452=36|10=240|
8=FIX.4.4|9=212|35=8|49=SISTEMA|52=20250630-14:30:00.265|56=DROPCOPY|1=ACC009|6=10.16|11=d717827e6714|14=6264|31=10.16|32=6264|37=de53d105d51d|38=6264|39=2|54=2|55=BBAS3|60=20250630-14:30:00.265|150=F|453=1|448=TRADER758|452=36|10=127|
8=FIX.4.4|9=212|35=8|49=SISTEMA|52=20250630-14:30:00.267|56=DROPCOPY|1=ACC001|6=17.01|11=60dbf007d5e1|14=3579|31=17.01|32=3579|37=c37fa0ce7f05|38=3579|39=2|54=2|55=RENT3|60=20250630-14:30:00.267|150=F|453=1|448=TRADER777|452=36|10=099|
8=FIX.4.4|9=212|35=8|49=SISTEMA|52=20250630-14:30:00.267|56=DROPCOPY|1=ACC003|6=10.54|11=e2d1281c4852|14=6202|31=10.54|32=6202|37=d2422a4502b2|38=6202|39=2|54=2|55=WEGE3|60=20250630-14:30:00.267|150=F|453=1|448=TRADER887|452=36|10=051|
8=FIX.4.4|9=212|35=8|49=SISTEMA|52=20250630-14:30:00.267|56=DROPCOPY|1=ACC003|6=23.18|11=2208b1f8a75f|14=9920|31=23.18|32=9920|37=6bd7c7bb35eb|38=9920|39=2|54=2|55=SUZB3|60=20250630-14:30:00.267|150=F|453=1|448=TRADER899|452=36|10=125|
8=FIX.4.4|9=212|35=8|49=SISTEMA|52=20250630-14:30:00.268|56=DROPCOPY|1=ACC005|6=19.94|11=94540ac7938b|14=8444|31=19.94|32=8444|37=bb8ce827975f|38=8444|39=2|54=1|55=RENT3|60=20250630-14:30:00.268|150=F|453=1|448=TRADER724|452=36|10=001|
8=FIX.4.4|9=212|35=8|49=SISTEMA|52=20250630-14:30:00.268|56=DROPCOPY|1=ACC001|6=11.42|11=e09f75d1b333|14=9823|31=11.42|32=9823|37=773e4ab862d0|38=9823|39=2|54=1|55=VALE3|60=20250630-14:30:00.268|150=F|453=1|448=TRADER425|452=36|10=188|
8=FIX.4.4|9=212|35=8|49=SISTEMA|52=20250630-14:30:00.269|56=DROPCOPY|1=ACC010|6=27.46|11=b1a74484b536|14=5397|31=27.46|32=5397|37=2956d18da1dc|38=5397|39=2|54=2|55=ITUB4|60=20250630-14:30:00.269|150=F|453=1|448=TRADER252|452=36|10=228|
8=FIX.4.4|9=212|35=8|49=SISTEMA|52=20250630-14:30:00.269|56=DROPCOPY|1=ACC003|6=27.57|11=43f4e034f372|14=8861|31=27.57|32=8861|37=7c1b5addf29f|38=8861|39=2|54=1|55=SUZB3|60=20250630-14:30:00.269|150=F|453=1|448=TRADER891|452=36|10=096|
8=FIX.4.4|9=212|35=8|49=SISTEMA|52=20250630-14:30:00.270|56=DROPCOPY|1=ACC008|6=21.79|11=3e1be5d96fc1|14=5820|31=21.79|32=5820|37=81e90bfde1e9|38=5820|39=2|54=2|55=BBAS3|60=20250630-14:30:00.270|150=F|453=1|448=TRADER957|452=36|10=121|
8=FIX.4.4|9=212|35=8|49=SISTEMA|52=20250630-14:30:00.270|56=DROPCOPY|1=ACC005|6=25.56|11=90d9c32d4f0d|14=3599|31=25.56|32=3599|37=2592f6ca364d|38=3599|39=2|54=2|55=BBDC4|60=20250630-14:30:00.270|150=F|453=1|448=TRADER881|452=36|10=239|
8=FIX.4.4|9=211|35=8|49=SISTEMA|52=20250630-14:30:00.271|56=DROPCOPY|1=ACC007|6=19.69|11=c2395b1273b2|14=2950|31=19.69|32=2950|37=fff0ce54028a|38=2950|39=2|54=2|55=WEGE3|60=20250630-14:30:00.271|150=F|453=1|448=TRADER24|452=36|10=183|
8=FIX.4.4|9=212|35=8|49=SISTEMA|52=20250630-14:30:00.271|56=DROPCOPY|1=ACC005|6=15.95|11=2c38ad8c95f6|14=3601|31=15.95|32=3601|37=8064d44a7e8d|38=3601|39=2|54=2|55=RENT3|60=20250630-14:30:00.271|150=F|453=1|448=TRADER537|452=36|10=254|
8=FIX.4.4|9=212|35=8|49=SISTEMA|52=20250630-14:30:00.271|56=DROPCOPY|1=ACC009|6=17.29|11=a768a5ad4f74|14=5238|31=17.29|32=5238|37=60909571ca19|38=5238|39=2|54=2|55=BBAS3|60=20250630-14:30:00.271|150=F|453=1|448=TRADER392|452=36|10=142|
8=FIX.4.4|9=212|35=8|49=SISTEMA|52=20250630-14:30:00.271|56=DROPCOPY|1=ACC004|6=21.98|11=be748f5b220c|14=9128|31=21.98|32=9128|37=a862ea6d7c2d|38=9128|39=2|54=1|55=PETR4|60=20250630-14:30:00.271|150=F|453=1|448=TRADER694|452=36|10=111|
8=FIX.4.4|9=210|35=8|49=SISTEMA|52=20250630-14:30:00.271|56=DROPCOPY|1=ACC004|6=29.8|11=cfa0fe3034ef|14=4143|31=29.8|32=4143|37=829f847c4770|38=4143|39=2|54=1|55=VALE3|60=20250630-14:30:00.271|150=F|453=1|448=TRADER376|452=36|10=136|
8=FIX.4.4|9=211|35=8|49=SISTEMA|52=20250630-14:30:00.271|56=DROPCOPY|1=ACC003|6=14.82|11=9967555773e4|14=8935|31=14.82|32=8935|37=e1c98f623bed|38=8935|39=2|54=2|55=ITUB4|60=20250630-14:30:00.271|150=F|453=1|448=TRADER92|452=36|10=147|
8=FIX.4.4|9=212|35=8|49=SISTEMA|52=20250630-14:30:00.273|56=DROPCOPY|1=ACC006|6=25.68|11=51daec1b7367|14=3951|31=25.68|32=3951|37=9563849da4c9|38=3951|39=2|54=2|55=ABEV3|60=20250630-14:30:00.273|150=F|453=1|448=TRADER632|452=36|10=203|
8=FIX.4.4|9=212|35=8|49=SISTEMA|52=20250630-14:30:00.273|56=DROPCOPY|1=ACC003|6=15.74|11=c5037f123a17|14=6328|31=15.74|32=6328|37=e8946063e311|38=6328|39=2|54=2|55=BBAS3|60=20250630-14:30:00.273|150=F|453=1|448=TRADER387|452=36|10=032|
8=FIX.4.4|9=211|35=8|49=SISTEMA|52=20250630-14:30:00.273|56=DROPCOPY|1=ACC001|6=18.31|11=6ac03f1d82ab|14=1007|31=18.31|32=1007|37=1c9da8d3347f|38=1007|39=2|54=1|55=ABEV3|60=20250630-14:30:00.273|150=F|453=1|448=TRADER50|452=36|10=220|
8=FIX.4.4|9=212|35=8|49=SISTEMA|52=20250630-14:30:00.275|56=DROPCOPY|1=ACC004|6=16.94|11=828bc6fe86ea|14=8928|31=16.94|32=8928|37=ff64ce132cef|38=8928|39=2|54=2|55=BBDC4|60=20250630-14:30:00.275|150=F|453=1|448=TRADER613|452=36|10=195|
8=FIX.4.4|9=206|35=8|49=SISTEMA|52=20250630-14:30:00.275|56=DROPCOPY|1=ACC004|6=18|11=0151534b89a9|14=3926|31=18|32=3926|37=425ea7143bdd|38=3926|39=2|54=1|55=ITUB4|60=20250630-14:30:00.275|150=F|453=1|448=TRADER134|452=36|10=113|
8=FIX.4.4|9=212|35=8|49=SISTEMA|52=20250630-14:30:00.275|56=DROPCOPY|1=ACC001|6=13.95|11=bc879ac376d6|14=9421|31=13.95|32=9421|37=532b53a5c1b1|38=9421|39=2|54=2|55=BBDC4|60=20250630-14:30:00.275|150=F|453=1|448=TRADER127|452=36|10=201|
8=FIX.4.4|9=212|35=8|49=SISTEMA|52=20250630-14:30:00.276|56=DROPCOPY|1=ACC002|6=26.97|11=89f72df0a092|14=4517|31=26.97|32=4517|37=15760f471692|38=4517|39=2|54=1|55=BBDC4|60=20250630-14:30:00.276|150=F|453=1|448=TRADER673|452=36|10=048|
8=FIX.4.4|9=212|35=8|49=SISTEMA|52=20250630-14:30:00.276|56=DROPCOPY|1=ACC001|6=16.76|11=954927bef5ba|14=8155|31=16.76|32=8155|37=e512fa78426a|38=8155|39=2|54=1|55=ITUB4|60=20250630-14:30:00.276|150=F|453=1|448=TRADER279|452=36|10=021|
8=FIX.4.4|9=212|35=8|49=SISTEMA|52=20250630-14:30:00.276|56=DROPCOPY|1=ACC008|6=11.32|11=103cafba5d11|14=3199|31=11.32|32=3199|37=59a74fe85e30|38=3199|39=2|54=1|55=RENT3|60=20250630-14:30:00.276|150=F|453=1|448=TRADER697|452=36|10=048|
8=FIX.4.4|9=212|35=8|49=SISTEMA|52=20250630-14:30:00.277|56=DROPCOPY|1=ACC010|6=17.81|11=1a897885d1fe|14=7869|31=17.81|32=7869|37=cd816c657050|38=7869|39=2|54=1|55=RENT3|60=20250630-14:30:00.277|150=F|453=1|448=TRADER896|452=36|10=225|
8=FIX.4.4|9=211|35=8|49=SISTEMA|52=20250630-14:30:00.277|56=DROPCOPY|1=ACC003|6=10.64|11=6944c84d35d0|14=3690|31=10.64|32=3690|37=a9cc6c000049|38=3690|39=2|54=2|55=WEGE3|60=20250630-14:30:00.277|150=F|453=1|448=TRADER28|452=36|10=082|
8=FIX.4.4|9=212|35=8|49=SISTEMA|52=20250630-14:30:00.277|56=DROPCOPY|1=ACC004|6=24.72|11=b6b06b3d791b|14=9143|31=24.72|32=9143|37=c50da0e019ad|38=9143|39=2|54=2|55=SUZB3|60=20250630-14:30:00.277|150=F|453=1|448=TRADER421|452=36|10=083|
8=FIX.4.4|9=212|35=8|49=SISTEMA|52=20250630-14:30:00.277|56=DROPCOPY|1=ACC001|6=21.05|11=354816457519|14=1789|31=21.05|32=1789|37=996abfd9284b|38=1789|39=2|54=1|55=WEGE3|60=20250630-14:30:00.277|150=F|453=1|448=TRADER432|452=36|10=074|
8=FIX.4.4|9=210|35=8|49=SISTEMA|52=20250630-14:30:00.277|56=DROPCOPY|1=ACC002|6=24.3|11=cdd366d79b4a|14=1223|31=24.3|32=1223|37=ff92e60944a5|38=1223|39=2|54=1|55=ABEV3|60=20250630-14:30:00.277|150=F|453=1|448=TRADER968|452=36|10=162|
8=FIX.4.4|9=212|35=8|49=SISTEMA|52=20250630-14:30:00.277|56=DROPCOPY|1=ACC003|6=20.86|11=9269bb596e68|14=7197|31=20.86|32=7197|37=9e88332e6e4e|38=7197|39=2|54=2|55=BBDC4|60=20250630-14:30:00.277|150=F|453=1|448=TRADER901|452=36|10=171|
8=FIX.4.4|9=212|35=8|49=SISTEMA|52=20250630-14:30:00.280|56=DROPCOPY|1=ACC004|6=13.29|11=aed2461d4b3e|14=9772|31=13.29|32=9772|37=4194f7c61fcb|38=9772|39=2|54=1|55=ITUB4|60=20250630-14:30:00.280|150=F|453=1|448=TRADER236|452=36|10=099|
8=FIX.4.4|9=212|35=8|49=SISTEMA|52=20250630-14:30:00.280|56=DROPCOPY|1=ACC009|6=29.44|11=1b14e75696cb|14=3120|31=29.44|32=3120|37=ef196e9b0bb6|38=3120|39=2|54=1|55=BBDC4|60=20250630-14:30:00.280|150=F|453=1|448=TRADER298|452=36|10=241|
8=FIX.4.4|9=212|35=8|49=SISTEMA|52=20250630-14:30:00.280|56=DROPCOPY|1=ACC008|6=22.64|11=f6a7f38406c1|14=6963|31=22.64|32=6963|37=7c506352cbce|38=6963|39=2|54=1|55=RADL3|60=20250630-14:30:00.280|150=F|453=1|448=TRADER568|452=36|10=250|
8=FIX.4.4|9=212|35=8|49=SISTEMA|52=20250630-14:30:00.281|56=DROPCOPY|1=ACC005|6=22.36|11=65e1f29dd5d2|14=3742|31=22.36|32=3742|37=10afe790aec2|38=3742|39=2|54=2|55=BBDC4|60=20250630-14:30:00.281|150=F|453=1|448=TRADER134|452=36|10=028|
8=FIX.4.4|9=212|35=8|49=SISTEMA|52=20250630-14:30:00.282|56=DROPCOPY|1=ACC008|6=24.05|11=b87908933861|14=3491|31=24.05|32=3491|37=435e46cb1c85|38=3491|39=2|54=2|55=BBAS3|60=20250630-14:30:00.282|150=F|453=1|448=TRADER765|452=36|10=042|
8=FIX.4.4|9=212|35=8|49=SISTEMA|52=20250630-14:30:00.283|56=DROPCOPY|1=ACC005|6=26.51|11=288a247609c8|14=8488|31=26.51|32=8488|37=44a651c49d78|38=8488|39=2|54=1|55=SUZB3|60=20250630-14:30:00.283|150=F|453=1|448=TRADER251|452=36|10=114|
8=FIX.4.4|9=212|35=8|49=SISTEMA|52=20250630-14:30:00.284|56=DROPCOPY|1=ACC004|6=15.81|11=09952b34153c|14=5092|31=15.81|32=5092|37=4f33a6584e0f|38=5092|39=2|54=2|55=RADL3|60=20250630-14:30:00.284|150=F|453=1|448=TRADER776|452=36|10=092|
8=FIX.4.4|9=212|35=8|49=SISTEMA|52=20250630-14:30:00.284|56=DROPCOPY|1=ACC002|6=10.88|11=366b375b446a|14=5543|31=10.88|32=5543|37=cf8ccfbb8cff|38=5543|39=2|54=2|55=BBDC4|60=20250630-14:30:00.284|150=F|453=1|448=TRADER365|452=36|10=156|
8=FIX.4.4|9=206|35=8|49=SISTEMA|52=20250630-14:30:00.284|56=DROPCOPY|1=ACC003|6=27|11=9c18c1b4e8e4|14=5358|31=27|32=5358|37=bb2dc5eb7075|38=5358|39=2|54=2|55=WEGE3|60=20250630-14:30:00.284|150=F|453=1|448=TRADER299|452=36|10=058|
8=FIX.4.4|9=212|35=8|49=SISTEMA|52=20250630-14:30:00.284|56=DROPCOPY|1=ACC008|6=24.91|11=80b78e7de88f|14=6971|31=24.91|32=6971|37=dbe8a62448f9|38=6971|39=2|54=2|55=WEGE3|60=20250630-14:30:00.284|150=F|453=1|448=TRADER773|452=36|10=087|
8=FIX.4.4|9=212|35=8|49=SISTEMA|52=20250630-14:30:00.285|56=DROPCOPY|1=ACC010|6=19.13|11=f4d8be514ca0|14=5376|31=19.13|32=5376|37=f585deb6d37c|38=5376|39=2|54=1|55=ITUB4|60=20250630-14:30:00.285|150=F|453=1|448=TRADER758|452=36|10=157|
8=FIX.4.4|9=211|35=8|49=SISTEMA|52=20250630-14:30:00.285|56=DROPCOPY|1=ACC004|6=27.56|11=729d8749ba41|14=4934|31=27.56|32=4934|37=4aa00e0d4270|38=4934|39=2|54=1|55=PETR4|60=20250630-14:30:00.285|150=F|453=1|448=TRADER12|452=36|10=111|
8=FIX.4.4|9=212|35=8|49=SISTEMA|52=20250630-14:30:00.286|56=DROPCOPY|1=ACC001|6=11.68|11=569036c4073b|14=8583|31=11.68|32=8583|37=12f75ba79d23|38=8583|39=2|54=1|55=WEGE3|60=20250630-14:30:00.286|150=F|453=1|448=TRADER764|452=36|10=120|
8=FIX.4.4|9=210|35=8|49=SISTEMA|52=20250630-14:30:00.286|56=DROPCOPY|1=ACC002|6=21.2|11=790113986296|14=6301|31=21.2|32=6301|37=8c81e295d769|38=6301|39=2|54=1|55=RADL3|60=20250630-14:30:00.286|150=F|453=1|448=TRADER396|452=36|10=098|
8=FIX.4.4|9=212|35=8|49=SISTEMA|52=20250630-14:30:00.286|56=DROPCOPY|1=ACC009|6=18.35|11=82698e461881|14=7223|31=18.35|32=7223|37=26092b6b682b|38=7223|39=2|54=2|55=VALE3|60=20250630-14:30:00.286|150=F|453=1|448=TRADER361|452=36|10=014|
8=FIX.4.4|9=212|35=8|49=SISTEMA|52=20250630-14:30:00.286|56=DROPCOPY|1=ACC004|6=14.96|11=4a064eeabac6|14=2909|31=14.96|32=2909|37=564ea879bb98|38=2909|39=2|54=2|55=BBDC4|60=20250630-14:30:00.286|150=F|453=1|448=TRADER400|452=36|10=070|
8=FIX.4.4|9=212|35=8|49=SISTEMA|52=20250630-14:30:00.286|56=DROPCOPY|1=ACC003|6=14.52|11=167dd0ef0c44|14=7856|31=14.52|32=7856|37=babd596f193b|38=7856|39=2|54=2|55=VALE3|60=20250630-14:30:00.286|150=F|453=1|448=TRADER225|452=36|10=094|
8=FIX.4.4|9=212|35=8|49=SISTEMA|52=20250630-14:30:00.286|56=DROPCOPY|1=ACC007|6=25.95|11=cef474f90afa|14=8683|31=25.95|32=8683|37=6f1b344a3648|38=8683|39=2|54=2|55=RADL3|60=20250630-14:30:00.286|150=F|453=1|448=TRADER960|452=36|10=072|
8=FIX.4.4|9=212|35=8|49=SISTEMA|52=20250630-14:30:00.286|56=DROPCOPY|1=ACC001|6=24.01|11=4b3b2013861e|14=3316|31=24.01|32=3316|37=39ac6806d670|38=3316|39=2|54=1|55=VALE3|60=20250630-14:30:00.286|150=F|453=1|448=TRADER673|452=36|10=061|
8=FIX.4.4|9=212|35=8|49=SISTEMA|52=20250630-14:30:00.288|56=DROPCOPY|1=ACC004|6=22.23|11=558ac138a963|14=9635|31=22.23|32=9635|37=72b18fa1a6f8|38=9635|39=2|54=1|55=VALE3|60=20250630-14:30:00.288|150=F|453=1|448=TRADER269|452=36|10=211|
8=FIX.4.4|9=212|35=8|49=SISTEMA|52=20250630-14:30:00.288|56=DROPCOPY|1=ACC007|6=18.16|11=2dcd795d25c3|14=8967|31=18.16|32=8967|37=3dfbb357f3f4|38=8967|39=2|54=2|55=WEGE3|60=20250630-14:30:00.288|150=F|453=1|448=TRADER723|452=36|10=133|
8=FIX.4.4|9=212|35=8|49=SISTEMA|52=20250630-14:30:00.288|56=DROPCOPY|1=ACC003|6=22.74|11=fdc5580f186d|14=3676|31=22.74|32=3676|37=e77da907acc4|38=3676|39=2|54=1|55=PETR4|60=20250630-14:30:00.288|150=F|453=1|448=TRADER547|452=36|10=131|
8=FIX.4.4|9=212|35=8|49=SISTEMA|52=20250630-14:30:00.289|56=DROPCOPY|1=ACC008|6=21.86|11=f239c897b163|14=1090|31=21.86|32=1090|37=2a58fab494ea|38=1090|39=2|54=1|55=RADL3|60=20250630-14:30:00.289|150=F|453=1|448=TRADER566|452=36|10=242|
8=FIX.4.4|9=212|35=8|49=SISTEMA|52=20250630-14:30:00.289|56=DROPCOPY|1=ACC005|6=27.15|11=7f9e82244ebc|14=6211|31=27.15|32=6211|37=e9af96bddac6|38=6211|39=2|54=1|55=VALE3|60=20250630-14:30:00.289|150=F|453=1|448=TRADER637|452=36|10=181|
8=FIX.4.4|9=212|35=8|49=SISTEMA|52=20250630-14:30:00.289|56=DROPCOPY|1=ACC006|6=10.67|11=80127b718b03|14=6237|31=10.67|32=6237|37=a8cc1804b8c6|38=6237|39=2|54=1|55=BBAS3|60=20250630-14:30:00.289|150=F|453=1|448=TRADER946|452=36|10=134|
8=FIX.4.4|9=210|35=8|49=SISTEMA|52=20250630-14:30:00.289|56=DROPCOPY|1=ACC005|6=12.2|11=496a32d8b089|14=2672|31=12.2|32=2672|37=dc164914b453|38=2672|39=2|54=1|55=BBAS3|60=20250630-14:30:00.289|150=F|453=1|448=TRADER627|452=36|10=232|
8=FIX.4.4|9=212|35=8|49=SISTEMA|52=20250630-14:30:00.289|56=DROPCOPY|1=ACC009|6=11.15|11=37b64841a21b|14=7054|31=11.15|32=7054|37=ea55808a46ab|38=7054|39=2|54=1|55=ITUB4|60=20250630-14:30:00.289|150=F|453=1|448=TRADER880|452=36|10=192|
8=FIX.4.4|9=212|35=8|49=SISTEMA|52=20250630-14:30:00.289|56=DROPCOPY|1=ACC008|6=18.25|11=33c616a8d2b7|14=9873|31=18.25|32=9873|37=49de671db534|38=9873|39=2|54=2|55=WEGE3|60=20250630-14:30:00.289|150=F|453=1|448=TRADER969|452=36|10=249|
8=FIX.4.4|9=212|35=8|49=SISTEMA|52=20250630-14:30:00.289|56=DROPCOPY|1=ACC008|6=25.03|11=87486b6d767d|14=8331|31=25.03|32=8331|37=ec11ce7a15d9|38=8331|39=2|54=1|55=WEGE3|60=20250630-14:30:00.289|150=F|453=1|448=TRADER199|452=36|10=001|
8=FIX.4.4|9=212|35=8|49=SISTEMA|52=20250630-14:30:00.291|56=DROPCOPY|1=ACC003|6=12.11|11=2a40803b6e4c|14=3943|31=12.11|32=3943|37=7a6b612689d3|38=3943|39=2|54=1|55=WEGE3|60=20250630-14:30:00.291|150=F|453=1|448=TRADER812|452=36|10=115|
8=FIX.4.4|9=212|35=8|49=SISTEMA|52=20250630-14:30:00.291|56=DROPCOPY|1=ACC010|6=14.49|11=60d0b6d53c1b|14=4705|31=14.49|32=4705|37=40ad26defaa4|38=4705|39=2|54=1|55=WEGE3|60=20250630-14:30:00.291|150=F|453=1|448=TRADER996|452=36|10=108|
8=FIX.4.4|9=212|35=8|49=SISTEMA|52=20250630-14:30:00.292|56=DROPCOPY|1=ACC008|6=13.16|11=32d8b2814e8b|14=8438|31=13.16|32=8438|37=420cea4c450e|38=8438|39=2|54=2|55=VALE3|60=20250630-14:30:00.292|150=F|453=1|448=TRADER768|452=36|10=245|
8=FIX.4.4|9=212|35=8|49=SISTEMA|52=20250630-14:30:00.292|56=DROPCOPY|1=ACC009|6=18.67|11=686a1df86a71|14=6155|31=18.67|32=6155|37=a33f622af568|38=6155|39=2|54=2|55=RENT3|60=20250630-14:30:00.292|150=F|453=1|448=TRADER957|452=36|10=238|
8=FIX.4.4|9=212|35=8|49=SISTEMA|52=20250630-14:30:00.292|56=DROPCOPY|1=ACC001|6=15.77|11=4c6aa461d3aa|14=2492|31=15.77|32=2492|37=c9677c82bab8|38=2492|39=2|54=2|55=RENT3|60=20250630-14:30:00.292|150=F|453=1|448=TRADER624|452=36|10=094|
8=FIX.4.4|9=211|35=8|49=SISTEMA|52=20250630-14:30:00.292|56=DROPCOPY|1=ACC001|6=10.97|11=4d49206092eb|14=2822|31=10.97|32=2822|37=0ef63cf5ab91|38=2822|39=2|54=1|55=VALE3|60=20250630-14:30:00.292|150=F|453=1|448=TRADER82|452=36|10=171|
8=FIX.4.4|9=212|35=8|49=SISTEMA|52=20250630-14:30:00.293|56=DROPCOPY|1=ACC001|6=25.05|11=9a1c5661a608|14=2242|31=25.05|32=2242|37=67c6b22b7cdb|38=2242|39=2|54=2|55=ABEV3|60=20250630-14:30:00.293|150=F|453=1|448=TRADER906|452=36|10=195|
8=FIX.4.4|9=210|35=8|49=SISTEMA|52=20250630-14:30:00.293|56=DROPCOPY|1=ACC009|6=18.6|11=3d999e1c7685|14=4081|31=18.6|32=4081|37=7858e412e197|38=4081|39=2|54=2|55=PETR4|60=20250630-14:30:00.293|150=F|453=1|448=TRADER470|452=36|10=248|
8=FIX.4.4|9=211|35=8|49=SISTEMA|52=20250630-14:30:00.294|56=DROPCOPY|1=ACC010|6=25.14|11=2a77fcc1d93e|14=6833|31=25.14|32=6833|37=d19bcbbb3e4e|38=6833|39=2|54=1|55=ITUB4|60=20250630-14:30:00.294|150=F|453=1|448=TRADER44|452=36|10=177|
8=FIX.4.4|9=212|35=8|49=SISTEMA|52=20250630-14:30:00.294|56=DROPCOPY|1=ACC003|6=22.49|11=5948950538eb|14=2161|31=22.49|32=2161|37=77ca598b695f|38=2161|39=2|54=1|55=ABEV3|60=20250630-14:30:00.294|150=F|453=1|448=TRADER774|452=36|10=105|
8=FIX.4.4|9=212|35=8|49=SISTEMA|52=20250630-14:30:00.294|56=DROPCOPY|1=ACC007|6=25.09|11=b016b44c71a6|14=4424|31=25.09|32=4424|37=389347d5cbcf|38=4424|39=2|54=1|55=VALE3|60=20250630-14:30:00.294|150=F|453=1|448=TRADER738|452=36|10=236|
8=FIX.4.4|9=212|35=8|49=SISTEMA|52=20250630-14:30:00.294|56=DROPCOPY|1=ACC009|6=29.65|11=624038ef36db|14=3810|31=29.65|32=3810|37=00eb3870b188|38=3810|39=2|54=2|55=ABEV3|60=20250630-14:30:00.294|150=F|453=1|448=TRADER221|452=36|10=125|
8=FIX.4.4|9=206|35=8|49=SISTEMA|52=20250630-14:30:00.294|56=DROPCOPY|1=ACC010|6=28|11=b5147d2dbfb2|14=8036|31=28|32=8036|37=4d1e3e99dd0a|38=8036|39=2|54=2|55=WEGE3|60=20250630-14:30:00.294|150=F|453=1|448=TRADER769|452=36|10=091|
8=FIX.4.4|9=212|35=8|49=SISTEMA|52=20250630-14:30:00.296|56=DROPCOPY|1=ACC004|6=13.54|11=99b6eaaa5613|14=7489|31=13.54|32=7489|37=44cd4dc4cbc8|38=7489|39=2|54=1|55=WEGE3|60=20250630-14:30:00.296|150=F|453=1|448=TRADER830|452=36|10=155|
8=FIX.4.4|9=212|35=8|49=SISTEMA|52=20250630-14:30:00.296|56=DROPCOPY|1=ACC009|6=24.73|11=af5edeb6e024|14=7236|31=24.73|32=7236|37=302fd84ad560|38=7236|39=2|54=2|55=RENT3|60=20250630-14:30:00.296|150=F|453=1|448=TRADER180|452=36|10=097|
8=FIX.4.4|9=212|35=8|49=SISTEMA|52=20250630-14:30:00.296|56=DROPCOPY|1=ACC007|6=25.82|11=18d209615cac|14=9329|31=25.82|32=9329|37=8201f976c661|38=9329|39=2|54=1|55=RENT3|60=20250630-14:30:00.296|150=F|453=1|448=TRADER891|452=36|10=146|
8=FIX.4.4|9=212|35=8|49=SISTEMA|52=20250630-14:30:00.296|56=DROPCOPY|1=ACC003|6=28.05|11=78ecee94903c|14=2037|31=28.05|32=2037|37=bc26330f1aa3|38=2037|39=2|54=1|55=RADL3|60=20250630-14:30:00.296|150=F|453=1|448=TRADER670|452=36|10=008|
8=FIX.4.4|9=212|35=8|49=SISTEMA|52=20250630-14:30:00.296|56=DROPCOPY|1=ACC001|6=20.77|11=cc565742cbca|14=5247|31=20.77|32=5247|37=1828bf38149d|38=5247|39=2|54=2|55=ABEV3|60=20250630-14:30:00.296|150=F|453=1|448=TRADER868|452=36|10=247|
8=FIX.4.4|9=212|35=8|49=SISTEMA|52=20250630-14:30:00.296|56=DROPCOPY|1=ACC008|6=17.48|11=1c29c50e1137|14=9203|31=17.48|32=9203|37=dd5ed67f8301|38=9203|39=2|54=2|55=ITUB4|60=20250630-14:30:00.296|150=F|453=1|448=TRADER327|452=36|10=208|
8=FIX.4.4|9=211|35=8|49=SISTEMA|52=20250630-14:30:00.296|56=DROPCOPY|1=ACC005|6=18.04|11=345606db92e2|14=3416|31=18.04|32=3416|37=cbdef1b000fe|38=3416|39=2|54=1|55=BBDC4|60=20250630-14:30:00.296|150=F|453=1|448=TRADER93|452=36|10=233|
8=FIX.4.4|9=212|35=8|49=SISTEMA|52=20250630-14:30:00.296|56=DROPCOPY|1=ACC009|6=18.89|11=a8d84bbf501d|14=6706|31=18.89|32=6706|37=d69803b9cc0b|38=6706|39=2|54=1|55=SUZB3|60=20250630-14:30:00.296|150=F|453=1|448=TRADER173|452=36|10=138|
8=FIX.4.4|9=212|35=8|49=SISTEMA|52=20250630-14:30:00.296|56=DROPCOPY|1=ACC001|6=29.71|11=0e3f778c1674|14=4796|31=29.71|32=4796|37=e6f8a3237d6f|38=4796|39=2|54=1|55=SUZB3|60=20250630-14:30:00.296|150=F|453=1|448=TRADER950|452=36|10=016|
8=FIX.4.4|9=210|35=8|49=SISTEMA|52=20250630-14:30:00.296|56=DROPCOPY|1=ACC007|6=19.1|11=3a32ba1a7d31|14=4129|31=19.1|32=4129|37=9b6a9b8b5f6f|38=4129|39=2|54=1|55=ITUB4|60=20250630-14:30:00.296|150=F|453=1|448=TRADER159|452=36|10=241|
8=FIX.4.4|9=211|35=8|49=SISTEMA|52=20250630-14:30:00.298|56=DROPCOPY|1=ACC010|6=13.68|11=ad7d3f3daedc|14=4878|31=13.68|32=4878|37=5b4e81aa8e6e|38=4878|39=2|54=2|55=RENT3|60=20250630-14:30:00.298|150=F|453=1|448=TRADER56|452=36|10=021|
8=FIX.4.4|9=212|35=8|49=SISTEMA|52=20250630-14:30:00.299|56=DROPCOPY|1=ACC004|6=19.61|11=7de5cd172799|14=3680|31=19.61|32=3680|37=d2aecb8ce446|38=3680|39=2|54=1|55=WEGE3|60=20250630-14:30:00.299|150=F|453=1|448=TRADER658|452=36|10=111|
8=FIX.4.4|9=212|35=8|49=SISTEMA|52=20250630-14:30:00.299|56=DROPCOPY|1=ACC010|6=24.08|11=f22d5bac30e8|14=6271|31=24.08|32=6271|37=b45a82fcd4ea|38=6271|39=2|54=2|55=ITUB4|60=20250630-14:30:00.299|150=F|453=1|448=TRADER705|452=36|10=178|
8=FIX.4.4|9=212|35=8|49=SISTEMA|52=20250630-14:30:00.299|56=DROPCOPY|1=ACC001|6=17.98|11=cb4a0ff3680e|14=8632|31=17.98|32=8632|37=e0bc1e784c9d|38=8632|39=2|54=1|55=BBAS3|60=20250630-14:30:00.299|150=F|453=1|448=TRADER499|452=36|10=150|
8=FIX.4.4|9=212|35=8|49=SISTEMA|52=20250630-14:30:00.299|56=DROPCOPY|1=ACC003|6=28.08|11=8d9e64acd6e4|14=2403|31=28.08|32=2403|37=259b3acde338|38=2403|39=2|54=2|55=WEGE3|60=20250630-14:30:00.299|150=F|453=1|448=TRADER534|452=36|10=079|
8=FIX.4.4|9=212|35=8|49=SISTEMA|52=20250630-14:30:00.299|56=DROPCOPY|1=ACC002|6=16.11|11=e203527eb659|14=6749|31=16.11|32=6749|37=263b802180bd|38=6749|39=2|54=1|55=WEGE3|60=20250630-14:30:00.299|150=F|453=1|448=TRADER851|452=36|10=110|
8=FIX.4.4|9=212|35=8|49=SISTEMA|52=20250630-14:30:00.299|56=DROPCOPY|1=ACC001|6=24.54|11=2206d54768eb|14=4317|31=24.54|32=4317|37=db76b0b7e1f5|38=4317|39=2|54=2|55=BBAS3|60=20250630-14:30:00.299|150=F|453=1|448=TRADER879|452=36|10=236|
8=FIX.4.4|9=212|35=8|49=SISTEMA|52=20250630-14:30:00.299|56=DROPCOPY|1=ACC002|6=14.99|11=553df9883128|14=4736|31=14.99|32=4736|37=93840e4a91a0|38=4736|39=2|54=1|55=PETR4|60=20250630-14:30:00.299|150=F|453=1|448=TRADER612|452=36|10=105|
8=FIX.4.4|9=212|35=8|49=SISTEMA|52=20250630-14:30:00.299|56=DROPCOPY|1=ACC010|6=16.94|11=459a34ce80f8|14=8951|31=16.94|32=8951|37=c1c2958400eb|38=8951|39=2|54=1|55=SUZB3|60=20250630-14:30:00.299|150=F|453=1|448=TRADER758|452=36|10=005|
8=FIX.4.4|9=211|35=8|49=SISTEMA|52=20250630-14:30:00.299|56=DROPCOPY|1=ACC002|6=13.25|11=1149312273e3|14=6588|31=13.25|32=6588|37=ba1b155bfa56|38=6588|39=2|54=2|55=BBAS3|60=20250630-14:30:00.299|150=F|453=1|448=TRADER88|452=36|10=092|
8=FIX.4.4|9=212|35=8|49=SISTEMA|52=20250630-14:30:00.299|56=DROPCOPY|1=ACC005|6=24.47|11=bb23887dd3ac|14=4276|31=24.47|32=4276|37=80326a3f0301|38=4276|39=2|54=2|55=ITUB4|60=20250630-14:30:00.299|150=F|453=1|448=TRADER221|452=36|10=200|
8=FIX.4.4|9=212|35=8|49=SISTEMA|52=20250630-14:30:00.301|56=DROPCOPY|1=ACC009|6=29.26|11=0c0c534ba99a|14=8645|31=29.26|32=8645|37=012f0a5ebcf2|38=8645|39=2|54=1|55=BBAS3|60=20250630-14:30:00.301|150=F|453=1|448=TRADER455|452=36|10=048|
8=FIX.4.4|9=210|35=8|49=SISTEMA|52=20250630-14:30:00.302|56=DROPCOPY|1=ACC005|6=29.5|11=6ab1c2d2117f|14=9471|31=29.5|32=9471|37=52530c572d46|38=9471|39=2|54=1|55=RADL3|60=20250630-14:30:00.302|150=F|453=1|448=TRADER465|452=36|10=021|
8=FIX.4.4|9=212|35=8|49=SISTEMA|52=20250630-14:30:00.302|56=DROPCOPY|1=ACC010|6=18.79|11=f26d82f9c8d1|14=3258|31=18.79|32=3258|37=c0fb7707a76e|38=3258|39=2|54=1|55=RENT3|60=20250630-14:30:00.302|150=F|453=1|448=TRADER429|452=36|10=062|
8=FIX.4.4|9=212|35=8|49=SISTEMA|52=20250630-14:30:00.302|56=DROPCOPY|1=ACC003|6=13.34|11=4de36dcc2054|14=7174|31=13.34|32=7174|37=aec18504cfcf|38=7174|39=2|54=2|55=VALE3|60=20250630-14:30:00.302|150=F|453=1|448=TRADER261|452=36|10=091|
8=FIX.4.4|9=211|35=8|49=SISTEMA|52=20250630-14:30:00.302|56=DROPCOPY|1=ACC006|6=28.06|11=f9b3bf88e61c|14=7670|31=28.06|32=7670|37=3bff2f2a23d2|38=7670|39=2|54=2|55=RADL3|60=20250630-14:30:00.302|150=F|453=1|448=TRADER12|452=36|10=057|
8=FIX.4.4|9=212|35=8|49=SISTEMA|52=20250630-14:30:00.302|56=DROPCOPY|1=ACC005|6=16.01|11=c5b519ab51c3|14=6424|31=16.01|32=6424|37=2067141d1803|38=6424|39=2|54=1|55=ITUB4|60=20250630-14:30:00.302|150=F|453=1|448=TRADER591|452=36|10=053|
8=FIX.4.4|9=212|35=8|49=SISTEMA|52=20250630-14:30:00.302|56=DROPCOPY|1=ACC009|6=21.57|11=a4e0916ac7be|14=1989|31=21.57|32=1989|37=e316638bd5c5|38=1989|39=2|54=1|55=VALE3|60=20250630-14:30:00.302|150=F|453=1|448=TRADER107|452=36|10=038|
8=FIX.4.4|9=211|35=8|49=SISTEMA|52=20250630-14:30:00.304|56=DROPCOPY|1=ACC007|6=25.89|11=709f25f949b0|14=3756|31=25.89|32=3756|37=8ef88a771e98|38=3756|39=2|54=1|55=RADL3|60=20250630-14:30:00.304|150=F|453=1|448=TRADER97|452=36|10=143|
8=FIX.4.4|9=210|35=8|49=SISTEMA|52=20250630-14:30:00.304|56=DROPCOPY|1=ACC001|6=22.9|11=aebfaa797774|14=9361|31=22.9|32=9361|37=96ef60921378|38=9361|39=2|54=1|55=ABEV3|60=20250630-14:30:00.304|150=F|453=1|448=TRADER782|452=36|10=091|
8=FIX.4.4|9=212|35=8|49=SISTEMA|52=20250630-14:30:00.304|56=DROPCOPY|1=ACC006|6=10.01|11=974b4e14001d|14=4784|31=10.01|32=4784|37=9a98ca82e4ba|38=4784|39=2|54=1|55=RENT3|60=20250630-14:30:00.304|150=F|453=1|448=TRADER468|452=36|10=235|
8=FIX.4.4|9=210|35=8|49=SISTEMA|52=20250630-14:30:00.304|56=DROPCOPY|1=ACC004|6=10.8|11=60bf6c355a12|14=8161|31=10.8|32=8161|37=e3d98ee1e8f9|38=8161|39=2|54=2|55=ITUB4|60=20250630-14:30:00.304|150=F|453=1|448=TRADER912|452=36|10=181|
8=FIX.4.4|9=212|35=8|49=SISTEMA|52=20250630-14:30:00.304|56=DROPCOPY|1=ACC007|6=11.17|11=7ed12c673779|14=4639|31=11.17|32=4639|37=ec78e5152ab9|38=4639|39=2|54=1|55=RENT3|60=20250630-14:30:00.304|150=F|453=1|448=TRADER852|452=36|10=218|
8=FIX.4.4|9=212|35=8|49=SISTEMA|52=20250630-14:30:00.304|56=DROPCOPY|1=ACC002|6=18.38|11=93632bfaddc9|14=1259|31=18.38|32=1259|37=888b54b9c60e|38=1259|39=2|54=2|55=BBDC4|60=20250630-14:30:00.304|150=F|453=1|448=TRADER337|452=36|10=010|
8=FIX.4.4|9=212|35=8|49=SISTEMA|52=20250630-14:30:00.304|56=DROPCOPY|1=ACC007|6=12.65|11=c5a70c6c7a5f|14=3302|31=12.65|32=3302|37=9c5fe7bfc754|38=3302|39=2|54=1|55=WEGE3|60=20250630-14:30:00.304|150=F|453=1|448=TRADER829|452=36|10=102|
8=FIX.4.4|9=212|35=8|49=SISTEMA|52=20250630-14:30:00.305|56=DROPCOPY|1=ACC010|6=15.66|11=b230183ba6a6|14=5394|31=15.66|32=5394|37=a1382b149037|38=5394|39=2|54=2|55=RADL3|60=20250630-14:30:00.305|150=F|453=1|448=TRADER764|452=36|10=074|
8=FIX.4.4|9=212|35=8|49=SISTEMA|52=20250630-14:30:00.306|56=DROPCOPY|1=ACC003|6=28.48|11=dafd962ce0e7|14=6763|31=28.48|32=6763|37=9d5f5d578c13|38=6763|39=2|54=2|55=ABEV3|60=20250630-14:30:00.306|150=F|453=1|448=TRADER898|452=36|10=112|
8=FIX.4.4|9=211|35=8|49=SISTEMA|52=20250630-14:30:00.306|56=DROPCOPY|1=ACC007|6=14.42|11=7a21a47ce2e4|14=9515|31=14.42|32=9515|37=a7577fba178f|38=9515|39=2|54=2|55=BBDC4|60=20250630-14:30:00.306|150=F|453=1|448=TRADER72|452=36|10=201|
8=FIX.4.4|9=211|35=8|49=SISTEMA|52=20250630-14:30:00.306|56=DROPCOPY|1=ACC009|6=19.48|11=b47d314b2e26|14=6544|31=19.48|32=6544|37=f3ec10e6ddfd|38=6544|39=2|54=1|55=RADL3|60=20250630-14:30:00.306|150=F|453=1|448=TRADER55|452=36|10=074|
8=FIX.4.4|9=212|35=8|49=SISTEMA|52=20250630-14:30:00.306|56=DROPCOPY|1=ACC007|6=15.49|11=4a6873728d22|14=5879|31=15.49|32=5879|37=445c7a952929|38=5879|39=2|54=1|55=VALE3|60=20250630-14:30:00.306|150=F|453=1|448=TRADER856|452=36|10=056|
8=FIX.4.4|9=212|35=8|49=SISTEMA|52=20250630-14:30:00.306|56=DROPCOPY|1=ACC009|6=21.47|11=de71d3858715|14=7165|31=21.47|32=7165|37=49fe89429406|38=7165|39=2|54=2|55=RADL3|60=20250630-14:30:00.306|150=F|453=1|448=TRADER150|452=36|10=059|
8=FIX.4.4|9=212|35=8|49=SISTEMA|52=20250630-14:30:00.306|56=DROPCOPY|1=ACC008|6=12.03|11=6d51294cfeed|14=1293|31=12.03|32=1293|37=ff9ed5ca097b|38=1293|39=2|54=2|55=BBAS3|60=20250630-14:30:00.306|150=F|453=1|448=TRADER949|452=36|10=150|
8=FIX.4.4|9=212|35=8|49=SISTEMA|52=20250630-14:30:00.307|56=DROPCOPY|1=ACC002|6=27.25|11=b10f99192107|14=3805|31=27.25|32=3805|37=03919a784a6d|38=3805|39=2|54=1|55=RADL3|60=20250630-14:30:00.307|150=F|453=1|448=TRADER227|452=36|10=029|
8=FIX.4.4|9=212|35=8|49=SISTEMA|52=20250630-14:30:00.307|56=DROPCOPY|1=ACC003|6=23.65|11=49e8cdba5953|14=1611|31=23.65|32=1611|37=1e1f429858cb|38=1611|39=2|54=2|55=ABEV3|60=20250630-14:30:00.307|150=F|453=1|448=TRADER297|452=36|10=216|
8=FIX.4.4|9=212|35=8|49=SISTEMA|52=20250630-14:30:00.307|56=DROPCOPY|1=ACC001|6=16.88|11=42468bd55c21|14=3418|31=16.88|32=3418|37=62c9290b4884|38=3418|39=2|54=2|55=BBAS3|60=20250630-14:30:00.307|150=F|453=1|448=TRADER192|452=36|10=036|
8=FIX.4.4|9=212|35=8|49=SISTEMA|52=20250630-14:30:00.307|56=DROPCOPY|1=ACC010|6=16.73|11=c76c81a17792|14=3144|31=16.73|32=3144|37=eb2bd4d62d0e|38=3144|39=2|54=2|55=VALE3|60=20250630-14:30:00.307|150=F|453=1|448=TRADER520|452=36|10=255|
8=FIX.4.4|9=210|35=8|49=SISTEMA|52=20250630-14:30:00.307|56=DROPCOPY|1=ACC003|6=23.9|11=88140c08eb22|14=1013|31=23.9|32=1013|37=483a7036681f|38=1013|39=2|54=2|55=BBDC4|60=20250630-14:30:00.307|150=F|453=1|448=TRADER434|452=36|10=125|
8=FIX.4.4|9=212|35=8|49=SISTEMA|52=20250630-14:30:00.307|56=DROPCOPY|1=ACC009|6=20.41|11=292872cfa903|14=5914|31=20.41|32=5914|37=3fcecc162716|38=5914|39=2|54=2|55=RADL3|60=20250630-14:30:00.307|150=F|453=1|448=TRADER780|452=36|10=174|
8=FIX.4.4|9=210|35=8|49=SISTEMA|52=20250630-14:30:00.309|56=DROPCOPY|1=ACC008|6=15.2|11=b475deaf507d|14=9913|31=15.2|32=9913|37=ccac325546e8|38=9913|39=2|54=2|55=VALE3|60=20250630-14:30:00.309|150=F|453=1|448=TRADER631|452=36|10=234|
8=FIX.4.4|9=212|35=8|49=SISTEMA|52=20250630-14:30:00.309|56=DROPCOPY|1=ACC010|6=26.41|11=4daf14fcac81|14=2849|31=26.41|32=2849|37=9a599ed53594|38=2849|39=2|54=1|55=RADL3|60=20250630-14:30:00.309|150=F|453=1|448=TRADER371|452=36|10=041|
8=FIX.4.4|9=212|35=8|49=SISTEMA|52=20250630-14:30:00.309|56=DROPCOPY|1=ACC007|6=18.34|11=7b9f46740846|14=6308|31=18.34|32=6308|37=34e718d08b62|38=6308|39=2|54=1|55=BBAS3|60=20250630-14:30:00.309|150=F|453=1|448=TRADER552|452=36|10=044|
8=FIX.4.4|9=212|35=8|49=SISTEMA|52=20250630-14:30:00.309|56=DROPCOPY|1=ACC007|6=27.04|11=39d9dbbfa69e|14=5394|31=27.04|32=5394|37=9f64188f3540|38=5394|39=2|54=1|55=BBAS3|60=20250630-14:30:00.309|150=F|453=1|448=TRADER926|452=36|10=254|
8=FIX.4.4|9=212|35=8|49=SISTEMA|52=20250630-14:30:00.309|56=DROPCOPY|1=ACC009|6=28.31|11=d773015d38ac|14=6123|31=28.31|32=6123|37=0c551f572211|38=6123|39=2|54=1|55=BBAS3|60=20250630-14:30:00.309|150=F|453=1|448=TRADER875|452=36|10=054|
8=FIX.4.4|9=212|35=8|49=SISTEMA|52=20250630-14:30:00.309|56=DROPCOPY|1=ACC009|6=13.19|11=ee7e3c246fc5|14=5965|31=13.19|32=5965|37=3b528ec6ad34|38=5965|39=2|54=1|55=SUZB3|60=20250630-14:30:00.309|150=F|453=1|448=TRADER932|452=36|10=131|
8=FIX.4.4|9=212|35=8|49=SISTEMA|52=20250630-14:30:00.309|56=DROPCOPY|1=ACC009|6=29.48|11=f8be389ed829|14=7435|31=29.48|32=7435|37=e87ba405fb63|38=7435|39=2|54=1|55=BBDC4|60=20250630-14:30:00.309|150=F|453=1|448=TRADER980|452=36|10=048|
8=FIX.4.4|9=212|35=8|49=SISTEMA|52=20250630-14:30:00.309|56=DROPCOPY|1=ACC007|6=26.59|11=8887147a1072|14=1857|31=26.59|32=1857|37=f3a8e6a1d7b2|38=1857|39=2|54=1|55=ABEV3|60=20250630-14:30:00.309|150=F|453=1|448=TRADER644|452=36|10=159|
8=FIX.4.4|9=212|35=8|49=SISTEMA|52=20250630-14:30:00.310|56=DROPCOPY|1=ACC006|6=15.66|11=66767126cd48|14=7468|31=15.66|32=7468|37=2b99026c977b|38=7468|39=2|54=1|55=WEGE3|60=20250630-14:30:00.310|150=F|453=1|448=TRADER606|452=36|10=076|
8=FIX.4.4|9=212|35=8|49=SISTEMA|52=20250630-14:30:00.310|56=DROPCOPY|1=ACC001|6=19.03|11=10d95593e60c|14=3677|31=19.03|32=3677|37=4928795969de|38=3677|39=2|54=1|55=SUZB3|60=20250630-14:30:00.310|150=F|453=1|448=TRADER257|452=36|10=094|
8=FIX.4.4|9=211|35=8|49=SISTEMA|52=20250630-14:30:00.311|56=DROPCOPY|1=ACC001|6=15.62|11=ff7f29253c50|14=5162|31=15.62|32=5162|37=5eec3f2c2f6e|38=5162|39=2|54=2|55=RENT3|60=20250630-14:30:00.311|150=F|453=1|448=TRADER55|452=36|10=018|
8=FIX.4.4|9=212|35=8|49=SISTEMA|52=20250630-14:30:00.311|56=DROPCOPY|1=ACC007|6=29.87|11=7f79022abca7|14=2548|31=29.87|32=2548|37=e0ccd300e0b4|38=2548|39=2|54=2|55=PETR4|60=20250630-14:30:00.311|150=F|453=1|448=TRADER315|452=36|10=085|
8=FIX.4.4|9=210|35=8|49=SISTEMA|52=20250630-14:30:00.311|56=DROPCOPY|1=ACC002|6=14.4|11=ea0722bfa2e8|14=5600|31=14.4|32=5600|37=c4f90e0a93b0|38=5600|39=2|54=1|55=RENT3|60=20250630-14:30:00.311|150=F|453=1|448=TRADER237|452=36|10=186|
8=FIX.4.4|9=212|35=8|49=SISTEMA|52=20250630-14:30:00.311|56=DROPCOPY|1=ACC008|6=12.72|11=d761c4df26d9|14=3740|31=12.72|32=3740|37=37ddf4ae9851|38=3740|39=2|54=1|55=RENT3|60=20250630-14:30:00.311|150=F|453=1|448=TRADER754|452=36|10=035|
8=FIX.4.4|9=212|35=8|49=SISTEMA|52=20250630-14:30:00.311|56=DROPCOPY|1=ACC002|6=16.38|11=2f3d0e762957|14=6893|31=16.38|32=6893|37=2bec8c03fee7|38=6893|39=2|54=2|55=RADL3|60=20250630-14:30:00.311|150=F|453=1|448=TRADER476|452=36|10=049|
8=FIX.4.4|9=212|35=8|49=SISTEMA|52=20250630-14:30:00.311|56=DROPCOPY|1=ACC007|6=10.42|11=42b42516755c|14=3714|31=10.42|32=3714|37=73a9e86be47e|38=3714|39=2|54=1|55=PETR4|60=20250630-14:30:00.311|150=F|453=1|448=TRADER449|452=36|10=138|
8=FIX.4.4|9=211|35=8|49=SISTEMA|52=20250630-14:30:00.311|56=DROPCOPY|1=ACC006|6=21.22|11=b01461fa800e|14=5269|31=21.22|32=5269|37=267aeb2fdd70|38=5269|39=2|54=1|55=BBDC4|60=20250630-14:30:00.311|150=F|453=1|448=TRADER43|452=36|10=167|
8=FIX.4.4|9=212|35=8|49=SISTEMA|52=20250630-14:30:00.312|56=DROPCOPY|1=ACC003|6=20.81|11=be6417235539|14=3347|31=20.81|32=3347|37=a74b4a6dabef|38=3347|39=2|54=1|55=RENT3|60=20250630-14:30:00.312|150=F|453=1|448=TRADER193|452=36|10=018|
8=FIX.4.4|9=210|35=8|49=SISTEMA|52=20250630-14:30:00.312|56=DROPCOPY|1=ACC004|6=18.9|11=34034669cc5a|14=9594|31=18.9|32=9594|37=ed83728405ac|38=9594|39=2|54=2|55=RENT3|60=20250630-14:30:00.312|150=F|453=1|448=TRADER521|452=36|10=075|
8=FIX.4.4|9=210|35=8|49=SISTEMA|52=20250630-14:30:00.312|56=DROPCOPY|1=ACC006|6=23.6|11=82f72d403ced|14=5205|31=23.6|32=5205|37=cb09a5df7cf0|38=5205|39=2|54=1|55=RADL3|60=20250630-14:30:00.312|150=F|453=1|448=TRADER644|452=36|10=238|
8=FIX.4.4|9=212|35=8|49=SISTEMA|52=20250630-14:30:00.312|56=DROPCOPY|1=ACC006|6=19.58|11=43d3da855d35|14=3245|31=19.58|32=3245|37=4d7c9a8ac11d|38=3245|39=2|54=1|55=PETR4|60=20250630-14:30:00.312|150=F|453=1|448=TRADER432|452=36|10=035|
8=FIX.4.4|9=210|35=8|49=SISTEMA|52=20250630-14:30:00.313|56=DROPCOPY|1=ACC002|6=11.22|11=a758440676bc|14=6656|31=11.22|32=6656|37=6e53a3cef456|38=6656|39=2|54=1|55=SUZB3|60=20250630-14:30:00.313|150=F|453=1|448=TRADER5|452=36|10=102|
8=FIX.4.4|9=212|35=8|49=SISTEMA|52=20250630-14:30:00.313|56=DROPCOPY|1=ACC001|6=26.35|11=6080baca9aa8|14=1134|31=26.35|32=1134|37=20cad5f486e7|38=1134|39=2|54=1|55=VALE3|60=20250630-14:30:00.313|150=F|453=1|448=TRADER704|452=36|10=029|
8=FIX.4.4|9=212|35=8|49=SISTEMA|52=20250630-14:30:00.313|56=DROPCOPY|1=ACC008|6=18.05|11=af6c56c55211|14=6087|31=18.05|32=6087|37=200304ae17fd|38=6087|39=2|54=1|55=RADL3|60=20250630-14:30:00.313|150=F|453=1|448=TRADER239|452=36|10=164|
8=FIX.4.4|9=212|35=8|49=SISTEMA|52=20250630-14:30:00.313|56=DROPCOPY|1=ACC001|6=17.17|11=9bf2dbb5ed2f|14=1616|31=17.17|32=1616|37=ad09172839b4|38=1616|39=2|54=2|55=SUZB3|60=20250630-14:30:00.313|150=F|453=1|448=TRADER399|452=36|10=091|
8=FIX.4.4|9=212|35=8|49=SISTEMA|52=20250630-14:30:00.313|56=DROPCOPY|1=ACC003|6=19.05|11=2970257602f1|14=5945|31=19.05|32=5945|37=945caac99bcc|38=5945|39=2|54=2|55=BBAS3|60=20250630-14:30:00.313|150=F|453=1|448=TRADER181|452=36|10=175|
8=FIX.4.4|9=212|35=8|49=SISTEMA|52=20250630-14:30:00.313|56=DROPCOPY|1=ACC009|6=20.93|11=f03fb9dedaa2|14=1768|31=20.93|32=1768|37=131673e3317e|38=1768|39=2|54=2|55=RENT3|60=20250630-14:30:00.313|150=F|453=1|448=TRADER688|452=36|10=050|
8=FIX.4.4|9=212|35=8|49=SISTEMA|52=20250630-14:30:00.313|56=DROPCOPY|1=ACC001|6=26.36|11=1c4ad50dd667|14=4894|31=26.36|32=4894|37=dfc2fa9103a8|38=4894|39=2|54=2|55=SUZB3|60=20250630-14:30:00.313|150=F|453=1|448=TRADER122|452=36|10=100|
8=FIX.4.4|9=212|35=8|49=SISTEMA|52=20250630-14:30:00.315|56=DROPCOPY|1=ACC010|6=17.31|11=342289f3b345|14=4678|31=17.31|32=4678|37=95ea5968a4ed|38=4678|39=2|54=2|55=BBAS3|60=20250630-14:30:00.315|150=F|453=1|448=TRADER181|452=36|10=143|
8=FIX.4.4|9=212|35=8|49=SISTEMA|52=20250630-14:30:00.315|56=DROPCOPY|1=ACC006|6=21.29|11=546de71140f7|14=3992|31=21.29|32=3992|37=5621a03ea01d|38=3992|39=2|54=1|55=WEGE3|60=20250630-14:30:00.315|150=F|453=1|448=TRADER887|452=36|10=140|
8=FIX.4.4|9=212|35=8|49=SISTEMA|52=20250630-14:30:00.315|56=DROPCOPY|1=ACC008|6=18.07|11=2e2d97423630|14=3515|31=18.07|32=3515|37=faab7a3bb979|38=3515|39=2|54=1|55=ABEV3|60=20250630-14:30:00.315|150=F|453=1|448=TRADER922|452=36|10=213|
8=FIX.4.4|9=210|35=8|49=SISTEMA|52=20250630-14:30:00.315|56=DROPCOPY|1=ACC009|6=24.4|11=eed05cbace7a|14=3918|31=24.4|32=3918|37=addda85dca79|38=3918|39=2|54=1|55=ITUB4|60=20250630-14:30:00.315|150=F|453=1|448=TRADER225|452=36|10=011|
8=FIX.4.4|9=211|35=8|49=SISTEMA|52=20250630-14:30:00.315|56=DROPCOPY|1=ACC001|6=17.27|11=641f7033c79f|14=5668|31=17.27|32=5668|37=8da79cd4cf95|38=5668|39=2|54=2|55=VALE3|60=20250630-14:30:00.315|150=F|453=1|448=TRADER56|452=36|10=222|
8=FIX.4.4|9=212|35=8|49=SISTEMA|52=20250630-14:30:00.315|56=DROPCOPY|1=ACC004|6=13.75|11=be03ab57097c|14=9334|31=13.75|32=9334|37=b45e367c460c|38=9334|39=2|54=2|55=RADL3|60=20250630-14:30:00.315|150=F|453=1|448=TRADER806|452=36|10=226|
8=FIX.4.4|9=212|35=8|49=SISTEMA|52=20250630-14:30:00.315|56=DROPCOPY|1=ACC008|6=21.41|11=e6325e953db0|14=5964|31=21.41|32=5964|37=721fe38198a1|38=5964|39=2|54=2|55=RENT3|60=20250630-14:30:00.315|150=F|453=1|448=TRADER303|452=36|10=156|
8=FIX.4.4|9=212|35=8|49=SISTEMA|52=20250630-14:30:00.315|56=DROPCOPY|1=ACC010|6=19.28|11=1d1e992aa663|14=4457|31=19.28|32=4457|37=8a6b6ad834fb|38=4457|39=2|54=2|55=VALE3|60=20250630-14:30:00.315|150=F|453=1|448=TRADER983|452=36|10=044|
8=FIX.4.4|9=212|35=8|49=SISTEMA|52=20250630-14:30:00.315|56=DROPCOPY|1=ACC003|6=21.31|11=191baa447445|14=2266|31=21.31|32=2266|37=3384a3110d79|38=2266|39=2|54=1|55=PETR4|60=20250630-14:30:00.315|150=F|453=1|448=TRADER117|452=36|10=020|
8=FIX.4.4|9=211|35=8|49=SISTEMA|52=20250630-14:30:00.315|56=DROPCOPY|1=ACC006|6=20.21|11=a7aaae35c8b7|14=6936|31=20.21|32=6936|37=f7ba942fb03c|38=6936|39=2|54=2|55=BBAS3|60=20250630-14:30:00.315|150=F|453=1|448=TRADER71|452=36|10=088|
8=FIX.4.4|9=212|35=8|49=SISTEMA|52=20250630-14:30:00.315|56=DROPCOPY|1=ACC010|6=21.38|11=b18cab62700e|14=8078|31=21.38|32=8078|37=4f19565c49ee|38=8078|39=2|54=2|55=BBAS3|60=20250630-14:30:00.315|150=F|453=1|448=TRADER600|452=36|10=219|
8=FIX.4.4|9=212|35=8|49=SISTEMA|52=20250630-14:30:00.315|56=DROPCOPY|1=ACC004|6=21.92|11=c867f86b6ed2|14=3956|31=21.92|32=3956|37=1eaf5b3b9cec|38=3956|39=2|54=2|55=WEGE3|60=20250630-14:30:00.315|150=F|453=1|448=TRADER330|452=36|10=183|
8=FIX.4.4|9=212|35=8|49=SISTEMA|52=20250630-14:30:00.315|56=DROPCOPY|1=ACC003|6=21.72|11=411b150d97e1|14=5604|31=21.72|32=5604|37=3196b012d38c|38=5604|39=2|54=2|55=VALE3|60=20250630-14:30:00.315|150=F|453=1|448=TRADER799|452=36|10=067|
8=FIX.4.4|9=212|35=8|49=SISTEMA|52=20250630-14:30:00.315|56=DROPCOPY|1=ACC009|6=29.77|11=c6876c0fd323|14=8532|31=29.77|32=8532|37=740b55455c90|38=8532|39=2|54=2|55=ITUB4|60=20250630-14:30:00.315|150=F|453=1|448=TRADER811|452=36|10=124|
8=FIX.4.4|9=211|35=8|49=SISTEMA|52=20250630-14:30:00.317|56=DROPCOPY|1=ACC005|6=28.86|11=0dd26ead6d19|14=8586|31=28.86|32=8586|37=accd4e672fff|38=8586|39=2|54=1|55=RADL3|60=20250630-14:30:00.317|150=F|453=1|448=TRADER27|452=36|10=207|
8=FIX.4.4|9=212|35=8|49=SISTEMA|52=20250630-14:30:00.317|56=DROPCOPY|1=ACC002|6=11.99|11=66e85c196bb6|14=4167|31=11.99|32=4167|37=e873fc15b50e|38=4167|39=2|54=1|55=ITUB4|60=20250630-14:30:00.317|150=F|453=1|448=TRADER109|452=36|10=007|
8=FIX.4.4|9=212|35=8|49=SISTEMA|52=20250630-14:30:00.317|56=DROPCOPY|1=ACC007|6=27.79|11=c80969043c30|14=8290|31=27.79|32=8290|37=f536eb2c5c71|38=8290|39=2|54=2|55=SUZB3|60=20250630-14:30:00.317|150=F|453=1|448=TRADER241|452=36|10=185|
8=FIX.4.4|9=212|35=8|49=SISTEMA|52=20250630-14:30:00.317|56=DROPCOPY|1=ACC006|6=10.39|11=760a493b9c0a|14=7985|31=10.39|32=7985|37=80d0bd46b641|38=7985|39=2|54=1|55=BBDC4|60=20250630-14:30:00.317|150=F|453=1|448=TRADER249|452=36|10=179|
8=FIX.4.4|9=210|35=8|49=SISTEMA|52=20250630-14:30:00.317|56=DROPCOPY|1=ACC010|6=24.4|11=0a1764d45bde|14=8618|31=24.4|32=8618|37=b6992aa87228|38=8618|39=2|54=1|55=BBDC4|60=20250630-14:30:00.317|150=F|453=1|448=TRADER195|452=36|10=066|
8=FIX.4.4|9=212|35=8|49=SISTEMA|52=20250630-14:30:00.317|56=DROPCOPY|1=ACC002|6=23.21|11=c6d08108f1c7|14=8008|31=23.21|32=8008|37=852397cef3f5|38=8008|39=2|54=1|55=BBDC4|60=20250630-14:30:00.317|150=F|453=1|448=TRADER833|452=36|10=148|
8=FIX.4.4|9=212|35=8|49=SISTEMA|52=20250630-14:30:00.317|56=DROPCOPY|1=ACC006|6=25.52|11=3111b9ed25d3|14=1506|31=25.52|32=1506|37=1e5ddeef13ae|38=1506|39=2|54=2|55=ABEV3|60=20250630-14:30:00.317|150=F|453=1|448=TRADER789|452=36|10=093|
8=FIX.4.4|9=212|35=8|49=SISTEMA|52=20250630-14:30:00.317|56=DROPCOPY|1=ACC009|6=23.13|11=81c0ecd6d3db|14=5057|31=23.13|32=5057|37=2b1a909a7dde|38=5057|39=2|54=1|55=VALE3|60=20250630-14:30:00.317|150=F|453=1|448=TRADER786|452=36|10=158|
8=FIX.4.4|9=212|35=8|49=SISTEMA|52=20250630-14:30:00.320|56=DROPCOPY|1=ACC007|6=14.07|11=702f26010f91|14=3681|31=14.07|32=3681|37=46e7f19cc1d6|38=3681|39=2|54=2|55=RENT3|60=20250630-14:30:00.320|150=F|453=1|448=TRADER130|452=36|10=129|
8=FIX.4.4|9=210|35=8|49=SISTEMA|52=20250630-14:30:00.320|56=DROPCOPY|1=ACC010|6=12.4|11=975de67eb349|14=5329|31=12.4|32=5329|37=d9a1a6c69799|38=5329|39=2|54=1|55=RENT3|60=20250630-14:30:00.320|150=F|453=1|448=TRADER224|452=36|10=105|
8=FIX.4.4|9=212|35=8|49=SISTEMA|52=20250630-14:30:00.320|56=DROPCOPY|1=ACC009|6=29.18|11=1d11c38482ab|14=2528|31=29.18|32=2528|37=9138c0dc1454|38=2528|39=2|54=2|55=VALE3|60=20250630-14:30:00.320|150=F|453=1|448=TRADER170|452=36|10=119|
8=FIX.4.4|9=212|35=8|49=SISTEMA|52=20250630-14:30:00.320|56=DROPCOPY|1=ACC009|6=24.97|11=6523d9295f38|14=8426|31=24.97|32=8426|37=85735af1a4a6|38=8426|39=2|54=1|55=RENT3|60=20250630-14:30:00.320|150=F|453=1|448=TRADER822|452=36|10=131|
8=FIX.4.4|9=211|35=8|49=SISTEMA|52=20250630-14:30:00.320|56=DROPCOPY|1=ACC007|6=16.91|11=6c902f485cf5|14=7839|31=16.91|32=7839|37=72595d9842a0|38=7839|39=2|54=1|55=WEGE3|60=20250630-14:30:00.320|150=F|453=1|448=TRADER10|452=36|10=066|
8=FIX.4.4|9=212|35=8|49=SISTEMA|52=20250630-14:30:00.320|56=DROPCOPY|1=ACC006|6=11.45|11=872c81e3c9c7|14=5222|31=11.45|32=5222|37=d9a0d3436052|38=5222|39=2|54=1|55=BBAS3|60=20250630-14:30:00.320|150=F|453=1|448=TRADER332|452=36|10=080|
8=FIX.4.4|9=212|35=8|49=SISTEMA|52=20250630-14:30:00.320|56=DROPCOPY|1=ACC006|6=28.35|11=854cc8837950|14=8132|31=28.35|32=8132|37=bb92b0f1cb33|38=8132|39=2|54=1|55=BBDC4|60=20250630-14:30:00.320|150=F|453=1|448=TRADER399|452=36|10=150|
8=FIX.4.4|9=212|35=8|49=SISTEMA|52=20250630-14:30:00.320|56=DROPCOPY|1=ACC002|6=24.97|11=6b119da84fd4|14=9575|31=24.97|32=9575|37=dbfe86f357ef|38=9575|39=2|54=1|55=BBDC4|60=20250630-14:30:00.320|150=F|453=1|448=TRADER347|452=36|10=134|
8=FIX.4.4|9=212|35=8|49=SISTEMA|52=20250630-14:30:00.320|56=DROPCOPY|1=ACC001|6=13.91|11=f9f722aa4827|14=6501|31=13.91|32=6501|37=694340471d25|38=6501|39=2|54=1|55=ITUB4|60=20250630-14:30:00.320|150=F|453=1|448=TRADER661|452=36|10=026|
8=FIX.4.4|9=212|35=8|49=SISTEMA|52=20250630-14:30:00.320|56=DROPCOPY|1=ACC008|6=23.26|11=8e6e402f28c0|14=5063|31=23.26|32=5063|37=a6bdab13e544|38=5063|39=2|54=2|55=BBDC4|60=20250630-14:30:00.320|150=F|453=1|448=TRADER267|452=36|10=222|
8=FIX.4.4|9=210|35=8|49=SISTEMA|52=20250630-14:30:00.322|56=DROPCOPY|1=ACC010|6=13.1|11=05ab73966746|14=6389|31=13.1|32=6389|37=ec89d845ad1c|38=6389|39=2|54=2|55=PETR4|60=20250630-14:30:00.322|150=F|453=1|448=TRADER344|452=36|10=113|
8=FIX.4.4|9=212|35=8|49=SISTEMA|52=20250630-14:30:00.322|56=DROPCOPY|1=ACC009|6=13.23|11=5391845f1858|14=6554|31=13.23|32=6554|37=07cc4d7eb0ab|38=6554|39=2|54=2|55=SUZB3|60=20250630-14:30:00.322|150=F|453=1|448=TRADER594|452=36|10=214|
8=FIX.4.4|9=211|35=8|49=SISTEMA|52=20250630-14:30:00.322|56=DROPCOPY|1=ACC001|6=15.42|11=20ff02a2a792|14=4795|31=15.42|32=4795|37=b5c4b97dc9b4|38=4795|39=2|54=1|55=ITUB4|60=20250630-14:30:00.322|150=F|453=1|448=TRADER84|452=36|10=243|
8=FIX.4.4|9=212|35=8|49=SISTEMA|52=20250630-14:30:00.322|56=DROPCOPY|1=ACC008|6=19.47|11=7f1463347a62|14=3591|31=19.47|32=3591|37=e004d05ebc49|38=3591|39=2|54=2|55=BBDC4|60=20250630-14:30:00.322|150=F|453=1|448=TRADER579|452=36|10=120|
8=FIX.4.4|9=212|35=8|49=SISTEMA|52=20250630-14:30:00.322|56=DROPCOPY|1=ACC009|6=16.02|11=3a76820fe05f|14=6693|31=16.02|32=6693|37=a9aa5afb030a|38=6693|39=2|54=1|55=PETR4|60=20250630-14:30:00.322|150=F|453=1|448=TRADER413|452=36|10=073|
8=FIX.4.4|9=212|35=8|49=SISTEMA|52=20250630-14:30:00.322|56=DROPCOPY|1=ACC002|6=24.35|11=0e4a85c0f176|14=6791|31=24.35|32=6791|37=c4c61b51b1c4|38=6791|39=2|54=1|55=RADL3|60=20250630-14:30:00.322|150=F|453=1|448=TRADER272|452=36|10=213|
8=FIX.4.4|9=212|35=8|49=SISTEMA|52=20250630-14:30:00.322|56=DROPCOPY|1=ACC004|6=16.62|11=6cca7ba8eef7|14=8444|31=16.62|32=8444|37=ca2e73c1bb87|38=8444|39=2|54=2|55=ABEV3|60=20250630-14:30:00.322|150=F|453=1|448=TRADER693|452=36|10=212|
8=FIX.4.4|9=212|35=8|49=SISTEMA|52=20250630-14:30:00.322|56=DROPCOPY|1=ACC001|6=25.44|11=accf361e024f|14=3189|31=25.44|32=3189|37=c02c5406282c|38=3189|39=2|54=2|55=PETR4|60=20250630-14:30:00.322|150=F|453=1|448=TRADER413|452=36|10=228|
8=FIX.4.4|9=212|35=8|49=SISTEMA|52=20250630-14:30:00.322|56=DROPCOPY|1=ACC006|6=10.51|11=581c61708707|14=5905|31=10.51|32=5905|37=2cfb4f6af296|38=5905|39=2|54=1|55=BBDC4|60=20250630-14:30:00.322|150=F|453=1|448=TRADER301|452=36|10=090|
8=FIX.4.4|9=212|35=8|49=SISTEMA|52=20250630-14:30:00.322|56=DROPCOPY|1=ACC007|6=11.11|11=a694b776a54f|14=7092|31=11.11|32=7092|37=e04463336081|38=7092|39=2|54=2|55=ITUB4|60=20250630-14:30:00.322|150=F|453=1|448=TRADER794|452=36|10=039|
8=FIX.4.4|9=212|35=8|49=SISTEMA|52=20250630-14:30:00.322|56=DROPCOPY|1=ACC010|6=21.76|11=d1dc5bf865d1|14=2269|31=21.76|32=2269|37=0a3bfec22f85|38=2269|39=2|54=2|55=RADL3|60=20250630-14:30:00.322|150=F|453=1|448=TRADER547|452=36|10=109|
8=FIX.4.4|9=212|35=8|49=SISTEMA|52=20250630-14:30:00.322|56=DROPCOPY|1=ACC003|6=26.66|11=fc20f1ddfa6a|14=3143|31=26.66|32=3143|37=314bd49f8603|38=3143|39=2|54=2|55=WEGE3|60=20250630-14:30:00.322|150=F|453=1|448=TRADER428|452=36|10=048|
8=FIX.4.4|9=212|35=8|49=SISTEMA|52=20250630-14:30:00.322|56=DROPCOPY|1=ACC010|6=29.64|11=6cff04e59d99|14=4614|31=29.64|32=4614|37=e664ff64a5f2|38=4614|39=2|54=2|55=SUZB3|60=20250630-14:30:00.322|150=F|453=1|448=TRADER743|452=36|10=073|
8=FIX.4.4|9=212|35=8|49=SISTEMA|52=20250630-14:30:00.322|56=DROPCOPY|1=ACC006|6=26.74|11=365ebbb0a79d|14=5802|31=26.74|32=5802|37=8856c85eaf7b|38=5802|39=2|54=2|55=RADL3|60=20250630-14:30:00.322|150=F|453=1|448=TRADER895|452=36|10=084|
8=FIX.4.4|9=212|35=8|49=SISTEMA|52=20250630-14:30:00.325|56=DROPCOPY|1=ACC010|6=16.53|11=85941af649ad|14=3077|31=16.53|32=3077|37=44c9487fed57|38=3077|39=2|54=1|55=BBDC4|60=20250630-14:30:00.325|150=F|453=1|448=TRADER394|452=36|10=179|
8=FIX.4.4|9=212|35=8|49=SISTEMA|52=20250630-14:30:00.325|56=DROPCOPY|1=ACC010|6=22.94|11=8117187aa5c3|14=3520|31=22.94|32=3520|37=66697a06b851|38=3520|39=2|54=1|55=BBAS3|60=20250630-14:30:00.325|150=F|453=1|448=TRADER939|452=36|10=014|
8=FIX.4.4|9=212|35=8|49=SISTEMA|52=20250630-14:30:00.325|56=DROPCOPY|1=ACC009|6=20.55|11=44c2756a3270|14=6773|31=20.55|32=6773|37=af28ce6f0751|38=6773|39=2|54=1|55=RENT3|60=20250630-14:30:00.325|150=F|453=1|448=TRADER356|452=36|10=164|
8=FIX.4.4|9=212|35=8|49=SISTEMA|52=20250630-14:30:00.325|56=DROPCOPY|1=ACC010|6=27.18|11=f021ed41c7d9|14=5440|31=27.18|32=5440|37=703d0b2898f7|38=5440|39=2|54=2|55=BBAS3|60=20250630-14:30:00.325|150=F|453=1|448=TRADER162|452=36|10=157|
8=FIX.4.4|9=212|35=8|49=SISTEMA|52=20250630-14:30:00.325|56=DROPCOPY|1=ACC009|6=21.48|11=c6c7b888d9b6|14=1124|31=21.48|32=1124|37=960a972ba9c2|38=1124|39=2|54=1|55=ABEV3|60=20250630-14:30:00.325|150=F|453=1|448=TRADER985|452=36|10=225|
8=FIX.4.4|9=212|35=8|49=SISTEMA|52=20250630-14:30:00.325|56=DROPCOPY|1=ACC008|6=29.12|11=2bb32f7d0412|14=4680|31=29.12|32=4680|37=0130613dae79|38=4680|39=2|54=1|55=SUZB3|60=20250630-14:30:00.325|150=F|453=1|448=TRADER369|452=36|10=148|
8=FIX.4.4|9=212|35=8|49=SISTEMA|52=20250630-14:30:00.325|56=DROPCOPY|1=ACC003|6=14.28|11=83552dbcf1f3|14=2020|31=14.28|32=2020|37=0aab72337a59|38=2020|39=2|54=1|55=ABEV3|60=20250630-14:30:00.325|150=F|453=1|448=TRADER815|452=36|10=171|
8=FIX.4.4|9=212|35=8|49=SISTEMA|52=20250630-14:30:00.325|56=DROPCOPY|1=ACC009|6=18.61|11=77476e4dd82d|14=6413|31=18.61|32=6413|37=76128200c15d|38=6413|39=2|54=1|55=BBDC4|60=20250630-14:30:00.325|150=F|453=1|448=TRADER156|452=36|10=057|
8=FIX.4.4|9=212|35=8|49=SISTEMA|52=20250630-14:30:00.325|56=DROPCOPY|1=ACC004|6=18.07|11=ea7577cddd3e|14=6454|31=18.07|32=6454|37=f639ba169d01|38=6454|39=2|54=2|55=PETR4|60=20250630-14:30:00.325|150=F|453=1|448=TRADER856|452=36|10=109|
8=FIX.4.4|9=212|35=8|49=SISTEMA|52=20250630-14:30:00.325|56=DROPCOPY|1=ACC001|6=27.59|11=18ae8aff967a|14=8165|31=27.59|32=8165|37=91b10cb8cc4c|38=8165|39=2|54=2|55=ABEV3|60=20250630-14:30:00.325|150=F|453=1|448=TRADER629|452=36|10=134|
8=FIX.4.4|9=212|35=8|49=SISTEMA|52=20250630-14:30:00.325|56=DROPCOPY|1=ACC002|6=25.22|11=c057dabf71e9|14=9141|31=25.22|32=9141|37=42c4dcb90a45|38=9141|39=2|54=2|55=PETR4|60=20250630-14:30:00.325|150=F|453=1|448=TRADER253|452=36|10=064|
8=FIX.4.4|9=212|35=8|49=SISTEMA|52=20250630-14:30:00.327|56=DROPCOPY|1=ACC005|6=22.34|11=ad4a61f46742|14=2261|31=22.34|32=2261|37=c60bb616123f|38=2261|39=2|54=1|55=ITUB4|60=20250630-14:30:00.327|150=F|453=1|448=TRADER300|452=36|10=149|
8=FIX.4.4|9=212|35=8|49=SISTEMA|52=20250630-14:30:00.327|56=DROPCOPY|1=ACC008|6=25.37|11=9d4f57141856|14=9671|31=25.37|32=9671|37=1b2833ee9e4e|38=9671|39=2|54=1|55=VALE3|60=20250630-14:30:00.327|150=F|453=1|448=TRADER619|452=36|10=180|
8=FIX.4.4|9=209|35=8|49=SISTEMA|52=20250630-14:30:00.327|56=DROPCOPY|1=ACC005|6=11.8|11=6fc4f84d2fd4|14=6033|31=11.8|32=6033|37=9d4fb801f02c|38=6033|39=2|54=2|55=RENT3|60=20250630-14:30:00.327|150=F|453=1|448=TRADER19|452=36|10=186|
8=FIX.4.4|9=212|35=8|49=SISTEMA|52=20250630-14:30:00.327|56=DROPCOPY|1=ACC003|6=12.64|11=d1735a944c3e|14=6333|31=12.64|32=6333|37=9716f8ebca20|38=6333|39=2|54=2|55=VALE3|60=20250630-14:30:00.327|150=F|453=1|448=TRADER438|452=36|10=226|
8=FIX.4.4|9=212|35=8|49=SISTEMA|52=20250630-14:30:00.327|56=DROPCOPY|1=ACC003|6=29.12|11=038fbb21752a|14=1699|31=29.12|32=1699|37=75b68ddadf7f|38=1699|39=2|54=2|55=SUZB3|60=20250630-14:30:00.327|150=F|453=1|448=TRADER421|452=36|10=118|
8=FIX.4.4|9=212|35=8|49=SISTEMA|52=20250630-14:30:00.327|56=DROPCOPY|1=ACC004|6=24.83|11=09fc4149f8d2|14=7491|31=24.83|32=7491|37=0909be557c89|38=7491|39=2|54=1|55=RENT3|60=20250630-14:30:00.327|150=F|453=1|448=TRADER672|452=36|10=192|
8=FIX.4.4|9=212|35=8|49=SISTEMA|52=20250630-14:30:00.327|56=DROPCOPY|1=ACC003|6=22.71|11=c96e31989f16|14=4244|31=22.71|32=4244|37=f153c43761ce|38=4244|39=2|54=2|55=ABEV3|60=20250630-14:30:00.327|150=F|453=1|448=TRADER155|452=36|10=125|
8=FIX.4.4|9=212|35=8|49=SISTEMA|52=20250630-14:30:00.327|56=DROPCOPY|1=ACC005|6=13.03|11=3be33bbbcf52|14=4885|31=13.03|32=4885|37=4d464716bd93|38=4885|39=2|54=2|55=ABEV3|60=20250630-14:30:00.327|150=F|453=1|448=TRADER400|452=36|10=010|
8=FIX.4.4|9=212|35=8|49=SISTEMA|52=20250630-14:30:00.327|56=DROPCOPY|1=ACC007|6=20.81|11=0767834c5b88|14=8782|31=20.81|32=8782|37=7e8d764a9a37|38=8782|39=2|54=2|55=RADL3|60=20250630-14:30:00.327|150=F|453=1|448=TRADER901|452=36|10=126|
8=FIX.4.4|9=212|35=8|49=SISTEMA|52=20250630-14:30:00.327|56=DROPCOPY|1=ACC009|6=23.44|11=59c3b362328b|14=4815|31=23.44|32=4815|37=82484d04622e|38=4815|39=2|54=2|55=RENT3|60=20250630-14:30:00.327|150=F|453=1|448=TRADER575|452=36|10=066|
8=FIX.4.4|9=212|35=8|49=SISTEMA|52=20250630-14:30:00.327|56=DROPCOPY|1=ACC008|6=26.56|11=de89bd262938|14=3106|31=26.56|32=3106|37=12307065546d|38=3106|39=2|54=2|55=SUZB3|60=20250630-14:30:00.327|150=F|453=1|448=TRADER359|452=36|10=072|
8=FIX.4.4|9=212|35=8|49=SISTEMA|52=20250630-14:30:00.327|56=DROPCOPY|1=ACC001|6=27.37|11=989e522ae2f0|14=3147|31=27.37|32=3147|37=4c87726bf3c3|38=3147|39=2|54=1|55=SUZB3|60=20250630-14:30:00.327|150=F|453=1|448=TRADER724|452=36|10=222|
8=FIX.4.4|9=212|35=8|49=SISTEMA|52=20250630-14:30:00.327|56=DROPCOPY|1=ACC009|6=10.29|11=1e4cb4bcabfe|14=8541|31=10.29|32=8541|37=ca10773ebafc|38=8541|39=2|54=1|55=BBAS3|60=20250630-14:30:00.327|150=F|453=1|448=TRADER962|452=36|10=026|
8=FIX.4.4|9=210|35=8|49=SISTEMA|52=20250630-14:30:00.327|56=DROPCOPY|1=ACC005|6=11.7|11=d41cb159b5fe|14=5561|31=11.7|32=5561|37=fa2bc3d4962a|38=5561|39=2|54=1|55=ABEV3|60=20250630-14:30:00.327|150=F|453=1|448=TRADER193|452=36|10=250|
8=FIX.4.4|9=212|35=8|49=SISTEMA|52=20250630-14:30:00.327|56=DROPCOPY|1=ACC002|6=25.58|11=fdd38172d809|14=8597|31=25.58|32=8597|37=9106789c5caa|38=8597|39=2|54=2|55=SUZB3|60=20250630-14:30:00.327|150=F|453=1|448=TRADER881|452=36|10=017|
8=FIX.4.4|9=212|35=8|49=SISTEMA|52=20250630-14:30:00.327|56=DROPCOPY|1=ACC003|6=15.34|11=508f7d33c7e2|14=2630|31=15.34|32=2630|37=f8fca57b0533|38=2630|39=2|54=2|55=SUZB3|60=20250630-14:30:00.327|150=F|453=1|448=TRADER151|452=36|10=237|
8=FIX.4.4|9=212|35=8|49=SISTEMA|52=20250630-14:30:00.327|56=DROPCOPY|1=ACC001|6=13.59|11=80bd4532c887|14=4202|31=13.59|32=4202|37=682b28730e73|38=4202|39=2|54=1|55=BBAS3|60=20250630-14:30:00.327|150=F|453=1|448=TRADER510|452=36|10=003|
8=FIX.4.4|9=206|35=8|49=SISTEMA|52=20250630-14:30:00.327|56=DROPCOPY|1=ACC005|6=15|11=c26965eb3dac|14=8142|31=15|32=8142|37=794ced4f35ca|38=8142|39=2|54=2|55=BBAS3|60=20250630-14:30:00.327|150=F|453=1|448=TRADER441|452=36|10=059|
8=FIX.4.4|9=210|35=8|49=SISTEMA|52=20250630-14:30:00.327|56=DROPCOPY|1=ACC003|6=18.3|11=15d4aceb248a|14=8113|31=18.3|32=8113|37=3a0cf90cadc0|38=8113|39=2|54=1|55=VALE3|60=20250630-14:30:00.327|150=F|453=1|448=TRADER476|452=36|10=031|
8=FIX.4.4|9=212|35=8|49=SISTEMA|52=20250630-14:30:00.327|56=DROPCOPY|1=ACC001|6=21.69|11=8c5e5c5ab189|14=5620|31=21.69|32=5620|37=34488134c4ed|38=5620|39=2|54=2|55=ITUB4|60=20250630-14:30:00.327|150=F|453=1|448=TRADER700|452=36|10=192|
8=FIX.4.4|9=212|35=8|49=SISTEMA|52=20250630-14:30:00.331|56=DROPCOPY|1=ACC004|6=29.48|11=93f4b310b518|14=3578|31=29.48|32=3578|37=2992e8ba76be|38=3578|39=2|54=1|55=SUZB3|60=20250630-14:30:00.331|150=F|453=1|448=TRADER687|452=36|10=249|
8=FIX.4.4|9=212|35=8|49=SISTEMA|52=20250630-14:30:00.331|56=DROPCOPY|1=ACC010|6=21.47|11=fe00a2cbaa17|14=5923|31=21.47|32=5923|37=8f7c67aea9a5|38=5923|39=2|54=2|55=BBDC4|60=20250630-14:30:00.331|150=F|453=1|448=TRADER292|452=36|10=123|
8=FIX.4.4|9=212|35=8|49=SISTEMA|52=20250630-14:30:00.331|56=DROPCOPY|1=ACC007|6=24.01|11=6632ef4cf850|14=2665|31=24.01|32=2665|37=7b5adbd2d17f|38=2665|39=2|54=1|55=RENT3|60=20250630-14:30:00.331|150=F|453=1|448=TRADER236|452=36|10=072|
8=FIX.4.4|9=212|35=8|49=SISTEMA|52=20250630-14:30:00.332|56=DROPCOPY|1=ACC001|6=23.31|11=dad91ad098cf|14=9230|31=23.31|32=9230|37=1dc912778289|38=9230|39=2|54=1|55=ABEV3|60=20250630-14:30:00.332|150=F|453=1|448=TRADER240|452=36|10=197|
8=FIX.4.4|9=210|35=8|49=SISTEMA|52=20250630-14:30:00.332|56=DROPCOPY|1=ACC006|6=23.6|11=2566afebe18b|14=6767|31=23.6|32=6767|37=0ca6b0ed40aa|38=6767|39=2|54=1|55=VALE3|60=20250630-14:30:00.332|150=F|453=1|448=TRADER743|452=36|10=063|
8=FIX.4.4|9=212|35=8|49=SISTEMA|52=20250630-14:30:00.332|56=DROPCOPY|1=ACC001|6=13.15|11=71f93b310683|14=1276|31=13.15|32=1276|37=193109814b87|38=1276|39=2|54=2|55=RENT3|60=20250630-14:30:00.332|150=F|453=1|448=TRADER643|452=36|10=199|
8=FIX.4.4|9=212|35=8|49=SISTEMA|52=20250630-14:30:00.332|56=DROPCOPY|1=ACC005|6=13.99|11=5fa715f1b914|14=2040|31=13.99|32=2040|37=85ff51d076ce|38=2040|39=2|54=1|55=BBDC4|60=20250630-14:30:00.332|150=F|453=1|448=TRADER247|452=36|10=185|
8=FIX.4.4|9=206|35=8|49=SISTEMA|52=20250630-14:30:00.332|56=DROPCOPY|1=ACC006|6=17|11=fe2092fe4049|14=2139|31=17|32=2139|37=fe15176ec366|38=2139|39=2|54=1|55=RENT3|60=20250630-14:30:00.332|150=F|453=1|448=TRADER138|452=36|10=158|
8=FIX.4.4|9=212|35=8|49=SISTEMA|52=20250630-14:30:00.332|56=DROPCOPY|1=ACC001|6=11.09|11=b8558612faea|14=6559|31=11.09|32=6559|37=2844d461ae15|38=6559|39=2|54=1|55=WEGE3|60=20250630-14:30:00.332|150=F|453=1|448=TRADER153|452=36|10=183|
8=FIX.4.4|9=212|35=8|49=SISTEMA|52=20250630-14:30:00.332|56=DROPCOPY|1=ACC007|6=14.03|11=7e841a47cbe9|14=6193|31=14.03|32=6193|37=bbe9ab48a511|38=6193|39=2|54=1|55=VALE3|60=20250630-14:30:00.332|150=F|453=1|448=TRADER642|452=36|10=058|
8=FIX.4.4|9=212|35=8|49=SISTEMA|52=20250630-14:30:00.332|56=DROPCOPY|1=ACC005|6=13.33|11=009b38e902ea|14=3811|31=13.33|32=3811|37=23b9c8eeddb4|38=3811|39=2|54=1|55=BBDC4|60=20250630-14:30:00.332|150=F|453=1|448=TRADER375|452=36|10=015|
8=FIX.4.4|9=212|35=8|49=SISTEMA|52=20250630-14:30:00.332|56=DROPCOPY|1=ACC003|6=26.47|11=b5c537ad77ff|14=5436|31=26.47|32=5436|37=dc0eefdc3fdd|38=5436|39=2|54=1|55=BBDC4|60=20250630-14:30:00.332|150=F|453=1|448=TRADER660|452=36|10=035|
8=FIX.4.4|9=212|35=8|49=SISTEMA|52=20250630-14:30:00.332|56=DROPCOPY|1=ACC002|6=11.83|11=82dd55b3c9b1|14=5429|31=11.83|32=5429|37=0cd4219e82d5|38=5429|39=2|54=1|55=RENT3|60=20250630-14:30:00.332|150=F|453=1|448=TRADER887|452=36|10=252|
8=FIX.4.4|9=212|35=8|49=SISTEMA|52=20250630-14:30:00.332|56=DROPCOPY|1=ACC004|6=25.61|11=c947657d1ef4|14=7823|31=25.61|32=7823|37=6945830db033|38=7823|39=2|54=1|55=RENT3|60=20250630-14:30:00.332|150=F|453=1|448=TRADER287|452=36|10=119|
8=FIX.4.4|9=212|35=8|49=SISTEMA|52=20250630-14:30:00.332|56=DROPCOPY|1=ACC001|6=17.93|11=87227c7353db|14=7261|31=17.93|32=7261|37=1a8fed407fb1|38=7261|39=2|54=1|55=PETR4|60=20250630-14:30:00.332|150=F|453=1|448=TRADER864|452=36|10=254|
8=FIX.4.4|9=212|35=8|49=SISTEMA|52=20250630-14:30:00.332|56=DROPCOPY|1=ACC010|6=22.41|11=2358841e077f|14=2847|31=22.41|32=2847|37=cec673123992|38=2847|39=2|54=2|55=RADL3|60=20250630-14:30:00.332|150=F|453=1|448=TRADER744|452=36|10=039|
8=FIX.4.4|9=212|35=8|49=SISTEMA|52=20250630-14:30:00.332|56=DROPCOPY|1=ACC010|6=21.61|11=22901b77ee6e|14=4980|31=21.61|32=4980|37=3b5935e65e24|38=4980|39=2|54=1|55=BBAS3|60=20250630-14:30:00.332|150=F|453=1|448=TRADER983|452=36|10=126|
8=FIX.4.4|9=212|35=8|49=SISTEMA|52=20250630-14:30:00.335|56=DROPCOPY|1=ACC010|6=23.61|11=7d9bd7ab3842|14=3697|31=23.61|32=3697|37=2797cce12416|38=3697|39=2|54=1|55=ITUB4|60=20250630-14:30:00.335|150=F|453=1|448=TRADER266|452=36|10=217|
8=FIX.4.4|9=212|35=8|49=SISTEMA|52=20250630-14:30:00.335|56=DROPCOPY|1=ACC004|6=17.93|11=03d5e7db0bae|14=6588|31=17.93|32=6588|37=c56a3e324ac2|38=6588|39=2|54=2|55=ABEV3|60=20250630-14:30:00.335|150=F|453=1|448=TRADER635|452=36|10=129|
8=FIX.4.4|9=212|35=8|49=SISTEMA|52=20250630-14:30:00.335|56=DROPCOPY|1=ACC001|6=27.27|11=ba5c8dcc53df|14=9739|31=27.27|32=9739|37=96aa31cbc0af|38=9739|39=2|54=2|55=RENT3|60=20250630-14:30:00.335|150=F|453=1|448=TRADER938|452=36|10=053|
8=FIX.4.4|9=212|35=8|49=SISTEMA|52=20250630-14:30:00.335|56=DROPCOPY|1=ACC008|6=22.32|11=894ac712b72c|14=8496|31=22.32|32=8496|37=1f7b8c62db54|38=8496|39=2|54=2|55=PETR4|60=20250630-14:30:00.335|150=F|453=1|448=TRADER460|452=36|10=016|
8=FIX.4.4|9=212|35=8|49=SISTEMA|52=20250630-14:30:00.335|56=DROPCOPY|1=ACC009|6=19.72|11=40e91f7a3366|14=2115|31=19.72|32=2115|37=97850c0e1b34|38=2115|39=2|54=1|55=ITUB4|60=20250630-14:30:00.335|150=F|453=1|448=TRADER401|452=36|10=081|
8=FIX.4.4|9=212|35=8|49=SISTEMA|52=20250630-14:30:00.336|56=DROPCOPY|1=ACC009|6=14.96|11=b8080b01034c|14=5682|31=14.96|32=5682|37=13c020c43f63|38=5682|39=2|54=1|55=PETR4|60=20250630-14:30:00.336|150=F|453=1|448=TRADER571|452=36|10=103|
8=FIX.4.4|9=210|35=8|49=SISTEMA|52=20250630-14:30:00.336|56=DROPCOPY|1=ACC010|6=17.5|11=71fb390c577b|14=5000|31=17.5|32=5000|37=a249bdad49d3|38=5000|39=2|54=1|55=VALE3|60=20250630-14:30:00.336|150=F|453=1|448=TRADER736|452=36|10=144|
8=FIX.4.4|9=210|35=8|49=SISTEMA|52=20250630-14:30:00.336|56=DROPCOPY|1=ACC003|6=23.7|11=bcc2957614c8|14=2153|31=23.7|32=2153|37=3381ea447fea|38=2153|39=2|54=2|55=RADL3|60=20250630-14:30:00.336|150=F|453=1|448=TRADER170|452=36|10=104|
8=FIX.4.4|9=210|35=8|49=SISTEMA|52=20250630-14:30:00.336|56=DROPCOPY|1=ACC006|6=17.7|11=1204ba4af365|14=8833|31=17.7|32=8833|37=74fefd2fc02f|38=8833|39=2|54=2|55=RENT3|60=20250630-14:30:00.336|150=F|453=1|448=TRADER598|452=36|10=007|
8=FIX.4.4|9=212|35=8|49=SISTEMA|52=20250630-14:30:00.336|56=DROPCOPY|1=ACC003|6=27.99|11=2d1d92250226|14=3629|31=27.99|32=3629|37=5f99215f4144|38=3629|39=2|54=1|55=SUZB3|60=20250630-14:30:00.336|150=F|453=1|448=TRADER445|452=36|10=050|
8=FIX.4.4|9=212|35=8|49=SISTEMA|52=20250630-14:30:00.336|56=DROPCOPY|1=ACC008|6=21.54|11=6d250212412b|14=9899|31=21.54|32=9899|37=c3e5e979020b|38=9899|39=2|54=1|55=VALE3|60=20250630-14:30:00.336|150=F|453=1|448=TRADER572|452=36|10=125|
8=FIX.4.4|9=212|35=8|49=SISTEMA|52=20250630-14:30:00.336|56=DROPCOPY|1=ACC001|6=25.17|11=dd9affdcfe5b|14=9180|31=25.17|32=9180|37=1b2908516d6c|38=9180|39=2|54=2|55=ITUB4|60=20250630-14:30:00.336|150=F|453=1|448=TRADER801|452=36|10=183|
8=FIX.4.4|9=212|35=8|49=SISTEMA|52=20250630-14:30:00.336|56=DROPCOPY|1=ACC004|6=21.44|11=edce346aee80|14=2410|31=21.44|32=2410|37=4818d5fdc9ed|38=2410|39=2|54=2|55=BBAS3|60=20250630-14:30:00.336|150=F|453=1|448=TRADER713|452=36|10=126|
8=FIX.4.4|9=211|35=8|49=SISTEMA|52=20250630-14:30:00.336|56=DROPCOPY|1=ACC001|6=29.03|11=e4600bb691eb|14=3591|31=29.03|32=3591|37=8ea4b8d7998a|38=3591|39=2|54=1|55=ITUB4|60=20250630-14:30:00.336|150=F|453=1|448=TRADER38|452=36|10=251|
8=FIX.4.4|9=212|35=8|49=SISTEMA|52=20250630-14:30:00.336|56=DROPCOPY|1=ACC009|6=23.07|11=3354fb3949f7|14=4505|31=23.07|32=4505|37=81d3abc3b159|38=4505|39=2|54=2|55=BBAS3|60=20250630-14:30:00.336|150=F|453=1|448=TRADER235|452=36|10=162|
8=FIX.4.4|9=212|35=8|49=SISTEMA|52=20250630-14:30:00.336|56=DROPCOPY|1=ACC004|6=25.72|11=2db5a6eb0706|14=8523|31=25.72|32=8523|37=5bbbdb06cb1b|38=8523|39=2|54=1|55=ABEV3|60=20250630-14:30:00.336|150=F|453=1|448=TRADER528|452=36|10=139|
8=FIX.4.4|9=212|35=8|49=SISTEMA|52=20250630-14:30:00.336|56=DROPCOPY|1=ACC007|6=21.73|11=aafc852704ad|14=3921|31=21.73|32=3921|37=26cdee8f1a2b|38=3921|39=2|54=1|55=PETR4|60=20250630-14:30:00.336|150=F|453=1|448=TRADER483|452=36|10=173|
8=FIX.4.4|9=212|35=8|49=SISTEMA|52=20250630-14:30:00.336|56=DROPCOPY|1=ACC010|6=15.49|11=39e871877038|14=7646|31=15.49|32=7646|37=395f61134f2e|38=7646|39=2|54=2|55=BBDC4|60=20250630-14:30:00.336|150=F|453=1|448=TRADER575|452=36|10=012|
8=FIX.4.4|9=212|35=8|49=SISTEMA|52=20250630-14:30:00.336|56=DROPCOPY|1=ACC006|6=16.79|11=887c3ac264de|14=5976|31=16.79|32=5976|37=58af2894b09b|38=5976|39=2|54=2|55=PETR4|60=20250630-14:30:00.336|150=F|453=1|448=TRADER244|452=36|10=055|
8=FIX.4.4|9=212|35=8|49=SISTEMA|52=20250630-14:30:00.336|56=DROPCOPY|1=ACC010|6=21.46|11=e4b69000e803|14=5532|31=21.46|32=5532|37=819c2233ebb4|38=5532|39=2|54=2|55=RADL3|60=20250630-14:30:00.336|150=F|453=1|448=TRADER105|452=36|10=101|
8=FIX.4.4|9=212|35=8|49=SISTEMA|52=20250630-14:30:00.336|56=DROPCOPY|1=ACC009|6=12.49|11=83267d6d42b2|14=4374|31=12.49|32=4374|37=f5c1eeeaee88|38=4374|39=2|54=2|55=ITUB4|60=20250630-14:30:00.336|150=F|453=1|448=TRADER855|452=36|10=111|
8=FIX.4.4|9=212|35=8|49=SISTEMA|52=20250630-14:30:00.336|56=DROPCOPY|1=ACC005|6=21.09|11=739f885f449d|14=3222|31=21.09|32=3222|37=3a9e4fc83011|38=3222|39=2|54=2|55=WEGE3|60=20250630-14:30:00.336|150=F|453=1|448=TRADER694|452=36|10=134|
8=FIX.4.4|9=212|35=8|49=SISTEMA|52=20250630-14:30:00.336|56=DROPCOPY|1=ACC007|6=19.38|11=9be2ad30850f|14=5049|31=19.38|32=5049|37=7fe2a1ae8e22|38=5049|39=2|54=1|55=SUZB3|60=20250630-14:30:00.336|150=F|453=1|448=TRADER768|452=36|10=119|
8=FIX.4.4|9=212|35=8|49=SISTEMA|52=20250630-14:30:00.336|56=DROPCOPY|1=ACC007|6=18.14|11=2dadbfb02c48|14=6358|31=18.14|32=6358|37=63c7c0b1a030|38=6358|39=2|54=2|55=BBAS3|60=20250630-14:30:00.336|150=F|453=1|448=TRADER602|452=36|10=038|
8=FIX.4.4|9=212|35=8|49=SISTEMA|52=20250630-14:30:00.336|56=DROPCOPY|1=ACC001|6=15.26|11=5ec0adca9748|14=3143|31=15.26|32=3143|37=e2b9a57bba1c|38=3143|39=2|54=1|55=PETR4|60=20250630-14:30:00.336|150=F|453=1|448=TRADER606|452=36|10=157|
8=FIX.4.4|9=212|35=8|49=SISTEMA|52=20250630-14:30:00.336|56=DROPCOPY|1=ACC005|6=10.41|11=b43692fa1fc6|14=3077|31=10.41|32=3077|37=d1d179c92b74|38=3077|39=2|54=2|55=ITUB4|60=20250630-14:30:00.336|150=F|453=1|448=TRADER785|452=36|10=241|
8=FIX.4.4|9=212|35=8|49=SISTEMA|52=20250630-14:30:00.336|56=DROPCOPY|1=ACC002|6=19.97|11=a39779a5fe03|14=6504|31=19.97|32=6504|37=663124f74811|38=6504|39=2|54=1|55=BBDC4|60=20250630-14:30:00.336|150=F|453=1|448=TRADER326|452=36|10=032|
8=FIX.4.4|9=212|35=8|49=SISTEMA|52=20250630-14:30:00.336|56=DROPCOPY|1=ACC010|6=12.38|11=68708b5d064b|14=9115|31=12.38|32=9115|37=edaa18e310e6|38=9115|39=2|54=2|55=ITUB4|60=20250630-14:30:00.336|150=F|453=1|448=TRADER472|452=36|10=233|
8=FIX.4.4|9=212|35=8|49=SISTEMA|52=20250630-14:30:00.336|56=DROPCOPY|1=ACC007|6=26.08|11=6a7afad7ac97|14=4223|31=26.08|32=4223|37=ba5c5468faf6|38=4223|39=2|54=1|55=VALE3|60=20250630-14:30:00.336|150=F|453=1|448=TRADER689|452=36|10=174|
8=FIX.4.4|9=210|35=8|49=SISTEMA|52=20250630-14:30:00.336|56=DROPCOPY|1=ACC004|6=28.5|11=4017fa59f13a|14=3391|31=28.5|32=3391|37=a01b30e3c543|38=3391|39=2|54=2|55=BBDC4|60=20250630-14:30:00.336|150=F|453=1|448=TRADER278|452=36|10=037|
8=FIX.4.4|9=212|35=8|49=SISTEMA|52=20250630-14:30:00.336|56=DROPCOPY|1=ACC009|6=12.56|11=f877bec0f5c0|14=1113|31=12.56|32=1113|37=6e8110242550|38=1113|39=2|54=2|55=RADL3|60=20250630-14:30:00.336|150=F|453=1|448=TRADER137|452=36|10=094|
8=FIX.4.4|9=212|35=8|49=SISTEMA|52=20250630-14:30:00.336|56=DROPCOPY|1=ACC004|6=28.88|11=ecbffe6fdc65|14=7874|31=28.88|32=7874|37=566dd8b04442|38=7874|39=2|54=1|55=RENT3|60=20250630-14:30:00.336|150=F|453=1|448=TRADER225|452=36|10=191|
8=FIX.4.4|9=212|35=8|49=SISTEMA|52=20250630-14:30:00.336|56=DROPCOPY|1=ACC009|6=27.68|11=695a26cee8a6|14=2975|31=27.68|32=2975|37=fbd2d4e0d420|38=2975|39=2|54=1|55=RENT3|60=20250630-14:30:00.336|150=F|453=1|448=TRADER249|452=36|10=127|
8=FIX.4.4|9=212|35=8|49=SISTEMA|52=20250630-14:30:00.336|56=DROPCOPY|1=ACC003|6=12.61|11=7012b788e417|14=1684|31=12.61|32=1684|37=8bab33adebcf|38=1684|39=2|54=1|55=RADL3|60=20250630-14:30:00.336|150=F|453=1|448=TRADER535|452=36|10=057|
8=FIX.4.4|9=212|35=8|49=SISTEMA|52=20250630-14:30:00.336|56=DROPCOPY|1=ACC010|6=26.34|11=28e0680f209c|14=7562|31=26.34|32=7562|37=a456fdbb4f4d|38=7562|39=2|54=1|55=VALE3|60=20250630-14:30:00.336|150=F|453=1|448=TRADER762|452=36|10=032|
8=FIX.4.4|9=212|35=8|49=SISTEMA|52=20250630-14:30:00.336|56=DROPCOPY|1=ACC003|6=28.77|11=454eac7229da|14=1249|31=28.77|32=1249|37=79d9892e0d7f|38=1249|39=2|54=2|55=RADL3|60=20250630-14:30:00.336|150=F|453=1|448=TRADER211|452=36|10=253|
8=FIX.4.4|9=211|35=8|49=SISTEMA|52=20250630-14:30:00.336|56=DROPCOPY|1=ACC005|6=14.99|11=24daed8b8248|14=7944|31=14.99|32=7944|37=e767e191e45d|38=7944|39=2|54=2|55=ABEV3|60=20250630-14:30:00.336|150=F|453=1|448=TRADER41|452=36|10=218|
8=FIX.4.4|9=212|35=8|49=SISTEMA|52=20250630-14:30:00.336|56=DROPCOPY|1=ACC005|6=14.84|11=4013f14ed51d|14=1746|31=14.84|32=1746|37=fb83ac102896|38=1746|39=2|54=2|55=SUZB3|60=20250630-14:30:00.336|150=F|453=1|448=TRADER356|452=36|10=212|
8=FIX.4.4|9=212|35=8|49=SISTEMA|52=20250630-14:30:00.336|56=DROPCOPY|1=ACC006|6=18.01|11=22b5bc808932|14=8550|31=18.01|32=8550|37=2a7fa1a5ba40|38=8550|39=2|54=1|55=BBAS3|60=20250630-14:30:00.336|150=F|453=1|448=TRADER780|452=36|10=193|
8=FIX.4.4|9=210|35=8|49=SISTEMA|52=20250630-14:30:00.336|56=DROPCOPY|1=ACC004|6=15.5|11=27d3d2662acd|14=8514|31=15.5|32=8514|37=7dc58a8b415b|38=8514|39=2|54=1|55=ABEV3|60=20250630-14:30:00.336|150=F|453=1|448=TRADER302|452=36|10=156|
8=FIX.4.4|9=212|35=8|49=SISTEMA|52=20250630-14:30:00.336|56=DROPCOPY|1=ACC008|6=13.23|11=9c0af759f1da|14=5738|31=13.23|32=5738|37=2ff6b0499948|38=5738|39=2|54=1|55=RADL3|60=20250630-14:30:00.336|150=F|453=1|448=TRADER250|452=36|10=251|
8=FIX.4.4|9=212|35=8|49=SISTEMA|52=20250630-14:30:00.336|56=DROPCOPY|1=ACC001|6=18.16|11=9fabd717f74c|14=4622|31=18.16|32=4622|37=7b10c5147f2b|38=4622|39=2|54=2|55=ITUB4|60=20250630-14:30:00.336|150=F|453=1|448=TRADER336|452=36|10=027|
8=FIX.4.4|9=210|35=8|49=SISTEMA|52=20250630-14:30:00.336|56=DROPCOPY|1=ACC004|6=21.4|11=34ea0d98d5e8|14=4320|31=21.4|32=4320|37=6aa5cde5a4b4|38=4320|39=2|54=2|55=ABEV3|60=20250630-14:30:00.336|150=F|453=1|448=TRADER289|452=36|10=235|
8=FIX.4.4|9=211|35=8|49=SISTEMA|52=20250630-14:30:00.336|56=DROPCOPY|1=ACC007|6=17.37|11=127b98b531ee|14=8537|31=17.37|32=8537|37=0e00297c1937|38=8537|39=2|54=1|55=BBDC4|60=20250630-14:30:00.336|150=F|453=1|448=TRADER83|452=36|10=035|
8=FIX.4.4|9=212|35=8|49=SISTEMA|52=20250630-14:30:00.336|56=DROPCOPY|1=ACC007|6=13.36|11=b52efdb3f344|14=6046|31=13.36|32=6046|37=0257fa099289|38=6046|39=2|54=2|55=WEGE3|60=20250630-14:30:00.336|150=F|453=1|448=TRADER568|452=36|10=194|
8=FIX.4.4|9=212|35=8|49=SISTEMA|52=20250630-14:30:00.336|56=DROPCOPY|1=ACC007|6=19.13|11=2d974eb52aac|14=7091|31=19.13|32=7091|37=453d05298c8e|38=7091|39=2|54=1|55=ITUB4|60=20250630-14:30:00.336|150=F|453=1|448=TRADER572|452=36|10=251|
8=FIX.4.4|9=210|35=8|49=SISTEMA|52=20250630-14:30:00.336|56=DROPCOPY|1=ACC002|6=17.6|11=064e3cedbb31|14=4858|31=17.6|32=4858|37=d9f902a91c9b|38=4858|39=2|54=2|55=RENT3|60=20250630-14:30:00.336|150=F|453=1|448=TRADER585|452=36|10=013|
8=FIX.4.4|9=210|35=8|49=SISTEMA|52=20250630-14:30:00.336|56=DROPCOPY|1=ACC006|6=23.1|11=45949ad98733|14=3456|31=23.1|32=3456|37=3ed5fd9c8d9b|38=3456|39=2|54=2|55=ABEV3|60=20250630-14:30:00.336|150=F|453=1|448=TRADER949|452=36|10=152|
8=FIX.4.4|9=212|35=8|49=SISTEMA|52=20250630-14:30:00.336|56=DROPCOPY|1=ACC002|6=17.85|11=7ad770ee791f|14=9790|31=17.85|32=9790|37=c39b0e71a904|38=9790|39=2|54=2|55=WEGE3|60=20250630-14:30:00.336|150=F|453=1|448=TRADER871|452=36|10=020|
8=FIX.4.4|9=212|35=8|49=SISTEMA|52=20250630-14:30:00.336|56=DROPCOPY|1=ACC008|6=20.67|11=768a2c4299a2|14=7898|31=20.67|32=7898|37=c4ec830ebe2c|38=7898|39=2|54=2|55=ABEV3|60=20250630-14:30:00.336|150=F|453=1|448=TRADER699|452=36|10=075|
8=FIX.4.4|9=212|35=8|49=SISTEMA|52=20250630-14:30:00.336|56=DROPCOPY|1=ACC010|6=28.18|11=d9738b0ccc18|14=1952|31=28.18|32=1952|37=baf214f36626|38=1952|39=2|54=1|55=RENT3|60=20250630-14:30:00.336|150=F|453=1|448=TRADER907|452=36|10=000|
8=FIX.4.4|9=212|35=8|49=SISTEMA|52=20250630-14:30:00.336|56=DROPCOPY|1=ACC001|6=18.62|11=f9308b305a33|14=3002|31=18.62|32=3002|37=4dfa695537e8|38=3002|39=2|54=2|55=ITUB4|60=20250630-14:30:00.336|150=F|453=1|448=TRADER785|452=36|10=131|
8=FIX.4.4|9=212|35=8|49=SISTEMA|52=20250630-14:30:00.336|56=DROPCOPY|1=ACC005|6=23.72|11=7745aaac799e|14=2122|31=23.72|32=2122|37=0ea9a5b04213|38=2122|39=2|54=1|55=BBAS3|60=20250630-14:30:00.336|150=F|453=1|448=TRADER550|452=36|10=177|
8=FIX.4.4|9=212|35=8|49=SISTEMA|52=20250630-14:30:00.336|56=DROPCOPY|1=ACC002|6=23.56|11=cab517309d79|14=5536|31=23.56|32=5536|37=4f33613c360c|38=5536|39=2|54=1|55=ITUB4|60=20250630-14:30:00.336|150=F|453=1|448=TRADER263|452=36|10=148|
8=FIX.4.4|9=212|35=8|49=SISTEMA|52=20250630-14:30:00.336|56=DROPCOPY|1=ACC008|6=28.87|11=748619d01cff|14=4592|31=28.87|32=4592|37=db9fe41f6374|38=4592|39=2|54=2|55=BBDC4|60=20250630-14:30:00.336|150=F|453=1|448=TRADER705|452=36|10=252|
8=FIX.4.4|9=212|35=8|49=SISTEMA|52=20250630-14:30:00.336|56=DROPCOPY|1=ACC006|6=29.34|11=5be023f64f75|14=4671|31=29.34|32=4671|37=e82736f8aa39|38=4671|39=2|54=2|55=BBAS3|60=20250630-14:30:00.336|150=F|453=1|448=TRADER301|452=36|10=184|
8=FIX.4.4|9=212|35=8|49=SISTEMA|52=20250630-14:30:00.336|56=DROPCOPY|1=ACC005|6=23.46|11=beefe204ad19|14=3133|31=23.46|32=3133|37=082a3b9e9805|38=3133|39=2|54=2|55=WEGE3|60=20250630-14:30:00.336|150=F|453=1|448=TRADER755|452=36|10=008|
8=FIX.4.4|9=212|35=8|49=SISTEMA|52=20250630-14:30:00.336|56=DROPCOPY|1=ACC006|6=16.12|11=e607bd5d636b|14=3853|31=16.12|32=3853|37=9efa4afa275a|38=3853|39=2|54=1|55=ITUB4|60=20250630-14:30:00.336|150=F|453=1|448=TRADER185|452=36|10=133|
8=FIX.4.4|9=212|35=8|49=SISTEMA|52=20250630-14:30:00.336|56=DROPCOPY|1=ACC003|6=28.42|11=afd7103bf492|14=6202|31=28.42|32=6202|37=f9af70c5618e|38=6202|39=2|54=1|55=RADL3|60=20250630-14:30:00.336|150=F|453=1|448=TRADER462|452=36|10=003|
8=FIX.4.4|9=212|35=8|49=SISTEMA|52=20250630-14:30:00.336|56=DROPCOPY|1=ACC002|6=11.15|11=145b071b0b96|14=8478|31=11.15|32=8478|37=203d3259a424|38=8478|39=2|54=1|55=BBDC4|60=20250630-14:30:00.336|150=F|453=1|448=TRADER893|452=36|10=014|
8=FIX.4.4|9=212|35=8|49=SISTEMA|52=20250630-14:30:00.336|56=DROPCOPY|1=ACC006|6=19.17|11=e8dcc0da5078|14=1258|31=19.17|32=1258|37=7a73d8fa107a|38=1258|39=2|54=1|55=RADL3|60=20250630-14:30:00.336|150=F|453=1|448=TRADER817|452=36|10=072|
8=FIX.4.4|9=212|35=8|49=SISTEMA|52=20250630-14:30:00.336|56=DROPCOPY|1=ACC003|6=17.98|11=6237f625bf1d|14=4756|31=17.98|32=4756|37=b3f72058a017|38=4756|39=2|54=2|55=RENT3|60=20250630-14:30:00.336|150=F|453=1|448=TRADER959|452=36|10=193|
8=FIX.4.4|9=212|35=8|49=SISTEMA|52=20250630-14:30:00.336|56=DROPCOPY|1=ACC004|6=18.18|11=d0871b5c79d8|14=7344|31=18.18|32=7344|37=fd7f3cbcd489|38=7344|39=2|54=2|55=RADL3|60=20250630-14:30:00.336|150=F|453=1|448=TRADER365|452=36|10=098|
8=FIX.4.4|9=212|35=8|49=SISTEMA|52=20250630-14:30:00.336|56=DROPCOPY|1=ACC007|6=22.14|11=9ba5bd5b6da8|14=6027|31=22.14|32=6027|37=8eec6ca58733|38=6027|39=2|54=2|55=VALE3|60=20250630-14:30:00.336|150=F|453=1|448=TRADER935|452=36|10=119|
8=FIX.4.4|9=212|35=8|49=SISTEMA|52=20250630-14:30:00.347|56=DROPCOPY|1=ACC005|6=15.29|11=54521382900b|14=9641|31=15.29|32=9641|37=1a00716ae708|38=9641|39=2|54=2|55=SUZB3|60=20250630-14:30:00.347|150=F|453=1|448=TRADER880|452=36|10=023|
8=FIX.4.4|9=212|35=8|49=SISTEMA|52=20250630-14:30:00.347|56=DROPCOPY|1=ACC006|6=13.98|11=8351659aae10|14=6908|31=13.98|32=6908|37=698e3e881c18|38=6908|39=2|54=2|55=SUZB3|60=20250630-14:30:00.347|150=F|453=1|448=TRADER910|452=36|10=163|
8=FIX.4.4|9=212|35=8|49=SISTEMA|52=20250630-14:30:00.347|56=DROPCOPY|1=ACC002|6=17.71|11=1eaff6d1a85b|14=1679|31=17.71|32=1679|37=3156f857a430|38=1679|39=2|54=2|55=SUZB3|60=20250630-14:30:00.347|150=F|453=1|448=TRADER191|452=36|10=023|
8=FIX.4.4|9=212|35=8|49=SISTEMA|52=20250630-14:30:00.347|56=DROPCOPY|1=ACC004|6=19.36|11=39f774b9c291|14=2745|31=19.36|32=2745|37=d7759dc165f4|38=2745|39=2|54=2|55=ITUB4|60=20250630-14:30:00.347|150=F|453=1|448=TRADER584|452=36|10=195|
8=FIX.4.4|9=212|35=8|49=SISTEMA|52=20250630-14:30:00.347|56=DROPCOPY|1=ACC001|6=19.87|11=ad86d0345f07|14=3112|31=19.87|32=3112|37=4e555d10408d|38=3112|39=2|54=2|55=RENT3|60=20250630-14:30:00.347|150=F|453=1|448=TRADER369|452=36|10=146|
8=FIX.4.4|9=212|35=8|49=SISTEMA|52=20250630-14:30:00.347|56=DROPCOPY|1=ACC005|6=16.41|11=ce3baf8558a0|14=4674|31=16.41|32=4674|37=e52a2130bb99|38=4674|39=2|54=2|55=RADL3|60=20250630-14:30:00.347|150=F|453=1|448=TRADER844|452=36|10=025|
8=FIX.4.4|9=212|35=8|49=SISTEMA|52=20250630-14:30:00.347|56=DROPCOPY|1=ACC009|6=24.51|11=4a38ddcfc366|14=1780|31=24.51|32=1780|37=aae27439b8a5|38=1780|39=2|54=1|55=ITUB4|60=20250630-14:30:00.347|150=F|453=1|448=TRADER392|452=36|10=088|
8=FIX.4.4|9=212|35=8|49=SISTEMA|52=20250630-14:30:00.347|56=DROPCOPY|1=ACC007|6=10.54|11=1d8385098563|14=7045|31=10.54|32=7045|37=cf3f93d3bf0a|38=7045|39=2|54=2|55=ITUB4|60=20250630-14:30:00.347|150=F|453=1|448=TRADER597|452=36|10=209|
8=FIX.4.4|9=212|35=8|49=SISTEMA|52=20250630-14:30:00.347|56=DROPCOPY|1=ACC006|6=20.89|11=69ad8ffa7926|14=3219|31=20.89|32=3219|37=6d0de9ba790e|38=3219|39=2|54=1|55=WEGE3|60=20250630-14:30:00.347|150=F|453=1|448=TRADER156|452=36|10=099|
8=FIX.4.4|9=210|35=8|49=SISTEMA|52=20250630-14:30:00.347|56=DROPCOPY|1=ACC003|6=26.3|11=67a9cf37286f|14=8524|31=26.3|32=8524|37=cb3e81684b0e|38=8524|39=2|54=1|55=BBDC4|60=20250630-14:30:00.347|150=F|453=1|448=TRADER550|452=36|10=118|
8=FIX.4.4|9=212|35=8|49=SISTEMA|52=20250630-14:30:00.347|56=DROPCOPY|1=ACC002|6=17.92|11=1b27ce2725c5|14=4197|31=17.92|32=4197|37=acd7a7492799|38=4197|39=2|54=1|55=WEGE3|60=20250630-14:30:00.347|150=F|453=1|448=TRADER921|452=36|10=215|
8=FIX.4.4|9=212|35=8|49=SISTEMA|52=20250630-14:30:00.347|56=DROPCOPY|1=ACC006|6=12.11|11=ef2719c37a14|14=9520|31=12.11|32=9520|37=565a14a72de5|38=9520|39=2|54=2|55=ITUB4|60=20250630-14:30:00.347|150=F|453=1|448=TRADER514|452=36|10=176|
8=FIX.4.4|9=211|35=8|49=SISTEMA|52=20250630-14:30:00.347|56=DROPCOPY|1=ACC003|6=14.02|11=fa2046d7f870|14=4150|31=14.02|32=4150|37=33ac56a36a4c|38=4150|39=2|54=1|55=BBDC4|60=20250630-14:30:00.347|150=F|453=1|448=TRADER18|452=36|10=110|
8=FIX.4.4|9=212|35=8|49=SISTEMA|52=20250630-14:30:00.347|56=DROPCOPY|1=ACC006|6=14.01|11=eb2c8e064199|14=7645|31=14.01|32=7645|37=05a2b606dfd3|38=7645|39=2|54=1|55=RADL3|60=20250630-14:30:00.347|150=F|453=1|448=TRADER889|452=36|10=238|
8=FIX.4.4|9=211|35=8|49=SISTEMA|52=20250630-14:30:00.347|56=DROPCOPY|1=ACC010|6=15.74|11=968052f9adaa|14=7209|31=15.74|32=7209|37=ca88fd136022|38=7209|39=2|54=1|55=WEGE3|60=20250630-14:30:00.347|150=F|453=1|448=TRADER99|452=36|10=195|
8=FIX.4.4|9=212|35=8|49=SISTEMA|52=20250630-14:30:00.347|56=DROPCOPY|1=ACC003|6=17.37|11=7e4b8314ae57|14=1372|31=17.37|32=1372|37=d2114f0eb8b9|38=1372|39=2|54=2|55=RADL3|60=20250630-14:30:00.347|150=F|453=1|448=TRADER501|452=36|10=217|
8=FIX.4.4|9=212|35=8|49=SISTEMA|52=20250630-14:30:00.347|56=DROPCOPY|1=ACC008|6=14.45|11=14782885ec00|14=9698|31=14.45|32=9698|37=3cd2462045a4|38=9698|39=2|54=2|55=SUZB3|60=20250630-14:30:00.347|150=F|453=1|448=TRADER315|452=36|10=108|
8=FIX.4.4|9=212|35=8|49=SISTEMA|52=20250630-14:30:00.347|56=DROPCOPY|1=ACC002|6=11.87|11=2b1d6ad157f0|14=6311|31=11.87|32=6311|37=2020a9260244|38=6311|39=2|54=1|55=RADL3|60=20250630-14:30:00.347|150=F|453=1|448=TRADER209|452=36|10=043|
8=FIX.4.4|9=211|35=8|49=SISTEMA|52=20250630-14:30:00.347|56=DROPCOPY|1=ACC010|6=22.37|11=64d9bc319e9b|14=2760|31=22.37|32=2760|37=998112f4cfdd|38=2760|39=2|54=1|55=WEGE3|60=20250630-14:30:00.347|150=F|453=1|448=TRADER27|452=36|10=237|
8=FIX.4.4|9=212|35=8|49=SISTEMA|52=20250630-14:30:00.347|56=DROPCOPY|1=ACC009|6=11.74|11=bbb0e18e6f6f|14=5262|31=11.74|32=5262|37=8d9faef3d4c3|38=5262|39=2|54=2|55=VALE3|60=20250630-14:30:00.347|150=F|453=1|448=TRADER859|452=36|10=233|
8=FIX.4.4|9=212|35=8|49=SISTEMA|52=20250630-14:30:00.347|56=DROPCOPY|1=ACC005|6=14.78|11=2d0cea162133|14=5161|31=14.78|32=5161|37=c494c40801de|38=5161|39=2|54=1|55=RADL3|60=20250630-14:30:00.347|150=F|453=1|448=TRADER492|452=36|10=163|
8=FIX.4.4|9=212|35=8|49=SISTEMA|52=20250630-14:30:00.347|56=DROPCOPY|1=ACC006|6=26.07|11=753d4cd7ef3d|14=5343|31=26.07|32=5343|37=171471d9d73b|38=5343|39=2|54=1|55=RENT3|60=20250630-14:30:00.347|150=F|453=1|448=TRADER670|452=36|10=001|
8=FIX.4.4|9=206|35=8|49=SISTEMA|52=20250630-14:30:00.347|56=DROPCOPY|1=ACC008|6=18|11=2ed60834d7e4|14=2420|31=18|32=2420|37=835408acf8e8|38=2420|39=2|54=1|55=VALE3|60=20250630-14:30:00.347|150=F|453=1|448=TRADER610|452=36|10=136|
8=FIX.4.4|9=212|35=8|49=SISTEMA|52=20250630-14:30:00.347|56=DROPCOPY|1=ACC007|6=25.64|11=3f0d0a046f1c|14=8657|31=25.64|32=8657|37=2421515637e1|38=8657|39=2|54=1|55=SUZB3|60=20250630-14:30:00.347|150=F|453=1|448=TRADER469|452=36|10=139|
8=FIX.4.4|9=211|35=8|49=SISTEMA|52=20250630-14:30:00.347|56=DROPCOPY|1=ACC005|6=19.49|11=d7972be942fa|14=1735|31=19.49|32=1735|37=10bd7b197cdf|38=1735|39=2|54=1|55=VALE3|60=20250630-14:30:00.347|150=F|453=1|448=TRADER77|452=36|10=049|
8=FIX.4.4|9=212|35=8|49=SISTEMA|52=20250630-14:30:00.347|56=DROPCOPY|1=ACC008|6=23.99|11=6a6c07707361|14=8268|31=23.99|32=8268|37=3be529445a44|38=8268|39=2|54=2|55=BBDC4|60=20250630-14:30:00.347|150=F|453=1|448=TRADER970|452=36|10=059|
8=FIX.4.4|9=212|35=8|49=SISTEMA|52=20250630-14:30:00.347|56=DROPCOPY|1=ACC007|6=10.69|11=8eaa4bd20d27|14=5200|31=10.69|32=5200|37=6c2dbcc0bfc7|38=5200|39=2|54=1|55=BBAS3|60=20250630-14:30:00.347|150=F|453=1|448=TRADER876|452=36|10=171|
8=FIX.4.4|9=212|35=8|49=SISTEMA|52=20250630-14:30:00.351|56=DROPCOPY|1=ACC006|6=19.24|11=d5a11f82e6c0|14=4062|31=19.24|32=4062|37=4fbf709513d9|38=4062|39=2|54=2|55=PETR4|60=20250630-14:30:00.351|150=F|453=1|448=TRADER557|452=36|10=241|
8=FIX.4.4|9=212|35=8|49=SISTEMA|52=20250630-14:30:00.353|56=DROPCOPY|1=ACC004|6=20.03|11=177439976c19|14=5050|31=20.03|32=5050|37=ac8238ccafcd|38=5050|39=2|54=2|55=RADL3|60=20250630-14:30:00.353|150=F|453=1|448=TRADER953|452=36|10=203|
8=FIX.4.4|9=212|35=8|49=SISTEMA|52=20250630-14:30:00.353|56=DROPCOPY|1=ACC002|6=26.05|11=8979aa4ab002|14=9104|31=26.05|32=9104|37=34b93b6238ce|38=9104|39=2|54=1|55=BBDC4|60=20250630-14:30:00.353|150=F|453=1|448=TRADER134|452=36|10=131|
8=FIX.4.4|9=212|35=8|49=SISTEMA|52=20250630-14:30:00.353|56=DROPCOPY|1=ACC006|6=12.12|11=ceded70ea485|14=5774|31=12.12|32=5774|37=e183c6226fc0|38=5774|39=2|54=2|55=WEGE3|60=20250630-14:30:00.353|150=F|453=1|448=TRADER171|452=36|10=068|
8=FIX.4.4|9=212|35=8|49=SISTEMA|52=20250630-14:30:00.353|56=DROPCOPY|1=ACC008|6=24.92|11=8506717222ef|14=3646|31=24.92|32=3646|37=777b3ba2c7f8|38=3646|39=2|54=1|55=VALE3|60=20250630-14:30:00.353|150=F|453=1|448=TRADER690|452=36|10=159|
8=FIX.4.4|9=212|35=8|49=SISTEMA|52=20250630-14:30:00.353|56=DROPCOPY|1=ACC003|6=25.79|11=fd41b03075db|14=5394|31=25.79|32=5394|37=d6084227785f|38=5394|39=2|54=1|55=BBDC4|60=20250630-14:30:00.353|150=F|453=1|448=TRADER946|452=36|10=139|
8=FIX.4.4|9=212|35=8|49=SISTEMA|52=20250630-14:30:00.353|56=DROPCOPY|1=ACC003|6=24.79|11=5756af325345|14=6569|31=24.79|32=6569|37=0d407eb4155b|38=6569|39=2|54=1|55=SUZB3|60=20250630-14:30:00.353|150=F|453=1|448=TRADER516|452=36|10=147|
8=FIX.4.4|9=212|35=8|49=SISTEMA|52=20250630-14:30:00.353|56=DROPCOPY|1=ACC002|6=16.33|11=bbcecd1ef548|14=2321|31=16.33|32=2321|37=6b7109582426|38=2321|39=2|54=1|55=ABEV3|60=20250630-14:30:00.353|150=F|453=1|448=TRADER803|452=36|10=188|
8=FIX.4.4|9=212|35=8|49=SISTEMA|52=20250630-14:30:00.357|56=DROPCOPY|1=ACC003|6=18.53|11=8f402343797a|14=3414|31=18.53|32=3414|37=8196fc4636c0|38=3414|39=2|54=2|55=BBDC4|60=20250630-14:30:00.357|150=F|453=1|448=TRADER305|452=36|10=014|
8=FIX.4.4|9=212|35=8|49=SISTEMA|52=20250630-14:30:00.357|56=DROPCOPY|1=ACC007|6=17.03|11=e01848e5dc11|14=3713|31=17.03|32=3713|37=44ac9ea36b49|38=3713|39=2|54=1|55=BBDC4|60=20250630-14:30:00.357|150=F|453=1|448=TRADER874|452=36|10=201|
8=FIX.4.4|9=212|35=8|49=SISTEMA|52=20250630-14:30:00.357|56=DROPCOPY|1=ACC004|6=18.16|11=372323d57bd7|14=6782|31=18.16|32=6782|37=7d87ba8fa751|38=6782|39=2|54=1|55=RENT3|60=20250630-14:30:00.357|150=F|453=1|448=TRADER864|452=36|10=241|
8=FIX.4.4|9=212|35=8|49=SISTEMA|52=20250630-14:30:00.357|56=DROPCOPY|1=ACC002|6=23.25|11=695f8b658b6c|14=6747|31=23.25|32=6747|37=826440a1a422|38=6747|39=2|54=1|55=ITUB4|60=20250630-14:30:00.357|150=F|453=1|448=TRADER449|452=36|10=128|
8=FIX.4.4|9=212|35=8|49=SISTEMA|52=20250630-14:30:00.357|56=DROPCOPY|1=ACC004|6=21.66|11=25691aa62daf|14=7165|31=21.66|32=7165|37=903c68eee648|38=7165|39=2|54=2|55=RENT3|60=20250630-14:30:00.357|150=F|453=1|448=TRADER870|452=36|10=017|
8=FIX.4.4|9=212|35=8|49=SISTEMA|52=20250630-14:30:00.357|56=DROPCOPY|1=ACC007|6=25.41|11=c86953a41a33|14=6656|31=25.41|32=6656|37=7071ad95f9b6|38=6656|39=2|54=2|55=BBAS3|60=20250630-14:30:00.357|150=F|453=1|448=TRADER589|452=36|10=158|
8=FIX.4.4|9=210|35=8|49=SISTEMA|52=20250630-14:30:00.357|56=DROPCOPY|1=ACC009|6=13.6|11=c8d248eb2553|14=9686|31=13.6|32=9686|37=a0c2983998ab|38=9686|39=2|54=2|55=RADL3|60=20250630-14:30:00.357|150=F|453=1|448=TRADER719|452=36|10=132|
8=FIX.4.4|9=211|35=8|49=SISTEMA|52=20250630-14:30:00.357|56=DROPCOPY|1=ACC007|6=27.65|11=69b3832364d0|14=3658|31=27.65|32=3658|37=584e0d0523c6|38=3658|39=2|54=2|55=SUZB3|60=20250630-14:30:00.357|150=F|453=1|448=TRADER52|452=36|10=046|
8=FIX.4.4|9=212|35=8|49=SISTEMA|52=20250630-14:30:00.357|56=DROPCOPY|1=ACC010|6=25.81|11=4f807a4eec30|14=3423|31=25.81|32=3423|37=7dbd336209b0|38=3423|39=2|54=1|55=PETR4|60=20250630-14:30:00.357|150=F|453=1|448=TRADER856|452=36|10=239|
8=FIX.4.4|9=212|35=8|49=SISTEMA|52=20250630-14:30:00.357|56=DROPCOPY|1=ACC007|6=20.24|11=10e784d6d2d3|14=1231|31=20.24|32=1231|37=59675c60bee2|38=1231|39=2|54=2|55=VALE3|60=20250630-14:30:00.357|150=F|453=1|448=TRADER968|452=36|10=166|
8=FIX.4.4|9=209|35=8|49=SISTEMA|52=20250630-14:30:00.357|56=DROPCOPY|1=ACC009|6=29.8|11=4be95f9a95f3|14=5639|31=29.8|32=5639|37=f53acc42919c|38=5639|39=2|54=1|55=BBAS3|60=20250630-14:30:00.357|150=F|453=1|448=TRADER60|452=36|10=172|
8=FIX.4.4|9=212|35=8|49=SISTEMA|52=20250630-14:30:00.357|56=DROPCOPY|1=ACC007|6=23.62|11=ff9257ddc861|14=8205|31=23.62|32=8205|37=7be7d566cde6|38=8205|39=2|54=1|55=ABEV3|60=20250630-14:30:00.357|150=F|453=1|448=TRADER583|452=36|10=088|
8=FIX.4.4|9=212|35=8|49=SISTEMA|52=20250630-14:30:00.359|56=DROPCOPY|1=ACC008|6=15.97|11=19f4e6d188fd|14=5708|31=15.97|32=5708|37=9f041d716e10|38=5708|39=2|54=2|55=WEGE3|60=20250630-14:30:00.359|150=F|453=1|448=TRADER229|452=36|10=231|
8=FIX.4.4|9=212|35=8|49=SISTEMA|52=20250630-14:30:00.359|56=DROPCOPY|1=ACC001|6=12.55|11=cf0b0b721544|14=9565|31=12.55|32=9565|37=2d7781793a71|38=9565|39=2|54=2|55=BBDC4|60=20250630-14:30:00.359|150=F|453=1|448=TRADER488|452=36|10=091|
8=FIX.4.4|9=212|35=8|49=SISTEMA|52=20250630-14:30:00.359|56=DROPCOPY|1=ACC007|6=20.81|11=fd0b3f08245e|14=3425|31=20.81|32=3425|37=0790c8d2e527|38=3425|39=2|54=2|55=ABEV3|60=20250630-14:30:00.359|150=F|453=1|448=TRADER153|452=36|10=167|
8=FIX.4.4|9=210|35=8|49=SISTEMA|52=20250630-14:30:00.359|56=DROPCOPY|1=ACC005|6=23.7|11=87afef724563|14=4977|31=23.7|32=4977|37=715880aee813|38=4977|39=2|54=2|55=SUZB3|60=20250630-14:30:00.359|150=F|453=1|448=TRADER577|452=36|10=123|
8=FIX.4.4|9=211|35=8|49=SISTEMA|52=20250630-14:30:00.359|56=DROPCOPY|1=ACC006|6=10.29|11=2af91a0c52d2|14=5200|31=10.29|32=5200|37=507e42d097ae|38=5200|39=2|54=1|55=PETR4|60=20250630-14:30:00.359|150=F|453=1|448=TRADER55|452=36|10=164|
8=FIX.4.4|9=212|35=8|49=SISTEMA|52=20250630-14:30:00.359|56=DROPCOPY|1=ACC005|6=11.44|11=8d331af492df|14=3439|31=11.44|32=3439|37=857ddee2d486|38=3439|39=2|54=1|55=RENT3|60=20250630-14:30:00.359|150=F|453=1|448=TRADER929|452=36|10=071|
8=FIX.4.4|9=212|35=8|49=SISTEMA|52=20250630-14:30:00.360|56=DROPCOPY|1=ACC007|6=17.34|11=fde16157c45b|14=7329|31=17.34|32=7329|37=77e2ee5acd9a|38=7329|39=2|54=2|55=PETR4|60=20250630-14:30:00.360|150=F|453=1|448=TRADER995|452=36|10=166|
8=FIX.4.4|9=212|35=8|49=SISTEMA|52=20250630-14:30:00.360|56=DROPCOPY|1=ACC002|6=13.13|11=872a1f6e0a21|14=8400|31=13.13|32=8400|37=f683f9b96e29|38=8400|39=2|54=1|55=BBAS3|60=20250630-14:30:00.360|150=F|453=1|448=TRADER678|452=36|10=153|
8=FIX.4.4|9=212|35=8|49=SISTEMA|52=20250630-14:30:00.360|56=DROPCOPY|1=ACC005|6=22.73|11=d7daa1bdb1fd|14=4997|31=22.73|32=4997|37=9929b5ae6199|38=4997|39=2|54=2|55=VALE3|60=20250630-14:30:00.360|150=F|453=1|448=TRADER418|452=36|10=157|
8=FIX.4.4|9=212|35=8|49=SISTEMA|52=20250630-14:30:00.360|56=DROPCOPY|1=ACC005|6=23.15|11=b42ee9f4078c|14=8399|31=23.15|32=8399|37=c89be785847c|38=8399|39=2|54=1|55=PETR4|60=20250630-14:30:00.360|150=F|453=1|448=TRADER324|452=36|10=042|
8=FIX.4.4|9=212|35=8|49=SISTEMA|52=20250630-14:30:00.360|56=DROPCOPY|1=ACC005|6=12.73|11=2cfc54f494ae|14=4228|31=12.73|32=4228|37=e0d34f3cbca9|38=4228|39=2|54=1|55=BBAS3|60=20250630-14:30:00.360|150=F|453=1|448=TRADER321|452=36|10=131|
8=FIX.4.4|9=210|35=8|49=SISTEMA|52=20250630-14:30:00.360|56=DROPCOPY|1=ACC007|6=23.5|11=3f73b07ae9ce|14=1673|31=23.5|32=1673|37=1b883c4abd98|38=1673|39=2|54=1|55=BBDC4|60=20250630-14:30:00.360|150=F|453=1|448=TRADER111|452=36|10=186|
8=FIX.4.4|9=212|35=8|49=SISTEMA|52=20250630-14:30:00.360|56=DROPCOPY|1=ACC003|6=15.71|11=86ba168d9961|14=8868|31=15.71|32=8868|37=86e836d405d5|38=8868|39=2|54=1|55=SUZB3|60=20250630-14:30:00.360|150=F|453=1|448=TRADER762|452=36|10=170|
8=FIX.4.4|9=210|35=8|49=SISTEMA|52=20250630-14:30:00.360|56=DROPCOPY|1=ACC007|6=18.6|11=313d13511134|14=6495|31=18.6|32=6495|37=89627ea949b2|38=6495|39=2|54=1|55=SUZB3|60=20250630-14:30:00.360|150=F|453=1|448=TRADER793|452=36|10=199|
8=FIX.4.4|9=206|35=8|49=SISTEMA|52=20250630-14:30:00.360|56=DROPCOPY|1=ACC008|6=13|11=7e7782b396fa|14=2054|31=13|32=2054|37=2741b62f8455|38=2054|39=2|54=2|55=PETR4|60=20250630-14:30:00.360|150=F|453=1|448=TRADER399|452=36|10=068|
8=FIX.4.4|9=212|35=8|49=SISTEMA|52=20250630-14:30:00.360|56=DROPCOPY|1=ACC004|6=16.66|11=87a9d6ce9ef5|14=9131|31=16.66|32=9131|37=51b94fce9266|38=9131|39=2|54=1|55=WEGE3|60=20250630-14:30:00.360|150=F|453=1|448=TRADER920|452=36|10=044|
8=FIX.4.4|9=212|35=8|49=SISTEMA|52=20250630-14:30:00.360|56=DROPCOPY|1=ACC009|6=28.37|11=23e5a4a0a6c0|14=5747|31=28.37|32=5747|37=26b5d8ed8632|38=5747|39=2|54=2|55=RADL3|60=20250630-14:30:00.360|150=F|453=1|448=TRADER344|452=36|10=242|
8=FIX.4.4|9=212|35=8|49=SISTEMA|52=20250630-14:30:00.360|56=DROPCOPY|1=ACC010|6=12.13|11=11d0851d3d07|14=7669|31=12.13|32=7669|37=dffcdb8c29f0|38=7669|39=2|54=1|55=PETR4|60=20250630-14:30:00.360|150=F|453=1|448=TRADER762|452=36|10=096|
8=FIX.4.4|9=212|35=8|49=SISTEMA|52=20250630-14:30:00.360|56=DROPCOPY|1=ACC003|6=14.85|11=ab9d4a91a193|14=4364|31=14.85|32=4364|37=61deff753df2|38=4364|39=2|54=1|55=VALE3|60=20250630-14:30:00.360|150=F|453=1|448=TRADER896|452=36|10=084|
8=FIX.4.4|9=212|35=8|49=SISTEMA|52=20250630-14:30:00.360|56=DROPCOPY|1=ACC004|6=20.93|11=475318dfdc39|14=1118|31=20.93|32=1118|37=3cbf15268e50|38=1118|39=2|54=2|55=ITUB4|60=20250630-14:30:00.360|150=F|453=1|448=TRADER954|452=36|10=183|
8=FIX.4.4|9=212|35=8|49=SISTEMA|52=20250630-14:30:00.360|56=DROPCOPY|1=ACC004|6=24.43|11=348399992589|14=3704|31=24.43|32=3704|37=b7aedc2176c9|38=3704|39=2|54=2|55=RADL3|60=20250630-14:30:00.360|150=F|453=1|448=TRADER692|452=36|10=100|
